{"contracts/.deps/remix-tests/remix_accounts.sol":{"TestsAccounts":{"abi":[{"inputs":[{"internalType":"uint256","name":"index","type":"uint256"}],"name":"getAccount","outputs":[{"internalType":"address","name":"","type":"address"}],"stateMutability":"pure","type":"function"}],"evm":{"bytecode":{"linkReferences":{},"object":"61016b610052600b82828239805160001a6073146045577f4e487b7100000000000000000000000000000000000000000000000000000000600052600060045260246000fd5b30600052607381538281f3fe73000000000000000000000000000000000000000030146080604052600436106100355760003560e01c8063ce88b1451461003a575b600080fd5b610054600480360381019061004f91906100ac565b61006a565b604051610061919061011a565b60405180910390f35b6000919050565b600080fd5b6000819050919050565b61008981610076565b811461009457600080fd5b50565b6000813590506100a681610080565b92915050565b6000602082840312156100c2576100c1610071565b5b60006100d084828501610097565b91505092915050565b600073ffffffffffffffffffffffffffffffffffffffff82169050919050565b6000610104826100d9565b9050919050565b610114816100f9565b82525050565b600060208201905061012f600083018461010b565b9291505056fea2646970667358221220a6b29cb93436de6182451a8354a3b9f9986b6f5eb2e823570f9fa6e96b96e09264736f6c634300081c0033","opcodes":"PUSH2 0x16B PUSH2 0x52 PUSH1 0xB DUP3 DUP3 DUP3 CODECOPY DUP1 MLOAD PUSH1 0x0 BYTE PUSH1 0x73 EQ PUSH1 0x45 JUMPI PUSH32 0x4E487B7100000000000000000000000000000000000000000000000000000000 PUSH1 0x0 MSTORE PUSH1 0x0 PUSH1 0x4 MSTORE PUSH1 0x24 PUSH1 0x0 REVERT JUMPDEST ADDRESS PUSH1 0x0 MSTORE PUSH1 0x73 DUP2 MSTORE8 DUP3 DUP2 RETURN INVALID PUSH20 0x0 ADDRESS EQ PUSH1 0x80 PUSH1 0x40 MSTORE PUSH1 0x4 CALLDATASIZE LT PUSH2 0x35 JUMPI PUSH1 0x0 CALLDATALOAD PUSH1 0xE0 SHR DUP1 PUSH4 0xCE88B145 EQ PUSH2 0x3A JUMPI JUMPDEST PUSH1 0x0 DUP1 REVERT JUMPDEST PUSH2 0x54 PUSH1 0x4 DUP1 CALLDATASIZE SUB DUP2 ADD SWAP1 PUSH2 0x4F SWAP2 SWAP1 PUSH2 0xAC JUMP JUMPDEST PUSH2 0x6A JUMP JUMPDEST PUSH1 0x40 MLOAD PUSH2 0x61 SWAP2 SWAP1 PUSH2 0x11A JUMP JUMPDEST PUSH1 0x40 MLOAD DUP1 SWAP2 SUB SWAP1 RETURN JUMPDEST PUSH1 0x0 SWAP2 SWAP1 POP JUMP JUMPDEST PUSH1 0x0 DUP1 REVERT JUMPDEST PUSH1 0x0 DUP2 SWAP1 POP SWAP2 SWAP1 POP JUMP JUMPDEST PUSH2 0x89 DUP2 PUSH2 0x76 JUMP JUMPDEST DUP2 EQ PUSH2 0x94 JUMPI PUSH1 0x0 DUP1 REVERT JUMPDEST POP JUMP JUMPDEST PUSH1 0x0 DUP2 CALLDATALOAD SWAP1 POP PUSH2 0xA6 DUP2 PUSH2 0x80 JUMP JUMPDEST SWAP3 SWAP2 POP POP JUMP JUMPDEST PUSH1 0x0 PUSH1 0x20 DUP3 DUP5 SUB SLT ISZERO PUSH2 0xC2 JUMPI PUSH2 0xC1 PUSH2 0x71 JUMP JUMPDEST JUMPDEST PUSH1 0x0 PUSH2 0xD0 DUP5 DUP3 DUP6 ADD PUSH2 0x97 JUMP JUMPDEST SWAP2 POP POP SWAP3 SWAP2 POP POP JUMP JUMPDEST PUSH1 0x0 PUSH20 0xFFFFFFFFFFFFFFFFFFFFFFFFFFFFFFFFFFFFFFFF DUP3 AND SWAP1 POP SWAP2 SWAP1 POP JUMP JUMPDEST PUSH1 0x0 PUSH2 0x104 DUP3 PUSH2 0xD9 JUMP JUMPDEST SWAP1 POP SWAP2 SWAP1 POP JUMP JUMPDEST PUSH2 0x114 DUP2 PUSH2 0xF9 JUMP JUMPDEST DUP3 MSTORE POP POP JUMP JUMPDEST PUSH1 0x0 PUSH1 0x20 DUP3 ADD SWAP1 POP PUSH2 0x12F PUSH1 0x0 DUP4 ADD DUP5 PUSH2 0x10B JUMP JUMPDEST SWAP3 SWAP2 POP POP JUMP INVALID LOG2 PUSH5 0x6970667358 0x22 SLT KECCAK256 0xA6 0xB2 SWAP13 0xB9 CALLVALUE CALLDATASIZE 0xDE PUSH2 0x8245 BYTE DUP4 SLOAD LOG3 0xB9 0xF9 SWAP9 PUSH12 0x6F5EB2E823570F9FA6E96B96 0xE0 SWAP3 PUSH5 0x736F6C6343 STOP ADDMOD SHR STOP CALLER "},"methodIdentifiers":{"getAccount(uint256)":"ce88b145"}}}}}