{"contracts/FoodExpiryTracker.sol":{"ProductExpiry":{"abi":[{"inputs":[{"internalType":"string","name":"_name","type":"string"},{"internalType":"string","name":"_category","type":"string"},{"internalType":"string","name":"_manufactureDate","type":"string"},{"internalType":"string","name":"_expiryDate","type":"string"}],"name":"addProduct","outputs":[{"internalType":"uint256","name":"","type":"uint256"}],"stateMutability":"nonpayable","type":"function"},{"inputs":[{"internalType":"uint256","name":"_productId","type":"uint256"}],"name":"deleteProduct","outputs":[],"stateMutability":"nonpayable","type":"function"},{"inputs":[],"name":"getAllProducts","outputs":[{"internalType":"uint256[]","name":"","type":"uint256[]"}],"stateMutability":"view","type":"function"},{"inputs":[{"internalType":"uint256","name":"_productId","type":"uint256"}],"name":"getExpiryTimestamp","outputs":[{"internalType":"uint256","name":"","type":"uint256"}],"stateMutability":"view","type":"function"},{"inputs":[],"name":"nextProductId","outputs":[{"internalType":"uint256","name":"","type":"uint256"}],"stateMutability":"view","type":"function"},{"inputs":[{"internalType":"uint256","name":"","type":"uint256"}],"name":"productIds","outputs":[{"internalType":"uint256","name":"","type":"uint256"}],"stateMutability":"view","type":"function"},{"inputs":[{"internalType":"uint256","name":"","type":"uint256"}],"name":"products","outputs":[{"internalType":"uint256","name":"productId","type":"uint256"},{"internalType":"string","name":"name","type":"string"},{"internalType":"string","name":"category","type":"string"},{"internalType":"string","name":"manufactureDate","type":"string"},{"internalType":"string","name":"expiryDate","type":"string"},{"internalType":"address","name":"manufacturer","type":"address"},{"internalType":"bool","name":"isActive","type":"bool"}],"stateMutability":"view","type":"function"},{"inputs":[{"internalType":"uint256","name":"_productId","type":"uint256"}],"name":"verifyProduct","outputs":[{"internalType":"string","name":"status","type":"string"},{"internalType":"int256","name":"daysLeft","type":"int256"}],"stateMutability":"view","type":"function"}],"evm":{"bytecode":{"linkReferences":{},"object":"60806040526001600255348015601457600080fd5b506121bf806100246000396000f3fe608060405234801561001057600080fd5b50600436106100885760003560e01c80637acc0b201161005b5780637acc0b201461012a578063cb51bba914610160578063ed90c7b714610190578063fde74e81146101ac57610088565b806302ee3a521461008d57806342692c0f146100ab5780634de91a63146100db578063524e8462146100f9575b600080fd5b6100956101dc565b6040516100a2919061150b565b60405180910390f35b6100c560048036038101906100c0919061156d565b610234565b6040516100d291906115a9565b60405180910390f35b6100e3610669565b6040516100f091906115a9565b60405180910390f35b610113600480360381019061010e919061156d565b61066f565b60405161012192919061166d565b60405180910390f35b610144600480360381019061013f919061156d565b610a92565b60405161015797969594939291906116f9565b60405180910390f35b61017a6004803603810190610175919061156d565b610d21565b60405161018791906115a9565b60405180910390f35b6101aa60048036038101906101a5919061156d565b610d45565b005b6101c660048036038101906101c191906118b9565b610e7b565b6040516101d391906115a9565b60405180910390f35b6060600180548060200260200160405190810160405280929190818152602001828054801561022a57602002820191906000526020600020905b815481526020019060010190808311610216575b5050505050905090565b6000806000808481526020019081526020016000206040518060e00160405290816000820154815260200160018201805461026e906119bf565b80601f016020809104026020016040519081016040528092919081815260200182805461029a906119bf565b80156102e75780601f106102bc576101008083540402835291602001916102e7565b820191906000526020600020905b8154815290600101906020018083116102ca57829003601f168201915b50505050508152602001600282018054610300906119bf565b80601f016020809104026020016040519081016040528092919081815260200182805461032c906119bf565b80156103795780601f1061034e57610100808354040283529160200191610379565b820191906000526020600020905b81548152906001019060200180831161035c57829003601f168201915b50505050508152602001600382018054610392906119bf565b80601f01602080910402602001604051908101604052809291908181526020018280546103be906119bf565b801561040b5780601f106103e05761010080835404028352916020019161040b565b820191906000526020600020905b8154815290600101906020018083116103ee57829003601f168201915b50505050508152602001600482018054610424906119bf565b80601f0160208091040260200160405190810160405280929190818152602001828054610450906119bf565b801561049d5780601f106104725761010080835404028352916020019161049d565b820191906000526020600020905b81548152906001019060200180831161048057829003601f168201915b505050505081526020016005820160009054906101000a900473ffffffffffffffffffffffffffffffffffffffff1673ffffffffffffffffffffffffffffffffffffffff1673ffffffffffffffffffffffffffffffffffffffff1681526020016005820160149054906101000a900460ff161515151581525050905060008160800151905060006105a88260008151811061053b5761053a6119f0565b5b602001015160f81c60f81b8360018151811061055a576105596119f0565b5b602001015160f81c60f81b84600281518110610579576105786119f0565b5b602001015160f81c60f81b85600381518110610598576105976119f0565b5b602001015160f81c60f81b611082565b905060006105f2836005815181106105c3576105c26119f0565b5b602001015160f81c60f81b846006815181106105e2576105e16119f0565b5b602001015160f81c60f81b61111d565b9050600061063c8460088151811061060d5761060c6119f0565b5b602001015160f81c60f81b8560098151811061062c5761062b6119f0565b5b602001015160f81c60f81b61111d565b9050600061064b848484611160565b9050620151808161065c9190611a4e565b9650505050505050919050565b60025481565b60606000806000808581526020019081526020016000206040518060e0016040529081600082015481526020016001820180546106ab906119bf565b80601f01602080910402602001604051908101604052809291908181526020018280546106d7906119bf565b80156107245780601f106106f957610100808354040283529160200191610724565b820191906000526020600020905b81548152906001019060200180831161070757829003601f168201915b5050505050815260200160028201805461073d906119bf565b80601f0160208091040260200160405190810160405280929190818152602001828054610769906119bf565b80156107b65780601f1061078b576101008083540402835291602001916107b6565b820191906000526020600020905b81548152906001019060200180831161079957829003601f168201915b505050505081526020016003820180546107cf906119bf565b80601f01602080910402602001604051908101604052809291908181526020018280546107fb906119bf565b80156108485780601f1061081d57610100808354040283529160200191610848565b820191906000526020600020905b81548152906001019060200180831161082b57829003601f168201915b50505050508152602001600482018054610861906119bf565b80601f016020809104026020016040519081016040528092919081815260200182805461088d906119bf565b80156108da5780601f106108af576101008083540402835291602001916108da565b820191906000526020600020905b8154815290600101906020018083116108bd57829003601f168201915b505050505081526020016005820160009054906101000a900473ffffffffffffffffffffffffffffffffffffffff1673ffffffffffffffffffffffffffffffffffffffff1673ffffffffffffffffffffffffffffffffffffffff1681526020016005820160149054906101000a900460ff16151515158152505090508060c001516109a25760006040518060400160405280601181526020017f50726f64756374206e6f7420666f756e64000000000000000000000000000000815250909250925050610a8d565b6000806109b28360800151611285565b9150915081610a005760006040518060400160405280601581526020017f496e76616c69642065787069727920666f726d617400000000000000000000008152509094509450505050610a8d565b6000811215610a4d57806040518060400160405280600f81526020017f50726f64756374206578706972656400000000000000000000000000000000008152509094509450505050610a8d565b806040518060400160405280600d81526020017f50726f647563742076616c69640000000000000000000000000000000000000081525090945094505050505b915091565b6000602052806000526040600020600091509050806000015490806001018054610abb906119bf565b80601f0160208091040260200160405190810160405280929190818152602001828054610ae7906119bf565b8015610b345780601f10610b0957610100808354040283529160200191610b34565b820191906000526020600020905b815481529060010190602001808311610b1757829003601f168201915b505050505090806002018054610b49906119bf565b80601f0160208091040260200160405190810160405280929190818152602001828054610b75906119bf565b8015610bc25780601f10610b9757610100808354040283529160200191610bc2565b820191906000526020600020905b815481529060010190602001808311610ba557829003601f168201915b505050505090806003018054610bd7906119bf565b80601f0160208091040260200160405190810160405280929190818152602001828054610c03906119bf565b8015610c505780601f10610c2557610100808354040283529160200191610c50565b820191906000526020600020905b815481529060010190602001808311610c3357829003601f168201915b505050505090806004018054610c65906119bf565b80601f0160208091040260200160405190810160405280929190818152602001828054610c91906119bf565b8015610cde5780601f10610cb357610100808354040283529160200191610cde565b820191906000526020600020905b815481529060010190602001808311610cc157829003601f168201915b5050505050908060050160009054906101000a900473ffffffffffffffffffffffffffffffffffffffff16908060050160149054906101000a900460ff16905087565b60018181548110610d3157600080fd5b906000526020600020016000915090505481565b60008082815260200190815260200160002060050160149054906101000a900460ff16610da7576040517f08c379a0000000000000000000000000000000000000000000000000000000008152600401610d9e90611b12565b60405180910390fd5b3373ffffffffffffffffffffffffffffffffffffffff1660008083815260200190815260200160002060050160009054906101000a900473ffffffffffffffffffffffffffffffffffffffff1673ffffffffffffffffffffffffffffffffffffffff1614610e4a576040517f08c379a0000000000000000000000000000000000000000000000000000000008152600401610e4190611b7e565b60405180910390fd5b600080600083815260200190815260200160002060050160146101000a81548160ff02191690831515021790555050565b600080855111610ec0576040517f08c379a0000000000000000000000000000000000000000000000000000000008152600401610eb790611bea565b60405180910390fd5b6000825111610f04576040517f08c379a0000000000000000000000000000000000000000000000000000000008152600401610efb90611c56565b60405180910390fd5b600060025490506040518060e001604052808281526020018781526020018681526020018581526020018481526020013373ffffffffffffffffffffffffffffffffffffffff16815260200160011515815250600080838152602001908152602001600020600082015181600001556020820151816001019081610f889190611e22565b506040820151816002019081610f9e9190611e22565b506060820151816003019081610fb49190611e22565b506080820151816004019081610fca9190611e22565b5060a08201518160050160006101000a81548173ffffffffffffffffffffffffffffffffffffffff021916908373ffffffffffffffffffffffffffffffffffffffff16021790555060c08201518160050160146101000a81548160ff02191690831515021790555090505060018190806001815401808255809150506001900390600052602060002001600090919091909150556002600081548092919061107190611ef4565b919050555080915050949350505050565b600060308260f81c6110949190611f49565b60000b600a60308560f81c6110a99190611f49565b60000b6110b69190611a4e565b606460308760f81c6110c89190611f49565b60000b6110d59190611a4e565b6103e860308960f81c6110e89190611f49565b60000b6110f59190611a4e565b6110ff9190611fa2565b6111099190611fa2565b6111139190611fa2565b9050949350505050565b600060308260f81c61112f9190611f49565b600a60308560f81c6111419190611f49565b61114b9190611fe6565b6111559190612023565b60000b905092915050565b6000600383121561118a57600184611178919061207c565b9350600c836111879190611fa2565b92505b60006101908561119a91906120ee565b90506000610190826111ac9190611a4e565b866111b7919061207c565b905060006001856005600260038a6111cf919061207c565b60996111db9190611a4e565b6111e59190611fa2565b6111ef91906120ee565b6111f99190611fa2565b611203919061207c565b905060008160648461121591906120ee565b60048561122291906120ee565b61016d866112309190611a4e565b61123a9190611fa2565b611244919061207c565b61124e9190611fa2565b9050620afa6c8162023ab1866112649190611a4e565b61126e9190611fa2565b611278919061207c565b9450505050509392505050565b6000806000839050600a8151146112a3576000809250925050611426565b6000611329826000815181106112bc576112bb6119f0565b5b602001015160f81c60f81b836001815181106112db576112da6119f0565b5b602001015160f81c60f81b846002815181106112fa576112f96119f0565b5b602001015160f81c60f81b85600381518110611319576113186119f0565b5b602001015160f81c60f81b611082565b9050600061137383600581518110611344576113436119f0565b5b602001015160f81c60f81b84600681518110611363576113626119f0565b5b602001015160f81c60f81b61111d565b905060006113bd8460088151811061138e5761138d6119f0565b5b602001015160f81c60f81b856009815181106113ad576113ac6119f0565b5b602001015160f81c60f81b61111d565b90506000831315806113d0575060008213155b806113dc575060008113155b156113f1576000809550955050505050611426565b60006113fe848484611160565b9050600061140b4261142b565b90506001818361141b919061207c565b975097505050505050505b915091565b6000620151808261143c9190612158565b9050919050565b600081519050919050565b600082825260208201905092915050565b6000819050602082019050919050565b6000819050919050565b6114828161146f565b82525050565b60006114948383611479565b60208301905092915050565b6000602082019050919050565b60006114b882611443565b6114c2818561144e565b93506114cd8361145f565b8060005b838110156114fe5781516114e58882611488565b97506114f0836114a0565b9250506001810190506114d1565b5085935050505092915050565b6000602082019050818103600083015261152581846114ad565b905092915050565b6000604051905090565b600080fd5b600080fd5b61154a8161146f565b811461155557600080fd5b50565b60008135905061156781611541565b92915050565b60006020828403121561158357611582611537565b5b600061159184828501611558565b91505092915050565b6115a38161146f565b82525050565b60006020820190506115be600083018461159a565b92915050565b600081519050919050565b600082825260208201905092915050565b60005b838110156115fe5780820151818401526020810190506115e3565b60008484015250505050565b6000601f19601f8301169050919050565b6000611626826115c4565b61163081856115cf565b93506116408185602086016115e0565b6116498161160a565b840191505092915050565b6000819050919050565b61166781611654565b82525050565b60006040820190508181036000830152611687818561161b565b9050611696602083018461165e565b9392505050565b600073ffffffffffffffffffffffffffffffffffffffff82169050919050565b60006116c88261169d565b9050919050565b6116d8816116bd565b82525050565b60008115159050919050565b6116f3816116de565b82525050565b600060e08201905061170e600083018a61159a565b8181036020830152611720818961161b565b90508181036040830152611734818861161b565b90508181036060830152611748818761161b565b9050818103608083015261175c818661161b565b905061176b60a08301856116cf565b61177860c08301846116ea565b98975050505050505050565b600080fd5b600080fd5b7f4e487b7100000000000000000000000000000000000000000000000000000000600052604160045260246000fd5b6117c68261160a565b810181811067ffffffffffffffff821117156117e5576117e461178e565b5b80604052505050565b60006117f861152d565b905061180482826117bd565b919050565b600067ffffffffffffffff8211156118245761182361178e565b5b61182d8261160a565b9050602081019050919050565b82818337600083830152505050565b600061185c61185784611809565b6117ee565b90508281526020810184848401111561187857611877611789565b5b61188384828561183a565b509392505050565b600082601f8301126118a05761189f611784565b5b81356118b0848260208601611849565b91505092915050565b600080600080608085870312156118d3576118d2611537565b5b600085013567ffffffffffffffff8111156118f1576118f061153c565b5b6118fd8782880161188b565b945050602085013567ffffffffffffffff81111561191e5761191d61153c565b5b61192a8782880161188b565b935050604085013567ffffffffffffffff81111561194b5761194a61153c565b5b6119578782880161188b565b925050606085013567ffffffffffffffff8111156119785761197761153c565b5b6119848782880161188b565b91505092959194509250565b7f4e487b7100000000000000000000000000000000000000000000000000000000600052602260045260246000fd5b600060028204905060018216806119d757607f821691505b6020821081036119ea576119e9611990565b5b50919050565b7f4e487b7100000000000000000000000000000000000000000000000000000000600052603260045260246000fd5b7f4e487b7100000000000000000000000000000000000000000000000000000000600052601160045260246000fd5b6000611a5982611654565b9150611a6483611654565b9250828202611a7281611654565b91507f80000000000000000000000000000000000000000000000000000000000000008414600084121615611aaa57611aa9611a1f565b5b8282058414831517611abf57611abe611a1f565b5b5092915050565b7f50726f64756374206e6f7420666f756e64000000000000000000000000000000600082015250565b6000611afc6011836115cf565b9150611b0782611ac6565b602082019050919050565b60006020820190508181036000830152611b2b81611aef565b9050919050565b7f4e6f7420617574686f72697a6564000000000000000000000000000000000000600082015250565b6000611b68600e836115cf565b9150611b7382611b32565b602082019050919050565b60006020820190508181036000830152611b9781611b5b565b9050919050565b7f4e616d6520726571756972656400000000000000000000000000000000000000600082015250565b6000611bd4600d836115cf565b9150611bdf82611b9e565b602082019050919050565b60006020820190508181036000830152611c0381611bc7565b9050919050565b7f4578706972792072657175697265640000000000000000000000000000000000600082015250565b6000611c40600f836115cf565b9150611c4b82611c0a565b602082019050919050565b60006020820190508181036000830152611c6f81611c33565b9050919050565b60008190508160005260206000209050919050565b60006020601f8301049050919050565b600082821b905092915050565b600060088302611cd87fffffffffffffffffffffffffffffffffffffffffffffffffffffffffffffffff82611c9b565b611ce28683611c9b565b95508019841693508086168417925050509392505050565b6000819050919050565b6000611d1f611d1a611d158461146f565b611cfa565b61146f565b9050919050565b6000819050919050565b611d3983611d04565b611d4d611d4582611d26565b848454611ca8565b825550505050565b600090565b611d62611d55565b611d6d818484611d30565b505050565b5b81811015611d9157611d86600082611d5a565b600181019050611d73565b5050565b601f821115611dd657611da781611c76565b611db084611c8b565b81016020851015611dbf578190505b611dd3611dcb85611c8b565b830182611d72565b50505b505050565b600082821c905092915050565b6000611df960001984600802611ddb565b1980831691505092915050565b6000611e128383611de8565b9150826002028217905092915050565b611e2b826115c4565b67ffffffffffffffff811115611e4457611e4361178e565b5b611e4e82546119bf565b611e59828285611d95565b600060209050601f831160018114611e8c5760008415611e7a578287015190505b611e848582611e06565b865550611eec565b601f198416611e9a86611c76565b60005b82811015611ec257848901518255600182019150602085019450602081019050611e9d565b86831015611edf5784890151611edb601f891682611de8565b8355505b6001600288020188555050505b505050505050565b6000611eff8261146f565b91507fffffffffffffffffffffffffffffffffffffffffffffffffffffffffffffffff8203611f3157611f30611a1f565b5b600182019050919050565b60008160000b9050919050565b6000611f5482611f3c565b9150611f5f83611f3c565b92508282039050607f81137fffffffffffffffffffffffffffffffffffffffffffffffffffffffffffffff8082121715611f9c57611f9b611a1f565b5b92915050565b6000611fad82611654565b9150611fb883611654565b925082820190508281121560008312168382126000841215161715611fe057611fdf611a1f565b5b92915050565b6000611ff182611f3c565b9150611ffc83611f3c565b925082820261200a81611f3c565b915080821461201c5761201b611a1f565b5b5092915050565b600061202e82611f3c565b915061203983611f3c565b925082820190507fffffffffffffffffffffffffffffffffffffffffffffffffffffffffffffff808112607f8213171561207657612075611a1f565b5b92915050565b600061208782611654565b915061209283611654565b92508282039050818112600084121682821360008512151617156120b9576120b8611a1f565b5b92915050565b7f4e487b7100000000000000000000000000000000000000000000000000000000600052601260045260246000fd5b60006120f982611654565b915061210483611654565b925082612114576121136120bf565b5b600160000383147f80000000000000000000000000000000000000000000000000000000000000008314161561214d5761214c611a1f565b5b828205905092915050565b60006121638261146f565b915061216e8361146f565b92508261217e5761217d6120bf565b5b82820490509291505056fea2646970667358221220286dfb379c1b06b4603971045ff1fc6e1de83d2687f31e695bb57e9e1399c23e64736f6c634300081c0033","opcodes":"PUSH1 0x80 PUSH1 0x40 MSTORE PUSH1 0x1 PUSH1 0x2 SSTORE CALLVALUE DUP1 ISZERO PUSH1 0x14 JUMPI PUSH1 0x0 DUP1 REVERT JUMPDEST POP PUSH2 0x21BF DUP1 PUSH2 0x24 PUSH1 0x0 CODECOPY PUSH1 0x0 RETURN INVALID PUSH1 0x80 PUSH1 0x40 MSTORE CALLVALUE DUP1 ISZERO PUSH2 0x10 JUMPI PUSH1 0x0 DUP1 REVERT JUMPDEST POP PUSH1 0x4 CALLDATASIZE LT PUSH2 0x88 JUMPI PUSH1 0x0 CALLDATALOAD PUSH1 0xE0 SHR DUP1 PUSH4 0x7ACC0B20 GT PUSH2 0x5B JUMPI DUP1 PUSH4 0x7ACC0B20 EQ PUSH2 0x12A JUMPI DUP1 PUSH4 0xCB51BBA9 EQ PUSH2 0x160 JUMPI DUP1 PUSH4 0xED90C7B7 EQ PUSH2 0x190 JUMPI DUP1 PUSH4 0xFDE74E81 EQ PUSH2 0x1AC JUMPI PUSH2 0x88 JUMP JUMPDEST DUP1 PUSH4 0x2EE3A52 EQ PUSH2 0x8D JUMPI DUP1 PUSH4 0x42692C0F EQ PUSH2 0xAB JUMPI DUP1 PUSH4 0x4DE91A63 EQ PUSH2 0xDB JUMPI DUP1 PUSH4 0x524E8462 EQ PUSH2 0xF9 JUMPI JUMPDEST PUSH1 0x0 DUP1 REVERT JUMPDEST PUSH2 0x95 PUSH2 0x1DC JUMP JUMPDEST PUSH1 0x40 MLOAD PUSH2 0xA2 SWAP2 SWAP1 PUSH2 0x150B JUMP JUMPDEST PUSH1 0x40 MLOAD DUP1 SWAP2 SUB SWAP1 RETURN JUMPDEST PUSH2 0xC5 PUSH1 0x4 DUP1 CALLDATASIZE SUB DUP2 ADD SWAP1 PUSH2 0xC0 SWAP2 SWAP1 PUSH2 0x156D JUMP JUMPDEST PUSH2 0x234 JUMP JUMPDEST PUSH1 0x40 MLOAD PUSH2 0xD2 SWAP2 SWAP1 PUSH2 0x15A9 JUMP JUMPDEST PUSH1 0x40 MLOAD DUP1 SWAP2 SUB SWAP1 RETURN JUMPDEST PUSH2 0xE3 PUSH2 0x669 JUMP JUMPDEST PUSH1 0x40 MLOAD PUSH2 0xF0 SWAP2 SWAP1 PUSH2 0x15A9 JUMP JUMPDEST PUSH1 0x40 MLOAD DUP1 SWAP2 SUB SWAP1 RETURN JUMPDEST PUSH2 0x113 PUSH1 0x4 DUP1 CALLDATASIZE SUB DUP2 ADD SWAP1 PUSH2 0x10E SWAP2 SWAP1 PUSH2 0x156D JUMP JUMPDEST PUSH2 0x66F JUMP JUMPDEST PUSH1 0x40 MLOAD PUSH2 0x121 SWAP3 SWAP2 SWAP1 PUSH2 0x166D JUMP JUMPDEST PUSH1 0x40 MLOAD DUP1 SWAP2 SUB SWAP1 RETURN JUMPDEST PUSH2 0x144 PUSH1 0x4 DUP1 CALLDATASIZE SUB DUP2 ADD SWAP1 PUSH2 0x13F SWAP2 SWAP1 PUSH2 0x156D JUMP JUMPDEST PUSH2 0xA92 JUMP JUMPDEST PUSH1 0x40 MLOAD PUSH2 0x157 SWAP8 SWAP7 SWAP6 SWAP5 SWAP4 SWAP3 SWAP2 SWAP1 PUSH2 0x16F9 JUMP JUMPDEST PUSH1 0x40 MLOAD DUP1 SWAP2 SUB SWAP1 RETURN JUMPDEST PUSH2 0x17A PUSH1 0x4 DUP1 CALLDATASIZE SUB DUP2 ADD SWAP1 PUSH2 0x175 SWAP2 SWAP1 PUSH2 0x156D JUMP JUMPDEST PUSH2 0xD21 JUMP JUMPDEST PUSH1 0x40 MLOAD PUSH2 0x187 SWAP2 SWAP1 PUSH2 0x15A9 JUMP JUMPDEST PUSH1 0x40 MLOAD DUP1 SWAP2 SUB SWAP1 RETURN JUMPDEST PUSH2 0x1AA PUSH1 0x4 DUP1 CALLDATASIZE SUB DUP2 ADD SWAP1 PUSH2 0x1A5 SWAP2 SWAP1 PUSH2 0x156D JUMP JUMPDEST PUSH2 0xD45 JUMP JUMPDEST STOP JUMPDEST PUSH2 0x1C6 PUSH1 0x4 DUP1 CALLDATASIZE SUB DUP2 ADD SWAP1 PUSH2 0x1C1 SWAP2 SWAP1 PUSH2 0x18B9 JUMP JUMPDEST PUSH2 0xE7B JUMP JUMPDEST PUSH1 0x40 MLOAD PUSH2 0x1D3 SWAP2 SWAP1 PUSH2 0x15A9 JUMP JUMPDEST PUSH1 0x40 MLOAD DUP1 SWAP2 SUB SWAP1 RETURN JUMPDEST PUSH1 0x60 PUSH1 0x1 DUP1 SLOAD DUP1 PUSH1 0x20 MUL PUSH1 0x20 ADD PUSH1 0x40 MLOAD SWAP1 DUP2 ADD PUSH1 0x40 MSTORE DUP1 SWAP3 SWAP2 SWAP1 DUP2 DUP2 MSTORE PUSH1 0x20 ADD DUP3 DUP1 SLOAD DUP1 ISZERO PUSH2 0x22A JUMPI PUSH1 0x20 MUL DUP3 ADD SWAP2 SWAP1 PUSH1 0x0 MSTORE PUSH1 0x20 PUSH1 0x0 KECCAK256 SWAP1 JUMPDEST DUP2 SLOAD DUP2 MSTORE PUSH1 0x20 ADD SWAP1 PUSH1 0x1 ADD SWAP1 DUP1 DUP4 GT PUSH2 0x216 JUMPI JUMPDEST POP POP POP POP POP SWAP1 POP SWAP1 JUMP JUMPDEST PUSH1 0x0 DUP1 PUSH1 0x0 DUP1 DUP5 DUP2 MSTORE PUSH1 0x20 ADD SWAP1 DUP2 MSTORE PUSH1 0x20 ADD PUSH1 0x0 KECCAK256 PUSH1 0x40 MLOAD DUP1 PUSH1 0xE0 ADD PUSH1 0x40 MSTORE SWAP1 DUP2 PUSH1 0x0 DUP3 ADD SLOAD DUP2 MSTORE PUSH1 0x20 ADD PUSH1 0x1 DUP3 ADD DUP1 SLOAD PUSH2 0x26E SWAP1 PUSH2 0x19BF JUMP JUMPDEST DUP1 PUSH1 0x1F ADD PUSH1 0x20 DUP1 SWAP2 DIV MUL PUSH1 0x20 ADD PUSH1 0x40 MLOAD SWAP1 DUP2 ADD PUSH1 0x40 MSTORE DUP1 SWAP3 SWAP2 SWAP1 DUP2 DUP2 MSTORE PUSH1 0x20 ADD DUP3 DUP1 SLOAD PUSH2 0x29A SWAP1 PUSH2 0x19BF JUMP JUMPDEST DUP1 ISZERO PUSH2 0x2E7 JUMPI DUP1 PUSH1 0x1F LT PUSH2 0x2BC JUMPI PUSH2 0x100 DUP1 DUP4 SLOAD DIV MUL DUP4 MSTORE SWAP2 PUSH1 0x20 ADD SWAP2 PUSH2 0x2E7 JUMP JUMPDEST DUP3 ADD SWAP2 SWAP1 PUSH1 0x0 MSTORE PUSH1 0x20 PUSH1 0x0 KECCAK256 SWAP1 JUMPDEST DUP2 SLOAD DUP2 MSTORE SWAP1 PUSH1 0x1 ADD SWAP1 PUSH1 0x20 ADD DUP1 DUP4 GT PUSH2 0x2CA JUMPI DUP3 SWAP1 SUB PUSH1 0x1F AND DUP3 ADD SWAP2 JUMPDEST POP POP POP POP POP DUP2 MSTORE PUSH1 0x20 ADD PUSH1 0x2 DUP3 ADD DUP1 SLOAD PUSH2 0x300 SWAP1 PUSH2 0x19BF JUMP JUMPDEST DUP1 PUSH1 0x1F ADD PUSH1 0x20 DUP1 SWAP2 DIV MUL PUSH1 0x20 ADD PUSH1 0x40 MLOAD SWAP1 DUP2 ADD PUSH1 0x40 MSTORE DUP1 SWAP3 SWAP2 SWAP1 DUP2 DUP2 MSTORE PUSH1 0x20 ADD DUP3 DUP1 SLOAD PUSH2 0x32C SWAP1 PUSH2 0x19BF JUMP JUMPDEST DUP1 ISZERO PUSH2 0x379 JUMPI DUP1 PUSH1 0x1F LT PUSH2 0x34E JUMPI PUSH2 0x100 DUP1 DUP4 SLOAD DIV MUL DUP4 MSTORE SWAP2 PUSH1 0x20 ADD SWAP2 PUSH2 0x379 JUMP JUMPDEST DUP3 ADD SWAP2 SWAP1 PUSH1 0x0 MSTORE PUSH1 0x20 PUSH1 0x0 KECCAK256 SWAP1 JUMPDEST DUP2 SLOAD DUP2 MSTORE SWAP1 PUSH1 0x1 ADD SWAP1 PUSH1 0x20 ADD DUP1 DUP4 GT PUSH2 0x35C JUMPI DUP3 SWAP1 SUB PUSH1 0x1F AND DUP3 ADD SWAP2 JUMPDEST POP POP POP POP POP DUP2 MSTORE PUSH1 0x20 ADD PUSH1 0x3 DUP3 ADD DUP1 SLOAD PUSH2 0x392 SWAP1 PUSH2 0x19BF JUMP JUMPDEST DUP1 PUSH1 0x1F ADD PUSH1 0x20 DUP1 SWAP2 DIV MUL PUSH1 0x20 ADD PUSH1 0x40 MLOAD SWAP1 DUP2 ADD PUSH1 0x40 MSTORE DUP1 SWAP3 SWAP2 SWAP1 DUP2 DUP2 MSTORE PUSH1 0x20 ADD DUP3 DUP1 SLOAD PUSH2 0x3BE SWAP1 PUSH2 0x19BF JUMP JUMPDEST DUP1 ISZERO PUSH2 0x40B JUMPI DUP1 PUSH1 0x1F LT PUSH2 0x3E0 JUMPI PUSH2 0x100 DUP1 DUP4 SLOAD DIV MUL DUP4 MSTORE SWAP2 PUSH1 0x20 ADD SWAP2 PUSH2 0x40B JUMP JUMPDEST DUP3 ADD SWAP2 SWAP1 PUSH1 0x0 MSTORE PUSH1 0x20 PUSH1 0x0 KECCAK256 SWAP1 JUMPDEST DUP2 SLOAD DUP2 MSTORE SWAP1 PUSH1 0x1 ADD SWAP1 PUSH1 0x20 ADD DUP1 DUP4 GT PUSH2 0x3EE JUMPI DUP3 SWAP1 SUB PUSH1 0x1F AND DUP3 ADD SWAP2 JUMPDEST POP POP POP POP POP DUP2 MSTORE PUSH1 0x20 ADD PUSH1 0x4 DUP3 ADD DUP1 SLOAD PUSH2 0x424 SWAP1 PUSH2 0x19BF JUMP JUMPDEST DUP1 PUSH1 0x1F ADD PUSH1 0x20 DUP1 SWAP2 DIV MUL PUSH1 0x20 ADD PUSH1 0x40 MLOAD SWAP1 DUP2 ADD PUSH1 0x40 MSTORE DUP1 SWAP3 SWAP2 SWAP1 DUP2 DUP2 MSTORE PUSH1 0x20 ADD DUP3 DUP1 SLOAD PUSH2 0x450 SWAP1 PUSH2 0x19BF JUMP JUMPDEST DUP1 ISZERO PUSH2 0x49D JUMPI DUP1 PUSH1 0x1F LT PUSH2 0x472 JUMPI PUSH2 0x100 DUP1 DUP4 SLOAD DIV MUL DUP4 MSTORE SWAP2 PUSH1 0x20 ADD SWAP2 PUSH2 0x49D JUMP JUMPDEST DUP3 ADD SWAP2 SWAP1 PUSH1 0x0 MSTORE PUSH1 0x20 PUSH1 0x0 KECCAK256 SWAP1 JUMPDEST DUP2 SLOAD DUP2 MSTORE SWAP1 PUSH1 0x1 ADD SWAP1 PUSH1 0x20 ADD DUP1 DUP4 GT PUSH2 0x480 JUMPI DUP3 SWAP1 SUB PUSH1 0x1F AND DUP3 ADD SWAP2 JUMPDEST POP POP POP POP POP DUP2 MSTORE PUSH1 0x20 ADD PUSH1 0x5 DUP3 ADD PUSH1 0x0 SWAP1 SLOAD SWAP1 PUSH2 0x100 EXP SWAP1 DIV PUSH20 0xFFFFFFFFFFFFFFFFFFFFFFFFFFFFFFFFFFFFFFFF AND PUSH20 0xFFFFFFFFFFFFFFFFFFFFFFFFFFFFFFFFFFFFFFFF AND PUSH20 0xFFFFFFFFFFFFFFFFFFFFFFFFFFFFFFFFFFFFFFFF AND DUP2 MSTORE PUSH1 0x20 ADD PUSH1 0x5 DUP3 ADD PUSH1 0x14 SWAP1 SLOAD SWAP1 PUSH2 0x100 EXP SWAP1 DIV PUSH1 0xFF AND ISZERO ISZERO ISZERO ISZERO DUP2 MSTORE POP POP SWAP1 POP PUSH1 0x0 DUP2 PUSH1 0x80 ADD MLOAD SWAP1 POP PUSH1 0x0 PUSH2 0x5A8 DUP3 PUSH1 0x0 DUP2 MLOAD DUP2 LT PUSH2 0x53B JUMPI PUSH2 0x53A PUSH2 0x19F0 JUMP JUMPDEST JUMPDEST PUSH1 0x20 ADD ADD MLOAD PUSH1 0xF8 SHR PUSH1 0xF8 SHL DUP4 PUSH1 0x1 DUP2 MLOAD DUP2 LT PUSH2 0x55A JUMPI PUSH2 0x559 PUSH2 0x19F0 JUMP JUMPDEST JUMPDEST PUSH1 0x20 ADD ADD MLOAD PUSH1 0xF8 SHR PUSH1 0xF8 SHL DUP5 PUSH1 0x2 DUP2 MLOAD DUP2 LT PUSH2 0x579 JUMPI PUSH2 0x578 PUSH2 0x19F0 JUMP JUMPDEST JUMPDEST PUSH1 0x20 ADD ADD MLOAD PUSH1 0xF8 SHR PUSH1 0xF8 SHL DUP6 PUSH1 0x3 DUP2 MLOAD DUP2 LT PUSH2 0x598 JUMPI PUSH2 0x597 PUSH2 0x19F0 JUMP JUMPDEST JUMPDEST PUSH1 0x20 ADD ADD MLOAD PUSH1 0xF8 SHR PUSH1 0xF8 SHL PUSH2 0x1082 JUMP JUMPDEST SWAP1 POP PUSH1 0x0 PUSH2 0x5F2 DUP4 PUSH1 0x5 DUP2 MLOAD DUP2 LT PUSH2 0x5C3 JUMPI PUSH2 0x5C2 PUSH2 0x19F0 JUMP JUMPDEST JUMPDEST PUSH1 0x20 ADD ADD MLOAD PUSH1 0xF8 SHR PUSH1 0xF8 SHL DUP5 PUSH1 0x6 DUP2 MLOAD DUP2 LT PUSH2 0x5E2 JUMPI PUSH2 0x5E1 PUSH2 0x19F0 JUMP JUMPDEST JUMPDEST PUSH1 0x20 ADD ADD MLOAD PUSH1 0xF8 SHR PUSH1 0xF8 SHL PUSH2 0x111D JUMP JUMPDEST SWAP1 POP PUSH1 0x0 PUSH2 0x63C DUP5 PUSH1 0x8 DUP2 MLOAD DUP2 LT PUSH2 0x60D JUMPI PUSH2 0x60C PUSH2 0x19F0 JUMP JUMPDEST JUMPDEST PUSH1 0x20 ADD ADD MLOAD PUSH1 0xF8 SHR PUSH1 0xF8 SHL DUP6 PUSH1 0x9 DUP2 MLOAD DUP2 LT PUSH2 0x62C JUMPI PUSH2 0x62B PUSH2 0x19F0 JUMP JUMPDEST JUMPDEST PUSH1 0x20 ADD ADD MLOAD PUSH1 0xF8 SHR PUSH1 0xF8 SHL PUSH2 0x111D JUMP JUMPDEST SWAP1 POP PUSH1 0x0 PUSH2 0x64B DUP5 DUP5 DUP5 PUSH2 0x1160 JUMP JUMPDEST SWAP1 POP PUSH3 0x15180 DUP2 PUSH2 0x65C SWAP2 SWAP1 PUSH2 0x1A4E JUMP JUMPDEST SWAP7 POP POP POP POP POP POP POP SWAP2 SWAP1 POP JUMP JUMPDEST PUSH1 0x2 SLOAD DUP2 JUMP JUMPDEST PUSH1 0x60 PUSH1 0x0 DUP1 PUSH1 0x0 DUP1 DUP6 DUP2 MSTORE PUSH1 0x20 ADD SWAP1 DUP2 MSTORE PUSH1 0x20 ADD PUSH1 0x0 KECCAK256 PUSH1 0x40 MLOAD DUP1 PUSH1 0xE0 ADD PUSH1 0x40 MSTORE SWAP1 DUP2 PUSH1 0x0 DUP3 ADD SLOAD DUP2 MSTORE PUSH1 0x20 ADD PUSH1 0x1 DUP3 ADD DUP1 SLOAD PUSH2 0x6AB SWAP1 PUSH2 0x19BF JUMP JUMPDEST DUP1 PUSH1 0x1F ADD PUSH1 0x20 DUP1 SWAP2 DIV MUL PUSH1 0x20 ADD PUSH1 0x40 MLOAD SWAP1 DUP2 ADD PUSH1 0x40 MSTORE DUP1 SWAP3 SWAP2 SWAP1 DUP2 DUP2 MSTORE PUSH1 0x20 ADD DUP3 DUP1 SLOAD PUSH2 0x6D7 SWAP1 PUSH2 0x19BF JUMP JUMPDEST DUP1 ISZERO PUSH2 0x724 JUMPI DUP1 PUSH1 0x1F LT PUSH2 0x6F9 JUMPI PUSH2 0x100 DUP1 DUP4 SLOAD DIV MUL DUP4 MSTORE SWAP2 PUSH1 0x20 ADD SWAP2 PUSH2 0x724 JUMP JUMPDEST DUP3 ADD SWAP2 SWAP1 PUSH1 0x0 MSTORE PUSH1 0x20 PUSH1 0x0 KECCAK256 SWAP1 JUMPDEST DUP2 SLOAD DUP2 MSTORE SWAP1 PUSH1 0x1 ADD SWAP1 PUSH1 0x20 ADD DUP1 DUP4 GT PUSH2 0x707 JUMPI DUP3 SWAP1 SUB PUSH1 0x1F AND DUP3 ADD SWAP2 JUMPDEST POP POP POP POP POP DUP2 MSTORE PUSH1 0x20 ADD PUSH1 0x2 DUP3 ADD DUP1 SLOAD PUSH2 0x73D SWAP1 PUSH2 0x19BF JUMP JUMPDEST DUP1 PUSH1 0x1F ADD PUSH1 0x20 DUP1 SWAP2 DIV MUL PUSH1 0x20 ADD PUSH1 0x40 MLOAD SWAP1 DUP2 ADD PUSH1 0x40 MSTORE DUP1 SWAP3 SWAP2 SWAP1 DUP2 DUP2 MSTORE PUSH1 0x20 ADD DUP3 DUP1 SLOAD PUSH2 0x769 SWAP1 PUSH2 0x19BF JUMP JUMPDEST DUP1 ISZERO PUSH2 0x7B6 JUMPI DUP1 PUSH1 0x1F LT PUSH2 0x78B JUMPI PUSH2 0x100 DUP1 DUP4 SLOAD DIV MUL DUP4 MSTORE SWAP2 PUSH1 0x20 ADD SWAP2 PUSH2 0x7B6 JUMP JUMPDEST DUP3 ADD SWAP2 SWAP1 PUSH1 0x0 MSTORE PUSH1 0x20 PUSH1 0x0 KECCAK256 SWAP1 JUMPDEST DUP2 SLOAD DUP2 MSTORE SWAP1 PUSH1 0x1 ADD SWAP1 PUSH1 0x20 ADD DUP1 DUP4 GT PUSH2 0x799 JUMPI DUP3 SWAP1 SUB PUSH1 0x1F AND DUP3 ADD SWAP2 JUMPDEST POP POP POP POP POP DUP2 MSTORE PUSH1 0x20 ADD PUSH1 0x3 DUP3 ADD DUP1 SLOAD PUSH2 0x7CF SWAP1 PUSH2 0x19BF JUMP JUMPDEST DUP1 PUSH1 0x1F ADD PUSH1 0x20 DUP1 SWAP2 DIV MUL PUSH1 0x20 ADD PUSH1 0x40 MLOAD SWAP1 DUP2 ADD PUSH1 0x40 MSTORE DUP1 SWAP3 SWAP2 SWAP1 DUP2 DUP2 MSTORE PUSH1 0x20 ADD DUP3 DUP1 SLOAD PUSH2 0x7FB SWAP1 PUSH2 0x19BF JUMP JUMPDEST DUP1 ISZERO PUSH2 0x848 JUMPI DUP1 PUSH1 0x1F LT PUSH2 0x81D JUMPI PUSH2 0x100 DUP1 DUP4 SLOAD DIV MUL DUP4 MSTORE SWAP2 PUSH1 0x20 ADD SWAP2 PUSH2 0x848 JUMP JUMPDEST DUP3 ADD SWAP2 SWAP1 PUSH1 0x0 MSTORE PUSH1 0x20 PUSH1 0x0 KECCAK256 SWAP1 JUMPDEST DUP2 SLOAD DUP2 MSTORE SWAP1 PUSH1 0x1 ADD SWAP1 PUSH1 0x20 ADD DUP1 DUP4 GT PUSH2 0x82B JUMPI DUP3 SWAP1 SUB PUSH1 0x1F AND DUP3 ADD SWAP2 JUMPDEST POP POP POP POP POP DUP2 MSTORE PUSH1 0x20 ADD PUSH1 0x4 DUP3 ADD DUP1 SLOAD PUSH2 0x861 SWAP1 PUSH2 0x19BF JUMP JUMPDEST DUP1 PUSH1 0x1F ADD PUSH1 0x20 DUP1 SWAP2 DIV MUL PUSH1 0x20 ADD PUSH1 0x40 MLOAD SWAP1 DUP2 ADD PUSH1 0x40 MSTORE DUP1 SWAP3 SWAP2 SWAP1 DUP2 DUP2 MSTORE PUSH1 0x20 ADD DUP3 DUP1 SLOAD PUSH2 0x88D SWAP1 PUSH2 0x19BF JUMP JUMPDEST DUP1 ISZERO PUSH2 0x8DA JUMPI DUP1 PUSH1 0x1F LT PUSH2 0x8AF JUMPI PUSH2 0x100 DUP1 DUP4 SLOAD DIV MUL DUP4 MSTORE SWAP2 PUSH1 0x20 ADD SWAP2 PUSH2 0x8DA JUMP JUMPDEST DUP3 ADD SWAP2 SWAP1 PUSH1 0x0 MSTORE PUSH1 0x20 PUSH1 0x0 KECCAK256 SWAP1 JUMPDEST DUP2 SLOAD DUP2 MSTORE SWAP1 PUSH1 0x1 ADD SWAP1 PUSH1 0x20 ADD DUP1 DUP4 GT PUSH2 0x8BD JUMPI DUP3 SWAP1 SUB PUSH1 0x1F AND DUP3 ADD SWAP2 JUMPDEST POP POP POP POP POP DUP2 MSTORE PUSH1 0x20 ADD PUSH1 0x5 DUP3 ADD PUSH1 0x0 SWAP1 SLOAD SWAP1 PUSH2 0x100 EXP SWAP1 DIV PUSH20 0xFFFFFFFFFFFFFFFFFFFFFFFFFFFFFFFFFFFFFFFF AND PUSH20 0xFFFFFFFFFFFFFFFFFFFFFFFFFFFFFFFFFFFFFFFF AND PUSH20 0xFFFFFFFFFFFFFFFFFFFFFFFFFFFFFFFFFFFFFFFF AND DUP2 MSTORE PUSH1 0x20 ADD PUSH1 0x5 DUP3 ADD PUSH1 0x14 SWAP1 SLOAD SWAP1 PUSH2 0x100 EXP SWAP1 DIV PUSH1 0xFF AND ISZERO ISZERO ISZERO ISZERO DUP2 MSTORE POP POP SWAP1 POP DUP1 PUSH1 0xC0 ADD MLOAD PUSH2 0x9A2 JUMPI PUSH1 0x0 PUSH1 0x40 MLOAD DUP1 PUSH1 0x40 ADD PUSH1 0x40 MSTORE DUP1 PUSH1 0x11 DUP2 MSTORE PUSH1 0x20 ADD PUSH32 0x50726F64756374206E6F7420666F756E64000000000000000000000000000000 DUP2 MSTORE POP SWAP1 SWAP3 POP SWAP3 POP POP PUSH2 0xA8D JUMP JUMPDEST PUSH1 0x0 DUP1 PUSH2 0x9B2 DUP4 PUSH1 0x80 ADD MLOAD PUSH2 0x1285 JUMP JUMPDEST SWAP2 POP SWAP2 POP DUP2 PUSH2 0xA00 JUMPI PUSH1 0x0 PUSH1 0x40 MLOAD DUP1 PUSH1 0x40 ADD PUSH1 0x40 MSTORE DUP1 PUSH1 0x15 DUP2 MSTORE PUSH1 0x20 ADD PUSH32 0x496E76616C69642065787069727920666F726D61740000000000000000000000 DUP2 MSTORE POP SWAP1 SWAP5 POP SWAP5 POP POP POP POP PUSH2 0xA8D JUMP JUMPDEST PUSH1 0x0 DUP2 SLT ISZERO PUSH2 0xA4D JUMPI DUP1 PUSH1 0x40 MLOAD DUP1 PUSH1 0x40 ADD PUSH1 0x40 MSTORE DUP1 PUSH1 0xF DUP2 MSTORE PUSH1 0x20 ADD PUSH32 0x50726F6475637420657870697265640000000000000000000000000000000000 DUP2 MSTORE POP SWAP1 SWAP5 POP SWAP5 POP POP POP POP PUSH2 0xA8D JUMP JUMPDEST DUP1 PUSH1 0x40 MLOAD DUP1 PUSH1 0x40 ADD PUSH1 0x40 MSTORE DUP1 PUSH1 0xD DUP2 MSTORE PUSH1 0x20 ADD PUSH32 0x50726F647563742076616C696400000000000000000000000000000000000000 DUP2 MSTORE POP SWAP1 SWAP5 POP SWAP5 POP POP POP POP JUMPDEST SWAP2 POP SWAP2 JUMP JUMPDEST PUSH1 0x0 PUSH1 0x20 MSTORE DUP1 PUSH1 0x0 MSTORE PUSH1 0x40 PUSH1 0x0 KECCAK256 PUSH1 0x0 SWAP2 POP SWAP1 POP DUP1 PUSH1 0x0 ADD SLOAD SWAP1 DUP1 PUSH1 0x1 ADD DUP1 SLOAD PUSH2 0xABB SWAP1 PUSH2 0x19BF JUMP JUMPDEST DUP1 PUSH1 0x1F ADD PUSH1 0x20 DUP1 SWAP2 DIV MUL PUSH1 0x20 ADD PUSH1 0x40 MLOAD SWAP1 DUP2 ADD PUSH1 0x40 MSTORE DUP1 SWAP3 SWAP2 SWAP1 DUP2 DUP2 MSTORE PUSH1 0x20 ADD DUP3 DUP1 SLOAD PUSH2 0xAE7 SWAP1 PUSH2 0x19BF JUMP JUMPDEST DUP1 ISZERO PUSH2 0xB34 JUMPI DUP1 PUSH1 0x1F LT PUSH2 0xB09 JUMPI PUSH2 0x100 DUP1 DUP4 SLOAD DIV MUL DUP4 MSTORE SWAP2 PUSH1 0x20 ADD SWAP2 PUSH2 0xB34 JUMP JUMPDEST DUP3 ADD SWAP2 SWAP1 PUSH1 0x0 MSTORE PUSH1 0x20 PUSH1 0x0 KECCAK256 SWAP1 JUMPDEST DUP2 SLOAD DUP2 MSTORE SWAP1 PUSH1 0x1 ADD SWAP1 PUSH1 0x20 ADD DUP1 DUP4 GT PUSH2 0xB17 JUMPI DUP3 SWAP1 SUB PUSH1 0x1F AND DUP3 ADD SWAP2 JUMPDEST POP POP POP POP POP SWAP1 DUP1 PUSH1 0x2 ADD DUP1 SLOAD PUSH2 0xB49 SWAP1 PUSH2 0x19BF JUMP JUMPDEST DUP1 PUSH1 0x1F ADD PUSH1 0x20 DUP1 SWAP2 DIV MUL PUSH1 0x20 ADD PUSH1 0x40 MLOAD SWAP1 DUP2 ADD PUSH1 0x40 MSTORE DUP1 SWAP3 SWAP2 SWAP1 DUP2 DUP2 MSTORE PUSH1 0x20 ADD DUP3 DUP1 SLOAD PUSH2 0xB75 SWAP1 PUSH2 0x19BF JUMP JUMPDEST DUP1 ISZERO PUSH2 0xBC2 JUMPI DUP1 PUSH1 0x1F LT PUSH2 0xB97 JUMPI PUSH2 0x100 DUP1 DUP4 SLOAD DIV MUL DUP4 MSTORE SWAP2 PUSH1 0x20 ADD SWAP2 PUSH2 0xBC2 JUMP JUMPDEST DUP3 ADD SWAP2 SWAP1 PUSH1 0x0 MSTORE PUSH1 0x20 PUSH1 0x0 KECCAK256 SWAP1 JUMPDEST DUP2 SLOAD DUP2 MSTORE SWAP1 PUSH1 0x1 ADD SWAP1 PUSH1 0x20 ADD DUP1 DUP4 GT PUSH2 0xBA5 JUMPI DUP3 SWAP1 SUB PUSH1 0x1F AND DUP3 ADD SWAP2 JUMPDEST POP POP POP POP POP SWAP1 DUP1 PUSH1 0x3 ADD DUP1 SLOAD PUSH2 0xBD7 SWAP1 PUSH2 0x19BF JUMP JUMPDEST DUP1 PUSH1 0x1F ADD PUSH1 0x20 DUP1 SWAP2 DIV MUL PUSH1 0x20 ADD PUSH1 0x40 MLOAD SWAP1 DUP2 ADD PUSH1 0x40 MSTORE DUP1 SWAP3 SWAP2 SWAP1 DUP2 DUP2 MSTORE PUSH1 0x20 ADD DUP3 DUP1 SLOAD PUSH2 0xC03 SWAP1 PUSH2 0x19BF JUMP JUMPDEST DUP1 ISZERO PUSH2 0xC50 JUMPI DUP1 PUSH1 0x1F LT PUSH2 0xC25 JUMPI PUSH2 0x100 DUP1 DUP4 SLOAD DIV MUL DUP4 MSTORE SWAP2 PUSH1 0x20 ADD SWAP2 PUSH2 0xC50 JUMP JUMPDEST DUP3 ADD SWAP2 SWAP1 PUSH1 0x0 MSTORE PUSH1 0x20 PUSH1 0x0 KECCAK256 SWAP1 JUMPDEST DUP2 SLOAD DUP2 MSTORE SWAP1 PUSH1 0x1 ADD SWAP1 PUSH1 0x20 ADD DUP1 DUP4 GT PUSH2 0xC33 JUMPI DUP3 SWAP1 SUB PUSH1 0x1F AND DUP3 ADD SWAP2 JUMPDEST POP POP POP POP POP SWAP1 DUP1 PUSH1 0x4 ADD DUP1 SLOAD PUSH2 0xC65 SWAP1 PUSH2 0x19BF JUMP JUMPDEST DUP1 PUSH1 0x1F ADD PUSH1 0x20 DUP1 SWAP2 DIV MUL PUSH1 0x20 ADD PUSH1 0x40 MLOAD SWAP1 DUP2 ADD PUSH1 0x40 MSTORE DUP1 SWAP3 SWAP2 SWAP1 DUP2 DUP2 MSTORE PUSH1 0x20 ADD DUP3 DUP1 SLOAD PUSH2 0xC91 SWAP1 PUSH2 0x19BF JUMP JUMPDEST DUP1 ISZERO PUSH2 0xCDE JUMPI DUP1 PUSH1 0x1F LT PUSH2 0xCB3 JUMPI PUSH2 0x100 DUP1 DUP4 SLOAD DIV MUL DUP4 MSTORE SWAP2 PUSH1 0x20 ADD SWAP2 PUSH2 0xCDE JUMP JUMPDEST DUP3 ADD SWAP2 SWAP1 PUSH1 0x0 MSTORE PUSH1 0x20 PUSH1 0x0 KECCAK256 SWAP1 JUMPDEST DUP2 SLOAD DUP2 MSTORE SWAP1 PUSH1 0x1 ADD SWAP1 PUSH1 0x20 ADD DUP1 DUP4 GT PUSH2 0xCC1 JUMPI DUP3 SWAP1 SUB PUSH1 0x1F AND DUP3 ADD SWAP2 JUMPDEST POP POP POP POP POP SWAP1 DUP1 PUSH1 0x5 ADD PUSH1 0x0 SWAP1 SLOAD SWAP1 PUSH2 0x100 EXP SWAP1 DIV PUSH20 0xFFFFFFFFFFFFFFFFFFFFFFFFFFFFFFFFFFFFFFFF AND SWAP1 DUP1 PUSH1 0x5 ADD PUSH1 0x14 SWAP1 SLOAD SWAP1 PUSH2 0x100 EXP SWAP1 DIV PUSH1 0xFF AND SWAP1 POP DUP8 JUMP JUMPDEST PUSH1 0x1 DUP2 DUP2 SLOAD DUP2 LT PUSH2 0xD31 JUMPI PUSH1 0x0 DUP1 REVERT JUMPDEST SWAP1 PUSH1 0x0 MSTORE PUSH1 0x20 PUSH1 0x0 KECCAK256 ADD PUSH1 0x0 SWAP2 POP SWAP1 POP SLOAD DUP2 JUMP JUMPDEST PUSH1 0x0 DUP1 DUP3 DUP2 MSTORE PUSH1 0x20 ADD SWAP1 DUP2 MSTORE PUSH1 0x20 ADD PUSH1 0x0 KECCAK256 PUSH1 0x5 ADD PUSH1 0x14 SWAP1 SLOAD SWAP1 PUSH2 0x100 EXP SWAP1 DIV PUSH1 0xFF AND PUSH2 0xDA7 JUMPI PUSH1 0x40 MLOAD PUSH32 0x8C379A000000000000000000000000000000000000000000000000000000000 DUP2 MSTORE PUSH1 0x4 ADD PUSH2 0xD9E SWAP1 PUSH2 0x1B12 JUMP JUMPDEST PUSH1 0x40 MLOAD DUP1 SWAP2 SUB SWAP1 REVERT JUMPDEST CALLER PUSH20 0xFFFFFFFFFFFFFFFFFFFFFFFFFFFFFFFFFFFFFFFF AND PUSH1 0x0 DUP1 DUP4 DUP2 MSTORE PUSH1 0x20 ADD SWAP1 DUP2 MSTORE PUSH1 0x20 ADD PUSH1 0x0 KECCAK256 PUSH1 0x5 ADD PUSH1 0x0 SWAP1 SLOAD SWAP1 PUSH2 0x100 EXP SWAP1 DIV PUSH20 0xFFFFFFFFFFFFFFFFFFFFFFFFFFFFFFFFFFFFFFFF AND PUSH20 0xFFFFFFFFFFFFFFFFFFFFFFFFFFFFFFFFFFFFFFFF AND EQ PUSH2 0xE4A JUMPI PUSH1 0x40 MLOAD PUSH32 0x8C379A000000000000000000000000000000000000000000000000000000000 DUP2 MSTORE PUSH1 0x4 ADD PUSH2 0xE41 SWAP1 PUSH2 0x1B7E JUMP JUMPDEST PUSH1 0x40 MLOAD DUP1 SWAP2 SUB SWAP1 REVERT JUMPDEST PUSH1 0x0 DUP1 PUSH1 0x0 DUP4 DUP2 MSTORE PUSH1 0x20 ADD SWAP1 DUP2 MSTORE PUSH1 0x20 ADD PUSH1 0x0 KECCAK256 PUSH1 0x5 ADD PUSH1 0x14 PUSH2 0x100 EXP DUP2 SLOAD DUP2 PUSH1 0xFF MUL NOT AND SWAP1 DUP4 ISZERO ISZERO MUL OR SWAP1 SSTORE POP POP JUMP JUMPDEST PUSH1 0x0 DUP1 DUP6 MLOAD GT PUSH2 0xEC0 JUMPI PUSH1 0x40 MLOAD PUSH32 0x8C379A000000000000000000000000000000000000000000000000000000000 DUP2 MSTORE PUSH1 0x4 ADD PUSH2 0xEB7 SWAP1 PUSH2 0x1BEA JUMP JUMPDEST PUSH1 0x40 MLOAD DUP1 SWAP2 SUB SWAP1 REVERT JUMPDEST PUSH1 0x0 DUP3 MLOAD GT PUSH2 0xF04 JUMPI PUSH1 0x40 MLOAD PUSH32 0x8C379A000000000000000000000000000000000000000000000000000000000 DUP2 MSTORE PUSH1 0x4 ADD PUSH2 0xEFB SWAP1 PUSH2 0x1C56 JUMP JUMPDEST PUSH1 0x40 MLOAD DUP1 SWAP2 SUB SWAP1 REVERT JUMPDEST PUSH1 0x0 PUSH1 0x2 SLOAD SWAP1 POP PUSH1 0x40 MLOAD DUP1 PUSH1 0xE0 ADD PUSH1 0x40 MSTORE DUP1 DUP3 DUP2 MSTORE PUSH1 0x20 ADD DUP8 DUP2 MSTORE PUSH1 0x20 ADD DUP7 DUP2 MSTORE PUSH1 0x20 ADD DUP6 DUP2 MSTORE PUSH1 0x20 ADD DUP5 DUP2 MSTORE PUSH1 0x20 ADD CALLER PUSH20 0xFFFFFFFFFFFFFFFFFFFFFFFFFFFFFFFFFFFFFFFF AND DUP2 MSTORE PUSH1 0x20 ADD PUSH1 0x1 ISZERO ISZERO DUP2 MSTORE POP PUSH1 0x0 DUP1 DUP4 DUP2 MSTORE PUSH1 0x20 ADD SWAP1 DUP2 MSTORE PUSH1 0x20 ADD PUSH1 0x0 KECCAK256 PUSH1 0x0 DUP3 ADD MLOAD DUP2 PUSH1 0x0 ADD SSTORE PUSH1 0x20 DUP3 ADD MLOAD DUP2 PUSH1 0x1 ADD SWAP1 DUP2 PUSH2 0xF88 SWAP2 SWAP1 PUSH2 0x1E22 JUMP JUMPDEST POP PUSH1 0x40 DUP3 ADD MLOAD DUP2 PUSH1 0x2 ADD SWAP1 DUP2 PUSH2 0xF9E SWAP2 SWAP1 PUSH2 0x1E22 JUMP JUMPDEST POP PUSH1 0x60 DUP3 ADD MLOAD DUP2 PUSH1 0x3 ADD SWAP1 DUP2 PUSH2 0xFB4 SWAP2 SWAP1 PUSH2 0x1E22 JUMP JUMPDEST POP PUSH1 0x80 DUP3 ADD MLOAD DUP2 PUSH1 0x4 ADD SWAP1 DUP2 PUSH2 0xFCA SWAP2 SWAP1 PUSH2 0x1E22 JUMP JUMPDEST POP PUSH1 0xA0 DUP3 ADD MLOAD DUP2 PUSH1 0x5 ADD PUSH1 0x0 PUSH2 0x100 EXP DUP2 SLOAD DUP2 PUSH20 0xFFFFFFFFFFFFFFFFFFFFFFFFFFFFFFFFFFFFFFFF MUL NOT AND SWAP1 DUP4 PUSH20 0xFFFFFFFFFFFFFFFFFFFFFFFFFFFFFFFFFFFFFFFF AND MUL OR SWAP1 SSTORE POP PUSH1 0xC0 DUP3 ADD MLOAD DUP2 PUSH1 0x5 ADD PUSH1 0x14 PUSH2 0x100 EXP DUP2 SLOAD DUP2 PUSH1 0xFF MUL NOT AND SWAP1 DUP4 ISZERO ISZERO MUL OR SWAP1 SSTORE POP SWAP1 POP POP PUSH1 0x1 DUP2 SWAP1 DUP1 PUSH1 0x1 DUP2 SLOAD ADD DUP1 DUP3 SSTORE DUP1 SWAP2 POP POP PUSH1 0x1 SWAP1 SUB SWAP1 PUSH1 0x0 MSTORE PUSH1 0x20 PUSH1 0x0 KECCAK256 ADD PUSH1 0x0 SWAP1 SWAP2 SWAP1 SWAP2 SWAP1 SWAP2 POP SSTORE PUSH1 0x2 PUSH1 0x0 DUP2 SLOAD DUP1 SWAP3 SWAP2 SWAP1 PUSH2 0x1071 SWAP1 PUSH2 0x1EF4 JUMP JUMPDEST SWAP2 SWAP1 POP SSTORE POP DUP1 SWAP2 POP POP SWAP5 SWAP4 POP POP POP POP JUMP JUMPDEST PUSH1 0x0 PUSH1 0x30 DUP3 PUSH1 0xF8 SHR PUSH2 0x1094 SWAP2 SWAP1 PUSH2 0x1F49 JUMP JUMPDEST PUSH1 0x0 SIGNEXTEND PUSH1 0xA PUSH1 0x30 DUP6 PUSH1 0xF8 SHR PUSH2 0x10A9 SWAP2 SWAP1 PUSH2 0x1F49 JUMP JUMPDEST PUSH1 0x0 SIGNEXTEND PUSH2 0x10B6 SWAP2 SWAP1 PUSH2 0x1A4E JUMP JUMPDEST PUSH1 0x64 PUSH1 0x30 DUP8 PUSH1 0xF8 SHR PUSH2 0x10C8 SWAP2 SWAP1 PUSH2 0x1F49 JUMP JUMPDEST PUSH1 0x0 SIGNEXTEND PUSH2 0x10D5 SWAP2 SWAP1 PUSH2 0x1A4E JUMP JUMPDEST PUSH2 0x3E8 PUSH1 0x30 DUP10 PUSH1 0xF8 SHR PUSH2 0x10E8 SWAP2 SWAP1 PUSH2 0x1F49 JUMP JUMPDEST PUSH1 0x0 SIGNEXTEND PUSH2 0x10F5 SWAP2 SWAP1 PUSH2 0x1A4E JUMP JUMPDEST PUSH2 0x10FF SWAP2 SWAP1 PUSH2 0x1FA2 JUMP JUMPDEST PUSH2 0x1109 SWAP2 SWAP1 PUSH2 0x1FA2 JUMP JUMPDEST PUSH2 0x1113 SWAP2 SWAP1 PUSH2 0x1FA2 JUMP JUMPDEST SWAP1 POP SWAP5 SWAP4 POP POP POP POP JUMP JUMPDEST PUSH1 0x0 PUSH1 0x30 DUP3 PUSH1 0xF8 SHR PUSH2 0x112F SWAP2 SWAP1 PUSH2 0x1F49 JUMP JUMPDEST PUSH1 0xA PUSH1 0x30 DUP6 PUSH1 0xF8 SHR PUSH2 0x1141 SWAP2 SWAP1 PUSH2 0x1F49 JUMP JUMPDEST PUSH2 0x114B SWAP2 SWAP1 PUSH2 0x1FE6 JUMP JUMPDEST PUSH2 0x1155 SWAP2 SWAP1 PUSH2 0x2023 JUMP JUMPDEST PUSH1 0x0 SIGNEXTEND SWAP1 POP SWAP3 SWAP2 POP POP JUMP JUMPDEST PUSH1 0x0 PUSH1 0x3 DUP4 SLT ISZERO PUSH2 0x118A JUMPI PUSH1 0x1 DUP5 PUSH2 0x1178 SWAP2 SWAP1 PUSH2 0x207C JUMP JUMPDEST SWAP4 POP PUSH1 0xC DUP4 PUSH2 0x1187 SWAP2 SWAP1 PUSH2 0x1FA2 JUMP JUMPDEST SWAP3 POP JUMPDEST PUSH1 0x0 PUSH2 0x190 DUP6 PUSH2 0x119A SWAP2 SWAP1 PUSH2 0x20EE JUMP JUMPDEST SWAP1 POP PUSH1 0x0 PUSH2 0x190 DUP3 PUSH2 0x11AC SWAP2 SWAP1 PUSH2 0x1A4E JUMP JUMPDEST DUP7 PUSH2 0x11B7 SWAP2 SWAP1 PUSH2 0x207C JUMP JUMPDEST SWAP1 POP PUSH1 0x0 PUSH1 0x1 DUP6 PUSH1 0x5 PUSH1 0x2 PUSH1 0x3 DUP11 PUSH2 0x11CF SWAP2 SWAP1 PUSH2 0x207C JUMP JUMPDEST PUSH1 0x99 PUSH2 0x11DB SWAP2 SWAP1 PUSH2 0x1A4E JUMP JUMPDEST PUSH2 0x11E5 SWAP2 SWAP1 PUSH2 0x1FA2 JUMP JUMPDEST PUSH2 0x11EF SWAP2 SWAP1 PUSH2 0x20EE JUMP JUMPDEST PUSH2 0x11F9 SWAP2 SWAP1 PUSH2 0x1FA2 JUMP JUMPDEST PUSH2 0x1203 SWAP2 SWAP1 PUSH2 0x207C JUMP JUMPDEST SWAP1 POP PUSH1 0x0 DUP2 PUSH1 0x64 DUP5 PUSH2 0x1215 SWAP2 SWAP1 PUSH2 0x20EE JUMP JUMPDEST PUSH1 0x4 DUP6 PUSH2 0x1222 SWAP2 SWAP1 PUSH2 0x20EE JUMP JUMPDEST PUSH2 0x16D DUP7 PUSH2 0x1230 SWAP2 SWAP1 PUSH2 0x1A4E JUMP JUMPDEST PUSH2 0x123A SWAP2 SWAP1 PUSH2 0x1FA2 JUMP JUMPDEST PUSH2 0x1244 SWAP2 SWAP1 PUSH2 0x207C JUMP JUMPDEST PUSH2 0x124E SWAP2 SWAP1 PUSH2 0x1FA2 JUMP JUMPDEST SWAP1 POP PUSH3 0xAFA6C DUP2 PUSH3 0x23AB1 DUP7 PUSH2 0x1264 SWAP2 SWAP1 PUSH2 0x1A4E JUMP JUMPDEST PUSH2 0x126E SWAP2 SWAP1 PUSH2 0x1FA2 JUMP JUMPDEST PUSH2 0x1278 SWAP2 SWAP1 PUSH2 0x207C JUMP JUMPDEST SWAP5 POP POP POP POP POP SWAP4 SWAP3 POP POP POP JUMP JUMPDEST PUSH1 0x0 DUP1 PUSH1 0x0 DUP4 SWAP1 POP PUSH1 0xA DUP2 MLOAD EQ PUSH2 0x12A3 JUMPI PUSH1 0x0 DUP1 SWAP3 POP SWAP3 POP POP PUSH2 0x1426 JUMP JUMPDEST PUSH1 0x0 PUSH2 0x1329 DUP3 PUSH1 0x0 DUP2 MLOAD DUP2 LT PUSH2 0x12BC JUMPI PUSH2 0x12BB PUSH2 0x19F0 JUMP JUMPDEST JUMPDEST PUSH1 0x20 ADD ADD MLOAD PUSH1 0xF8 SHR PUSH1 0xF8 SHL DUP4 PUSH1 0x1 DUP2 MLOAD DUP2 LT PUSH2 0x12DB JUMPI PUSH2 0x12DA PUSH2 0x19F0 JUMP JUMPDEST JUMPDEST PUSH1 0x20 ADD ADD MLOAD PUSH1 0xF8 SHR PUSH1 0xF8 SHL DUP5 PUSH1 0x2 DUP2 MLOAD DUP2 LT PUSH2 0x12FA JUMPI PUSH2 0x12F9 PUSH2 0x19F0 JUMP JUMPDEST JUMPDEST PUSH1 0x20 ADD ADD MLOAD PUSH1 0xF8 SHR PUSH1 0xF8 SHL DUP6 PUSH1 0x3 DUP2 MLOAD DUP2 LT PUSH2 0x1319 JUMPI PUSH2 0x1318 PUSH2 0x19F0 JUMP JUMPDEST JUMPDEST PUSH1 0x20 ADD ADD MLOAD PUSH1 0xF8 SHR PUSH1 0xF8 SHL PUSH2 0x1082 JUMP JUMPDEST SWAP1 POP PUSH1 0x0 PUSH2 0x1373 DUP4 PUSH1 0x5 DUP2 MLOAD DUP2 LT PUSH2 0x1344 JUMPI PUSH2 0x1343 PUSH2 0x19F0 JUMP JUMPDEST JUMPDEST PUSH1 0x20 ADD ADD MLOAD PUSH1 0xF8 SHR PUSH1 0xF8 SHL DUP5 PUSH1 0x6 DUP2 MLOAD DUP2 LT PUSH2 0x1363 JUMPI PUSH2 0x1362 PUSH2 0x19F0 JUMP JUMPDEST JUMPDEST PUSH1 0x20 ADD ADD MLOAD PUSH1 0xF8 SHR PUSH1 0xF8 SHL PUSH2 0x111D JUMP JUMPDEST SWAP1 POP PUSH1 0x0 PUSH2 0x13BD DUP5 PUSH1 0x8 DUP2 MLOAD DUP2 LT PUSH2 0x138E JUMPI PUSH2 0x138D PUSH2 0x19F0 JUMP JUMPDEST JUMPDEST PUSH1 0x20 ADD ADD MLOAD PUSH1 0xF8 SHR PUSH1 0xF8 SHL DUP6 PUSH1 0x9 DUP2 MLOAD DUP2 LT PUSH2 0x13AD JUMPI PUSH2 0x13AC PUSH2 0x19F0 JUMP JUMPDEST JUMPDEST PUSH1 0x20 ADD ADD MLOAD PUSH1 0xF8 SHR PUSH1 0xF8 SHL PUSH2 0x111D JUMP JUMPDEST SWAP1 POP PUSH1 0x0 DUP4 SGT ISZERO DUP1 PUSH2 0x13D0 JUMPI POP PUSH1 0x0 DUP3 SGT ISZERO JUMPDEST DUP1 PUSH2 0x13DC JUMPI POP PUSH1 0x0 DUP2 SGT ISZERO JUMPDEST ISZERO PUSH2 0x13F1 JUMPI PUSH1 0x0 DUP1 SWAP6 POP SWAP6 POP POP POP POP POP PUSH2 0x1426 JUMP JUMPDEST PUSH1 0x0 PUSH2 0x13FE DUP5 DUP5 DUP5 PUSH2 0x1160 JUMP JUMPDEST SWAP1 POP PUSH1 0x0 PUSH2 0x140B TIMESTAMP PUSH2 0x142B JUMP JUMPDEST SWAP1 POP PUSH1 0x1 DUP2 DUP4 PUSH2 0x141B SWAP2 SWAP1 PUSH2 0x207C JUMP JUMPDEST SWAP8 POP SWAP8 POP POP POP POP POP POP POP JUMPDEST SWAP2 POP SWAP2 JUMP JUMPDEST PUSH1 0x0 PUSH3 0x15180 DUP3 PUSH2 0x143C SWAP2 SWAP1 PUSH2 0x2158 JUMP JUMPDEST SWAP1 POP SWAP2 SWAP1 POP JUMP JUMPDEST PUSH1 0x0 DUP2 MLOAD SWAP1 POP SWAP2 SWAP1 POP JUMP JUMPDEST PUSH1 0x0 DUP3 DUP3 MSTORE PUSH1 0x20 DUP3 ADD SWAP1 POP SWAP3 SWAP2 POP POP JUMP JUMPDEST PUSH1 0x0 DUP2 SWAP1 POP PUSH1 0x20 DUP3 ADD SWAP1 POP SWAP2 SWAP1 POP JUMP JUMPDEST PUSH1 0x0 DUP2 SWAP1 POP SWAP2 SWAP1 POP JUMP JUMPDEST PUSH2 0x1482 DUP2 PUSH2 0x146F JUMP JUMPDEST DUP3 MSTORE POP POP JUMP JUMPDEST PUSH1 0x0 PUSH2 0x1494 DUP4 DUP4 PUSH2 0x1479 JUMP JUMPDEST PUSH1 0x20 DUP4 ADD SWAP1 POP SWAP3 SWAP2 POP POP JUMP JUMPDEST PUSH1 0x0 PUSH1 0x20 DUP3 ADD SWAP1 POP SWAP2 SWAP1 POP JUMP JUMPDEST PUSH1 0x0 PUSH2 0x14B8 DUP3 PUSH2 0x1443 JUMP JUMPDEST PUSH2 0x14C2 DUP2 DUP6 PUSH2 0x144E JUMP JUMPDEST SWAP4 POP PUSH2 0x14CD DUP4 PUSH2 0x145F JUMP JUMPDEST DUP1 PUSH1 0x0 JUMPDEST DUP4 DUP2 LT ISZERO PUSH2 0x14FE JUMPI DUP2 MLOAD PUSH2 0x14E5 DUP9 DUP3 PUSH2 0x1488 JUMP JUMPDEST SWAP8 POP PUSH2 0x14F0 DUP4 PUSH2 0x14A0 JUMP JUMPDEST SWAP3 POP POP PUSH1 0x1 DUP2 ADD SWAP1 POP PUSH2 0x14D1 JUMP JUMPDEST POP DUP6 SWAP4 POP POP POP POP SWAP3 SWAP2 POP POP JUMP JUMPDEST PUSH1 0x0 PUSH1 0x20 DUP3 ADD SWAP1 POP DUP2 DUP2 SUB PUSH1 0x0 DUP4 ADD MSTORE PUSH2 0x1525 DUP2 DUP5 PUSH2 0x14AD JUMP JUMPDEST SWAP1 POP SWAP3 SWAP2 POP POP JUMP JUMPDEST PUSH1 0x0 PUSH1 0x40 MLOAD SWAP1 POP SWAP1 JUMP JUMPDEST PUSH1 0x0 DUP1 REVERT JUMPDEST PUSH1 0x0 DUP1 REVERT JUMPDEST PUSH2 0x154A DUP2 PUSH2 0x146F JUMP JUMPDEST DUP2 EQ PUSH2 0x1555 JUMPI PUSH1 0x0 DUP1 REVERT JUMPDEST POP JUMP JUMPDEST PUSH1 0x0 DUP2 CALLDATALOAD SWAP1 POP PUSH2 0x1567 DUP2 PUSH2 0x1541 JUMP JUMPDEST SWAP3 SWAP2 POP POP JUMP JUMPDEST PUSH1 0x0 PUSH1 0x20 DUP3 DUP5 SUB SLT ISZERO PUSH2 0x1583 JUMPI PUSH2 0x1582 PUSH2 0x1537 JUMP JUMPDEST JUMPDEST PUSH1 0x0 PUSH2 0x1591 DUP5 DUP3 DUP6 ADD PUSH2 0x1558 JUMP JUMPDEST SWAP2 POP POP SWAP3 SWAP2 POP POP JUMP JUMPDEST PUSH2 0x15A3 DUP2 PUSH2 0x146F JUMP JUMPDEST DUP3 MSTORE POP POP JUMP JUMPDEST PUSH1 0x0 PUSH1 0x20 DUP3 ADD SWAP1 POP PUSH2 0x15BE PUSH1 0x0 DUP4 ADD DUP5 PUSH2 0x159A JUMP JUMPDEST SWAP3 SWAP2 POP POP JUMP JUMPDEST PUSH1 0x0 DUP2 MLOAD SWAP1 POP SWAP2 SWAP1 POP JUMP JUMPDEST PUSH1 0x0 DUP3 DUP3 MSTORE PUSH1 0x20 DUP3 ADD SWAP1 POP SWAP3 SWAP2 POP POP JUMP JUMPDEST PUSH1 0x0 JUMPDEST DUP4 DUP2 LT ISZERO PUSH2 0x15FE JUMPI DUP1 DUP3 ADD MLOAD DUP2 DUP5 ADD MSTORE PUSH1 0x20 DUP2 ADD SWAP1 POP PUSH2 0x15E3 JUMP JUMPDEST PUSH1 0x0 DUP5 DUP5 ADD MSTORE POP POP POP POP JUMP JUMPDEST PUSH1 0x0 PUSH1 0x1F NOT PUSH1 0x1F DUP4 ADD AND SWAP1 POP SWAP2 SWAP1 POP JUMP JUMPDEST PUSH1 0x0 PUSH2 0x1626 DUP3 PUSH2 0x15C4 JUMP JUMPDEST PUSH2 0x1630 DUP2 DUP6 PUSH2 0x15CF JUMP JUMPDEST SWAP4 POP PUSH2 0x1640 DUP2 DUP6 PUSH1 0x20 DUP7 ADD PUSH2 0x15E0 JUMP JUMPDEST PUSH2 0x1649 DUP2 PUSH2 0x160A JUMP JUMPDEST DUP5 ADD SWAP2 POP POP SWAP3 SWAP2 POP POP JUMP JUMPDEST PUSH1 0x0 DUP2 SWAP1 POP SWAP2 SWAP1 POP JUMP JUMPDEST PUSH2 0x1667 DUP2 PUSH2 0x1654 JUMP JUMPDEST DUP3 MSTORE POP POP JUMP JUMPDEST PUSH1 0x0 PUSH1 0x40 DUP3 ADD SWAP1 POP DUP2 DUP2 SUB PUSH1 0x0 DUP4 ADD MSTORE PUSH2 0x1687 DUP2 DUP6 PUSH2 0x161B JUMP JUMPDEST SWAP1 POP PUSH2 0x1696 PUSH1 0x20 DUP4 ADD DUP5 PUSH2 0x165E JUMP JUMPDEST SWAP4 SWAP3 POP POP POP JUMP JUMPDEST PUSH1 0x0 PUSH20 0xFFFFFFFFFFFFFFFFFFFFFFFFFFFFFFFFFFFFFFFF DUP3 AND SWAP1 POP SWAP2 SWAP1 POP JUMP JUMPDEST PUSH1 0x0 PUSH2 0x16C8 DUP3 PUSH2 0x169D JUMP JUMPDEST SWAP1 POP SWAP2 SWAP1 POP JUMP JUMPDEST PUSH2 0x16D8 DUP2 PUSH2 0x16BD JUMP JUMPDEST DUP3 MSTORE POP POP JUMP JUMPDEST PUSH1 0x0 DUP2 ISZERO ISZERO SWAP1 POP SWAP2 SWAP1 POP JUMP JUMPDEST PUSH2 0x16F3 DUP2 PUSH2 0x16DE JUMP JUMPDEST DUP3 MSTORE POP POP JUMP JUMPDEST PUSH1 0x0 PUSH1 0xE0 DUP3 ADD SWAP1 POP PUSH2 0x170E PUSH1 0x0 DUP4 ADD DUP11 PUSH2 0x159A JUMP JUMPDEST DUP2 DUP2 SUB PUSH1 0x20 DUP4 ADD MSTORE PUSH2 0x1720 DUP2 DUP10 PUSH2 0x161B JUMP JUMPDEST SWAP1 POP DUP2 DUP2 SUB PUSH1 0x40 DUP4 ADD MSTORE PUSH2 0x1734 DUP2 DUP9 PUSH2 0x161B JUMP JUMPDEST SWAP1 POP DUP2 DUP2 SUB PUSH1 0x60 DUP4 ADD MSTORE PUSH2 0x1748 DUP2 DUP8 PUSH2 0x161B JUMP JUMPDEST SWAP1 POP DUP2 DUP2 SUB PUSH1 0x80 DUP4 ADD MSTORE PUSH2 0x175C DUP2 DUP7 PUSH2 0x161B JUMP JUMPDEST SWAP1 POP PUSH2 0x176B PUSH1 0xA0 DUP4 ADD DUP6 PUSH2 0x16CF JUMP JUMPDEST PUSH2 0x1778 PUSH1 0xC0 DUP4 ADD DUP5 PUSH2 0x16EA JUMP JUMPDEST SWAP9 SWAP8 POP POP POP POP POP POP POP POP JUMP JUMPDEST PUSH1 0x0 DUP1 REVERT JUMPDEST PUSH1 0x0 DUP1 REVERT JUMPDEST PUSH32 0x4E487B7100000000000000000000000000000000000000000000000000000000 PUSH1 0x0 MSTORE PUSH1 0x41 PUSH1 0x4 MSTORE PUSH1 0x24 PUSH1 0x0 REVERT JUMPDEST PUSH2 0x17C6 DUP3 PUSH2 0x160A JUMP JUMPDEST DUP2 ADD DUP2 DUP2 LT PUSH8 0xFFFFFFFFFFFFFFFF DUP3 GT OR ISZERO PUSH2 0x17E5 JUMPI PUSH2 0x17E4 PUSH2 0x178E JUMP JUMPDEST JUMPDEST DUP1 PUSH1 0x40 MSTORE POP POP POP JUMP JUMPDEST PUSH1 0x0 PUSH2 0x17F8 PUSH2 0x152D JUMP JUMPDEST SWAP1 POP PUSH2 0x1804 DUP3 DUP3 PUSH2 0x17BD JUMP JUMPDEST SWAP2 SWAP1 POP JUMP JUMPDEST PUSH1 0x0 PUSH8 0xFFFFFFFFFFFFFFFF DUP3 GT ISZERO PUSH2 0x1824 JUMPI PUSH2 0x1823 PUSH2 0x178E JUMP JUMPDEST JUMPDEST PUSH2 0x182D DUP3 PUSH2 0x160A JUMP JUMPDEST SWAP1 POP PUSH1 0x20 DUP2 ADD SWAP1 POP SWAP2 SWAP1 POP JUMP JUMPDEST DUP3 DUP2 DUP4 CALLDATACOPY PUSH1 0x0 DUP4 DUP4 ADD MSTORE POP POP POP JUMP JUMPDEST PUSH1 0x0 PUSH2 0x185C PUSH2 0x1857 DUP5 PUSH2 0x1809 JUMP JUMPDEST PUSH2 0x17EE JUMP JUMPDEST SWAP1 POP DUP3 DUP2 MSTORE PUSH1 0x20 DUP2 ADD DUP5 DUP5 DUP5 ADD GT ISZERO PUSH2 0x1878 JUMPI PUSH2 0x1877 PUSH2 0x1789 JUMP JUMPDEST JUMPDEST PUSH2 0x1883 DUP5 DUP3 DUP6 PUSH2 0x183A JUMP JUMPDEST POP SWAP4 SWAP3 POP POP POP JUMP JUMPDEST PUSH1 0x0 DUP3 PUSH1 0x1F DUP4 ADD SLT PUSH2 0x18A0 JUMPI PUSH2 0x189F PUSH2 0x1784 JUMP JUMPDEST JUMPDEST DUP2 CALLDATALOAD PUSH2 0x18B0 DUP5 DUP3 PUSH1 0x20 DUP7 ADD PUSH2 0x1849 JUMP JUMPDEST SWAP2 POP POP SWAP3 SWAP2 POP POP JUMP JUMPDEST PUSH1 0x0 DUP1 PUSH1 0x0 DUP1 PUSH1 0x80 DUP6 DUP8 SUB SLT ISZERO PUSH2 0x18D3 JUMPI PUSH2 0x18D2 PUSH2 0x1537 JUMP JUMPDEST JUMPDEST PUSH1 0x0 DUP6 ADD CALLDATALOAD PUSH8 0xFFFFFFFFFFFFFFFF DUP2 GT ISZERO PUSH2 0x18F1 JUMPI PUSH2 0x18F0 PUSH2 0x153C JUMP JUMPDEST JUMPDEST PUSH2 0x18FD DUP8 DUP3 DUP9 ADD PUSH2 0x188B JUMP JUMPDEST SWAP5 POP POP PUSH1 0x20 DUP6 ADD CALLDATALOAD PUSH8 0xFFFFFFFFFFFFFFFF DUP2 GT ISZERO PUSH2 0x191E JUMPI PUSH2 0x191D PUSH2 0x153C JUMP JUMPDEST JUMPDEST PUSH2 0x192A DUP8 DUP3 DUP9 ADD PUSH2 0x188B JUMP JUMPDEST SWAP4 POP POP PUSH1 0x40 DUP6 ADD CALLDATALOAD PUSH8 0xFFFFFFFFFFFFFFFF DUP2 GT ISZERO PUSH2 0x194B JUMPI PUSH2 0x194A PUSH2 0x153C JUMP JUMPDEST JUMPDEST PUSH2 0x1957 DUP8 DUP3 DUP9 ADD PUSH2 0x188B JUMP JUMPDEST SWAP3 POP POP PUSH1 0x60 DUP6 ADD CALLDATALOAD PUSH8 0xFFFFFFFFFFFFFFFF DUP2 GT ISZERO PUSH2 0x1978 JUMPI PUSH2 0x1977 PUSH2 0x153C JUMP JUMPDEST JUMPDEST PUSH2 0x1984 DUP8 DUP3 DUP9 ADD PUSH2 0x188B JUMP JUMPDEST SWAP2 POP POP SWAP3 SWAP6 SWAP2 SWAP5 POP SWAP3 POP JUMP JUMPDEST PUSH32 0x4E487B7100000000000000000000000000000000000000000000000000000000 PUSH1 0x0 MSTORE PUSH1 0x22 PUSH1 0x4 MSTORE PUSH1 0x24 PUSH1 0x0 REVERT JUMPDEST PUSH1 0x0 PUSH1 0x2 DUP3 DIV SWAP1 POP PUSH1 0x1 DUP3 AND DUP1 PUSH2 0x19D7 JUMPI PUSH1 0x7F DUP3 AND SWAP2 POP JUMPDEST PUSH1 0x20 DUP3 LT DUP2 SUB PUSH2 0x19EA JUMPI PUSH2 0x19E9 PUSH2 0x1990 JUMP JUMPDEST JUMPDEST POP SWAP2 SWAP1 POP JUMP JUMPDEST PUSH32 0x4E487B7100000000000000000000000000000000000000000000000000000000 PUSH1 0x0 MSTORE PUSH1 0x32 PUSH1 0x4 MSTORE PUSH1 0x24 PUSH1 0x0 REVERT JUMPDEST PUSH32 0x4E487B7100000000000000000000000000000000000000000000000000000000 PUSH1 0x0 MSTORE PUSH1 0x11 PUSH1 0x4 MSTORE PUSH1 0x24 PUSH1 0x0 REVERT JUMPDEST PUSH1 0x0 PUSH2 0x1A59 DUP3 PUSH2 0x1654 JUMP JUMPDEST SWAP2 POP PUSH2 0x1A64 DUP4 PUSH2 0x1654 JUMP JUMPDEST SWAP3 POP DUP3 DUP3 MUL PUSH2 0x1A72 DUP2 PUSH2 0x1654 JUMP JUMPDEST SWAP2 POP PUSH32 0x8000000000000000000000000000000000000000000000000000000000000000 DUP5 EQ PUSH1 0x0 DUP5 SLT AND ISZERO PUSH2 0x1AAA JUMPI PUSH2 0x1AA9 PUSH2 0x1A1F JUMP JUMPDEST JUMPDEST DUP3 DUP3 SDIV DUP5 EQ DUP4 ISZERO OR PUSH2 0x1ABF JUMPI PUSH2 0x1ABE PUSH2 0x1A1F JUMP JUMPDEST JUMPDEST POP SWAP3 SWAP2 POP POP JUMP JUMPDEST PUSH32 0x50726F64756374206E6F7420666F756E64000000000000000000000000000000 PUSH1 0x0 DUP3 ADD MSTORE POP JUMP JUMPDEST PUSH1 0x0 PUSH2 0x1AFC PUSH1 0x11 DUP4 PUSH2 0x15CF JUMP JUMPDEST SWAP2 POP PUSH2 0x1B07 DUP3 PUSH2 0x1AC6 JUMP JUMPDEST PUSH1 0x20 DUP3 ADD SWAP1 POP SWAP2 SWAP1 POP JUMP JUMPDEST PUSH1 0x0 PUSH1 0x20 DUP3 ADD SWAP1 POP DUP2 DUP2 SUB PUSH1 0x0 DUP4 ADD MSTORE PUSH2 0x1B2B DUP2 PUSH2 0x1AEF JUMP JUMPDEST SWAP1 POP SWAP2 SWAP1 POP JUMP JUMPDEST PUSH32 0x4E6F7420617574686F72697A6564000000000000000000000000000000000000 PUSH1 0x0 DUP3 ADD MSTORE POP JUMP JUMPDEST PUSH1 0x0 PUSH2 0x1B68 PUSH1 0xE DUP4 PUSH2 0x15CF JUMP JUMPDEST SWAP2 POP PUSH2 0x1B73 DUP3 PUSH2 0x1B32 JUMP JUMPDEST PUSH1 0x20 DUP3 ADD SWAP1 POP SWAP2 SWAP1 POP JUMP JUMPDEST PUSH1 0x0 PUSH1 0x20 DUP3 ADD SWAP1 POP DUP2 DUP2 SUB PUSH1 0x0 DUP4 ADD MSTORE PUSH2 0x1B97 DUP2 PUSH2 0x1B5B JUMP JUMPDEST SWAP1 POP SWAP2 SWAP1 POP JUMP JUMPDEST PUSH32 0x4E616D6520726571756972656400000000000000000000000000000000000000 PUSH1 0x0 DUP3 ADD MSTORE POP JUMP JUMPDEST PUSH1 0x0 PUSH2 0x1BD4 PUSH1 0xD DUP4 PUSH2 0x15CF JUMP JUMPDEST SWAP2 POP PUSH2 0x1BDF DUP3 PUSH2 0x1B9E JUMP JUMPDEST PUSH1 0x20 DUP3 ADD SWAP1 POP SWAP2 SWAP1 POP JUMP JUMPDEST PUSH1 0x0 PUSH1 0x20 DUP3 ADD SWAP1 POP DUP2 DUP2 SUB PUSH1 0x0 DUP4 ADD MSTORE PUSH2 0x1C03 DUP2 PUSH2 0x1BC7 JUMP JUMPDEST SWAP1 POP SWAP2 SWAP1 POP JUMP JUMPDEST PUSH32 0x4578706972792072657175697265640000000000000000000000000000000000 PUSH1 0x0 DUP3 ADD MSTORE POP JUMP JUMPDEST PUSH1 0x0 PUSH2 0x1C40 PUSH1 0xF DUP4 PUSH2 0x15CF JUMP JUMPDEST SWAP2 POP PUSH2 0x1C4B DUP3 PUSH2 0x1C0A JUMP JUMPDEST PUSH1 0x20 DUP3 ADD SWAP1 POP SWAP2 SWAP1 POP JUMP JUMPDEST PUSH1 0x0 PUSH1 0x20 DUP3 ADD SWAP1 POP DUP2 DUP2 SUB PUSH1 0x0 DUP4 ADD MSTORE PUSH2 0x1C6F DUP2 PUSH2 0x1C33 JUMP JUMPDEST SWAP1 POP SWAP2 SWAP1 POP JUMP JUMPDEST PUSH1 0x0 DUP2 SWAP1 POP DUP2 PUSH1 0x0 MSTORE PUSH1 0x20 PUSH1 0x0 KECCAK256 SWAP1 POP SWAP2 SWAP1 POP JUMP JUMPDEST PUSH1 0x0 PUSH1 0x20 PUSH1 0x1F DUP4 ADD DIV SWAP1 POP SWAP2 SWAP1 POP JUMP JUMPDEST PUSH1 0x0 DUP3 DUP3 SHL SWAP1 POP SWAP3 SWAP2 POP POP JUMP JUMPDEST PUSH1 0x0 PUSH1 0x8 DUP4 MUL PUSH2 0x1CD8 PUSH32 0xFFFFFFFFFFFFFFFFFFFFFFFFFFFFFFFFFFFFFFFFFFFFFFFFFFFFFFFFFFFFFFFF DUP3 PUSH2 0x1C9B JUMP JUMPDEST PUSH2 0x1CE2 DUP7 DUP4 PUSH2 0x1C9B JUMP JUMPDEST SWAP6 POP DUP1 NOT DUP5 AND SWAP4 POP DUP1 DUP7 AND DUP5 OR SWAP3 POP POP POP SWAP4 SWAP3 POP POP POP JUMP JUMPDEST PUSH1 0x0 DUP2 SWAP1 POP SWAP2 SWAP1 POP JUMP JUMPDEST PUSH1 0x0 PUSH2 0x1D1F PUSH2 0x1D1A PUSH2 0x1D15 DUP5 PUSH2 0x146F JUMP JUMPDEST PUSH2 0x1CFA JUMP JUMPDEST PUSH2 0x146F JUMP JUMPDEST SWAP1 POP SWAP2 SWAP1 POP JUMP JUMPDEST PUSH1 0x0 DUP2 SWAP1 POP SWAP2 SWAP1 POP JUMP JUMPDEST PUSH2 0x1D39 DUP4 PUSH2 0x1D04 JUMP JUMPDEST PUSH2 0x1D4D PUSH2 0x1D45 DUP3 PUSH2 0x1D26 JUMP JUMPDEST DUP5 DUP5 SLOAD PUSH2 0x1CA8 JUMP JUMPDEST DUP3 SSTORE POP POP POP POP JUMP JUMPDEST PUSH1 0x0 SWAP1 JUMP JUMPDEST PUSH2 0x1D62 PUSH2 0x1D55 JUMP JUMPDEST PUSH2 0x1D6D DUP2 DUP5 DUP5 PUSH2 0x1D30 JUMP JUMPDEST POP POP POP JUMP JUMPDEST JUMPDEST DUP2 DUP2 LT ISZERO PUSH2 0x1D91 JUMPI PUSH2 0x1D86 PUSH1 0x0 DUP3 PUSH2 0x1D5A JUMP JUMPDEST PUSH1 0x1 DUP2 ADD SWAP1 POP PUSH2 0x1D73 JUMP JUMPDEST POP POP JUMP JUMPDEST PUSH1 0x1F DUP3 GT ISZERO PUSH2 0x1DD6 JUMPI PUSH2 0x1DA7 DUP2 PUSH2 0x1C76 JUMP JUMPDEST PUSH2 0x1DB0 DUP5 PUSH2 0x1C8B JUMP JUMPDEST DUP2 ADD PUSH1 0x20 DUP6 LT ISZERO PUSH2 0x1DBF JUMPI DUP2 SWAP1 POP JUMPDEST PUSH2 0x1DD3 PUSH2 0x1DCB DUP6 PUSH2 0x1C8B JUMP JUMPDEST DUP4 ADD DUP3 PUSH2 0x1D72 JUMP JUMPDEST POP POP JUMPDEST POP POP POP JUMP JUMPDEST PUSH1 0x0 DUP3 DUP3 SHR SWAP1 POP SWAP3 SWAP2 POP POP JUMP JUMPDEST PUSH1 0x0 PUSH2 0x1DF9 PUSH1 0x0 NOT DUP5 PUSH1 0x8 MUL PUSH2 0x1DDB JUMP JUMPDEST NOT DUP1 DUP4 AND SWAP2 POP POP SWAP3 SWAP2 POP POP JUMP JUMPDEST PUSH1 0x0 PUSH2 0x1E12 DUP4 DUP4 PUSH2 0x1DE8 JUMP JUMPDEST SWAP2 POP DUP3 PUSH1 0x2 MUL DUP3 OR SWAP1 POP SWAP3 SWAP2 POP POP JUMP JUMPDEST PUSH2 0x1E2B DUP3 PUSH2 0x15C4 JUMP JUMPDEST PUSH8 0xFFFFFFFFFFFFFFFF DUP2 GT ISZERO PUSH2 0x1E44 JUMPI PUSH2 0x1E43 PUSH2 0x178E JUMP JUMPDEST JUMPDEST PUSH2 0x1E4E DUP3 SLOAD PUSH2 0x19BF JUMP JUMPDEST PUSH2 0x1E59 DUP3 DUP3 DUP6 PUSH2 0x1D95 JUMP JUMPDEST PUSH1 0x0 PUSH1 0x20 SWAP1 POP PUSH1 0x1F DUP4 GT PUSH1 0x1 DUP2 EQ PUSH2 0x1E8C JUMPI PUSH1 0x0 DUP5 ISZERO PUSH2 0x1E7A JUMPI DUP3 DUP8 ADD MLOAD SWAP1 POP JUMPDEST PUSH2 0x1E84 DUP6 DUP3 PUSH2 0x1E06 JUMP JUMPDEST DUP7 SSTORE POP PUSH2 0x1EEC JUMP JUMPDEST PUSH1 0x1F NOT DUP5 AND PUSH2 0x1E9A DUP7 PUSH2 0x1C76 JUMP JUMPDEST PUSH1 0x0 JUMPDEST DUP3 DUP2 LT ISZERO PUSH2 0x1EC2 JUMPI DUP5 DUP10 ADD MLOAD DUP3 SSTORE PUSH1 0x1 DUP3 ADD SWAP2 POP PUSH1 0x20 DUP6 ADD SWAP5 POP PUSH1 0x20 DUP2 ADD SWAP1 POP PUSH2 0x1E9D JUMP JUMPDEST DUP7 DUP4 LT ISZERO PUSH2 0x1EDF JUMPI DUP5 DUP10 ADD MLOAD PUSH2 0x1EDB PUSH1 0x1F DUP10 AND DUP3 PUSH2 0x1DE8 JUMP JUMPDEST DUP4 SSTORE POP JUMPDEST PUSH1 0x1 PUSH1 0x2 DUP9 MUL ADD DUP9 SSTORE POP POP POP JUMPDEST POP POP POP POP POP POP JUMP JUMPDEST PUSH1 0x0 PUSH2 0x1EFF DUP3 PUSH2 0x146F JUMP JUMPDEST SWAP2 POP PUSH32 0xFFFFFFFFFFFFFFFFFFFFFFFFFFFFFFFFFFFFFFFFFFFFFFFFFFFFFFFFFFFFFFFF DUP3 SUB PUSH2 0x1F31 JUMPI PUSH2 0x1F30 PUSH2 0x1A1F JUMP JUMPDEST JUMPDEST PUSH1 0x1 DUP3 ADD SWAP1 POP SWAP2 SWAP1 POP JUMP JUMPDEST PUSH1 0x0 DUP2 PUSH1 0x0 SIGNEXTEND SWAP1 POP SWAP2 SWAP1 POP JUMP JUMPDEST PUSH1 0x0 PUSH2 0x1F54 DUP3 PUSH2 0x1F3C JUMP JUMPDEST SWAP2 POP PUSH2 0x1F5F DUP4 PUSH2 0x1F3C JUMP JUMPDEST SWAP3 POP DUP3 DUP3 SUB SWAP1 POP PUSH1 0x7F DUP2 SGT PUSH32 0xFFFFFFFFFFFFFFFFFFFFFFFFFFFFFFFFFFFFFFFFFFFFFFFFFFFFFFFFFFFFFF80 DUP3 SLT OR ISZERO PUSH2 0x1F9C JUMPI PUSH2 0x1F9B PUSH2 0x1A1F JUMP JUMPDEST JUMPDEST SWAP3 SWAP2 POP POP JUMP JUMPDEST PUSH1 0x0 PUSH2 0x1FAD DUP3 PUSH2 0x1654 JUMP JUMPDEST SWAP2 POP PUSH2 0x1FB8 DUP4 PUSH2 0x1654 JUMP JUMPDEST SWAP3 POP DUP3 DUP3 ADD SWAP1 POP DUP3 DUP2 SLT ISZERO PUSH1 0x0 DUP4 SLT AND DUP4 DUP3 SLT PUSH1 0x0 DUP5 SLT ISZERO AND OR ISZERO PUSH2 0x1FE0 JUMPI PUSH2 0x1FDF PUSH2 0x1A1F JUMP JUMPDEST JUMPDEST SWAP3 SWAP2 POP POP JUMP JUMPDEST PUSH1 0x0 PUSH2 0x1FF1 DUP3 PUSH2 0x1F3C JUMP JUMPDEST SWAP2 POP PUSH2 0x1FFC DUP4 PUSH2 0x1F3C JUMP JUMPDEST SWAP3 POP DUP3 DUP3 MUL PUSH2 0x200A DUP2 PUSH2 0x1F3C JUMP JUMPDEST SWAP2 POP DUP1 DUP3 EQ PUSH2 0x201C JUMPI PUSH2 0x201B PUSH2 0x1A1F JUMP JUMPDEST JUMPDEST POP SWAP3 SWAP2 POP POP JUMP JUMPDEST PUSH1 0x0 PUSH2 0x202E DUP3 PUSH2 0x1F3C JUMP JUMPDEST SWAP2 POP PUSH2 0x2039 DUP4 PUSH2 0x1F3C JUMP JUMPDEST SWAP3 POP DUP3 DUP3 ADD SWAP1 POP PUSH32 0xFFFFFFFFFFFFFFFFFFFFFFFFFFFFFFFFFFFFFFFFFFFFFFFFFFFFFFFFFFFFFF80 DUP2 SLT PUSH1 0x7F DUP3 SGT OR ISZERO PUSH2 0x2076 JUMPI PUSH2 0x2075 PUSH2 0x1A1F JUMP JUMPDEST JUMPDEST SWAP3 SWAP2 POP POP JUMP JUMPDEST PUSH1 0x0 PUSH2 0x2087 DUP3 PUSH2 0x1654 JUMP JUMPDEST SWAP2 POP PUSH2 0x2092 DUP4 PUSH2 0x1654 JUMP JUMPDEST SWAP3 POP DUP3 DUP3 SUB SWAP1 POP DUP2 DUP2 SLT PUSH1 0x0 DUP5 SLT AND DUP3 DUP3 SGT PUSH1 0x0 DUP6 SLT ISZERO AND OR ISZERO PUSH2 0x20B9 JUMPI PUSH2 0x20B8 PUSH2 0x1A1F JUMP JUMPDEST JUMPDEST SWAP3 SWAP2 POP POP JUMP JUMPDEST PUSH32 0x4E487B7100000000000000000000000000000000000000000000000000000000 PUSH1 0x0 MSTORE PUSH1 0x12 PUSH1 0x4 MSTORE PUSH1 0x24 PUSH1 0x0 REVERT JUMPDEST PUSH1 0x0 PUSH2 0x20F9 DUP3 PUSH2 0x1654 JUMP JUMPDEST SWAP2 POP PUSH2 0x2104 DUP4 PUSH2 0x1654 JUMP JUMPDEST SWAP3 POP DUP3 PUSH2 0x2114 JUMPI PUSH2 0x2113 PUSH2 0x20BF JUMP JUMPDEST JUMPDEST PUSH1 0x1 PUSH1 0x0 SUB DUP4 EQ PUSH32 0x8000000000000000000000000000000000000000000000000000000000000000 DUP4 EQ AND ISZERO PUSH2 0x214D JUMPI PUSH2 0x214C PUSH2 0x1A1F JUMP JUMPDEST JUMPDEST DUP3 DUP3 SDIV SWAP1 POP SWAP3 SWAP2 POP POP JUMP JUMPDEST PUSH1 0x0 PUSH2 0x2163 DUP3 PUSH2 0x146F JUMP JUMPDEST SWAP2 POP PUSH2 0x216E DUP4 PUSH2 0x146F JUMP JUMPDEST SWAP3 POP DUP3 PUSH2 0x217E JUMPI PUSH2 0x217D PUSH2 0x20BF JUMP JUMPDEST JUMPDEST DUP3 DUP3 DIV SWAP1 POP SWAP3 SWAP2 POP POP JUMP INVALID LOG2 PUSH5 0x6970667358 0x22 SLT KECCAK256 0x28 PUSH14 0xFB379C1B06B4603971045FF1FC6E SAR 0xE8 RETURNDATASIZE 0x26 DUP8 RETURN 0x1E PUSH10 0x5BB57E9E1399C23E6473 PUSH16 0x6C634300081C00330000000000000000 "},"methodIdentifiers":{"addProduct(string,string,string,string)":"fde74e81","deleteProduct(uint256)":"ed90c7b7","getAllProducts()":"02ee3a52","getExpiryTimestamp(uint256)":"42692c0f","nextProductId()":"4de91a63","productIds(uint256)":"cb51bba9","products(uint256)":"7acc0b20","verifyProduct(uint256)":"524e8462"}}}}}