{
	"FoodExpiryTracker.sol": {
		"ProductExpiry": {
			"abi": [
				{
					"inputs": [
						{
							"internalType": "uint256",
							"name": "_productId",
							"type": "uint256"
						},
						{
							"internalType": "string",
							"name": "_name",
							"type": "string"
						},
						{
							"internalType": "string",
							"name": "_category",
							"type": "string"
						},
						{
							"internalType": "string",
							"name": "_manufactureDate",
							"type": "string"
						},
						{
							"internalType": "string",
							"name": "_expiryDate",
							"type": "string"
						}
					],
					"name": "addProduct",
					"outputs": [],
					"stateMutability": "nonpayable",
					"type": "function"
				},
				{
					"inputs": [
						{
							"internalType": "uint256",
							"name": "_productId",
							"type": "uint256"
						}
					],
					"name": "deleteProduct",
					"outputs": [],
					"stateMutability": "nonpayable",
					"type": "function"
				},
				{
					"inputs": [],
					"name": "getAllProducts",
					"outputs": [
						{
							"internalType": "uint256[]",
							"name": "",
							"type": "uint256[]"
						}
					],
					"stateMutability": "view",
					"type": "function"
				},
				{
					"inputs": [
						{
							"internalType": "uint256",
							"name": "_productId",
							"type": "uint256"
						}
					],
					"name": "getExpiryTimestamp",
					"outputs": [
						{
							"internalType": "uint256",
							"name": "",
							"type": "uint256"
						}
					],
					"stateMutability": "view",
					"type": "function"
				},
				{
					"inputs": [
						{
							"internalType": "uint256",
							"name": "",
							"type": "uint256"
						}
					],
					"name": "productIds",
					"outputs": [
						{
							"internalType": "uint256",
							"name": "",
							"type": "uint256"
						}
					],
					"stateMutability": "view",
					"type": "function"
				},
				{
					"inputs": [
						{
							"internalType": "uint256",
							"name": "",
							"type": "uint256"
						}
					],
					"name": "products",
					"outputs": [
						{
							"internalType": "uint256",
							"name": "productId",
							"type": "uint256"
						},
						{
							"internalType": "string",
							"name": "name",
							"type": "string"
						},
						{
							"internalType": "string",
							"name": "category",
							"type": "string"
						},
						{
							"internalType": "string",
							"name": "manufactureDate",
							"type": "string"
						},
						{
							"internalType": "string",
							"name": "expiryDate",
							"type": "string"
						},
						{
							"internalType": "address",
							"name": "manufacturer",
							"type": "address"
						},
						{
							"internalType": "bool",
							"name": "isActive",
							"type": "bool"
						}
					],
					"stateMutability": "view",
					"type": "function"
				},
				{
					"inputs": [
						{
							"internalType": "uint256",
							"name": "_productId",
							"type": "uint256"
						}
					],
					"name": "verifyProduct",
					"outputs": [
						{
							"internalType": "string",
							"name": "status",
							"type": "string"
						},
						{
							"internalType": "int256",
							"name": "daysLeft",
							"type": "int256"
						}
					],
					"stateMutability": "view",
					"type": "function"
				}
			],
			"devdoc": {
				"kind": "dev",
				"methods": {},
				"version": 1
			},
			"evm": {
				"assembly": "    /* \"FoodExpiryTracker.sol\":61:4833  contract ProductExpiry {... */\n  mstore(0x40, 0x80)\n  callvalue\n  dup1\n  iszero\n  tag_1\n  jumpi\n  revert(0x00, 0x00)\ntag_1:\n  pop\n  dataSize(sub_0)\n  dup1\n  dataOffset(sub_0)\n  0x00\n  codecopy\n  0x00\n  return\nstop\n\nsub_0: assembly {\n        /* \"FoodExpiryTracker.sol\":61:4833  contract ProductExpiry {... */\n      mstore(0x40, 0x80)\n      callvalue\n      dup1\n      iszero\n      tag_1\n      jumpi\n      revert(0x00, 0x00)\n    tag_1:\n      pop\n      jumpi(tag_2, lt(calldatasize, 0x04))\n      shr(0xe0, calldataload(0x00))\n      dup1\n      0x7acc0b20\n      gt\n      tag_10\n      jumpi\n      dup1\n      0x7acc0b20\n      eq\n      tag_6\n      jumpi\n      dup1\n      0xcb51bba9\n      eq\n      tag_7\n      jumpi\n      dup1\n      0xd1eacd62\n      eq\n      tag_8\n      jumpi\n      dup1\n      0xed90c7b7\n      eq\n      tag_9\n      jumpi\n      jump(tag_2)\n    tag_10:\n      dup1\n      0x02ee3a52\n      eq\n      tag_3\n      jumpi\n      dup1\n      0x42692c0f\n      eq\n      tag_4\n      jumpi\n      dup1\n      0x524e8462\n      eq\n      tag_5\n      jumpi\n    tag_2:\n      revert(0x00, 0x00)\n        /* \"FoodExpiryTracker.sol\":1411:1512  function getAllProducts() public view returns (uint256[] memory) {... */\n    tag_3:\n      tag_11\n      tag_12\n      jump\t// in\n    tag_11:\n      mload(0x40)\n      tag_13\n      swap2\n      swap1\n      tag_14\n      jump\t// in\n    tag_13:\n      mload(0x40)\n      dup1\n      swap2\n      sub\n      swap1\n      return\n        /* \"FoodExpiryTracker.sol\":4441:4830  function getExpiryTimestamp(uint256 _productId) public view returns (uint256) {... */\n    tag_4:\n      tag_15\n      0x04\n      dup1\n      calldatasize\n      sub\n      dup2\n      add\n      swap1\n      tag_16\n      swap2\n      swap1\n      tag_17\n      jump\t// in\n    tag_16:\n      tag_18\n      jump\t// in\n    tag_15:\n      mload(0x40)\n      tag_19\n      swap2\n      swap1\n      tag_20\n      jump\t// in\n    tag_19:\n      mload(0x40)\n      dup1\n      swap2\n      sub\n      swap1\n      return\n        /* \"FoodExpiryTracker.sol\":2100:2643  function verifyProduct(uint256 _productId)... */\n    tag_5:\n      tag_21\n      0x04\n      dup1\n      calldatasize\n      sub\n      dup2\n      add\n      swap1\n      tag_22\n      swap2\n      swap1\n      tag_17\n      jump\t// in\n    tag_22:\n      tag_23\n      jump\t// in\n    tag_21:\n      mload(0x40)\n      tag_24\n      swap3\n      swap2\n      swap1\n      tag_25\n      jump\t// in\n    tag_24:\n      mload(0x40)\n      dup1\n      swap2\n      sub\n      swap1\n      return\n        /* \"FoodExpiryTracker.sol\":314:357  mapping(uint256 => Product) public products */\n    tag_6:\n      tag_26\n      0x04\n      dup1\n      calldatasize\n      sub\n      dup2\n      add\n      swap1\n      tag_27\n      swap2\n      swap1\n      tag_17\n      jump\t// in\n    tag_27:\n      tag_28\n      jump\t// in\n    tag_26:\n      mload(0x40)\n      tag_29\n      swap8\n      swap7\n      swap6\n      swap5\n      swap4\n      swap3\n      swap2\n      swap1\n      tag_30\n      jump\t// in\n    tag_29:\n      mload(0x40)\n      dup1\n      swap2\n      sub\n      swap1\n      return\n        /* \"FoodExpiryTracker.sol\":401:428  uint256[] public productIds */\n    tag_7:\n      tag_31\n      0x04\n      dup1\n      calldatasize\n      sub\n      dup2\n      add\n      swap1\n      tag_32\n      swap2\n      swap1\n      tag_17\n      jump\t// in\n    tag_32:\n      tag_33\n      jump\t// in\n    tag_31:\n      mload(0x40)\n      tag_34\n      swap2\n      swap1\n      tag_20\n      jump\t// in\n    tag_34:\n      mload(0x40)\n      dup1\n      swap2\n      sub\n      swap1\n      return\n        /* \"FoodExpiryTracker.sol\":557:1267  function addProduct(... */\n    tag_8:\n      tag_35\n      0x04\n      dup1\n      calldatasize\n      sub\n      dup2\n      add\n      swap1\n      tag_36\n      swap2\n      swap1\n      tag_37\n      jump\t// in\n    tag_36:\n      tag_38\n      jump\t// in\n    tag_35:\n      stop\n        /* \"FoodExpiryTracker.sol\":1663:1969  function deleteProduct(uint256 _productId) public {... */\n    tag_9:\n      tag_39\n      0x04\n      dup1\n      calldatasize\n      sub\n      dup2\n      add\n      swap1\n      tag_40\n      swap2\n      swap1\n      tag_17\n      jump\t// in\n    tag_40:\n      tag_41\n      jump\t// in\n    tag_39:\n      stop\n        /* \"FoodExpiryTracker.sol\":1411:1512  function getAllProducts() public view returns (uint256[] memory) {... */\n    tag_12:\n        /* \"FoodExpiryTracker.sol\":1458:1474  uint256[] memory */\n      0x60\n        /* \"FoodExpiryTracker.sol\":1494:1504  productIds */\n      0x01\n        /* \"FoodExpiryTracker.sol\":1487:1504  return productIds */\n      dup1\n      sload\n      dup1\n      0x20\n      mul\n      0x20\n      add\n      mload(0x40)\n      swap1\n      dup2\n      add\n      0x40\n      mstore\n      dup1\n      swap3\n      swap2\n      swap1\n      dup2\n      dup2\n      mstore\n      0x20\n      add\n      dup3\n      dup1\n      sload\n      dup1\n      iszero\n      tag_43\n      jumpi\n      0x20\n      mul\n      dup3\n      add\n      swap2\n      swap1\n      0x00\n      mstore\n      keccak256(0x00, 0x20)\n      swap1\n    tag_44:\n      dup2\n      sload\n      dup2\n      mstore\n      0x20\n      add\n      swap1\n      0x01\n      add\n      swap1\n      dup1\n      dup4\n      gt\n      tag_44\n      jumpi\n    tag_43:\n      pop\n      pop\n      pop\n      pop\n      pop\n      swap1\n      pop\n        /* \"FoodExpiryTracker.sol\":1411:1512  function getAllProducts() public view returns (uint256[] memory) {... */\n      swap1\n      jump\t// out\n        /* \"FoodExpiryTracker.sol\":4441:4830  function getExpiryTimestamp(uint256 _productId) public view returns (uint256) {... */\n    tag_18:\n        /* \"FoodExpiryTracker.sol\":4510:4517  uint256 */\n      0x00\n        /* \"FoodExpiryTracker.sol\":4526:4542  Product memory p */\n      0x00\n        /* \"FoodExpiryTracker.sol\":4545:4553  products */\n      0x00\n        /* \"FoodExpiryTracker.sol\":4545:4565  products[_productId] */\n      0x00\n        /* \"FoodExpiryTracker.sol\":4554:4564  _productId */\n      dup5\n        /* \"FoodExpiryTracker.sol\":4545:4565  products[_productId] */\n      dup2\n      mstore\n      0x20\n      add\n      swap1\n      dup2\n      mstore\n      0x20\n      add\n      0x00\n      keccak256\n        /* \"FoodExpiryTracker.sol\":4526:4565  Product memory p = products[_productId] */\n      mload(0x40)\n      dup1\n      0xe0\n      add\n      0x40\n      mstore\n      swap1\n      dup2\n      0x00\n      dup3\n      add\n      sload\n      dup2\n      mstore\n      0x20\n      add\n      0x01\n      dup3\n      add\n      dup1\n      sload\n      tag_46\n      swap1\n      tag_47\n      jump\t// in\n    tag_46:\n      dup1\n      0x1f\n      add\n      0x20\n      dup1\n      swap2\n      div\n      mul\n      0x20\n      add\n      mload(0x40)\n      swap1\n      dup2\n      add\n      0x40\n      mstore\n      dup1\n      swap3\n      swap2\n      swap1\n      dup2\n      dup2\n      mstore\n      0x20\n      add\n      dup3\n      dup1\n      sload\n      tag_48\n      swap1\n      tag_47\n      jump\t// in\n    tag_48:\n      dup1\n      iszero\n      tag_49\n      jumpi\n      dup1\n      0x1f\n      lt\n      tag_50\n      jumpi\n      0x0100\n      dup1\n      dup4\n      sload\n      div\n      mul\n      dup4\n      mstore\n      swap2\n      0x20\n      add\n      swap2\n      jump(tag_49)\n    tag_50:\n      dup3\n      add\n      swap2\n      swap1\n      0x00\n      mstore\n      keccak256(0x00, 0x20)\n      swap1\n    tag_51:\n      dup2\n      sload\n      dup2\n      mstore\n      swap1\n      0x01\n      add\n      swap1\n      0x20\n      add\n      dup1\n      dup4\n      gt\n      tag_51\n      jumpi\n      dup3\n      swap1\n      sub\n      0x1f\n      and\n      dup3\n      add\n      swap2\n    tag_49:\n      pop\n      pop\n      pop\n      pop\n      pop\n      dup2\n      mstore\n      0x20\n      add\n      0x02\n      dup3\n      add\n      dup1\n      sload\n      tag_52\n      swap1\n      tag_47\n      jump\t// in\n    tag_52:\n      dup1\n      0x1f\n      add\n      0x20\n      dup1\n      swap2\n      div\n      mul\n      0x20\n      add\n      mload(0x40)\n      swap1\n      dup2\n      add\n      0x40\n      mstore\n      dup1\n      swap3\n      swap2\n      swap1\n      dup2\n      dup2\n      mstore\n      0x20\n      add\n      dup3\n      dup1\n      sload\n      tag_53\n      swap1\n      tag_47\n      jump\t// in\n    tag_53:\n      dup1\n      iszero\n      tag_54\n      jumpi\n      dup1\n      0x1f\n      lt\n      tag_55\n      jumpi\n      0x0100\n      dup1\n      dup4\n      sload\n      div\n      mul\n      dup4\n      mstore\n      swap2\n      0x20\n      add\n      swap2\n      jump(tag_54)\n    tag_55:\n      dup3\n      add\n      swap2\n      swap1\n      0x00\n      mstore\n      keccak256(0x00, 0x20)\n      swap1\n    tag_56:\n      dup2\n      sload\n      dup2\n      mstore\n      swap1\n      0x01\n      add\n      swap1\n      0x20\n      add\n      dup1\n      dup4\n      gt\n      tag_56\n      jumpi\n      dup3\n      swap1\n      sub\n      0x1f\n      and\n      dup3\n      add\n      swap2\n    tag_54:\n      pop\n      pop\n      pop\n      pop\n      pop\n      dup2\n      mstore\n      0x20\n      add\n      0x03\n      dup3\n      add\n      dup1\n      sload\n      tag_57\n      swap1\n      tag_47\n      jump\t// in\n    tag_57:\n      dup1\n      0x1f\n      add\n      0x20\n      dup1\n      swap2\n      div\n      mul\n      0x20\n      add\n      mload(0x40)\n      swap1\n      dup2\n      add\n      0x40\n      mstore\n      dup1\n      swap3\n      swap2\n      swap1\n      dup2\n      dup2\n      mstore\n      0x20\n      add\n      dup3\n      dup1\n      sload\n      tag_58\n      swap1\n      tag_47\n      jump\t// in\n    tag_58:\n      dup1\n      iszero\n      tag_59\n      jumpi\n      dup1\n      0x1f\n      lt\n      tag_60\n      jumpi\n      0x0100\n      dup1\n      dup4\n      sload\n      div\n      mul\n      dup4\n      mstore\n      swap2\n      0x20\n      add\n      swap2\n      jump(tag_59)\n    tag_60:\n      dup3\n      add\n      swap2\n      swap1\n      0x00\n      mstore\n      keccak256(0x00, 0x20)\n      swap1\n    tag_61:\n      dup2\n      sload\n      dup2\n      mstore\n      swap1\n      0x01\n      add\n      swap1\n      0x20\n      add\n      dup1\n      dup4\n      gt\n      tag_61\n      jumpi\n      dup3\n      swap1\n      sub\n      0x1f\n      and\n      dup3\n      add\n      swap2\n    tag_59:\n      pop\n      pop\n      pop\n      pop\n      pop\n      dup2\n      mstore\n      0x20\n      add\n      0x04\n      dup3\n      add\n      dup1\n      sload\n      tag_62\n      swap1\n      tag_47\n      jump\t// in\n    tag_62:\n      dup1\n      0x1f\n      add\n      0x20\n      dup1\n      swap2\n      div\n      mul\n      0x20\n      add\n      mload(0x40)\n      swap1\n      dup2\n      add\n      0x40\n      mstore\n      dup1\n      swap3\n      swap2\n      swap1\n      dup2\n      dup2\n      mstore\n      0x20\n      add\n      dup3\n      dup1\n      sload\n      tag_63\n      swap1\n      tag_47\n      jump\t// in\n    tag_63:\n      dup1\n      iszero\n      tag_64\n      jumpi\n      dup1\n      0x1f\n      lt\n      tag_65\n      jumpi\n      0x0100\n      dup1\n      dup4\n      sload\n      div\n      mul\n      dup4\n      mstore\n      swap2\n      0x20\n      add\n      swap2\n      jump(tag_64)\n    tag_65:\n      dup3\n      add\n      swap2\n      swap1\n      0x00\n      mstore\n      keccak256(0x00, 0x20)\n      swap1\n    tag_66:\n      dup2\n      sload\n      dup2\n      mstore\n      swap1\n      0x01\n      add\n      swap1\n      0x20\n      add\n      dup1\n      dup4\n      gt\n      tag_66\n      jumpi\n      dup3\n      swap1\n      sub\n      0x1f\n      and\n      dup3\n      add\n      swap2\n    tag_64:\n      pop\n      pop\n      pop\n      pop\n      pop\n      dup2\n      mstore\n      0x20\n      add\n      0x05\n      dup3\n      add\n      0x00\n      swap1\n      sload\n      swap1\n      0x0100\n      exp\n      swap1\n      div\n      0xffffffffffffffffffffffffffffffffffffffff\n      and\n      0xffffffffffffffffffffffffffffffffffffffff\n      and\n      0xffffffffffffffffffffffffffffffffffffffff\n      and\n      dup2\n      mstore\n      0x20\n      add\n      0x05\n      dup3\n      add\n      0x14\n      swap1\n      sload\n      swap1\n      0x0100\n      exp\n      swap1\n      div\n      0xff\n      and\n      iszero\n      iszero\n      iszero\n      iszero\n      dup2\n      mstore\n      pop\n      pop\n      swap1\n      pop\n        /* \"FoodExpiryTracker.sol\":4572:4586  bytes memory d */\n      0x00\n        /* \"FoodExpiryTracker.sol\":4595:4596  p */\n      dup2\n        /* \"FoodExpiryTracker.sol\":4595:4607  p.expiryDate */\n      0x80\n      add\n      mload\n        /* \"FoodExpiryTracker.sol\":4572:4608  bytes memory d = bytes(p.expiryDate) */\n      swap1\n      pop\n        /* \"FoodExpiryTracker.sol\":4617:4628  int256 yyyy */\n      0x00\n        /* \"FoodExpiryTracker.sol\":4631:4660  toInt(d[0], d[1], d[2], d[3]) */\n      tag_67\n        /* \"FoodExpiryTracker.sol\":4637:4638  d */\n      dup3\n        /* \"FoodExpiryTracker.sol\":4639:4640  0 */\n      0x00\n        /* \"FoodExpiryTracker.sol\":4637:4641  d[0] */\n      dup2\n      mload\n      dup2\n      lt\n      tag_68\n      jumpi\n      tag_69\n      tag_70\n      jump\t// in\n    tag_69:\n    tag_68:\n      0x20\n      add\n      add\n      mload\n      0xf8\n      shr\n      0xf8\n      shl\n        /* \"FoodExpiryTracker.sol\":4643:4644  d */\n      dup4\n        /* \"FoodExpiryTracker.sol\":4645:4646  1 */\n      0x01\n        /* \"FoodExpiryTracker.sol\":4643:4647  d[1] */\n      dup2\n      mload\n      dup2\n      lt\n      tag_71\n      jumpi\n      tag_72\n      tag_70\n      jump\t// in\n    tag_72:\n    tag_71:\n      0x20\n      add\n      add\n      mload\n      0xf8\n      shr\n      0xf8\n      shl\n        /* \"FoodExpiryTracker.sol\":4649:4650  d */\n      dup5\n        /* \"FoodExpiryTracker.sol\":4651:4652  2 */\n      0x02\n        /* \"FoodExpiryTracker.sol\":4649:4653  d[2] */\n      dup2\n      mload\n      dup2\n      lt\n      tag_73\n      jumpi\n      tag_74\n      tag_70\n      jump\t// in\n    tag_74:\n    tag_73:\n      0x20\n      add\n      add\n      mload\n      0xf8\n      shr\n      0xf8\n      shl\n        /* \"FoodExpiryTracker.sol\":4655:4656  d */\n      dup6\n        /* \"FoodExpiryTracker.sol\":4657:4658  3 */\n      0x03\n        /* \"FoodExpiryTracker.sol\":4655:4659  d[3] */\n      dup2\n      mload\n      dup2\n      lt\n      tag_75\n      jumpi\n      tag_76\n      tag_70\n      jump\t// in\n    tag_76:\n    tag_75:\n      0x20\n      add\n      add\n      mload\n      0xf8\n      shr\n      0xf8\n      shl\n        /* \"FoodExpiryTracker.sol\":4631:4636  toInt */\n      tag_77\n        /* \"FoodExpiryTracker.sol\":4631:4660  toInt(d[0], d[1], d[2], d[3]) */\n      jump\t// in\n    tag_67:\n        /* \"FoodExpiryTracker.sol\":4617:4660  int256 yyyy = toInt(d[0], d[1], d[2], d[3]) */\n      swap1\n      pop\n        /* \"FoodExpiryTracker.sol\":4667:4676  int256 mm */\n      0x00\n        /* \"FoodExpiryTracker.sol\":4679:4696  toInt(d[5], d[6]) */\n      tag_78\n        /* \"FoodExpiryTracker.sol\":4685:4686  d */\n      dup4\n        /* \"FoodExpiryTracker.sol\":4687:4688  5 */\n      0x05\n        /* \"FoodExpiryTracker.sol\":4685:4689  d[5] */\n      dup2\n      mload\n      dup2\n      lt\n      tag_79\n      jumpi\n      tag_80\n      tag_70\n      jump\t// in\n    tag_80:\n    tag_79:\n      0x20\n      add\n      add\n      mload\n      0xf8\n      shr\n      0xf8\n      shl\n        /* \"FoodExpiryTracker.sol\":4691:4692  d */\n      dup5\n        /* \"FoodExpiryTracker.sol\":4693:4694  6 */\n      0x06\n        /* \"FoodExpiryTracker.sol\":4691:4695  d[6] */\n      dup2\n      mload\n      dup2\n      lt\n      tag_81\n      jumpi\n      tag_82\n      tag_70\n      jump\t// in\n    tag_82:\n    tag_81:\n      0x20\n      add\n      add\n      mload\n      0xf8\n      shr\n      0xf8\n      shl\n        /* \"FoodExpiryTracker.sol\":4679:4684  toInt */\n      tag_83\n        /* \"FoodExpiryTracker.sol\":4679:4696  toInt(d[5], d[6]) */\n      jump\t// in\n    tag_78:\n        /* \"FoodExpiryTracker.sol\":4667:4696  int256 mm = toInt(d[5], d[6]) */\n      swap1\n      pop\n        /* \"FoodExpiryTracker.sol\":4703:4712  int256 dd */\n      0x00\n        /* \"FoodExpiryTracker.sol\":4715:4732  toInt(d[8], d[9]) */\n      tag_84\n        /* \"FoodExpiryTracker.sol\":4721:4722  d */\n      dup5\n        /* \"FoodExpiryTracker.sol\":4723:4724  8 */\n      0x08\n        /* \"FoodExpiryTracker.sol\":4721:4725  d[8] */\n      dup2\n      mload\n      dup2\n      lt\n      tag_85\n      jumpi\n      tag_86\n      tag_70\n      jump\t// in\n    tag_86:\n    tag_85:\n      0x20\n      add\n      add\n      mload\n      0xf8\n      shr\n      0xf8\n      shl\n        /* \"FoodExpiryTracker.sol\":4727:4728  d */\n      dup6\n        /* \"FoodExpiryTracker.sol\":4729:4730  9 */\n      0x09\n        /* \"FoodExpiryTracker.sol\":4727:4731  d[9] */\n      dup2\n      mload\n      dup2\n      lt\n      tag_87\n      jumpi\n      tag_88\n      tag_70\n      jump\t// in\n    tag_88:\n    tag_87:\n      0x20\n      add\n      add\n      mload\n      0xf8\n      shr\n      0xf8\n      shl\n        /* \"FoodExpiryTracker.sol\":4715:4720  toInt */\n      tag_83\n        /* \"FoodExpiryTracker.sol\":4715:4732  toInt(d[8], d[9]) */\n      jump\t// in\n    tag_84:\n        /* \"FoodExpiryTracker.sol\":4703:4732  int256 dd = toInt(d[8], d[9]) */\n      swap1\n      pop\n        /* \"FoodExpiryTracker.sol\":4741:4757  int256 daysValue */\n      0x00\n        /* \"FoodExpiryTracker.sol\":4760:4786  daysFromDate(yyyy, mm, dd) */\n      tag_89\n        /* \"FoodExpiryTracker.sol\":4773:4777  yyyy */\n      dup5\n        /* \"FoodExpiryTracker.sol\":4779:4781  mm */\n      dup5\n        /* \"FoodExpiryTracker.sol\":4783:4785  dd */\n      dup5\n        /* \"FoodExpiryTracker.sol\":4760:4772  daysFromDate */\n      tag_90\n        /* \"FoodExpiryTracker.sol\":4760:4786  daysFromDate(yyyy, mm, dd) */\n      jump\t// in\n    tag_89:\n        /* \"FoodExpiryTracker.sol\":4741:4786  int256 daysValue = daysFromDate(yyyy, mm, dd) */\n      swap1\n      pop\n        /* \"FoodExpiryTracker.sol\":4820:4825  86400 */\n      0x015180\n        /* \"FoodExpiryTracker.sol\":4808:4817  daysValue */\n      dup2\n        /* \"FoodExpiryTracker.sol\":4808:4825  daysValue * 86400 */\n      tag_91\n      swap2\n      swap1\n      tag_92\n      jump\t// in\n    tag_91:\n        /* \"FoodExpiryTracker.sol\":4793:4826  return uint256(daysValue * 86400) */\n      swap7\n      pop\n      pop\n      pop\n      pop\n      pop\n      pop\n      pop\n        /* \"FoodExpiryTracker.sol\":4441:4830  function getExpiryTimestamp(uint256 _productId) public view returns (uint256) {... */\n      swap2\n      swap1\n      pop\n      jump\t// out\n        /* \"FoodExpiryTracker.sol\":2100:2643  function verifyProduct(uint256 _productId)... */\n    tag_23:\n        /* \"FoodExpiryTracker.sol\":2191:2211  string memory status */\n      0x60\n        /* \"FoodExpiryTracker.sol\":2213:2228  int256 daysLeft */\n      0x00\n        /* \"FoodExpiryTracker.sol\":2246:2262  Product memory p */\n      0x00\n        /* \"FoodExpiryTracker.sol\":2265:2273  products */\n      0x00\n        /* \"FoodExpiryTracker.sol\":2265:2285  products[_productId] */\n      0x00\n        /* \"FoodExpiryTracker.sol\":2274:2284  _productId */\n      dup6\n        /* \"FoodExpiryTracker.sol\":2265:2285  products[_productId] */\n      dup2\n      mstore\n      0x20\n      add\n      swap1\n      dup2\n      mstore\n      0x20\n      add\n      0x00\n      keccak256\n        /* \"FoodExpiryTracker.sol\":2246:2285  Product memory p = products[_productId] */\n      mload(0x40)\n      dup1\n      0xe0\n      add\n      0x40\n      mstore\n      swap1\n      dup2\n      0x00\n      dup3\n      add\n      sload\n      dup2\n      mstore\n      0x20\n      add\n      0x01\n      dup3\n      add\n      dup1\n      sload\n      tag_94\n      swap1\n      tag_47\n      jump\t// in\n    tag_94:\n      dup1\n      0x1f\n      add\n      0x20\n      dup1\n      swap2\n      div\n      mul\n      0x20\n      add\n      mload(0x40)\n      swap1\n      dup2\n      add\n      0x40\n      mstore\n      dup1\n      swap3\n      swap2\n      swap1\n      dup2\n      dup2\n      mstore\n      0x20\n      add\n      dup3\n      dup1\n      sload\n      tag_95\n      swap1\n      tag_47\n      jump\t// in\n    tag_95:\n      dup1\n      iszero\n      tag_96\n      jumpi\n      dup1\n      0x1f\n      lt\n      tag_97\n      jumpi\n      0x0100\n      dup1\n      dup4\n      sload\n      div\n      mul\n      dup4\n      mstore\n      swap2\n      0x20\n      add\n      swap2\n      jump(tag_96)\n    tag_97:\n      dup3\n      add\n      swap2\n      swap1\n      0x00\n      mstore\n      keccak256(0x00, 0x20)\n      swap1\n    tag_98:\n      dup2\n      sload\n      dup2\n      mstore\n      swap1\n      0x01\n      add\n      swap1\n      0x20\n      add\n      dup1\n      dup4\n      gt\n      tag_98\n      jumpi\n      dup3\n      swap1\n      sub\n      0x1f\n      and\n      dup3\n      add\n      swap2\n    tag_96:\n      pop\n      pop\n      pop\n      pop\n      pop\n      dup2\n      mstore\n      0x20\n      add\n      0x02\n      dup3\n      add\n      dup1\n      sload\n      tag_99\n      swap1\n      tag_47\n      jump\t// in\n    tag_99:\n      dup1\n      0x1f\n      add\n      0x20\n      dup1\n      swap2\n      div\n      mul\n      0x20\n      add\n      mload(0x40)\n      swap1\n      dup2\n      add\n      0x40\n      mstore\n      dup1\n      swap3\n      swap2\n      swap1\n      dup2\n      dup2\n      mstore\n      0x20\n      add\n      dup3\n      dup1\n      sload\n      tag_100\n      swap1\n      tag_47\n      jump\t// in\n    tag_100:\n      dup1\n      iszero\n      tag_101\n      jumpi\n      dup1\n      0x1f\n      lt\n      tag_102\n      jumpi\n      0x0100\n      dup1\n      dup4\n      sload\n      div\n      mul\n      dup4\n      mstore\n      swap2\n      0x20\n      add\n      swap2\n      jump(tag_101)\n    tag_102:\n      dup3\n      add\n      swap2\n      swap1\n      0x00\n      mstore\n      keccak256(0x00, 0x20)\n      swap1\n    tag_103:\n      dup2\n      sload\n      dup2\n      mstore\n      swap1\n      0x01\n      add\n      swap1\n      0x20\n      add\n      dup1\n      dup4\n      gt\n      tag_103\n      jumpi\n      dup3\n      swap1\n      sub\n      0x1f\n      and\n      dup3\n      add\n      swap2\n    tag_101:\n      pop\n      pop\n      pop\n      pop\n      pop\n      dup2\n      mstore\n      0x20\n      add\n      0x03\n      dup3\n      add\n      dup1\n      sload\n      tag_104\n      swap1\n      tag_47\n      jump\t// in\n    tag_104:\n      dup1\n      0x1f\n      add\n      0x20\n      dup1\n      swap2\n      div\n      mul\n      0x20\n      add\n      mload(0x40)\n      swap1\n      dup2\n      add\n      0x40\n      mstore\n      dup1\n      swap3\n      swap2\n      swap1\n      dup2\n      dup2\n      mstore\n      0x20\n      add\n      dup3\n      dup1\n      sload\n      tag_105\n      swap1\n      tag_47\n      jump\t// in\n    tag_105:\n      dup1\n      iszero\n      tag_106\n      jumpi\n      dup1\n      0x1f\n      lt\n      tag_107\n      jumpi\n      0x0100\n      dup1\n      dup4\n      sload\n      div\n      mul\n      dup4\n      mstore\n      swap2\n      0x20\n      add\n      swap2\n      jump(tag_106)\n    tag_107:\n      dup3\n      add\n      swap2\n      swap1\n      0x00\n      mstore\n      keccak256(0x00, 0x20)\n      swap1\n    tag_108:\n      dup2\n      sload\n      dup2\n      mstore\n      swap1\n      0x01\n      add\n      swap1\n      0x20\n      add\n      dup1\n      dup4\n      gt\n      tag_108\n      jumpi\n      dup3\n      swap1\n      sub\n      0x1f\n      and\n      dup3\n      add\n      swap2\n    tag_106:\n      pop\n      pop\n      pop\n      pop\n      pop\n      dup2\n      mstore\n      0x20\n      add\n      0x04\n      dup3\n      add\n      dup1\n      sload\n      tag_109\n      swap1\n      tag_47\n      jump\t// in\n    tag_109:\n      dup1\n      0x1f\n      add\n      0x20\n      dup1\n      swap2\n      div\n      mul\n      0x20\n      add\n      mload(0x40)\n      swap1\n      dup2\n      add\n      0x40\n      mstore\n      dup1\n      swap3\n      swap2\n      swap1\n      dup2\n      dup2\n      mstore\n      0x20\n      add\n      dup3\n      dup1\n      sload\n      tag_110\n      swap1\n      tag_47\n      jump\t// in\n    tag_110:\n      dup1\n      iszero\n      tag_111\n      jumpi\n      dup1\n      0x1f\n      lt\n      tag_112\n      jumpi\n      0x0100\n      dup1\n      dup4\n      sload\n      div\n      mul\n      dup4\n      mstore\n      swap2\n      0x20\n      add\n      swap2\n      jump(tag_111)\n    tag_112:\n      dup3\n      add\n      swap2\n      swap1\n      0x00\n      mstore\n      keccak256(0x00, 0x20)\n      swap1\n    tag_113:\n      dup2\n      sload\n      dup2\n      mstore\n      swap1\n      0x01\n      add\n      swap1\n      0x20\n      add\n      dup1\n      dup4\n      gt\n      tag_113\n      jumpi\n      dup3\n      swap1\n      sub\n      0x1f\n      and\n      dup3\n      add\n      swap2\n    tag_111:\n      pop\n      pop\n      pop\n      pop\n      pop\n      dup2\n      mstore\n      0x20\n      add\n      0x05\n      dup3\n      add\n      0x00\n      swap1\n      sload\n      swap1\n      0x0100\n      exp\n      swap1\n      div\n      0xffffffffffffffffffffffffffffffffffffffff\n      and\n      0xffffffffffffffffffffffffffffffffffffffff\n      and\n      0xffffffffffffffffffffffffffffffffffffffff\n      and\n      dup2\n      mstore\n      0x20\n      add\n      0x05\n      dup3\n      add\n      0x14\n      swap1\n      sload\n      swap1\n      0x0100\n      exp\n      swap1\n      div\n      0xff\n      and\n      iszero\n      iszero\n      iszero\n      iszero\n      dup2\n      mstore\n      pop\n      pop\n      swap1\n      pop\n        /* \"FoodExpiryTracker.sol\":2303:2304  p */\n      dup1\n        /* \"FoodExpiryTracker.sol\":2303:2313  p.isActive */\n      0xc0\n      add\n      mload\n        /* \"FoodExpiryTracker.sol\":2298:2373  if (!p.isActive) {... */\n      tag_114\n      jumpi\n        /* \"FoodExpiryTracker.sol\":2359:2360  0 */\n      0x00\n        /* \"FoodExpiryTracker.sol\":2330:2361  return (\"Product not found\", 0) */\n      mload(0x40)\n      dup1\n      0x40\n      add\n      0x40\n      mstore\n      dup1\n      0x11\n      dup2\n      mstore\n      0x20\n      add\n      0x50726f64756374206e6f7420666f756e64000000000000000000000000000000\n      dup2\n      mstore\n      pop\n      swap1\n      swap3\n      pop\n      swap3\n      pop\n      pop\n      jump(tag_93)\n        /* \"FoodExpiryTracker.sol\":2298:2373  if (!p.isActive) {... */\n    tag_114:\n        /* \"FoodExpiryTracker.sol\":2386:2393  bool ok */\n      0x00\n        /* \"FoodExpiryTracker.sol\":2395:2406  int256 diff */\n      0x00\n        /* \"FoodExpiryTracker.sol\":2410:2432  diffDays(p.expiryDate) */\n      tag_115\n        /* \"FoodExpiryTracker.sol\":2419:2420  p */\n      dup4\n        /* \"FoodExpiryTracker.sol\":2419:2431  p.expiryDate */\n      0x80\n      add\n      mload\n        /* \"FoodExpiryTracker.sol\":2410:2418  diffDays */\n      tag_116\n        /* \"FoodExpiryTracker.sol\":2410:2432  diffDays(p.expiryDate) */\n      jump\t// in\n    tag_115:\n        /* \"FoodExpiryTracker.sol\":2385:2432  (bool ok, int256 diff) = diffDays(p.expiryDate) */\n      swap2\n      pop\n      swap2\n      pop\n        /* \"FoodExpiryTracker.sol\":2448:2450  ok */\n      dup2\n        /* \"FoodExpiryTracker.sol\":2443:2487  if (!ok) return (\"Invalid expiry format\", 0) */\n      tag_117\n      jumpi\n        /* \"FoodExpiryTracker.sol\":2485:2486  0 */\n      0x00\n        /* \"FoodExpiryTracker.sol\":2452:2487  return (\"Invalid expiry format\", 0) */\n      mload(0x40)\n      dup1\n      0x40\n      add\n      0x40\n      mstore\n      dup1\n      0x15\n      dup2\n      mstore\n      0x20\n      add\n      0x496e76616c69642065787069727920666f726d61740000000000000000000000\n      dup2\n      mstore\n      pop\n      swap1\n      swap5\n      pop\n      swap5\n      pop\n      pop\n      pop\n      pop\n      jump(tag_93)\n        /* \"FoodExpiryTracker.sol\":2443:2487  if (!ok) return (\"Invalid expiry format\", 0) */\n    tag_117:\n        /* \"FoodExpiryTracker.sol\":2511:2512  0 */\n      0x00\n        /* \"FoodExpiryTracker.sol\":2504:2508  diff */\n      dup2\n        /* \"FoodExpiryTracker.sol\":2504:2512  diff < 0 */\n      slt\n        /* \"FoodExpiryTracker.sol\":2500:2636  if (diff < 0) {... */\n      iszero\n      tag_118\n      jumpi\n        /* \"FoodExpiryTracker.sol\":2556:2560  diff */\n      dup1\n        /* \"FoodExpiryTracker.sol\":2529:2561  return (\"Product expired\", diff) */\n      mload(0x40)\n      dup1\n      0x40\n      add\n      0x40\n      mstore\n      dup1\n      0x0f\n      dup2\n      mstore\n      0x20\n      add\n      0x50726f6475637420657870697265640000000000000000000000000000000000\n      dup2\n      mstore\n      pop\n      swap1\n      swap5\n      pop\n      swap5\n      pop\n      pop\n      pop\n      pop\n      jump(tag_93)\n        /* \"FoodExpiryTracker.sol\":2500:2636  if (diff < 0) {... */\n    tag_118:\n        /* \"FoodExpiryTracker.sol\":2619:2623  diff */\n      dup1\n        /* \"FoodExpiryTracker.sol\":2594:2624  return (\"Product valid\", diff) */\n      mload(0x40)\n      dup1\n      0x40\n      add\n      0x40\n      mstore\n      dup1\n      0x0d\n      dup2\n      mstore\n      0x20\n      add\n      0x50726f647563742076616c696400000000000000000000000000000000000000\n      dup2\n      mstore\n      pop\n      swap1\n      swap5\n      pop\n      swap5\n      pop\n      pop\n      pop\n      pop\n        /* \"FoodExpiryTracker.sol\":2100:2643  function verifyProduct(uint256 _productId)... */\n    tag_93:\n      swap2\n      pop\n      swap2\n      jump\t// out\n        /* \"FoodExpiryTracker.sol\":314:357  mapping(uint256 => Product) public products */\n    tag_28:\n      mstore(0x20, 0x00)\n      dup1\n      0x00\n      mstore\n      keccak256(0x00, 0x40)\n      0x00\n      swap2\n      pop\n      swap1\n      pop\n      dup1\n      0x00\n      add\n      sload\n      swap1\n      dup1\n      0x01\n      add\n      dup1\n      sload\n      tag_120\n      swap1\n      tag_47\n      jump\t// in\n    tag_120:\n      dup1\n      0x1f\n      add\n      0x20\n      dup1\n      swap2\n      div\n      mul\n      0x20\n      add\n      mload(0x40)\n      swap1\n      dup2\n      add\n      0x40\n      mstore\n      dup1\n      swap3\n      swap2\n      swap1\n      dup2\n      dup2\n      mstore\n      0x20\n      add\n      dup3\n      dup1\n      sload\n      tag_121\n      swap1\n      tag_47\n      jump\t// in\n    tag_121:\n      dup1\n      iszero\n      tag_122\n      jumpi\n      dup1\n      0x1f\n      lt\n      tag_123\n      jumpi\n      0x0100\n      dup1\n      dup4\n      sload\n      div\n      mul\n      dup4\n      mstore\n      swap2\n      0x20\n      add\n      swap2\n      jump(tag_122)\n    tag_123:\n      dup3\n      add\n      swap2\n      swap1\n      0x00\n      mstore\n      keccak256(0x00, 0x20)\n      swap1\n    tag_124:\n      dup2\n      sload\n      dup2\n      mstore\n      swap1\n      0x01\n      add\n      swap1\n      0x20\n      add\n      dup1\n      dup4\n      gt\n      tag_124\n      jumpi\n      dup3\n      swap1\n      sub\n      0x1f\n      and\n      dup3\n      add\n      swap2\n    tag_122:\n      pop\n      pop\n      pop\n      pop\n      pop\n      swap1\n      dup1\n      0x02\n      add\n      dup1\n      sload\n      tag_125\n      swap1\n      tag_47\n      jump\t// in\n    tag_125:\n      dup1\n      0x1f\n      add\n      0x20\n      dup1\n      swap2\n      div\n      mul\n      0x20\n      add\n      mload(0x40)\n      swap1\n      dup2\n      add\n      0x40\n      mstore\n      dup1\n      swap3\n      swap2\n      swap1\n      dup2\n      dup2\n      mstore\n      0x20\n      add\n      dup3\n      dup1\n      sload\n      tag_126\n      swap1\n      tag_47\n      jump\t// in\n    tag_126:\n      dup1\n      iszero\n      tag_127\n      jumpi\n      dup1\n      0x1f\n      lt\n      tag_128\n      jumpi\n      0x0100\n      dup1\n      dup4\n      sload\n      div\n      mul\n      dup4\n      mstore\n      swap2\n      0x20\n      add\n      swap2\n      jump(tag_127)\n    tag_128:\n      dup3\n      add\n      swap2\n      swap1\n      0x00\n      mstore\n      keccak256(0x00, 0x20)\n      swap1\n    tag_129:\n      dup2\n      sload\n      dup2\n      mstore\n      swap1\n      0x01\n      add\n      swap1\n      0x20\n      add\n      dup1\n      dup4\n      gt\n      tag_129\n      jumpi\n      dup3\n      swap1\n      sub\n      0x1f\n      and\n      dup3\n      add\n      swap2\n    tag_127:\n      pop\n      pop\n      pop\n      pop\n      pop\n      swap1\n      dup1\n      0x03\n      add\n      dup1\n      sload\n      tag_130\n      swap1\n      tag_47\n      jump\t// in\n    tag_130:\n      dup1\n      0x1f\n      add\n      0x20\n      dup1\n      swap2\n      div\n      mul\n      0x20\n      add\n      mload(0x40)\n      swap1\n      dup2\n      add\n      0x40\n      mstore\n      dup1\n      swap3\n      swap2\n      swap1\n      dup2\n      dup2\n      mstore\n      0x20\n      add\n      dup3\n      dup1\n      sload\n      tag_131\n      swap1\n      tag_47\n      jump\t// in\n    tag_131:\n      dup1\n      iszero\n      tag_132\n      jumpi\n      dup1\n      0x1f\n      lt\n      tag_133\n      jumpi\n      0x0100\n      dup1\n      dup4\n      sload\n      div\n      mul\n      dup4\n      mstore\n      swap2\n      0x20\n      add\n      swap2\n      jump(tag_132)\n    tag_133:\n      dup3\n      add\n      swap2\n      swap1\n      0x00\n      mstore\n      keccak256(0x00, 0x20)\n      swap1\n    tag_134:\n      dup2\n      sload\n      dup2\n      mstore\n      swap1\n      0x01\n      add\n      swap1\n      0x20\n      add\n      dup1\n      dup4\n      gt\n      tag_134\n      jumpi\n      dup3\n      swap1\n      sub\n      0x1f\n      and\n      dup3\n      add\n      swap2\n    tag_132:\n      pop\n      pop\n      pop\n      pop\n      pop\n      swap1\n      dup1\n      0x04\n      add\n      dup1\n      sload\n      tag_135\n      swap1\n      tag_47\n      jump\t// in\n    tag_135:\n      dup1\n      0x1f\n      add\n      0x20\n      dup1\n      swap2\n      div\n      mul\n      0x20\n      add\n      mload(0x40)\n      swap1\n      dup2\n      add\n      0x40\n      mstore\n      dup1\n      swap3\n      swap2\n      swap1\n      dup2\n      dup2\n      mstore\n      0x20\n      add\n      dup3\n      dup1\n      sload\n      tag_136\n      swap1\n      tag_47\n      jump\t// in\n    tag_136:\n      dup1\n      iszero\n      tag_137\n      jumpi\n      dup1\n      0x1f\n      lt\n      tag_138\n      jumpi\n      0x0100\n      dup1\n      dup4\n      sload\n      div\n      mul\n      dup4\n      mstore\n      swap2\n      0x20\n      add\n      swap2\n      jump(tag_137)\n    tag_138:\n      dup3\n      add\n      swap2\n      swap1\n      0x00\n      mstore\n      keccak256(0x00, 0x20)\n      swap1\n    tag_139:\n      dup2\n      sload\n      dup2\n      mstore\n      swap1\n      0x01\n      add\n      swap1\n      0x20\n      add\n      dup1\n      dup4\n      gt\n      tag_139\n      jumpi\n      dup3\n      swap1\n      sub\n      0x1f\n      and\n      dup3\n      add\n      swap2\n    tag_137:\n      pop\n      pop\n      pop\n      pop\n      pop\n      swap1\n      dup1\n      0x05\n      add\n      0x00\n      swap1\n      sload\n      swap1\n      0x0100\n      exp\n      swap1\n      div\n      0xffffffffffffffffffffffffffffffffffffffff\n      and\n      swap1\n      dup1\n      0x05\n      add\n      0x14\n      swap1\n      sload\n      swap1\n      0x0100\n      exp\n      swap1\n      div\n      0xff\n      and\n      swap1\n      pop\n      dup8\n      jump\t// out\n        /* \"FoodExpiryTracker.sol\":401:428  uint256[] public productIds */\n    tag_33:\n      0x01\n      dup2\n      dup2\n      sload\n      dup2\n      lt\n      tag_140\n      jumpi\n      0x00\n      dup1\n      revert\n    tag_140:\n      swap1\n      0x00\n      mstore\n      keccak256(0x00, 0x20)\n      add\n      0x00\n      swap2\n      pop\n      swap1\n      pop\n      sload\n      dup2\n      jump\t// out\n        /* \"FoodExpiryTracker.sol\":557:1267  function addProduct(... */\n    tag_38:\n        /* \"FoodExpiryTracker.sol\":804:805  0 */\n      0x00\n        /* \"FoodExpiryTracker.sol\":788:793  _name */\n      dup5\n        /* \"FoodExpiryTracker.sol\":782:801  bytes(_name).length */\n      mload\n        /* \"FoodExpiryTracker.sol\":782:805  bytes(_name).length > 0 */\n      gt\n        /* \"FoodExpiryTracker.sol\":774:823  require(bytes(_name).length > 0, \"Name required\") */\n      tag_143\n      jumpi\n      mload(0x40)\n      0x08c379a000000000000000000000000000000000000000000000000000000000\n      dup2\n      mstore\n      0x04\n      add\n      tag_144\n      swap1\n      tag_145\n      jump\t// in\n    tag_144:\n      mload(0x40)\n      dup1\n      swap2\n      sub\n      swap1\n      revert\n    tag_143:\n        /* \"FoodExpiryTracker.sol\":870:871  0 */\n      0x00\n        /* \"FoodExpiryTracker.sol\":848:859  _expiryDate */\n      dup2\n        /* \"FoodExpiryTracker.sol\":842:867  bytes(_expiryDate).length */\n      mload\n        /* \"FoodExpiryTracker.sol\":842:871  bytes(_expiryDate).length > 0 */\n      gt\n        /* \"FoodExpiryTracker.sol\":834:891  require(bytes(_expiryDate).length > 0, \"Expiry required\") */\n      tag_146\n      jumpi\n      mload(0x40)\n      0x08c379a000000000000000000000000000000000000000000000000000000000\n      dup2\n      mstore\n      0x04\n      add\n      tag_147\n      swap1\n      tag_148\n      jump\t// in\n    tag_147:\n      mload(0x40)\n      dup1\n      swap2\n      sub\n      swap1\n      revert\n    tag_146:\n        /* \"FoodExpiryTracker.sol\":965:1185  Product(... */\n      mload(0x40)\n      dup1\n      0xe0\n      add\n      0x40\n      mstore\n      dup1\n        /* \"FoodExpiryTracker.sol\":991:1001  _productId */\n      dup7\n        /* \"FoodExpiryTracker.sol\":965:1185  Product(... */\n      dup2\n      mstore\n      0x20\n      add\n        /* \"FoodExpiryTracker.sol\":1020:1025  _name */\n      dup6\n        /* \"FoodExpiryTracker.sol\":965:1185  Product(... */\n      dup2\n      mstore\n      0x20\n      add\n        /* \"FoodExpiryTracker.sol\":1044:1053  _category */\n      dup5\n        /* \"FoodExpiryTracker.sol\":965:1185  Product(... */\n      dup2\n      mstore\n      0x20\n      add\n        /* \"FoodExpiryTracker.sol\":1072:1088  _manufactureDate */\n      dup4\n        /* \"FoodExpiryTracker.sol\":965:1185  Product(... */\n      dup2\n      mstore\n      0x20\n      add\n        /* \"FoodExpiryTracker.sol\":1107:1118  _expiryDate */\n      dup3\n        /* \"FoodExpiryTracker.sol\":965:1185  Product(... */\n      dup2\n      mstore\n      0x20\n      add\n        /* \"FoodExpiryTracker.sol\":1137:1147  msg.sender */\n      caller\n        /* \"FoodExpiryTracker.sol\":965:1185  Product(... */\n      0xffffffffffffffffffffffffffffffffffffffff\n      and\n      dup2\n      mstore\n      0x20\n      add\n        /* \"FoodExpiryTracker.sol\":1166:1170  true */\n      0x01\n        /* \"FoodExpiryTracker.sol\":965:1185  Product(... */\n      iszero\n      iszero\n      dup2\n      mstore\n      pop\n        /* \"FoodExpiryTracker.sol\":929:937  products */\n      0x00\n        /* \"FoodExpiryTracker.sol\":929:949  products[_productId] */\n      0x00\n        /* \"FoodExpiryTracker.sol\":938:948  _productId */\n      dup8\n        /* \"FoodExpiryTracker.sol\":929:949  products[_productId] */\n      dup2\n      mstore\n      0x20\n      add\n      swap1\n      dup2\n      mstore\n      0x20\n      add\n      0x00\n      keccak256\n        /* \"FoodExpiryTracker.sol\":929:1185  products[_productId] =... */\n      0x00\n      dup3\n      add\n      mload\n      dup2\n      0x00\n      add\n      sstore\n      0x20\n      dup3\n      add\n      mload\n      dup2\n      0x01\n      add\n      swap1\n      dup2\n      tag_149\n      swap2\n      swap1\n      tag_150\n      jump\t// in\n    tag_149:\n      pop\n      0x40\n      dup3\n      add\n      mload\n      dup2\n      0x02\n      add\n      swap1\n      dup2\n      tag_151\n      swap2\n      swap1\n      tag_150\n      jump\t// in\n    tag_151:\n      pop\n      0x60\n      dup3\n      add\n      mload\n      dup2\n      0x03\n      add\n      swap1\n      dup2\n      tag_152\n      swap2\n      swap1\n      tag_150\n      jump\t// in\n    tag_152:\n      pop\n      0x80\n      dup3\n      add\n      mload\n      dup2\n      0x04\n      add\n      swap1\n      dup2\n      tag_153\n      swap2\n      swap1\n      tag_150\n      jump\t// in\n    tag_153:\n      pop\n      0xa0\n      dup3\n      add\n      mload\n      dup2\n      0x05\n      add\n      exp(0x0100, 0x00)\n      dup2\n      sload\n      dup2\n      0xffffffffffffffffffffffffffffffffffffffff\n      mul\n      not\n      and\n      swap1\n      dup4\n      0xffffffffffffffffffffffffffffffffffffffff\n      and\n      mul\n      or\n      swap1\n      sstore\n      pop\n      0xc0\n      dup3\n      add\n      mload\n      dup2\n      0x05\n      add\n      exp(0x0100, 0x14)\n      dup2\n      sload\n      dup2\n      0xff\n      mul\n      not\n      and\n      swap1\n      dup4\n      iszero\n      iszero\n      mul\n      or\n      swap1\n      sstore\n      pop\n      swap1\n      pop\n      pop\n        /* \"FoodExpiryTracker.sol\":1232:1242  productIds */\n      0x01\n        /* \"FoodExpiryTracker.sol\":1248:1258  _productId */\n      dup6\n        /* \"FoodExpiryTracker.sol\":1232:1259  productIds.push(_productId) */\n      swap1\n      dup1\n      0x01\n      dup2\n      sload\n      add\n      dup1\n      dup3\n      sstore\n      dup1\n      swap2\n      pop\n      pop\n      0x01\n      swap1\n      sub\n      swap1\n      0x00\n      mstore\n      keccak256(0x00, 0x20)\n      add\n      0x00\n      swap1\n      swap2\n      swap1\n      swap2\n      swap1\n      swap2\n      pop\n      sstore\n        /* \"FoodExpiryTracker.sol\":557:1267  function addProduct(... */\n      pop\n      pop\n      pop\n      pop\n      pop\n      jump\t// out\n        /* \"FoodExpiryTracker.sol\":1663:1969  function deleteProduct(uint256 _productId) public {... */\n    tag_41:\n        /* \"FoodExpiryTracker.sol\":1732:1740  products */\n      0x00\n        /* \"FoodExpiryTracker.sol\":1732:1752  products[_productId] */\n      0x00\n        /* \"FoodExpiryTracker.sol\":1741:1751  _productId */\n      dup3\n        /* \"FoodExpiryTracker.sol\":1732:1752  products[_productId] */\n      dup2\n      mstore\n      0x20\n      add\n      swap1\n      dup2\n      mstore\n      0x20\n      add\n      0x00\n      keccak256\n        /* \"FoodExpiryTracker.sol\":1732:1761  products[_productId].isActive */\n      0x05\n      add\n      0x14\n      swap1\n      sload\n      swap1\n      0x0100\n      exp\n      swap1\n      div\n      0xff\n      and\n        /* \"FoodExpiryTracker.sol\":1724:1783  require(products[_productId].isActive, \"Product not found\") */\n      tag_156\n      jumpi\n      mload(0x40)\n      0x08c379a000000000000000000000000000000000000000000000000000000000\n      dup2\n      mstore\n      0x04\n      add\n      tag_157\n      swap1\n      tag_158\n      jump\t// in\n    tag_157:\n      mload(0x40)\n      dup1\n      swap2\n      sub\n      swap1\n      revert\n    tag_156:\n        /* \"FoodExpiryTracker.sol\":1882:1892  msg.sender */\n      caller\n        /* \"FoodExpiryTracker.sol\":1845:1892  products[_productId].manufacturer == msg.sender */\n      0xffffffffffffffffffffffffffffffffffffffff\n      and\n        /* \"FoodExpiryTracker.sol\":1845:1853  products */\n      0x00\n        /* \"FoodExpiryTracker.sol\":1845:1865  products[_productId] */\n      0x00\n        /* \"FoodExpiryTracker.sol\":1854:1864  _productId */\n      dup4\n        /* \"FoodExpiryTracker.sol\":1845:1865  products[_productId] */\n      dup2\n      mstore\n      0x20\n      add\n      swap1\n      dup2\n      mstore\n      0x20\n      add\n      0x00\n      keccak256\n        /* \"FoodExpiryTracker.sol\":1845:1878  products[_productId].manufacturer */\n      0x05\n      add\n      0x00\n      swap1\n      sload\n      swap1\n      0x0100\n      exp\n      swap1\n      div\n      0xffffffffffffffffffffffffffffffffffffffff\n      and\n        /* \"FoodExpiryTracker.sol\":1845:1892  products[_productId].manufacturer == msg.sender */\n      0xffffffffffffffffffffffffffffffffffffffff\n      and\n      eq\n        /* \"FoodExpiryTracker.sol\":1837:1911  require(products[_productId].manufacturer == msg.sender, \"Not authorized\") */\n      tag_159\n      jumpi\n      mload(0x40)\n      0x08c379a000000000000000000000000000000000000000000000000000000000\n      dup2\n      mstore\n      0x04\n      add\n      tag_160\n      swap1\n      tag_161\n      jump\t// in\n    tag_160:\n      mload(0x40)\n      dup1\n      swap2\n      sub\n      swap1\n      revert\n    tag_159:\n        /* \"FoodExpiryTracker.sol\":1956:1961  false */\n      0x00\n        /* \"FoodExpiryTracker.sol\":1924:1932  products */\n      0x00\n        /* \"FoodExpiryTracker.sol\":1924:1944  products[_productId] */\n      0x00\n        /* \"FoodExpiryTracker.sol\":1933:1943  _productId */\n      dup4\n        /* \"FoodExpiryTracker.sol\":1924:1944  products[_productId] */\n      dup2\n      mstore\n      0x20\n      add\n      swap1\n      dup2\n      mstore\n      0x20\n      add\n      0x00\n      keccak256\n        /* \"FoodExpiryTracker.sol\":1924:1953  products[_productId].isActive */\n      0x05\n      add\n      0x14\n        /* \"FoodExpiryTracker.sol\":1924:1961  products[_productId].isActive = false */\n      0x0100\n      exp\n      dup2\n      sload\n      dup2\n      0xff\n      mul\n      not\n      and\n      swap1\n      dup4\n      iszero\n      iszero\n      mul\n      or\n      swap1\n      sstore\n      pop\n        /* \"FoodExpiryTracker.sol\":1663:1969  function deleteProduct(uint256 _productId) public {... */\n      pop\n      jump\t// out\n        /* \"FoodExpiryTracker.sol\":3338:3669  function toInt(bytes1 a, bytes1 b, bytes1 c, bytes1 d)... */\n    tag_77:\n        /* \"FoodExpiryTracker.sol\":3443:3449  int256 */\n      0x00\n        /* \"FoodExpiryTracker.sol\":3658:3660  48 */\n      0x30\n        /* \"FoodExpiryTracker.sol\":3652:3653  d */\n      dup3\n        /* \"FoodExpiryTracker.sol\":3646:3654  uint8(d) */\n      0xf8\n      shr\n        /* \"FoodExpiryTracker.sol\":3641:3660  int8(uint8(d)) - 48 */\n      tag_163\n      swap2\n      swap1\n      tag_164\n      jump\t// in\n    tag_163:\n        /* \"FoodExpiryTracker.sol\":3634:3661  int256(int8(uint8(d)) - 48) */\n      0x00\n      signextend\n        /* \"FoodExpiryTracker.sol\":3616:3618  10 */\n      0x0a\n        /* \"FoodExpiryTracker.sol\":3610:3612  48 */\n      0x30\n        /* \"FoodExpiryTracker.sol\":3604:3605  c */\n      dup6\n        /* \"FoodExpiryTracker.sol\":3598:3606  uint8(c) */\n      0xf8\n      shr\n        /* \"FoodExpiryTracker.sol\":3593:3612  int8(uint8(c)) - 48 */\n      tag_165\n      swap2\n      swap1\n      tag_164\n      jump\t// in\n    tag_165:\n        /* \"FoodExpiryTracker.sol\":3586:3613  int256(int8(uint8(c)) - 48) */\n      0x00\n      signextend\n        /* \"FoodExpiryTracker.sol\":3586:3618  int256(int8(uint8(c)) - 48) * 10 */\n      tag_166\n      swap2\n      swap1\n      tag_92\n      jump\t// in\n    tag_166:\n        /* \"FoodExpiryTracker.sol\":3567:3570  100 */\n      0x64\n        /* \"FoodExpiryTracker.sol\":3561:3563  48 */\n      0x30\n        /* \"FoodExpiryTracker.sol\":3555:3556  b */\n      dup8\n        /* \"FoodExpiryTracker.sol\":3549:3557  uint8(b) */\n      0xf8\n      shr\n        /* \"FoodExpiryTracker.sol\":3544:3563  int8(uint8(b)) - 48 */\n      tag_167\n      swap2\n      swap1\n      tag_164\n      jump\t// in\n    tag_167:\n        /* \"FoodExpiryTracker.sol\":3537:3564  int256(int8(uint8(b)) - 48) */\n      0x00\n      signextend\n        /* \"FoodExpiryTracker.sol\":3537:3570  int256(int8(uint8(b)) - 48) * 100 */\n      tag_168\n      swap2\n      swap1\n      tag_92\n      jump\t// in\n    tag_168:\n        /* \"FoodExpiryTracker.sol\":3517:3521  1000 */\n      0x03e8\n        /* \"FoodExpiryTracker.sol\":3511:3513  48 */\n      0x30\n        /* \"FoodExpiryTracker.sol\":3505:3506  a */\n      dup10\n        /* \"FoodExpiryTracker.sol\":3499:3507  uint8(a) */\n      0xf8\n      shr\n        /* \"FoodExpiryTracker.sol\":3494:3513  int8(uint8(a)) - 48 */\n      tag_169\n      swap2\n      swap1\n      tag_164\n      jump\t// in\n    tag_169:\n        /* \"FoodExpiryTracker.sol\":3487:3514  int256(int8(uint8(a)) - 48) */\n      0x00\n      signextend\n        /* \"FoodExpiryTracker.sol\":3487:3521  int256(int8(uint8(a)) - 48) * 1000 */\n      tag_170\n      swap2\n      swap1\n      tag_92\n      jump\t// in\n    tag_170:\n        /* \"FoodExpiryTracker.sol\":3487:3570  int256(int8(uint8(a)) - 48) * 1000 +... */\n      tag_171\n      swap2\n      swap1\n      tag_172\n      jump\t// in\n    tag_171:\n        /* \"FoodExpiryTracker.sol\":3487:3618  int256(int8(uint8(a)) - 48) * 1000 +... */\n      tag_173\n      swap2\n      swap1\n      tag_172\n      jump\t// in\n    tag_173:\n        /* \"FoodExpiryTracker.sol\":3487:3661  int256(int8(uint8(a)) - 48) * 1000 +... */\n      tag_174\n      swap2\n      swap1\n      tag_172\n      jump\t// in\n    tag_174:\n        /* \"FoodExpiryTracker.sol\":3467:3661  return... */\n      swap1\n      pop\n        /* \"FoodExpiryTracker.sol\":3338:3669  function toInt(bytes1 a, bytes1 b, bytes1 c, bytes1 d)... */\n      swap5\n      swap4\n      pop\n      pop\n      pop\n      pop\n      jump\t// out\n        /* \"FoodExpiryTracker.sol\":3677:3877  function toInt(bytes1 a, bytes1 b)... */\n    tag_83:\n        /* \"FoodExpiryTracker.sol\":3762:3768  int256 */\n      0x00\n        /* \"FoodExpiryTracker.sol\":3866:3868  48 */\n      0x30\n        /* \"FoodExpiryTracker.sol\":3860:3861  b */\n      dup3\n        /* \"FoodExpiryTracker.sol\":3854:3862  uint8(b) */\n      0xf8\n      shr\n        /* \"FoodExpiryTracker.sol\":3849:3868  int8(uint8(b)) - 48 */\n      tag_176\n      swap2\n      swap1\n      tag_164\n      jump\t// in\n    tag_176:\n        /* \"FoodExpiryTracker.sol\":3830:3832  10 */\n      0x0a\n        /* \"FoodExpiryTracker.sol\":3824:3826  48 */\n      0x30\n        /* \"FoodExpiryTracker.sol\":3818:3819  a */\n      dup6\n        /* \"FoodExpiryTracker.sol\":3812:3820  uint8(a) */\n      0xf8\n      shr\n        /* \"FoodExpiryTracker.sol\":3807:3826  int8(uint8(a)) - 48 */\n      tag_177\n      swap2\n      swap1\n      tag_164\n      jump\t// in\n    tag_177:\n        /* \"FoodExpiryTracker.sol\":3806:3832  (int8(uint8(a)) - 48) * 10 */\n      tag_178\n      swap2\n      swap1\n      tag_179\n      jump\t// in\n    tag_178:\n        /* \"FoodExpiryTracker.sol\":3806:3869  (int8(uint8(a)) - 48) * 10 +... */\n      tag_180\n      swap2\n      swap1\n      tag_181\n      jump\t// in\n    tag_180:\n        /* \"FoodExpiryTracker.sol\":3786:3869  return... */\n      0x00\n      signextend\n      swap1\n      pop\n        /* \"FoodExpiryTracker.sol\":3677:3877  function toInt(bytes1 a, bytes1 b)... */\n      swap3\n      swap2\n      pop\n      pop\n      jump\t// out\n        /* \"FoodExpiryTracker.sol\":4007:4435  function daysFromDate(int256 y, int256 m, int256 d)... */\n    tag_90:\n        /* \"FoodExpiryTracker.sol\":4109:4115  int256 */\n      0x00\n        /* \"FoodExpiryTracker.sol\":4141:4142  3 */\n      0x03\n        /* \"FoodExpiryTracker.sol\":4137:4138  m */\n      dup4\n        /* \"FoodExpiryTracker.sol\":4137:4142  m < 3 */\n      slt\n        /* \"FoodExpiryTracker.sol\":4133:4199  if (m < 3) {... */\n      iszero\n      tag_183\n      jumpi\n        /* \"FoodExpiryTracker.sol\":4164:4165  1 */\n      0x01\n        /* \"FoodExpiryTracker.sol\":4159:4165  y -= 1 */\n      dup5\n      tag_184\n      swap2\n      swap1\n      tag_185\n      jump\t// in\n    tag_184:\n      swap4\n      pop\n        /* \"FoodExpiryTracker.sol\":4185:4187  12 */\n      0x0c\n        /* \"FoodExpiryTracker.sol\":4180:4187  m += 12 */\n      dup4\n      tag_186\n      swap2\n      swap1\n      tag_172\n      jump\t// in\n    tag_186:\n      swap3\n      pop\n        /* \"FoodExpiryTracker.sol\":4133:4199  if (m < 3) {... */\n    tag_183:\n        /* \"FoodExpiryTracker.sol\":4209:4219  int256 era */\n      0x00\n        /* \"FoodExpiryTracker.sol\":4226:4229  400 */\n      0x0190\n        /* \"FoodExpiryTracker.sol\":4222:4223  y */\n      dup6\n        /* \"FoodExpiryTracker.sol\":4222:4229  y / 400 */\n      tag_187\n      swap2\n      swap1\n      tag_188\n      jump\t// in\n    tag_187:\n        /* \"FoodExpiryTracker.sol\":4209:4229  int256 era = y / 400 */\n      swap1\n      pop\n        /* \"FoodExpiryTracker.sol\":4240:4250  int256 yoe */\n      0x00\n        /* \"FoodExpiryTracker.sol\":4263:4266  400 */\n      0x0190\n        /* \"FoodExpiryTracker.sol\":4257:4260  era */\n      dup3\n        /* \"FoodExpiryTracker.sol\":4257:4266  era * 400 */\n      tag_189\n      swap2\n      swap1\n      tag_92\n      jump\t// in\n    tag_189:\n        /* \"FoodExpiryTracker.sol\":4253:4254  y */\n      dup7\n        /* \"FoodExpiryTracker.sol\":4253:4266  y - era * 400 */\n      tag_190\n      swap2\n      swap1\n      tag_185\n      jump\t// in\n    tag_190:\n        /* \"FoodExpiryTracker.sol\":4240:4266  int256 yoe = y - era * 400 */\n      swap1\n      pop\n        /* \"FoodExpiryTracker.sol\":4277:4287  int256 doy */\n      0x00\n        /* \"FoodExpiryTracker.sol\":4320:4321  1 */\n      0x01\n        /* \"FoodExpiryTracker.sol\":4316:4317  d */\n      dup6\n        /* \"FoodExpiryTracker.sol\":4312:4313  5 */\n      0x05\n        /* \"FoodExpiryTracker.sol\":4307:4308  2 */\n      0x02\n        /* \"FoodExpiryTracker.sol\":4302:4303  3 */\n      0x03\n        /* \"FoodExpiryTracker.sol\":4298:4299  m */\n      dup11\n        /* \"FoodExpiryTracker.sol\":4298:4303  m - 3 */\n      tag_191\n      swap2\n      swap1\n      tag_185\n      jump\t// in\n    tag_191:\n        /* \"FoodExpiryTracker.sol\":4291:4294  153 */\n      0x99\n        /* \"FoodExpiryTracker.sol\":4291:4304  153 * (m - 3) */\n      tag_192\n      swap2\n      swap1\n      tag_92\n      jump\t// in\n    tag_192:\n        /* \"FoodExpiryTracker.sol\":4291:4308  153 * (m - 3) + 2 */\n      tag_193\n      swap2\n      swap1\n      tag_172\n      jump\t// in\n    tag_193:\n        /* \"FoodExpiryTracker.sol\":4290:4313  (153 * (m - 3) + 2) / 5 */\n      tag_194\n      swap2\n      swap1\n      tag_188\n      jump\t// in\n    tag_194:\n        /* \"FoodExpiryTracker.sol\":4290:4317  (153 * (m - 3) + 2) / 5 + d */\n      tag_195\n      swap2\n      swap1\n      tag_172\n      jump\t// in\n    tag_195:\n        /* \"FoodExpiryTracker.sol\":4290:4321  (153 * (m - 3) + 2) / 5 + d - 1 */\n      tag_196\n      swap2\n      swap1\n      tag_185\n      jump\t// in\n    tag_196:\n        /* \"FoodExpiryTracker.sol\":4277:4321  int256 doy = (153 * (m - 3) + 2) / 5 + d - 1 */\n      swap1\n      pop\n        /* \"FoodExpiryTracker.sol\":4332:4342  int256 doe */\n      0x00\n        /* \"FoodExpiryTracker.sol\":4379:4382  doy */\n      dup2\n        /* \"FoodExpiryTracker.sol\":4373:4376  100 */\n      0x64\n        /* \"FoodExpiryTracker.sol\":4367:4370  yoe */\n      dup5\n        /* \"FoodExpiryTracker.sol\":4367:4376  yoe / 100 */\n      tag_197\n      swap2\n      swap1\n      tag_188\n      jump\t// in\n    tag_197:\n        /* \"FoodExpiryTracker.sol\":4363:4364  4 */\n      0x04\n        /* \"FoodExpiryTracker.sol\":4357:4360  yoe */\n      dup6\n        /* \"FoodExpiryTracker.sol\":4357:4364  yoe / 4 */\n      tag_198\n      swap2\n      swap1\n      tag_188\n      jump\t// in\n    tag_198:\n        /* \"FoodExpiryTracker.sol\":4351:4354  365 */\n      0x016d\n        /* \"FoodExpiryTracker.sol\":4345:4348  yoe */\n      dup7\n        /* \"FoodExpiryTracker.sol\":4345:4354  yoe * 365 */\n      tag_199\n      swap2\n      swap1\n      tag_92\n      jump\t// in\n    tag_199:\n        /* \"FoodExpiryTracker.sol\":4345:4364  yoe * 365 + yoe / 4 */\n      tag_200\n      swap2\n      swap1\n      tag_172\n      jump\t// in\n    tag_200:\n        /* \"FoodExpiryTracker.sol\":4345:4376  yoe * 365 + yoe / 4 - yoe / 100 */\n      tag_201\n      swap2\n      swap1\n      tag_185\n      jump\t// in\n    tag_201:\n        /* \"FoodExpiryTracker.sol\":4345:4382  yoe * 365 + yoe / 4 - yoe / 100 + doy */\n      tag_202\n      swap2\n      swap1\n      tag_172\n      jump\t// in\n    tag_202:\n        /* \"FoodExpiryTracker.sol\":4332:4382  int256 doe = yoe * 365 + yoe / 4 - yoe / 100 + doy */\n      swap1\n      pop\n        /* \"FoodExpiryTracker.sol\":4421:4427  719468 */\n      0x0afa6c\n        /* \"FoodExpiryTracker.sol\":4415:4418  doe */\n      dup2\n        /* \"FoodExpiryTracker.sol\":4406:4412  146097 */\n      0x023ab1\n        /* \"FoodExpiryTracker.sol\":4400:4403  era */\n      dup7\n        /* \"FoodExpiryTracker.sol\":4400:4412  era * 146097 */\n      tag_203\n      swap2\n      swap1\n      tag_92\n      jump\t// in\n    tag_203:\n        /* \"FoodExpiryTracker.sol\":4400:4418  era * 146097 + doe */\n      tag_204\n      swap2\n      swap1\n      tag_172\n      jump\t// in\n    tag_204:\n        /* \"FoodExpiryTracker.sol\":4400:4427  era * 146097 + doe - 719468 */\n      tag_205\n      swap2\n      swap1\n      tag_185\n      jump\t// in\n    tag_205:\n        /* \"FoodExpiryTracker.sol\":4393:4427  return era * 146097 + doe - 719468 */\n      swap5\n      pop\n      pop\n      pop\n      pop\n      pop\n        /* \"FoodExpiryTracker.sol\":4007:4435  function daysFromDate(int256 y, int256 m, int256 d)... */\n      swap4\n      swap3\n      pop\n      pop\n      pop\n      jump\t// out\n        /* \"FoodExpiryTracker.sol\":2774:3330  function diffDays(string memory date)... */\n    tag_116:\n        /* \"FoodExpiryTracker.sol\":2862:2866  bool */\n      0x00\n        /* \"FoodExpiryTracker.sol\":2868:2874  int256 */\n      0x00\n        /* \"FoodExpiryTracker.sol\":2892:2906  bytes memory d */\n      0x00\n        /* \"FoodExpiryTracker.sol\":2915:2919  date */\n      dup4\n        /* \"FoodExpiryTracker.sol\":2892:2920  bytes memory d = bytes(date) */\n      swap1\n      pop\n        /* \"FoodExpiryTracker.sol\":2947:2949  10 */\n      0x0a\n        /* \"FoodExpiryTracker.sol\":2935:2936  d */\n      dup2\n        /* \"FoodExpiryTracker.sol\":2935:2943  d.length */\n      mload\n        /* \"FoodExpiryTracker.sol\":2935:2949  d.length != 10 */\n      eq\n        /* \"FoodExpiryTracker.sol\":2931:2968  if (d.length != 10) return (false, 0) */\n      tag_207\n      jumpi\n        /* \"FoodExpiryTracker.sol\":2959:2964  false */\n      0x00\n        /* \"FoodExpiryTracker.sol\":2966:2967  0 */\n      0x00\n        /* \"FoodExpiryTracker.sol\":2951:2968  return (false, 0) */\n      swap3\n      pop\n      swap3\n      pop\n      pop\n      jump(tag_206)\n        /* \"FoodExpiryTracker.sol\":2931:2968  if (d.length != 10) return (false, 0) */\n    tag_207:\n        /* \"FoodExpiryTracker.sol\":2981:2992  int256 yyyy */\n      0x00\n        /* \"FoodExpiryTracker.sol\":2995:3024  toInt(d[0], d[1], d[2], d[3]) */\n      tag_208\n        /* \"FoodExpiryTracker.sol\":3001:3002  d */\n      dup3\n        /* \"FoodExpiryTracker.sol\":3003:3004  0 */\n      0x00\n        /* \"FoodExpiryTracker.sol\":3001:3005  d[0] */\n      dup2\n      mload\n      dup2\n      lt\n      tag_209\n      jumpi\n      tag_210\n      tag_70\n      jump\t// in\n    tag_210:\n    tag_209:\n      0x20\n      add\n      add\n      mload\n      0xf8\n      shr\n      0xf8\n      shl\n        /* \"FoodExpiryTracker.sol\":3007:3008  d */\n      dup4\n        /* \"FoodExpiryTracker.sol\":3009:3010  1 */\n      0x01\n        /* \"FoodExpiryTracker.sol\":3007:3011  d[1] */\n      dup2\n      mload\n      dup2\n      lt\n      tag_211\n      jumpi\n      tag_212\n      tag_70\n      jump\t// in\n    tag_212:\n    tag_211:\n      0x20\n      add\n      add\n      mload\n      0xf8\n      shr\n      0xf8\n      shl\n        /* \"FoodExpiryTracker.sol\":3013:3014  d */\n      dup5\n        /* \"FoodExpiryTracker.sol\":3015:3016  2 */\n      0x02\n        /* \"FoodExpiryTracker.sol\":3013:3017  d[2] */\n      dup2\n      mload\n      dup2\n      lt\n      tag_213\n      jumpi\n      tag_214\n      tag_70\n      jump\t// in\n    tag_214:\n    tag_213:\n      0x20\n      add\n      add\n      mload\n      0xf8\n      shr\n      0xf8\n      shl\n        /* \"FoodExpiryTracker.sol\":3019:3020  d */\n      dup6\n        /* \"FoodExpiryTracker.sol\":3021:3022  3 */\n      0x03\n        /* \"FoodExpiryTracker.sol\":3019:3023  d[3] */\n      dup2\n      mload\n      dup2\n      lt\n      tag_215\n      jumpi\n      tag_216\n      tag_70\n      jump\t// in\n    tag_216:\n    tag_215:\n      0x20\n      add\n      add\n      mload\n      0xf8\n      shr\n      0xf8\n      shl\n        /* \"FoodExpiryTracker.sol\":2995:3000  toInt */\n      tag_77\n        /* \"FoodExpiryTracker.sol\":2995:3024  toInt(d[0], d[1], d[2], d[3]) */\n      jump\t// in\n    tag_208:\n        /* \"FoodExpiryTracker.sol\":2981:3024  int256 yyyy = toInt(d[0], d[1], d[2], d[3]) */\n      swap1\n      pop\n        /* \"FoodExpiryTracker.sol\":3035:3044  int256 mm */\n      0x00\n        /* \"FoodExpiryTracker.sol\":3047:3064  toInt(d[5], d[6]) */\n      tag_217\n        /* \"FoodExpiryTracker.sol\":3053:3054  d */\n      dup4\n        /* \"FoodExpiryTracker.sol\":3055:3056  5 */\n      0x05\n        /* \"FoodExpiryTracker.sol\":3053:3057  d[5] */\n      dup2\n      mload\n      dup2\n      lt\n      tag_218\n      jumpi\n      tag_219\n      tag_70\n      jump\t// in\n    tag_219:\n    tag_218:\n      0x20\n      add\n      add\n      mload\n      0xf8\n      shr\n      0xf8\n      shl\n        /* \"FoodExpiryTracker.sol\":3059:3060  d */\n      dup5\n        /* \"FoodExpiryTracker.sol\":3061:3062  6 */\n      0x06\n        /* \"FoodExpiryTracker.sol\":3059:3063  d[6] */\n      dup2\n      mload\n      dup2\n      lt\n      tag_220\n      jumpi\n      tag_221\n      tag_70\n      jump\t// in\n    tag_221:\n    tag_220:\n      0x20\n      add\n      add\n      mload\n      0xf8\n      shr\n      0xf8\n      shl\n        /* \"FoodExpiryTracker.sol\":3047:3052  toInt */\n      tag_83\n        /* \"FoodExpiryTracker.sol\":3047:3064  toInt(d[5], d[6]) */\n      jump\t// in\n    tag_217:\n        /* \"FoodExpiryTracker.sol\":3035:3064  int256 mm = toInt(d[5], d[6]) */\n      swap1\n      pop\n        /* \"FoodExpiryTracker.sol\":3075:3084  int256 dd */\n      0x00\n        /* \"FoodExpiryTracker.sol\":3087:3104  toInt(d[8], d[9]) */\n      tag_222\n        /* \"FoodExpiryTracker.sol\":3093:3094  d */\n      dup5\n        /* \"FoodExpiryTracker.sol\":3095:3096  8 */\n      0x08\n        /* \"FoodExpiryTracker.sol\":3093:3097  d[8] */\n      dup2\n      mload\n      dup2\n      lt\n      tag_223\n      jumpi\n      tag_224\n      tag_70\n      jump\t// in\n    tag_224:\n    tag_223:\n      0x20\n      add\n      add\n      mload\n      0xf8\n      shr\n      0xf8\n      shl\n        /* \"FoodExpiryTracker.sol\":3099:3100  d */\n      dup6\n        /* \"FoodExpiryTracker.sol\":3101:3102  9 */\n      0x09\n        /* \"FoodExpiryTracker.sol\":3099:3103  d[9] */\n      dup2\n      mload\n      dup2\n      lt\n      tag_225\n      jumpi\n      tag_226\n      tag_70\n      jump\t// in\n    tag_226:\n    tag_225:\n      0x20\n      add\n      add\n      mload\n      0xf8\n      shr\n      0xf8\n      shl\n        /* \"FoodExpiryTracker.sol\":3087:3092  toInt */\n      tag_83\n        /* \"FoodExpiryTracker.sol\":3087:3104  toInt(d[8], d[9]) */\n      jump\t// in\n    tag_222:\n        /* \"FoodExpiryTracker.sol\":3075:3104  int256 dd = toInt(d[8], d[9]) */\n      swap1\n      pop\n        /* \"FoodExpiryTracker.sol\":3129:3130  0 */\n      0x00\n        /* \"FoodExpiryTracker.sol\":3121:3125  yyyy */\n      dup4\n        /* \"FoodExpiryTracker.sol\":3121:3130  yyyy <= 0 */\n      sgt\n      iszero\n        /* \"FoodExpiryTracker.sol\":3121:3141  yyyy <= 0 || mm <= 0 */\n      dup1\n      tag_227\n      jumpi\n      pop\n        /* \"FoodExpiryTracker.sol\":3140:3141  0 */\n      0x00\n        /* \"FoodExpiryTracker.sol\":3134:3136  mm */\n      dup3\n        /* \"FoodExpiryTracker.sol\":3134:3141  mm <= 0 */\n      sgt\n      iszero\n        /* \"FoodExpiryTracker.sol\":3121:3141  yyyy <= 0 || mm <= 0 */\n    tag_227:\n        /* \"FoodExpiryTracker.sol\":3121:3152  yyyy <= 0 || mm <= 0 || dd <= 0 */\n      dup1\n      tag_228\n      jumpi\n      pop\n        /* \"FoodExpiryTracker.sol\":3151:3152  0 */\n      0x00\n        /* \"FoodExpiryTracker.sol\":3145:3147  dd */\n      dup2\n        /* \"FoodExpiryTracker.sol\":3145:3152  dd <= 0 */\n      sgt\n      iszero\n        /* \"FoodExpiryTracker.sol\":3121:3152  yyyy <= 0 || mm <= 0 || dd <= 0 */\n    tag_228:\n        /* \"FoodExpiryTracker.sol\":3117:3171  if (yyyy <= 0 || mm <= 0 || dd <= 0) return (false, 0) */\n      iszero\n      tag_229\n      jumpi\n        /* \"FoodExpiryTracker.sol\":3162:3167  false */\n      0x00\n        /* \"FoodExpiryTracker.sol\":3169:3170  0 */\n      0x00\n        /* \"FoodExpiryTracker.sol\":3154:3171  return (false, 0) */\n      swap6\n      pop\n      swap6\n      pop\n      pop\n      pop\n      pop\n      pop\n      jump(tag_206)\n        /* \"FoodExpiryTracker.sol\":3117:3171  if (yyyy <= 0 || mm <= 0 || dd <= 0) return (false, 0) */\n    tag_229:\n        /* \"FoodExpiryTracker.sol\":3184:3194  int256 exp */\n      0x00\n        /* \"FoodExpiryTracker.sol\":3197:3223  daysFromDate(yyyy, mm, dd) */\n      tag_230\n        /* \"FoodExpiryTracker.sol\":3210:3214  yyyy */\n      dup5\n        /* \"FoodExpiryTracker.sol\":3216:3218  mm */\n      dup5\n        /* \"FoodExpiryTracker.sol\":3220:3222  dd */\n      dup5\n        /* \"FoodExpiryTracker.sol\":3197:3209  daysFromDate */\n      tag_90\n        /* \"FoodExpiryTracker.sol\":3197:3223  daysFromDate(yyyy, mm, dd) */\n      jump\t// in\n    tag_230:\n        /* \"FoodExpiryTracker.sol\":3184:3223  int256 exp = daysFromDate(yyyy, mm, dd) */\n      swap1\n      pop\n        /* \"FoodExpiryTracker.sol\":3234:3246  int256 today */\n      0x00\n        /* \"FoodExpiryTracker.sol\":3249:3283  daysFromTimestamp(block.timestamp) */\n      tag_231\n        /* \"FoodExpiryTracker.sol\":3267:3282  block.timestamp */\n      timestamp\n        /* \"FoodExpiryTracker.sol\":3249:3266  daysFromTimestamp */\n      tag_232\n        /* \"FoodExpiryTracker.sol\":3249:3283  daysFromTimestamp(block.timestamp) */\n      jump\t// in\n    tag_231:\n        /* \"FoodExpiryTracker.sol\":3234:3283  int256 today = daysFromTimestamp(block.timestamp) */\n      swap1\n      pop\n        /* \"FoodExpiryTracker.sol\":3304:3308  true */\n      0x01\n        /* \"FoodExpiryTracker.sol\":3316:3321  today */\n      dup2\n        /* \"FoodExpiryTracker.sol\":3310:3313  exp */\n      dup4\n        /* \"FoodExpiryTracker.sol\":3310:3321  exp - today */\n      tag_233\n      swap2\n      swap1\n      tag_185\n      jump\t// in\n    tag_233:\n        /* \"FoodExpiryTracker.sol\":3296:3322  return (true, exp - today) */\n      swap8\n      pop\n      swap8\n      pop\n      pop\n      pop\n      pop\n      pop\n      pop\n      pop\n        /* \"FoodExpiryTracker.sol\":2774:3330  function diffDays(string memory date)... */\n    tag_206:\n      swap2\n      pop\n      swap2\n      jump\t// out\n        /* \"FoodExpiryTracker.sol\":3885:3999  function daysFromTimestamp(uint256 ts) internal pure returns (int256) {... */\n    tag_232:\n        /* \"FoodExpiryTracker.sol\":3947:3953  int256 */\n      0x00\n        /* \"FoodExpiryTracker.sol\":3985:3990  86400 */\n      0x015180\n        /* \"FoodExpiryTracker.sol\":3980:3982  ts */\n      dup3\n        /* \"FoodExpiryTracker.sol\":3980:3990  ts / 86400 */\n      tag_235\n      swap2\n      swap1\n      tag_236\n      jump\t// in\n    tag_235:\n        /* \"FoodExpiryTracker.sol\":3966:3991  return int256(ts / 86400) */\n      swap1\n      pop\n        /* \"FoodExpiryTracker.sol\":3885:3999  function daysFromTimestamp(uint256 ts) internal pure returns (int256) {... */\n      swap2\n      swap1\n      pop\n      jump\t// out\n        /* \"#utility.yul\":7:121   */\n    tag_237:\n        /* \"#utility.yul\":74:80   */\n      0x00\n        /* \"#utility.yul\":108:113   */\n      dup2\n        /* \"#utility.yul\":102:114   */\n      mload\n        /* \"#utility.yul\":92:114   */\n      swap1\n      pop\n        /* \"#utility.yul\":7:121   */\n      swap2\n      swap1\n      pop\n      jump\t// out\n        /* \"#utility.yul\":127:311   */\n    tag_238:\n        /* \"#utility.yul\":226:237   */\n      0x00\n        /* \"#utility.yul\":260:266   */\n      dup3\n        /* \"#utility.yul\":255:258   */\n      dup3\n        /* \"#utility.yul\":248:267   */\n      mstore\n        /* \"#utility.yul\":300:304   */\n      0x20\n        /* \"#utility.yul\":295:298   */\n      dup3\n        /* \"#utility.yul\":291:305   */\n      add\n        /* \"#utility.yul\":276:305   */\n      swap1\n      pop\n        /* \"#utility.yul\":127:311   */\n      swap3\n      swap2\n      pop\n      pop\n      jump\t// out\n        /* \"#utility.yul\":317:449   */\n    tag_239:\n        /* \"#utility.yul\":384:388   */\n      0x00\n        /* \"#utility.yul\":407:410   */\n      dup2\n        /* \"#utility.yul\":399:410   */\n      swap1\n      pop\n        /* \"#utility.yul\":437:441   */\n      0x20\n        /* \"#utility.yul\":432:435   */\n      dup3\n        /* \"#utility.yul\":428:442   */\n      add\n        /* \"#utility.yul\":420:442   */\n      swap1\n      pop\n        /* \"#utility.yul\":317:449   */\n      swap2\n      swap1\n      pop\n      jump\t// out\n        /* \"#utility.yul\":455:532   */\n    tag_240:\n        /* \"#utility.yul\":492:499   */\n      0x00\n        /* \"#utility.yul\":521:526   */\n      dup2\n        /* \"#utility.yul\":510:526   */\n      swap1\n      pop\n        /* \"#utility.yul\":455:532   */\n      swap2\n      swap1\n      pop\n      jump\t// out\n        /* \"#utility.yul\":538:646   */\n    tag_241:\n        /* \"#utility.yul\":615:639   */\n      tag_305\n        /* \"#utility.yul\":633:638   */\n      dup2\n        /* \"#utility.yul\":615:639   */\n      tag_240\n      jump\t// in\n    tag_305:\n        /* \"#utility.yul\":610:613   */\n      dup3\n        /* \"#utility.yul\":603:640   */\n      mstore\n        /* \"#utility.yul\":538:646   */\n      pop\n      pop\n      jump\t// out\n        /* \"#utility.yul\":652:831   */\n    tag_242:\n        /* \"#utility.yul\":721:731   */\n      0x00\n        /* \"#utility.yul\":742:788   */\n      tag_307\n        /* \"#utility.yul\":784:787   */\n      dup4\n        /* \"#utility.yul\":776:782   */\n      dup4\n        /* \"#utility.yul\":742:788   */\n      tag_241\n      jump\t// in\n    tag_307:\n        /* \"#utility.yul\":820:824   */\n      0x20\n        /* \"#utility.yul\":815:818   */\n      dup4\n        /* \"#utility.yul\":811:825   */\n      add\n        /* \"#utility.yul\":797:825   */\n      swap1\n      pop\n        /* \"#utility.yul\":652:831   */\n      swap3\n      swap2\n      pop\n      pop\n      jump\t// out\n        /* \"#utility.yul\":837:950   */\n    tag_243:\n        /* \"#utility.yul\":907:911   */\n      0x00\n        /* \"#utility.yul\":939:943   */\n      0x20\n        /* \"#utility.yul\":934:937   */\n      dup3\n        /* \"#utility.yul\":930:944   */\n      add\n        /* \"#utility.yul\":922:944   */\n      swap1\n      pop\n        /* \"#utility.yul\":837:950   */\n      swap2\n      swap1\n      pop\n      jump\t// out\n        /* \"#utility.yul\":986:1718   */\n    tag_244:\n        /* \"#utility.yul\":1105:1108   */\n      0x00\n        /* \"#utility.yul\":1134:1188   */\n      tag_310\n        /* \"#utility.yul\":1182:1187   */\n      dup3\n        /* \"#utility.yul\":1134:1188   */\n      tag_237\n      jump\t// in\n    tag_310:\n        /* \"#utility.yul\":1204:1290   */\n      tag_311\n        /* \"#utility.yul\":1283:1289   */\n      dup2\n        /* \"#utility.yul\":1278:1281   */\n      dup6\n        /* \"#utility.yul\":1204:1290   */\n      tag_238\n      jump\t// in\n    tag_311:\n        /* \"#utility.yul\":1197:1290   */\n      swap4\n      pop\n        /* \"#utility.yul\":1314:1370   */\n      tag_312\n        /* \"#utility.yul\":1364:1369   */\n      dup4\n        /* \"#utility.yul\":1314:1370   */\n      tag_239\n      jump\t// in\n    tag_312:\n        /* \"#utility.yul\":1393:1400   */\n      dup1\n        /* \"#utility.yul\":1424:1425   */\n      0x00\n        /* \"#utility.yul\":1409:1693   */\n    tag_313:\n        /* \"#utility.yul\":1434:1440   */\n      dup4\n        /* \"#utility.yul\":1431:1432   */\n      dup2\n        /* \"#utility.yul\":1428:1441   */\n      lt\n        /* \"#utility.yul\":1409:1693   */\n      iszero\n      tag_315\n      jumpi\n        /* \"#utility.yul\":1510:1516   */\n      dup2\n        /* \"#utility.yul\":1504:1517   */\n      mload\n        /* \"#utility.yul\":1537:1600   */\n      tag_316\n        /* \"#utility.yul\":1596:1599   */\n      dup9\n        /* \"#utility.yul\":1581:1594   */\n      dup3\n        /* \"#utility.yul\":1537:1600   */\n      tag_242\n      jump\t// in\n    tag_316:\n        /* \"#utility.yul\":1530:1600   */\n      swap8\n      pop\n        /* \"#utility.yul\":1623:1683   */\n      tag_317\n        /* \"#utility.yul\":1676:1682   */\n      dup4\n        /* \"#utility.yul\":1623:1683   */\n      tag_243\n      jump\t// in\n    tag_317:\n        /* \"#utility.yul\":1613:1683   */\n      swap3\n      pop\n        /* \"#utility.yul\":1469:1693   */\n      pop\n        /* \"#utility.yul\":1456:1457   */\n      0x01\n        /* \"#utility.yul\":1453:1454   */\n      dup2\n        /* \"#utility.yul\":1449:1458   */\n      add\n        /* \"#utility.yul\":1444:1458   */\n      swap1\n      pop\n        /* \"#utility.yul\":1409:1693   */\n      jump(tag_313)\n    tag_315:\n        /* \"#utility.yul\":1413:1427   */\n      pop\n        /* \"#utility.yul\":1709:1712   */\n      dup6\n        /* \"#utility.yul\":1702:1712   */\n      swap4\n      pop\n        /* \"#utility.yul\":1110:1718   */\n      pop\n      pop\n      pop\n        /* \"#utility.yul\":986:1718   */\n      swap3\n      swap2\n      pop\n      pop\n      jump\t// out\n        /* \"#utility.yul\":1724:2097   */\n    tag_14:\n        /* \"#utility.yul\":1867:1871   */\n      0x00\n        /* \"#utility.yul\":1905:1907   */\n      0x20\n        /* \"#utility.yul\":1894:1903   */\n      dup3\n        /* \"#utility.yul\":1890:1908   */\n      add\n        /* \"#utility.yul\":1882:1908   */\n      swap1\n      pop\n        /* \"#utility.yul\":1954:1963   */\n      dup2\n        /* \"#utility.yul\":1948:1952   */\n      dup2\n        /* \"#utility.yul\":1944:1964   */\n      sub\n        /* \"#utility.yul\":1940:1941   */\n      0x00\n        /* \"#utility.yul\":1929:1938   */\n      dup4\n        /* \"#utility.yul\":1925:1942   */\n      add\n        /* \"#utility.yul\":1918:1965   */\n      mstore\n        /* \"#utility.yul\":1982:2090   */\n      tag_319\n        /* \"#utility.yul\":2085:2089   */\n      dup2\n        /* \"#utility.yul\":2076:2082   */\n      dup5\n        /* \"#utility.yul\":1982:2090   */\n      tag_244\n      jump\t// in\n    tag_319:\n        /* \"#utility.yul\":1974:2090   */\n      swap1\n      pop\n        /* \"#utility.yul\":1724:2097   */\n      swap3\n      swap2\n      pop\n      pop\n      jump\t// out\n        /* \"#utility.yul\":2103:2178   */\n    tag_245:\n        /* \"#utility.yul\":2136:2142   */\n      0x00\n        /* \"#utility.yul\":2169:2171   */\n      0x40\n        /* \"#utility.yul\":2163:2172   */\n      mload\n        /* \"#utility.yul\":2153:2172   */\n      swap1\n      pop\n        /* \"#utility.yul\":2103:2178   */\n      swap1\n      jump\t// out\n        /* \"#utility.yul\":2184:2301   */\n    tag_246:\n        /* \"#utility.yul\":2293:2294   */\n      0x00\n        /* \"#utility.yul\":2290:2291   */\n      0x00\n        /* \"#utility.yul\":2283:2295   */\n      revert\n        /* \"#utility.yul\":2307:2424   */\n    tag_247:\n        /* \"#utility.yul\":2416:2417   */\n      0x00\n        /* \"#utility.yul\":2413:2414   */\n      0x00\n        /* \"#utility.yul\":2406:2418   */\n      revert\n        /* \"#utility.yul\":2430:2552   */\n    tag_248:\n        /* \"#utility.yul\":2503:2527   */\n      tag_324\n        /* \"#utility.yul\":2521:2526   */\n      dup2\n        /* \"#utility.yul\":2503:2527   */\n      tag_240\n      jump\t// in\n    tag_324:\n        /* \"#utility.yul\":2496:2501   */\n      dup2\n        /* \"#utility.yul\":2493:2528   */\n      eq\n        /* \"#utility.yul\":2483:2546   */\n      tag_325\n      jumpi\n        /* \"#utility.yul\":2542:2543   */\n      0x00\n        /* \"#utility.yul\":2539:2540   */\n      0x00\n        /* \"#utility.yul\":2532:2544   */\n      revert\n        /* \"#utility.yul\":2483:2546   */\n    tag_325:\n        /* \"#utility.yul\":2430:2552   */\n      pop\n      jump\t// out\n        /* \"#utility.yul\":2558:2697   */\n    tag_249:\n        /* \"#utility.yul\":2604:2609   */\n      0x00\n        /* \"#utility.yul\":2642:2648   */\n      dup2\n        /* \"#utility.yul\":2629:2649   */\n      calldataload\n        /* \"#utility.yul\":2620:2649   */\n      swap1\n      pop\n        /* \"#utility.yul\":2658:2691   */\n      tag_327\n        /* \"#utility.yul\":2685:2690   */\n      dup2\n        /* \"#utility.yul\":2658:2691   */\n      tag_248\n      jump\t// in\n    tag_327:\n        /* \"#utility.yul\":2558:2697   */\n      swap3\n      swap2\n      pop\n      pop\n      jump\t// out\n        /* \"#utility.yul\":2703:3032   */\n    tag_17:\n        /* \"#utility.yul\":2762:2768   */\n      0x00\n        /* \"#utility.yul\":2811:2813   */\n      0x20\n        /* \"#utility.yul\":2799:2808   */\n      dup3\n        /* \"#utility.yul\":2790:2797   */\n      dup5\n        /* \"#utility.yul\":2786:2809   */\n      sub\n        /* \"#utility.yul\":2782:2814   */\n      slt\n        /* \"#utility.yul\":2779:2898   */\n      iszero\n      tag_329\n      jumpi\n        /* \"#utility.yul\":2817:2896   */\n      tag_330\n      tag_246\n      jump\t// in\n    tag_330:\n        /* \"#utility.yul\":2779:2898   */\n    tag_329:\n        /* \"#utility.yul\":2937:2938   */\n      0x00\n        /* \"#utility.yul\":2962:3015   */\n      tag_331\n        /* \"#utility.yul\":3007:3014   */\n      dup5\n        /* \"#utility.yul\":2998:3004   */\n      dup3\n        /* \"#utility.yul\":2987:2996   */\n      dup6\n        /* \"#utility.yul\":2983:3005   */\n      add\n        /* \"#utility.yul\":2962:3015   */\n      tag_249\n      jump\t// in\n    tag_331:\n        /* \"#utility.yul\":2952:3015   */\n      swap2\n      pop\n        /* \"#utility.yul\":2908:3025   */\n      pop\n        /* \"#utility.yul\":2703:3032   */\n      swap3\n      swap2\n      pop\n      pop\n      jump\t// out\n        /* \"#utility.yul\":3038:3156   */\n    tag_250:\n        /* \"#utility.yul\":3125:3149   */\n      tag_333\n        /* \"#utility.yul\":3143:3148   */\n      dup2\n        /* \"#utility.yul\":3125:3149   */\n      tag_240\n      jump\t// in\n    tag_333:\n        /* \"#utility.yul\":3120:3123   */\n      dup3\n        /* \"#utility.yul\":3113:3150   */\n      mstore\n        /* \"#utility.yul\":3038:3156   */\n      pop\n      pop\n      jump\t// out\n        /* \"#utility.yul\":3162:3384   */\n    tag_20:\n        /* \"#utility.yul\":3255:3259   */\n      0x00\n        /* \"#utility.yul\":3293:3295   */\n      0x20\n        /* \"#utility.yul\":3282:3291   */\n      dup3\n        /* \"#utility.yul\":3278:3296   */\n      add\n        /* \"#utility.yul\":3270:3296   */\n      swap1\n      pop\n        /* \"#utility.yul\":3306:3377   */\n      tag_335\n        /* \"#utility.yul\":3374:3375   */\n      0x00\n        /* \"#utility.yul\":3363:3372   */\n      dup4\n        /* \"#utility.yul\":3359:3376   */\n      add\n        /* \"#utility.yul\":3350:3356   */\n      dup5\n        /* \"#utility.yul\":3306:3377   */\n      tag_250\n      jump\t// in\n    tag_335:\n        /* \"#utility.yul\":3162:3384   */\n      swap3\n      swap2\n      pop\n      pop\n      jump\t// out\n        /* \"#utility.yul\":3390:3489   */\n    tag_251:\n        /* \"#utility.yul\":3442:3448   */\n      0x00\n        /* \"#utility.yul\":3476:3481   */\n      dup2\n        /* \"#utility.yul\":3470:3482   */\n      mload\n        /* \"#utility.yul\":3460:3482   */\n      swap1\n      pop\n        /* \"#utility.yul\":3390:3489   */\n      swap2\n      swap1\n      pop\n      jump\t// out\n        /* \"#utility.yul\":3495:3664   */\n    tag_252:\n        /* \"#utility.yul\":3579:3590   */\n      0x00\n        /* \"#utility.yul\":3613:3619   */\n      dup3\n        /* \"#utility.yul\":3608:3611   */\n      dup3\n        /* \"#utility.yul\":3601:3620   */\n      mstore\n        /* \"#utility.yul\":3653:3657   */\n      0x20\n        /* \"#utility.yul\":3648:3651   */\n      dup3\n        /* \"#utility.yul\":3644:3658   */\n      add\n        /* \"#utility.yul\":3629:3658   */\n      swap1\n      pop\n        /* \"#utility.yul\":3495:3664   */\n      swap3\n      swap2\n      pop\n      pop\n      jump\t// out\n        /* \"#utility.yul\":3670:3809   */\n    tag_253:\n        /* \"#utility.yul\":3759:3765   */\n      dup3\n        /* \"#utility.yul\":3754:3757   */\n      dup2\n        /* \"#utility.yul\":3749:3752   */\n      dup4\n        /* \"#utility.yul\":3743:3766   */\n      mcopy\n        /* \"#utility.yul\":3800:3801   */\n      0x00\n        /* \"#utility.yul\":3791:3797   */\n      dup4\n        /* \"#utility.yul\":3786:3789   */\n      dup4\n        /* \"#utility.yul\":3782:3798   */\n      add\n        /* \"#utility.yul\":3775:3802   */\n      mstore\n        /* \"#utility.yul\":3670:3809   */\n      pop\n      pop\n      pop\n      jump\t// out\n        /* \"#utility.yul\":3815:3917   */\n    tag_254:\n        /* \"#utility.yul\":3856:3862   */\n      0x00\n        /* \"#utility.yul\":3907:3909   */\n      0x1f\n        /* \"#utility.yul\":3903:3910   */\n      not\n        /* \"#utility.yul\":3898:3900   */\n      0x1f\n        /* \"#utility.yul\":3891:3896   */\n      dup4\n        /* \"#utility.yul\":3887:3901   */\n      add\n        /* \"#utility.yul\":3883:3911   */\n      and\n        /* \"#utility.yul\":3873:3911   */\n      swap1\n      pop\n        /* \"#utility.yul\":3815:3917   */\n      swap2\n      swap1\n      pop\n      jump\t// out\n        /* \"#utility.yul\":3923:4300   */\n    tag_255:\n        /* \"#utility.yul\":4011:4014   */\n      0x00\n        /* \"#utility.yul\":4039:4078   */\n      tag_341\n        /* \"#utility.yul\":4072:4077   */\n      dup3\n        /* \"#utility.yul\":4039:4078   */\n      tag_251\n      jump\t// in\n    tag_341:\n        /* \"#utility.yul\":4094:4165   */\n      tag_342\n        /* \"#utility.yul\":4158:4164   */\n      dup2\n        /* \"#utility.yul\":4153:4156   */\n      dup6\n        /* \"#utility.yul\":4094:4165   */\n      tag_252\n      jump\t// in\n    tag_342:\n        /* \"#utility.yul\":4087:4165   */\n      swap4\n      pop\n        /* \"#utility.yul\":4174:4239   */\n      tag_343\n        /* \"#utility.yul\":4232:4238   */\n      dup2\n        /* \"#utility.yul\":4227:4230   */\n      dup6\n        /* \"#utility.yul\":4220:4224   */\n      0x20\n        /* \"#utility.yul\":4213:4218   */\n      dup7\n        /* \"#utility.yul\":4209:4225   */\n      add\n        /* \"#utility.yul\":4174:4239   */\n      tag_253\n      jump\t// in\n    tag_343:\n        /* \"#utility.yul\":4264:4293   */\n      tag_344\n        /* \"#utility.yul\":4286:4292   */\n      dup2\n        /* \"#utility.yul\":4264:4293   */\n      tag_254\n      jump\t// in\n    tag_344:\n        /* \"#utility.yul\":4259:4262   */\n      dup5\n        /* \"#utility.yul\":4255:4294   */\n      add\n        /* \"#utility.yul\":4248:4294   */\n      swap2\n      pop\n        /* \"#utility.yul\":4015:4300   */\n      pop\n        /* \"#utility.yul\":3923:4300   */\n      swap3\n      swap2\n      pop\n      pop\n      jump\t// out\n        /* \"#utility.yul\":4306:4382   */\n    tag_256:\n        /* \"#utility.yul\":4342:4349   */\n      0x00\n        /* \"#utility.yul\":4371:4376   */\n      dup2\n        /* \"#utility.yul\":4360:4376   */\n      swap1\n      pop\n        /* \"#utility.yul\":4306:4382   */\n      swap2\n      swap1\n      pop\n      jump\t// out\n        /* \"#utility.yul\":4388:4503   */\n    tag_257:\n        /* \"#utility.yul\":4473:4496   */\n      tag_347\n        /* \"#utility.yul\":4490:4495   */\n      dup2\n        /* \"#utility.yul\":4473:4496   */\n      tag_256\n      jump\t// in\n    tag_347:\n        /* \"#utility.yul\":4468:4471   */\n      dup3\n        /* \"#utility.yul\":4461:4497   */\n      mstore\n        /* \"#utility.yul\":4388:4503   */\n      pop\n      pop\n      jump\t// out\n        /* \"#utility.yul\":4509:4928   */\n    tag_25:\n        /* \"#utility.yul\":4648:4652   */\n      0x00\n        /* \"#utility.yul\":4686:4688   */\n      0x40\n        /* \"#utility.yul\":4675:4684   */\n      dup3\n        /* \"#utility.yul\":4671:4689   */\n      add\n        /* \"#utility.yul\":4663:4689   */\n      swap1\n      pop\n        /* \"#utility.yul\":4735:4744   */\n      dup2\n        /* \"#utility.yul\":4729:4733   */\n      dup2\n        /* \"#utility.yul\":4725:4745   */\n      sub\n        /* \"#utility.yul\":4721:4722   */\n      0x00\n        /* \"#utility.yul\":4710:4719   */\n      dup4\n        /* \"#utility.yul\":4706:4723   */\n      add\n        /* \"#utility.yul\":4699:4746   */\n      mstore\n        /* \"#utility.yul\":4763:4841   */\n      tag_349\n        /* \"#utility.yul\":4836:4840   */\n      dup2\n        /* \"#utility.yul\":4827:4833   */\n      dup6\n        /* \"#utility.yul\":4763:4841   */\n      tag_255\n      jump\t// in\n    tag_349:\n        /* \"#utility.yul\":4755:4841   */\n      swap1\n      pop\n        /* \"#utility.yul\":4851:4921   */\n      tag_350\n        /* \"#utility.yul\":4917:4919   */\n      0x20\n        /* \"#utility.yul\":4906:4915   */\n      dup4\n        /* \"#utility.yul\":4902:4920   */\n      add\n        /* \"#utility.yul\":4893:4899   */\n      dup5\n        /* \"#utility.yul\":4851:4921   */\n      tag_257\n      jump\t// in\n    tag_350:\n        /* \"#utility.yul\":4509:4928   */\n      swap4\n      swap3\n      pop\n      pop\n      pop\n      jump\t// out\n        /* \"#utility.yul\":4934:5060   */\n    tag_258:\n        /* \"#utility.yul\":4971:4978   */\n      0x00\n        /* \"#utility.yul\":5011:5053   */\n      0xffffffffffffffffffffffffffffffffffffffff\n        /* \"#utility.yul\":5004:5009   */\n      dup3\n        /* \"#utility.yul\":5000:5054   */\n      and\n        /* \"#utility.yul\":4989:5054   */\n      swap1\n      pop\n        /* \"#utility.yul\":4934:5060   */\n      swap2\n      swap1\n      pop\n      jump\t// out\n        /* \"#utility.yul\":5066:5162   */\n    tag_259:\n        /* \"#utility.yul\":5103:5110   */\n      0x00\n        /* \"#utility.yul\":5132:5156   */\n      tag_353\n        /* \"#utility.yul\":5150:5155   */\n      dup3\n        /* \"#utility.yul\":5132:5156   */\n      tag_258\n      jump\t// in\n    tag_353:\n        /* \"#utility.yul\":5121:5156   */\n      swap1\n      pop\n        /* \"#utility.yul\":5066:5162   */\n      swap2\n      swap1\n      pop\n      jump\t// out\n        /* \"#utility.yul\":5168:5286   */\n    tag_260:\n        /* \"#utility.yul\":5255:5279   */\n      tag_355\n        /* \"#utility.yul\":5273:5278   */\n      dup2\n        /* \"#utility.yul\":5255:5279   */\n      tag_259\n      jump\t// in\n    tag_355:\n        /* \"#utility.yul\":5250:5253   */\n      dup3\n        /* \"#utility.yul\":5243:5280   */\n      mstore\n        /* \"#utility.yul\":5168:5286   */\n      pop\n      pop\n      jump\t// out\n        /* \"#utility.yul\":5292:5382   */\n    tag_261:\n        /* \"#utility.yul\":5326:5333   */\n      0x00\n        /* \"#utility.yul\":5369:5374   */\n      dup2\n        /* \"#utility.yul\":5362:5375   */\n      iszero\n        /* \"#utility.yul\":5355:5376   */\n      iszero\n        /* \"#utility.yul\":5344:5376   */\n      swap1\n      pop\n        /* \"#utility.yul\":5292:5382   */\n      swap2\n      swap1\n      pop\n      jump\t// out\n        /* \"#utility.yul\":5388:5497   */\n    tag_262:\n        /* \"#utility.yul\":5469:5490   */\n      tag_358\n        /* \"#utility.yul\":5484:5489   */\n      dup2\n        /* \"#utility.yul\":5469:5490   */\n      tag_261\n      jump\t// in\n    tag_358:\n        /* \"#utility.yul\":5464:5467   */\n      dup3\n        /* \"#utility.yul\":5457:5491   */\n      mstore\n        /* \"#utility.yul\":5388:5497   */\n      pop\n      pop\n      jump\t// out\n        /* \"#utility.yul\":5503:6741   */\n    tag_30:\n        /* \"#utility.yul\":5838:5842   */\n      0x00\n        /* \"#utility.yul\":5876:5879   */\n      0xe0\n        /* \"#utility.yul\":5865:5874   */\n      dup3\n        /* \"#utility.yul\":5861:5880   */\n      add\n        /* \"#utility.yul\":5853:5880   */\n      swap1\n      pop\n        /* \"#utility.yul\":5890:5961   */\n      tag_360\n        /* \"#utility.yul\":5958:5959   */\n      0x00\n        /* \"#utility.yul\":5947:5956   */\n      dup4\n        /* \"#utility.yul\":5943:5960   */\n      add\n        /* \"#utility.yul\":5934:5940   */\n      dup11\n        /* \"#utility.yul\":5890:5961   */\n      tag_250\n      jump\t// in\n    tag_360:\n        /* \"#utility.yul\":6008:6017   */\n      dup2\n        /* \"#utility.yul\":6002:6006   */\n      dup2\n        /* \"#utility.yul\":5998:6018   */\n      sub\n        /* \"#utility.yul\":5993:5995   */\n      0x20\n        /* \"#utility.yul\":5982:5991   */\n      dup4\n        /* \"#utility.yul\":5978:5996   */\n      add\n        /* \"#utility.yul\":5971:6019   */\n      mstore\n        /* \"#utility.yul\":6036:6114   */\n      tag_361\n        /* \"#utility.yul\":6109:6113   */\n      dup2\n        /* \"#utility.yul\":6100:6106   */\n      dup10\n        /* \"#utility.yul\":6036:6114   */\n      tag_255\n      jump\t// in\n    tag_361:\n        /* \"#utility.yul\":6028:6114   */\n      swap1\n      pop\n        /* \"#utility.yul\":6161:6170   */\n      dup2\n        /* \"#utility.yul\":6155:6159   */\n      dup2\n        /* \"#utility.yul\":6151:6171   */\n      sub\n        /* \"#utility.yul\":6146:6148   */\n      0x40\n        /* \"#utility.yul\":6135:6144   */\n      dup4\n        /* \"#utility.yul\":6131:6149   */\n      add\n        /* \"#utility.yul\":6124:6172   */\n      mstore\n        /* \"#utility.yul\":6189:6267   */\n      tag_362\n        /* \"#utility.yul\":6262:6266   */\n      dup2\n        /* \"#utility.yul\":6253:6259   */\n      dup9\n        /* \"#utility.yul\":6189:6267   */\n      tag_255\n      jump\t// in\n    tag_362:\n        /* \"#utility.yul\":6181:6267   */\n      swap1\n      pop\n        /* \"#utility.yul\":6314:6323   */\n      dup2\n        /* \"#utility.yul\":6308:6312   */\n      dup2\n        /* \"#utility.yul\":6304:6324   */\n      sub\n        /* \"#utility.yul\":6299:6301   */\n      0x60\n        /* \"#utility.yul\":6288:6297   */\n      dup4\n        /* \"#utility.yul\":6284:6302   */\n      add\n        /* \"#utility.yul\":6277:6325   */\n      mstore\n        /* \"#utility.yul\":6342:6420   */\n      tag_363\n        /* \"#utility.yul\":6415:6419   */\n      dup2\n        /* \"#utility.yul\":6406:6412   */\n      dup8\n        /* \"#utility.yul\":6342:6420   */\n      tag_255\n      jump\t// in\n    tag_363:\n        /* \"#utility.yul\":6334:6420   */\n      swap1\n      pop\n        /* \"#utility.yul\":6468:6477   */\n      dup2\n        /* \"#utility.yul\":6462:6466   */\n      dup2\n        /* \"#utility.yul\":6458:6478   */\n      sub\n        /* \"#utility.yul\":6452:6455   */\n      0x80\n        /* \"#utility.yul\":6441:6450   */\n      dup4\n        /* \"#utility.yul\":6437:6456   */\n      add\n        /* \"#utility.yul\":6430:6479   */\n      mstore\n        /* \"#utility.yul\":6496:6574   */\n      tag_364\n        /* \"#utility.yul\":6569:6573   */\n      dup2\n        /* \"#utility.yul\":6560:6566   */\n      dup7\n        /* \"#utility.yul\":6496:6574   */\n      tag_255\n      jump\t// in\n    tag_364:\n        /* \"#utility.yul\":6488:6574   */\n      swap1\n      pop\n        /* \"#utility.yul\":6584:6657   */\n      tag_365\n        /* \"#utility.yul\":6652:6655   */\n      0xa0\n        /* \"#utility.yul\":6641:6650   */\n      dup4\n        /* \"#utility.yul\":6637:6656   */\n      add\n        /* \"#utility.yul\":6628:6634   */\n      dup6\n        /* \"#utility.yul\":6584:6657   */\n      tag_260\n      jump\t// in\n    tag_365:\n        /* \"#utility.yul\":6667:6734   */\n      tag_366\n        /* \"#utility.yul\":6729:6732   */\n      0xc0\n        /* \"#utility.yul\":6718:6727   */\n      dup4\n        /* \"#utility.yul\":6714:6733   */\n      add\n        /* \"#utility.yul\":6705:6711   */\n      dup5\n        /* \"#utility.yul\":6667:6734   */\n      tag_262\n      jump\t// in\n    tag_366:\n        /* \"#utility.yul\":5503:6741   */\n      swap9\n      swap8\n      pop\n      pop\n      pop\n      pop\n      pop\n      pop\n      pop\n      pop\n      jump\t// out\n        /* \"#utility.yul\":6747:6864   */\n    tag_263:\n        /* \"#utility.yul\":6856:6857   */\n      0x00\n        /* \"#utility.yul\":6853:6854   */\n      0x00\n        /* \"#utility.yul\":6846:6858   */\n      revert\n        /* \"#utility.yul\":6870:6987   */\n    tag_264:\n        /* \"#utility.yul\":6979:6980   */\n      0x00\n        /* \"#utility.yul\":6976:6977   */\n      0x00\n        /* \"#utility.yul\":6969:6981   */\n      revert\n        /* \"#utility.yul\":6993:7173   */\n    tag_265:\n        /* \"#utility.yul\":7041:7118   */\n      0x4e487b7100000000000000000000000000000000000000000000000000000000\n        /* \"#utility.yul\":7038:7039   */\n      0x00\n        /* \"#utility.yul\":7031:7119   */\n      mstore\n        /* \"#utility.yul\":7138:7142   */\n      0x41\n        /* \"#utility.yul\":7135:7136   */\n      0x04\n        /* \"#utility.yul\":7128:7143   */\n      mstore\n        /* \"#utility.yul\":7162:7166   */\n      0x24\n        /* \"#utility.yul\":7159:7160   */\n      0x00\n        /* \"#utility.yul\":7152:7167   */\n      revert\n        /* \"#utility.yul\":7179:7460   */\n    tag_266:\n        /* \"#utility.yul\":7262:7289   */\n      tag_371\n        /* \"#utility.yul\":7284:7288   */\n      dup3\n        /* \"#utility.yul\":7262:7289   */\n      tag_254\n      jump\t// in\n    tag_371:\n        /* \"#utility.yul\":7254:7260   */\n      dup2\n        /* \"#utility.yul\":7250:7290   */\n      add\n        /* \"#utility.yul\":7392:7398   */\n      dup2\n        /* \"#utility.yul\":7380:7390   */\n      dup2\n        /* \"#utility.yul\":7377:7399   */\n      lt\n        /* \"#utility.yul\":7356:7374   */\n      0xffffffffffffffff\n        /* \"#utility.yul\":7344:7354   */\n      dup3\n        /* \"#utility.yul\":7341:7375   */\n      gt\n        /* \"#utility.yul\":7338:7400   */\n      or\n        /* \"#utility.yul\":7335:7423   */\n      iszero\n      tag_372\n      jumpi\n        /* \"#utility.yul\":7403:7421   */\n      tag_373\n      tag_265\n      jump\t// in\n    tag_373:\n        /* \"#utility.yul\":7335:7423   */\n    tag_372:\n        /* \"#utility.yul\":7443:7453   */\n      dup1\n        /* \"#utility.yul\":7439:7441   */\n      0x40\n        /* \"#utility.yul\":7432:7454   */\n      mstore\n        /* \"#utility.yul\":7222:7460   */\n      pop\n        /* \"#utility.yul\":7179:7460   */\n      pop\n      pop\n      jump\t// out\n        /* \"#utility.yul\":7466:7595   */\n    tag_267:\n        /* \"#utility.yul\":7500:7506   */\n      0x00\n        /* \"#utility.yul\":7527:7547   */\n      tag_375\n      tag_245\n      jump\t// in\n    tag_375:\n        /* \"#utility.yul\":7517:7547   */\n      swap1\n      pop\n        /* \"#utility.yul\":7556:7589   */\n      tag_376\n        /* \"#utility.yul\":7584:7588   */\n      dup3\n        /* \"#utility.yul\":7576:7582   */\n      dup3\n        /* \"#utility.yul\":7556:7589   */\n      tag_266\n      jump\t// in\n    tag_376:\n        /* \"#utility.yul\":7466:7595   */\n      swap2\n      swap1\n      pop\n      jump\t// out\n        /* \"#utility.yul\":7601:7909   */\n    tag_268:\n        /* \"#utility.yul\":7663:7667   */\n      0x00\n        /* \"#utility.yul\":7753:7771   */\n      0xffffffffffffffff\n        /* \"#utility.yul\":7745:7751   */\n      dup3\n        /* \"#utility.yul\":7742:7772   */\n      gt\n        /* \"#utility.yul\":7739:7795   */\n      iszero\n      tag_378\n      jumpi\n        /* \"#utility.yul\":7775:7793   */\n      tag_379\n      tag_265\n      jump\t// in\n    tag_379:\n        /* \"#utility.yul\":7739:7795   */\n    tag_378:\n        /* \"#utility.yul\":7813:7842   */\n      tag_380\n        /* \"#utility.yul\":7835:7841   */\n      dup3\n        /* \"#utility.yul\":7813:7842   */\n      tag_254\n      jump\t// in\n    tag_380:\n        /* \"#utility.yul\":7805:7842   */\n      swap1\n      pop\n        /* \"#utility.yul\":7897:7901   */\n      0x20\n        /* \"#utility.yul\":7891:7895   */\n      dup2\n        /* \"#utility.yul\":7887:7902   */\n      add\n        /* \"#utility.yul\":7879:7902   */\n      swap1\n      pop\n        /* \"#utility.yul\":7601:7909   */\n      swap2\n      swap1\n      pop\n      jump\t// out\n        /* \"#utility.yul\":7915:8063   */\n    tag_269:\n        /* \"#utility.yul\":8013:8019   */\n      dup3\n        /* \"#utility.yul\":8008:8011   */\n      dup2\n        /* \"#utility.yul\":8003:8006   */\n      dup4\n        /* \"#utility.yul\":7990:8020   */\n      calldatacopy\n        /* \"#utility.yul\":8054:8055   */\n      0x00\n        /* \"#utility.yul\":8045:8051   */\n      dup4\n        /* \"#utility.yul\":8040:8043   */\n      dup4\n        /* \"#utility.yul\":8036:8052   */\n      add\n        /* \"#utility.yul\":8029:8056   */\n      mstore\n        /* \"#utility.yul\":7915:8063   */\n      pop\n      pop\n      pop\n      jump\t// out\n        /* \"#utility.yul\":8069:8494   */\n    tag_270:\n        /* \"#utility.yul\":8147:8152   */\n      0x00\n        /* \"#utility.yul\":8172:8238   */\n      tag_383\n        /* \"#utility.yul\":8188:8237   */\n      tag_384\n        /* \"#utility.yul\":8230:8236   */\n      dup5\n        /* \"#utility.yul\":8188:8237   */\n      tag_268\n      jump\t// in\n    tag_384:\n        /* \"#utility.yul\":8172:8238   */\n      tag_267\n      jump\t// in\n    tag_383:\n        /* \"#utility.yul\":8163:8238   */\n      swap1\n      pop\n        /* \"#utility.yul\":8261:8267   */\n      dup3\n        /* \"#utility.yul\":8254:8259   */\n      dup2\n        /* \"#utility.yul\":8247:8268   */\n      mstore\n        /* \"#utility.yul\":8299:8303   */\n      0x20\n        /* \"#utility.yul\":8292:8297   */\n      dup2\n        /* \"#utility.yul\":8288:8304   */\n      add\n        /* \"#utility.yul\":8337:8340   */\n      dup5\n        /* \"#utility.yul\":8328:8334   */\n      dup5\n        /* \"#utility.yul\":8323:8326   */\n      dup5\n        /* \"#utility.yul\":8319:8335   */\n      add\n        /* \"#utility.yul\":8316:8341   */\n      gt\n        /* \"#utility.yul\":8313:8425   */\n      iszero\n      tag_385\n      jumpi\n        /* \"#utility.yul\":8344:8423   */\n      tag_386\n      tag_264\n      jump\t// in\n    tag_386:\n        /* \"#utility.yul\":8313:8425   */\n    tag_385:\n        /* \"#utility.yul\":8434:8488   */\n      tag_387\n        /* \"#utility.yul\":8481:8487   */\n      dup5\n        /* \"#utility.yul\":8476:8479   */\n      dup3\n        /* \"#utility.yul\":8471:8474   */\n      dup6\n        /* \"#utility.yul\":8434:8488   */\n      tag_269\n      jump\t// in\n    tag_387:\n        /* \"#utility.yul\":8153:8494   */\n      pop\n        /* \"#utility.yul\":8069:8494   */\n      swap4\n      swap3\n      pop\n      pop\n      pop\n      jump\t// out\n        /* \"#utility.yul\":8514:8854   */\n    tag_271:\n        /* \"#utility.yul\":8570:8575   */\n      0x00\n        /* \"#utility.yul\":8619:8622   */\n      dup3\n        /* \"#utility.yul\":8612:8616   */\n      0x1f\n        /* \"#utility.yul\":8604:8610   */\n      dup4\n        /* \"#utility.yul\":8600:8617   */\n      add\n        /* \"#utility.yul\":8596:8623   */\n      slt\n        /* \"#utility.yul\":8586:8708   */\n      tag_389\n      jumpi\n        /* \"#utility.yul\":8627:8706   */\n      tag_390\n      tag_263\n      jump\t// in\n    tag_390:\n        /* \"#utility.yul\":8586:8708   */\n    tag_389:\n        /* \"#utility.yul\":8744:8750   */\n      dup2\n        /* \"#utility.yul\":8731:8751   */\n      calldataload\n        /* \"#utility.yul\":8769:8848   */\n      tag_391\n        /* \"#utility.yul\":8844:8847   */\n      dup5\n        /* \"#utility.yul\":8836:8842   */\n      dup3\n        /* \"#utility.yul\":8829:8833   */\n      0x20\n        /* \"#utility.yul\":8821:8827   */\n      dup7\n        /* \"#utility.yul\":8817:8834   */\n      add\n        /* \"#utility.yul\":8769:8848   */\n      tag_270\n      jump\t// in\n    tag_391:\n        /* \"#utility.yul\":8760:8848   */\n      swap2\n      pop\n        /* \"#utility.yul\":8576:8854   */\n      pop\n        /* \"#utility.yul\":8514:8854   */\n      swap3\n      swap2\n      pop\n      pop\n      jump\t// out\n        /* \"#utility.yul\":8860:10491   */\n    tag_37:\n        /* \"#utility.yul\":8995:9001   */\n      0x00\n        /* \"#utility.yul\":9003:9009   */\n      0x00\n        /* \"#utility.yul\":9011:9017   */\n      0x00\n        /* \"#utility.yul\":9019:9025   */\n      0x00\n        /* \"#utility.yul\":9027:9033   */\n      0x00\n        /* \"#utility.yul\":9076:9079   */\n      0xa0\n        /* \"#utility.yul\":9064:9073   */\n      dup7\n        /* \"#utility.yul\":9055:9062   */\n      dup9\n        /* \"#utility.yul\":9051:9074   */\n      sub\n        /* \"#utility.yul\":9047:9080   */\n      slt\n        /* \"#utility.yul\":9044:9164   */\n      iszero\n      tag_393\n      jumpi\n        /* \"#utility.yul\":9083:9162   */\n      tag_394\n      tag_246\n      jump\t// in\n    tag_394:\n        /* \"#utility.yul\":9044:9164   */\n    tag_393:\n        /* \"#utility.yul\":9203:9204   */\n      0x00\n        /* \"#utility.yul\":9228:9281   */\n      tag_395\n        /* \"#utility.yul\":9273:9280   */\n      dup9\n        /* \"#utility.yul\":9264:9270   */\n      dup3\n        /* \"#utility.yul\":9253:9262   */\n      dup10\n        /* \"#utility.yul\":9249:9271   */\n      add\n        /* \"#utility.yul\":9228:9281   */\n      tag_249\n      jump\t// in\n    tag_395:\n        /* \"#utility.yul\":9218:9281   */\n      swap6\n      pop\n        /* \"#utility.yul\":9174:9291   */\n      pop\n        /* \"#utility.yul\":9358:9360   */\n      0x20\n        /* \"#utility.yul\":9347:9356   */\n      dup7\n        /* \"#utility.yul\":9343:9361   */\n      add\n        /* \"#utility.yul\":9330:9362   */\n      calldataload\n        /* \"#utility.yul\":9389:9407   */\n      0xffffffffffffffff\n        /* \"#utility.yul\":9381:9387   */\n      dup2\n        /* \"#utility.yul\":9378:9408   */\n      gt\n        /* \"#utility.yul\":9375:9492   */\n      iszero\n      tag_396\n      jumpi\n        /* \"#utility.yul\":9411:9490   */\n      tag_397\n      tag_247\n      jump\t// in\n    tag_397:\n        /* \"#utility.yul\":9375:9492   */\n    tag_396:\n        /* \"#utility.yul\":9516:9579   */\n      tag_398\n        /* \"#utility.yul\":9571:9578   */\n      dup9\n        /* \"#utility.yul\":9562:9568   */\n      dup3\n        /* \"#utility.yul\":9551:9560   */\n      dup10\n        /* \"#utility.yul\":9547:9569   */\n      add\n        /* \"#utility.yul\":9516:9579   */\n      tag_271\n      jump\t// in\n    tag_398:\n        /* \"#utility.yul\":9506:9579   */\n      swap5\n      pop\n        /* \"#utility.yul\":9301:9589   */\n      pop\n        /* \"#utility.yul\":9656:9658   */\n      0x40\n        /* \"#utility.yul\":9645:9654   */\n      dup7\n        /* \"#utility.yul\":9641:9659   */\n      add\n        /* \"#utility.yul\":9628:9660   */\n      calldataload\n        /* \"#utility.yul\":9687:9705   */\n      0xffffffffffffffff\n        /* \"#utility.yul\":9679:9685   */\n      dup2\n        /* \"#utility.yul\":9676:9706   */\n      gt\n        /* \"#utility.yul\":9673:9790   */\n      iszero\n      tag_399\n      jumpi\n        /* \"#utility.yul\":9709:9788   */\n      tag_400\n      tag_247\n      jump\t// in\n    tag_400:\n        /* \"#utility.yul\":9673:9790   */\n    tag_399:\n        /* \"#utility.yul\":9814:9877   */\n      tag_401\n        /* \"#utility.yul\":9869:9876   */\n      dup9\n        /* \"#utility.yul\":9860:9866   */\n      dup3\n        /* \"#utility.yul\":9849:9858   */\n      dup10\n        /* \"#utility.yul\":9845:9867   */\n      add\n        /* \"#utility.yul\":9814:9877   */\n      tag_271\n      jump\t// in\n    tag_401:\n        /* \"#utility.yul\":9804:9877   */\n      swap4\n      pop\n        /* \"#utility.yul\":9599:9887   */\n      pop\n        /* \"#utility.yul\":9954:9956   */\n      0x60\n        /* \"#utility.yul\":9943:9952   */\n      dup7\n        /* \"#utility.yul\":9939:9957   */\n      add\n        /* \"#utility.yul\":9926:9958   */\n      calldataload\n        /* \"#utility.yul\":9985:10003   */\n      0xffffffffffffffff\n        /* \"#utility.yul\":9977:9983   */\n      dup2\n        /* \"#utility.yul\":9974:10004   */\n      gt\n        /* \"#utility.yul\":9971:10088   */\n      iszero\n      tag_402\n      jumpi\n        /* \"#utility.yul\":10007:10086   */\n      tag_403\n      tag_247\n      jump\t// in\n    tag_403:\n        /* \"#utility.yul\":9971:10088   */\n    tag_402:\n        /* \"#utility.yul\":10112:10175   */\n      tag_404\n        /* \"#utility.yul\":10167:10174   */\n      dup9\n        /* \"#utility.yul\":10158:10164   */\n      dup3\n        /* \"#utility.yul\":10147:10156   */\n      dup10\n        /* \"#utility.yul\":10143:10165   */\n      add\n        /* \"#utility.yul\":10112:10175   */\n      tag_271\n      jump\t// in\n    tag_404:\n        /* \"#utility.yul\":10102:10175   */\n      swap3\n      pop\n        /* \"#utility.yul\":9897:10185   */\n      pop\n        /* \"#utility.yul\":10252:10255   */\n      0x80\n        /* \"#utility.yul\":10241:10250   */\n      dup7\n        /* \"#utility.yul\":10237:10256   */\n      add\n        /* \"#utility.yul\":10224:10257   */\n      calldataload\n        /* \"#utility.yul\":10284:10302   */\n      0xffffffffffffffff\n        /* \"#utility.yul\":10276:10282   */\n      dup2\n        /* \"#utility.yul\":10273:10303   */\n      gt\n        /* \"#utility.yul\":10270:10387   */\n      iszero\n      tag_405\n      jumpi\n        /* \"#utility.yul\":10306:10385   */\n      tag_406\n      tag_247\n      jump\t// in\n    tag_406:\n        /* \"#utility.yul\":10270:10387   */\n    tag_405:\n        /* \"#utility.yul\":10411:10474   */\n      tag_407\n        /* \"#utility.yul\":10466:10473   */\n      dup9\n        /* \"#utility.yul\":10457:10463   */\n      dup3\n        /* \"#utility.yul\":10446:10455   */\n      dup10\n        /* \"#utility.yul\":10442:10464   */\n      add\n        /* \"#utility.yul\":10411:10474   */\n      tag_271\n      jump\t// in\n    tag_407:\n        /* \"#utility.yul\":10401:10474   */\n      swap2\n      pop\n        /* \"#utility.yul\":10195:10484   */\n      pop\n        /* \"#utility.yul\":8860:10491   */\n      swap3\n      swap6\n      pop\n      swap3\n      swap6\n      swap1\n      swap4\n      pop\n      jump\t// out\n        /* \"#utility.yul\":10497:10677   */\n    tag_272:\n        /* \"#utility.yul\":10545:10622   */\n      0x4e487b7100000000000000000000000000000000000000000000000000000000\n        /* \"#utility.yul\":10542:10543   */\n      0x00\n        /* \"#utility.yul\":10535:10623   */\n      mstore\n        /* \"#utility.yul\":10642:10646   */\n      0x22\n        /* \"#utility.yul\":10639:10640   */\n      0x04\n        /* \"#utility.yul\":10632:10647   */\n      mstore\n        /* \"#utility.yul\":10666:10670   */\n      0x24\n        /* \"#utility.yul\":10663:10664   */\n      0x00\n        /* \"#utility.yul\":10656:10671   */\n      revert\n        /* \"#utility.yul\":10683:11003   */\n    tag_47:\n        /* \"#utility.yul\":10727:10733   */\n      0x00\n        /* \"#utility.yul\":10764:10765   */\n      0x02\n        /* \"#utility.yul\":10758:10762   */\n      dup3\n        /* \"#utility.yul\":10754:10766   */\n      div\n        /* \"#utility.yul\":10744:10766   */\n      swap1\n      pop\n        /* \"#utility.yul\":10811:10812   */\n      0x01\n        /* \"#utility.yul\":10805:10809   */\n      dup3\n        /* \"#utility.yul\":10801:10813   */\n      and\n        /* \"#utility.yul\":10832:10850   */\n      dup1\n        /* \"#utility.yul\":10822:10903   */\n      tag_410\n      jumpi\n        /* \"#utility.yul\":10888:10892   */\n      0x7f\n        /* \"#utility.yul\":10880:10886   */\n      dup3\n        /* \"#utility.yul\":10876:10893   */\n      and\n        /* \"#utility.yul\":10866:10893   */\n      swap2\n      pop\n        /* \"#utility.yul\":10822:10903   */\n    tag_410:\n        /* \"#utility.yul\":10950:10952   */\n      0x20\n        /* \"#utility.yul\":10942:10948   */\n      dup3\n        /* \"#utility.yul\":10939:10953   */\n      lt\n        /* \"#utility.yul\":10919:10937   */\n      dup2\n        /* \"#utility.yul\":10916:10954   */\n      sub\n        /* \"#utility.yul\":10913:10997   */\n      tag_411\n      jumpi\n        /* \"#utility.yul\":10969:10987   */\n      tag_412\n      tag_272\n      jump\t// in\n    tag_412:\n        /* \"#utility.yul\":10913:10997   */\n    tag_411:\n        /* \"#utility.yul\":10734:11003   */\n      pop\n        /* \"#utility.yul\":10683:11003   */\n      swap2\n      swap1\n      pop\n      jump\t// out\n        /* \"#utility.yul\":11009:11189   */\n    tag_70:\n        /* \"#utility.yul\":11057:11134   */\n      0x4e487b7100000000000000000000000000000000000000000000000000000000\n        /* \"#utility.yul\":11054:11055   */\n      0x00\n        /* \"#utility.yul\":11047:11135   */\n      mstore\n        /* \"#utility.yul\":11154:11158   */\n      0x32\n        /* \"#utility.yul\":11151:11152   */\n      0x04\n        /* \"#utility.yul\":11144:11159   */\n      mstore\n        /* \"#utility.yul\":11178:11182   */\n      0x24\n        /* \"#utility.yul\":11175:11176   */\n      0x00\n        /* \"#utility.yul\":11168:11183   */\n      revert\n        /* \"#utility.yul\":11195:11375   */\n    tag_273:\n        /* \"#utility.yul\":11243:11320   */\n      0x4e487b7100000000000000000000000000000000000000000000000000000000\n        /* \"#utility.yul\":11240:11241   */\n      0x00\n        /* \"#utility.yul\":11233:11321   */\n      mstore\n        /* \"#utility.yul\":11340:11344   */\n      0x11\n        /* \"#utility.yul\":11337:11338   */\n      0x04\n        /* \"#utility.yul\":11330:11345   */\n      mstore\n        /* \"#utility.yul\":11364:11368   */\n      0x24\n        /* \"#utility.yul\":11361:11362   */\n      0x00\n        /* \"#utility.yul\":11354:11369   */\n      revert\n        /* \"#utility.yul\":11381:11937   */\n    tag_92:\n        /* \"#utility.yul\":11420:11427   */\n      0x00\n        /* \"#utility.yul\":11443:11462   */\n      tag_416\n        /* \"#utility.yul\":11460:11461   */\n      dup3\n        /* \"#utility.yul\":11443:11462   */\n      tag_256\n      jump\t// in\n    tag_416:\n        /* \"#utility.yul\":11438:11462   */\n      swap2\n      pop\n        /* \"#utility.yul\":11476:11495   */\n      tag_417\n        /* \"#utility.yul\":11493:11494   */\n      dup4\n        /* \"#utility.yul\":11476:11495   */\n      tag_256\n      jump\t// in\n    tag_417:\n        /* \"#utility.yul\":11471:11495   */\n      swap3\n      pop\n        /* \"#utility.yul\":11530:11531   */\n      dup3\n        /* \"#utility.yul\":11527:11528   */\n      dup3\n        /* \"#utility.yul\":11523:11532   */\n      mul\n        /* \"#utility.yul\":11552:11581   */\n      tag_418\n        /* \"#utility.yul\":11569:11580   */\n      dup2\n        /* \"#utility.yul\":11552:11581   */\n      tag_256\n      jump\t// in\n    tag_418:\n        /* \"#utility.yul\":11541:11581   */\n      swap2\n      pop\n        /* \"#utility.yul\":11639:11705   */\n      0x8000000000000000000000000000000000000000000000000000000000000000\n        /* \"#utility.yul\":11636:11637   */\n      dup5\n        /* \"#utility.yul\":11633:11706   */\n      eq\n        /* \"#utility.yul\":11629:11630   */\n      0x00\n        /* \"#utility.yul\":11626:11627   */\n      dup5\n        /* \"#utility.yul\":11622:11631   */\n      slt\n        /* \"#utility.yul\":11618:11707   */\n      and\n        /* \"#utility.yul\":11615:11730   */\n      iszero\n      tag_419\n      jumpi\n        /* \"#utility.yul\":11710:11728   */\n      tag_420\n      tag_273\n      jump\t// in\n    tag_420:\n        /* \"#utility.yul\":11615:11730   */\n    tag_419:\n        /* \"#utility.yul\":11880:11881   */\n      dup3\n        /* \"#utility.yul\":11871:11878   */\n      dup3\n        /* \"#utility.yul\":11866:11882   */\n      sdiv\n        /* \"#utility.yul\":11863:11864   */\n      dup5\n        /* \"#utility.yul\":11860:11883   */\n      eq\n        /* \"#utility.yul\":11840:11841   */\n      dup4\n        /* \"#utility.yul\":11833:11842   */\n      iszero\n        /* \"#utility.yul\":11813:11897   */\n      or\n        /* \"#utility.yul\":11790:11930   */\n      tag_421\n      jumpi\n        /* \"#utility.yul\":11910:11928   */\n      tag_422\n      tag_273\n      jump\t// in\n    tag_422:\n        /* \"#utility.yul\":11790:11930   */\n    tag_421:\n        /* \"#utility.yul\":11428:11937   */\n      pop\n        /* \"#utility.yul\":11381:11937   */\n      swap3\n      swap2\n      pop\n      pop\n      jump\t// out\n        /* \"#utility.yul\":11943:12106   */\n    tag_274:\n        /* \"#utility.yul\":12083:12098   */\n      0x4e616d6520726571756972656400000000000000000000000000000000000000\n        /* \"#utility.yul\":12079:12080   */\n      0x00\n        /* \"#utility.yul\":12071:12077   */\n      dup3\n        /* \"#utility.yul\":12067:12081   */\n      add\n        /* \"#utility.yul\":12060:12099   */\n      mstore\n        /* \"#utility.yul\":11943:12106   */\n      pop\n      jump\t// out\n        /* \"#utility.yul\":12112:12478   */\n    tag_275:\n        /* \"#utility.yul\":12254:12257   */\n      0x00\n        /* \"#utility.yul\":12275:12342   */\n      tag_425\n        /* \"#utility.yul\":12339:12341   */\n      0x0d\n        /* \"#utility.yul\":12334:12337   */\n      dup4\n        /* \"#utility.yul\":12275:12342   */\n      tag_252\n      jump\t// in\n    tag_425:\n        /* \"#utility.yul\":12268:12342   */\n      swap2\n      pop\n        /* \"#utility.yul\":12351:12444   */\n      tag_426\n        /* \"#utility.yul\":12440:12443   */\n      dup3\n        /* \"#utility.yul\":12351:12444   */\n      tag_274\n      jump\t// in\n    tag_426:\n        /* \"#utility.yul\":12469:12471   */\n      0x20\n        /* \"#utility.yul\":12464:12467   */\n      dup3\n        /* \"#utility.yul\":12460:12472   */\n      add\n        /* \"#utility.yul\":12453:12472   */\n      swap1\n      pop\n        /* \"#utility.yul\":12112:12478   */\n      swap2\n      swap1\n      pop\n      jump\t// out\n        /* \"#utility.yul\":12484:12903   */\n    tag_145:\n        /* \"#utility.yul\":12650:12654   */\n      0x00\n        /* \"#utility.yul\":12688:12690   */\n      0x20\n        /* \"#utility.yul\":12677:12686   */\n      dup3\n        /* \"#utility.yul\":12673:12691   */\n      add\n        /* \"#utility.yul\":12665:12691   */\n      swap1\n      pop\n        /* \"#utility.yul\":12737:12746   */\n      dup2\n        /* \"#utility.yul\":12731:12735   */\n      dup2\n        /* \"#utility.yul\":12727:12747   */\n      sub\n        /* \"#utility.yul\":12723:12724   */\n      0x00\n        /* \"#utility.yul\":12712:12721   */\n      dup4\n        /* \"#utility.yul\":12708:12725   */\n      add\n        /* \"#utility.yul\":12701:12748   */\n      mstore\n        /* \"#utility.yul\":12765:12896   */\n      tag_428\n        /* \"#utility.yul\":12891:12895   */\n      dup2\n        /* \"#utility.yul\":12765:12896   */\n      tag_275\n      jump\t// in\n    tag_428:\n        /* \"#utility.yul\":12757:12896   */\n      swap1\n      pop\n        /* \"#utility.yul\":12484:12903   */\n      swap2\n      swap1\n      pop\n      jump\t// out\n        /* \"#utility.yul\":12909:13074   */\n    tag_276:\n        /* \"#utility.yul\":13049:13066   */\n      0x4578706972792072657175697265640000000000000000000000000000000000\n        /* \"#utility.yul\":13045:13046   */\n      0x00\n        /* \"#utility.yul\":13037:13043   */\n      dup3\n        /* \"#utility.yul\":13033:13047   */\n      add\n        /* \"#utility.yul\":13026:13067   */\n      mstore\n        /* \"#utility.yul\":12909:13074   */\n      pop\n      jump\t// out\n        /* \"#utility.yul\":13080:13446   */\n    tag_277:\n        /* \"#utility.yul\":13222:13225   */\n      0x00\n        /* \"#utility.yul\":13243:13310   */\n      tag_431\n        /* \"#utility.yul\":13307:13309   */\n      0x0f\n        /* \"#utility.yul\":13302:13305   */\n      dup4\n        /* \"#utility.yul\":13243:13310   */\n      tag_252\n      jump\t// in\n    tag_431:\n        /* \"#utility.yul\":13236:13310   */\n      swap2\n      pop\n        /* \"#utility.yul\":13319:13412   */\n      tag_432\n        /* \"#utility.yul\":13408:13411   */\n      dup3\n        /* \"#utility.yul\":13319:13412   */\n      tag_276\n      jump\t// in\n    tag_432:\n        /* \"#utility.yul\":13437:13439   */\n      0x20\n        /* \"#utility.yul\":13432:13435   */\n      dup3\n        /* \"#utility.yul\":13428:13440   */\n      add\n        /* \"#utility.yul\":13421:13440   */\n      swap1\n      pop\n        /* \"#utility.yul\":13080:13446   */\n      swap2\n      swap1\n      pop\n      jump\t// out\n        /* \"#utility.yul\":13452:13871   */\n    tag_148:\n        /* \"#utility.yul\":13618:13622   */\n      0x00\n        /* \"#utility.yul\":13656:13658   */\n      0x20\n        /* \"#utility.yul\":13645:13654   */\n      dup3\n        /* \"#utility.yul\":13641:13659   */\n      add\n        /* \"#utility.yul\":13633:13659   */\n      swap1\n      pop\n        /* \"#utility.yul\":13705:13714   */\n      dup2\n        /* \"#utility.yul\":13699:13703   */\n      dup2\n        /* \"#utility.yul\":13695:13715   */\n      sub\n        /* \"#utility.yul\":13691:13692   */\n      0x00\n        /* \"#utility.yul\":13680:13689   */\n      dup4\n        /* \"#utility.yul\":13676:13693   */\n      add\n        /* \"#utility.yul\":13669:13716   */\n      mstore\n        /* \"#utility.yul\":13733:13864   */\n      tag_434\n        /* \"#utility.yul\":13859:13863   */\n      dup2\n        /* \"#utility.yul\":13733:13864   */\n      tag_277\n      jump\t// in\n    tag_434:\n        /* \"#utility.yul\":13725:13864   */\n      swap1\n      pop\n        /* \"#utility.yul\":13452:13871   */\n      swap2\n      swap1\n      pop\n      jump\t// out\n        /* \"#utility.yul\":13877:14018   */\n    tag_278:\n        /* \"#utility.yul\":13926:13930   */\n      0x00\n        /* \"#utility.yul\":13949:13952   */\n      dup2\n        /* \"#utility.yul\":13941:13952   */\n      swap1\n      pop\n        /* \"#utility.yul\":13972:13975   */\n      dup2\n        /* \"#utility.yul\":13969:13970   */\n      0x00\n        /* \"#utility.yul\":13962:13976   */\n      mstore\n        /* \"#utility.yul\":14006:14010   */\n      0x20\n        /* \"#utility.yul\":14003:14004   */\n      0x00\n        /* \"#utility.yul\":13993:14011   */\n      keccak256\n        /* \"#utility.yul\":13985:14011   */\n      swap1\n      pop\n        /* \"#utility.yul\":13877:14018   */\n      swap2\n      swap1\n      pop\n      jump\t// out\n        /* \"#utility.yul\":14024:14117   */\n    tag_279:\n        /* \"#utility.yul\":14061:14067   */\n      0x00\n        /* \"#utility.yul\":14108:14110   */\n      0x20\n        /* \"#utility.yul\":14103:14105   */\n      0x1f\n        /* \"#utility.yul\":14096:14101   */\n      dup4\n        /* \"#utility.yul\":14092:14106   */\n      add\n        /* \"#utility.yul\":14088:14111   */\n      div\n        /* \"#utility.yul\":14078:14111   */\n      swap1\n      pop\n        /* \"#utility.yul\":14024:14117   */\n      swap2\n      swap1\n      pop\n      jump\t// out\n        /* \"#utility.yul\":14123:14230   */\n    tag_280:\n        /* \"#utility.yul\":14167:14175   */\n      0x00\n        /* \"#utility.yul\":14217:14222   */\n      dup3\n        /* \"#utility.yul\":14211:14215   */\n      dup3\n        /* \"#utility.yul\":14207:14223   */\n      shl\n        /* \"#utility.yul\":14186:14223   */\n      swap1\n      pop\n        /* \"#utility.yul\":14123:14230   */\n      swap3\n      swap2\n      pop\n      pop\n      jump\t// out\n        /* \"#utility.yul\":14236:14629   */\n    tag_281:\n        /* \"#utility.yul\":14305:14311   */\n      0x00\n        /* \"#utility.yul\":14355:14356   */\n      0x08\n        /* \"#utility.yul\":14343:14353   */\n      dup4\n        /* \"#utility.yul\":14339:14357   */\n      mul\n        /* \"#utility.yul\":14378:14475   */\n      tag_439\n        /* \"#utility.yul\":14408:14474   */\n      0xffffffffffffffffffffffffffffffffffffffffffffffffffffffffffffffff\n        /* \"#utility.yul\":14397:14406   */\n      dup3\n        /* \"#utility.yul\":14378:14475   */\n      tag_280\n      jump\t// in\n    tag_439:\n        /* \"#utility.yul\":14496:14535   */\n      tag_440\n        /* \"#utility.yul\":14526:14534   */\n      dup7\n        /* \"#utility.yul\":14515:14524   */\n      dup4\n        /* \"#utility.yul\":14496:14535   */\n      tag_280\n      jump\t// in\n    tag_440:\n        /* \"#utility.yul\":14484:14535   */\n      swap6\n      pop\n        /* \"#utility.yul\":14568:14572   */\n      dup1\n        /* \"#utility.yul\":14564:14573   */\n      not\n        /* \"#utility.yul\":14557:14562   */\n      dup5\n        /* \"#utility.yul\":14553:14574   */\n      and\n        /* \"#utility.yul\":14544:14574   */\n      swap4\n      pop\n        /* \"#utility.yul\":14617:14621   */\n      dup1\n        /* \"#utility.yul\":14607:14615   */\n      dup7\n        /* \"#utility.yul\":14603:14622   */\n      and\n        /* \"#utility.yul\":14596:14601   */\n      dup5\n        /* \"#utility.yul\":14593:14623   */\n      or\n        /* \"#utility.yul\":14583:14623   */\n      swap3\n      pop\n        /* \"#utility.yul\":14312:14629   */\n      pop\n      pop\n        /* \"#utility.yul\":14236:14629   */\n      swap4\n      swap3\n      pop\n      pop\n      pop\n      jump\t// out\n        /* \"#utility.yul\":14635:14695   */\n    tag_282:\n        /* \"#utility.yul\":14663:14666   */\n      0x00\n        /* \"#utility.yul\":14684:14689   */\n      dup2\n        /* \"#utility.yul\":14677:14689   */\n      swap1\n      pop\n        /* \"#utility.yul\":14635:14695   */\n      swap2\n      swap1\n      pop\n      jump\t// out\n        /* \"#utility.yul\":14701:14843   */\n    tag_283:\n        /* \"#utility.yul\":14751:14760   */\n      0x00\n        /* \"#utility.yul\":14784:14837   */\n      tag_443\n        /* \"#utility.yul\":14802:14836   */\n      tag_444\n        /* \"#utility.yul\":14811:14835   */\n      tag_445\n        /* \"#utility.yul\":14829:14834   */\n      dup5\n        /* \"#utility.yul\":14811:14835   */\n      tag_240\n      jump\t// in\n    tag_445:\n        /* \"#utility.yul\":14802:14836   */\n      tag_282\n      jump\t// in\n    tag_444:\n        /* \"#utility.yul\":14784:14837   */\n      tag_240\n      jump\t// in\n    tag_443:\n        /* \"#utility.yul\":14771:14837   */\n      swap1\n      pop\n        /* \"#utility.yul\":14701:14843   */\n      swap2\n      swap1\n      pop\n      jump\t// out\n        /* \"#utility.yul\":14849:14924   */\n    tag_284:\n        /* \"#utility.yul\":14892:14895   */\n      0x00\n        /* \"#utility.yul\":14913:14918   */\n      dup2\n        /* \"#utility.yul\":14906:14918   */\n      swap1\n      pop\n        /* \"#utility.yul\":14849:14924   */\n      swap2\n      swap1\n      pop\n      jump\t// out\n        /* \"#utility.yul\":14930:15199   */\n    tag_285:\n        /* \"#utility.yul\":15040:15079   */\n      tag_448\n        /* \"#utility.yul\":15071:15078   */\n      dup4\n        /* \"#utility.yul\":15040:15079   */\n      tag_283\n      jump\t// in\n    tag_448:\n        /* \"#utility.yul\":15101:15192   */\n      tag_449\n        /* \"#utility.yul\":15150:15191   */\n      tag_450\n        /* \"#utility.yul\":15174:15190   */\n      dup3\n        /* \"#utility.yul\":15150:15191   */\n      tag_284\n      jump\t// in\n    tag_450:\n        /* \"#utility.yul\":15142:15148   */\n      dup5\n        /* \"#utility.yul\":15135:15139   */\n      dup5\n        /* \"#utility.yul\":15129:15140   */\n      sload\n        /* \"#utility.yul\":15101:15192   */\n      tag_281\n      jump\t// in\n    tag_449:\n        /* \"#utility.yul\":15095:15099   */\n      dup3\n        /* \"#utility.yul\":15088:15193   */\n      sstore\n        /* \"#utility.yul\":15006:15199   */\n      pop\n        /* \"#utility.yul\":14930:15199   */\n      pop\n      pop\n      pop\n      jump\t// out\n        /* \"#utility.yul\":15205:15278   */\n    tag_286:\n        /* \"#utility.yul\":15250:15253   */\n      0x00\n        /* \"#utility.yul\":15271:15272   */\n      0x00\n        /* \"#utility.yul\":15264:15272   */\n      swap1\n      pop\n        /* \"#utility.yul\":15205:15278   */\n      swap1\n      jump\t// out\n        /* \"#utility.yul\":15284:15473   */\n    tag_287:\n        /* \"#utility.yul\":15361:15393   */\n      tag_453\n      tag_286\n      jump\t// in\n    tag_453:\n        /* \"#utility.yul\":15402:15467   */\n      tag_454\n        /* \"#utility.yul\":15460:15466   */\n      dup2\n        /* \"#utility.yul\":15452:15458   */\n      dup5\n        /* \"#utility.yul\":15446:15450   */\n      dup5\n        /* \"#utility.yul\":15402:15467   */\n      tag_285\n      jump\t// in\n    tag_454:\n        /* \"#utility.yul\":15337:15473   */\n      pop\n        /* \"#utility.yul\":15284:15473   */\n      pop\n      pop\n      jump\t// out\n        /* \"#utility.yul\":15479:15665   */\n    tag_288:\n        /* \"#utility.yul\":15539:15659   */\n    tag_456:\n        /* \"#utility.yul\":15556:15559   */\n      dup2\n        /* \"#utility.yul\":15549:15554   */\n      dup2\n        /* \"#utility.yul\":15546:15560   */\n      lt\n        /* \"#utility.yul\":15539:15659   */\n      iszero\n      tag_458\n      jumpi\n        /* \"#utility.yul\":15610:15649   */\n      tag_459\n        /* \"#utility.yul\":15647:15648   */\n      0x00\n        /* \"#utility.yul\":15640:15645   */\n      dup3\n        /* \"#utility.yul\":15610:15649   */\n      tag_287\n      jump\t// in\n    tag_459:\n        /* \"#utility.yul\":15583:15584   */\n      0x01\n        /* \"#utility.yul\":15576:15581   */\n      dup2\n        /* \"#utility.yul\":15572:15585   */\n      add\n        /* \"#utility.yul\":15563:15585   */\n      swap1\n      pop\n        /* \"#utility.yul\":15539:15659   */\n      jump(tag_456)\n    tag_458:\n        /* \"#utility.yul\":15479:15665   */\n      pop\n      pop\n      jump\t// out\n        /* \"#utility.yul\":15671:16214   */\n    tag_289:\n        /* \"#utility.yul\":15772:15774   */\n      0x1f\n        /* \"#utility.yul\":15767:15770   */\n      dup3\n        /* \"#utility.yul\":15764:15775   */\n      gt\n        /* \"#utility.yul\":15761:16207   */\n      iszero\n      tag_461\n      jumpi\n        /* \"#utility.yul\":15806:15844   */\n      tag_462\n        /* \"#utility.yul\":15838:15843   */\n      dup2\n        /* \"#utility.yul\":15806:15844   */\n      tag_278\n      jump\t// in\n    tag_462:\n        /* \"#utility.yul\":15890:15919   */\n      tag_463\n        /* \"#utility.yul\":15908:15918   */\n      dup5\n        /* \"#utility.yul\":15890:15919   */\n      tag_279\n      jump\t// in\n    tag_463:\n        /* \"#utility.yul\":15880:15888   */\n      dup2\n        /* \"#utility.yul\":15876:15920   */\n      add\n        /* \"#utility.yul\":16073:16075   */\n      0x20\n        /* \"#utility.yul\":16061:16071   */\n      dup6\n        /* \"#utility.yul\":16058:16076   */\n      lt\n        /* \"#utility.yul\":16055:16104   */\n      iszero\n      tag_464\n      jumpi\n        /* \"#utility.yul\":16094:16102   */\n      dup2\n        /* \"#utility.yul\":16079:16102   */\n      swap1\n      pop\n        /* \"#utility.yul\":16055:16104   */\n    tag_464:\n        /* \"#utility.yul\":16117:16197   */\n      tag_465\n        /* \"#utility.yul\":16173:16195   */\n      tag_466\n        /* \"#utility.yul\":16191:16194   */\n      dup6\n        /* \"#utility.yul\":16173:16195   */\n      tag_279\n      jump\t// in\n    tag_466:\n        /* \"#utility.yul\":16163:16171   */\n      dup4\n        /* \"#utility.yul\":16159:16196   */\n      add\n        /* \"#utility.yul\":16146:16157   */\n      dup3\n        /* \"#utility.yul\":16117:16197   */\n      tag_288\n      jump\t// in\n    tag_465:\n        /* \"#utility.yul\":15776:16207   */\n      pop\n      pop\n        /* \"#utility.yul\":15761:16207   */\n    tag_461:\n        /* \"#utility.yul\":15671:16214   */\n      pop\n      pop\n      pop\n      jump\t// out\n        /* \"#utility.yul\":16220:16337   */\n    tag_290:\n        /* \"#utility.yul\":16274:16282   */\n      0x00\n        /* \"#utility.yul\":16324:16329   */\n      dup3\n        /* \"#utility.yul\":16318:16322   */\n      dup3\n        /* \"#utility.yul\":16314:16330   */\n      shr\n        /* \"#utility.yul\":16293:16330   */\n      swap1\n      pop\n        /* \"#utility.yul\":16220:16337   */\n      swap3\n      swap2\n      pop\n      pop\n      jump\t// out\n        /* \"#utility.yul\":16343:16512   */\n    tag_291:\n        /* \"#utility.yul\":16387:16393   */\n      0x00\n        /* \"#utility.yul\":16420:16471   */\n      tag_469\n        /* \"#utility.yul\":16468:16469   */\n      0x00\n        /* \"#utility.yul\":16464:16470   */\n      not\n        /* \"#utility.yul\":16456:16461   */\n      dup5\n        /* \"#utility.yul\":16453:16454   */\n      0x08\n        /* \"#utility.yul\":16449:16462   */\n      mul\n        /* \"#utility.yul\":16420:16471   */\n      tag_290\n      jump\t// in\n    tag_469:\n        /* \"#utility.yul\":16416:16472   */\n      not\n        /* \"#utility.yul\":16501:16505   */\n      dup1\n        /* \"#utility.yul\":16495:16499   */\n      dup4\n        /* \"#utility.yul\":16491:16506   */\n      and\n        /* \"#utility.yul\":16481:16506   */\n      swap2\n      pop\n        /* \"#utility.yul\":16394:16512   */\n      pop\n        /* \"#utility.yul\":16343:16512   */\n      swap3\n      swap2\n      pop\n      pop\n      jump\t// out\n        /* \"#utility.yul\":16517:16812   */\n    tag_292:\n        /* \"#utility.yul\":16593:16597   */\n      0x00\n        /* \"#utility.yul\":16739:16768   */\n      tag_471\n        /* \"#utility.yul\":16764:16767   */\n      dup4\n        /* \"#utility.yul\":16758:16762   */\n      dup4\n        /* \"#utility.yul\":16739:16768   */\n      tag_291\n      jump\t// in\n    tag_471:\n        /* \"#utility.yul\":16731:16768   */\n      swap2\n      pop\n        /* \"#utility.yul\":16801:16804   */\n      dup3\n        /* \"#utility.yul\":16798:16799   */\n      0x02\n        /* \"#utility.yul\":16794:16805   */\n      mul\n        /* \"#utility.yul\":16788:16792   */\n      dup3\n        /* \"#utility.yul\":16785:16806   */\n      or\n        /* \"#utility.yul\":16777:16806   */\n      swap1\n      pop\n        /* \"#utility.yul\":16517:16812   */\n      swap3\n      swap2\n      pop\n      pop\n      jump\t// out\n        /* \"#utility.yul\":16817:18212   */\n    tag_150:\n        /* \"#utility.yul\":16934:16971   */\n      tag_473\n        /* \"#utility.yul\":16967:16970   */\n      dup3\n        /* \"#utility.yul\":16934:16971   */\n      tag_251\n      jump\t// in\n    tag_473:\n        /* \"#utility.yul\":17036:17054   */\n      0xffffffffffffffff\n        /* \"#utility.yul\":17028:17034   */\n      dup2\n        /* \"#utility.yul\":17025:17055   */\n      gt\n        /* \"#utility.yul\":17022:17078   */\n      iszero\n      tag_474\n      jumpi\n        /* \"#utility.yul\":17058:17076   */\n      tag_475\n      tag_265\n      jump\t// in\n    tag_475:\n        /* \"#utility.yul\":17022:17078   */\n    tag_474:\n        /* \"#utility.yul\":17102:17140   */\n      tag_476\n        /* \"#utility.yul\":17134:17138   */\n      dup3\n        /* \"#utility.yul\":17128:17139   */\n      sload\n        /* \"#utility.yul\":17102:17140   */\n      tag_47\n      jump\t// in\n    tag_476:\n        /* \"#utility.yul\":17187:17254   */\n      tag_477\n        /* \"#utility.yul\":17247:17253   */\n      dup3\n        /* \"#utility.yul\":17239:17245   */\n      dup3\n        /* \"#utility.yul\":17233:17237   */\n      dup6\n        /* \"#utility.yul\":17187:17254   */\n      tag_289\n      jump\t// in\n    tag_477:\n        /* \"#utility.yul\":17281:17282   */\n      0x00\n        /* \"#utility.yul\":17305:17309   */\n      0x20\n        /* \"#utility.yul\":17292:17309   */\n      swap1\n      pop\n        /* \"#utility.yul\":17337:17339   */\n      0x1f\n        /* \"#utility.yul\":17329:17335   */\n      dup4\n        /* \"#utility.yul\":17326:17340   */\n      gt\n        /* \"#utility.yul\":17354:17355   */\n      0x01\n        /* \"#utility.yul\":17349:17967   */\n      dup2\n      eq\n      tag_479\n      jumpi\n        /* \"#utility.yul\":18011:18012   */\n      0x00\n        /* \"#utility.yul\":18028:18034   */\n      dup5\n        /* \"#utility.yul\":18025:18102   */\n      iszero\n      tag_480\n      jumpi\n        /* \"#utility.yul\":18077:18086   */\n      dup3\n        /* \"#utility.yul\":18072:18075   */\n      dup8\n        /* \"#utility.yul\":18068:18087   */\n      add\n        /* \"#utility.yul\":18062:18088   */\n      mload\n        /* \"#utility.yul\":18053:18088   */\n      swap1\n      pop\n        /* \"#utility.yul\":18025:18102   */\n    tag_480:\n        /* \"#utility.yul\":18128:18195   */\n      tag_481\n        /* \"#utility.yul\":18188:18194   */\n      dup6\n        /* \"#utility.yul\":18181:18186   */\n      dup3\n        /* \"#utility.yul\":18128:18195   */\n      tag_292\n      jump\t// in\n    tag_481:\n        /* \"#utility.yul\":18122:18126   */\n      dup7\n        /* \"#utility.yul\":18115:18196   */\n      sstore\n        /* \"#utility.yul\":17984:18206   */\n      pop\n        /* \"#utility.yul\":17319:18206   */\n      jump(tag_478)\n        /* \"#utility.yul\":17349:17967   */\n    tag_479:\n        /* \"#utility.yul\":17401:17405   */\n      0x1f\n        /* \"#utility.yul\":17397:17406   */\n      not\n        /* \"#utility.yul\":17389:17395   */\n      dup5\n        /* \"#utility.yul\":17385:17407   */\n      and\n        /* \"#utility.yul\":17435:17472   */\n      tag_482\n        /* \"#utility.yul\":17467:17471   */\n      dup7\n        /* \"#utility.yul\":17435:17472   */\n      tag_278\n      jump\t// in\n    tag_482:\n        /* \"#utility.yul\":17494:17495   */\n      0x00\n        /* \"#utility.yul\":17508:17716   */\n    tag_483:\n        /* \"#utility.yul\":17522:17529   */\n      dup3\n        /* \"#utility.yul\":17519:17520   */\n      dup2\n        /* \"#utility.yul\":17516:17530   */\n      lt\n        /* \"#utility.yul\":17508:17716   */\n      iszero\n      tag_485\n      jumpi\n        /* \"#utility.yul\":17601:17610   */\n      dup5\n        /* \"#utility.yul\":17596:17599   */\n      dup10\n        /* \"#utility.yul\":17592:17611   */\n      add\n        /* \"#utility.yul\":17586:17612   */\n      mload\n        /* \"#utility.yul\":17578:17584   */\n      dup3\n        /* \"#utility.yul\":17571:17613   */\n      sstore\n        /* \"#utility.yul\":17652:17653   */\n      0x01\n        /* \"#utility.yul\":17644:17650   */\n      dup3\n        /* \"#utility.yul\":17640:17654   */\n      add\n        /* \"#utility.yul\":17630:17654   */\n      swap2\n      pop\n        /* \"#utility.yul\":17699:17701   */\n      0x20\n        /* \"#utility.yul\":17688:17697   */\n      dup6\n        /* \"#utility.yul\":17684:17702   */\n      add\n        /* \"#utility.yul\":17671:17702   */\n      swap5\n      pop\n        /* \"#utility.yul\":17545:17549   */\n      0x20\n        /* \"#utility.yul\":17542:17543   */\n      dup2\n        /* \"#utility.yul\":17538:17550   */\n      add\n        /* \"#utility.yul\":17533:17550   */\n      swap1\n      pop\n        /* \"#utility.yul\":17508:17716   */\n      jump(tag_483)\n    tag_485:\n        /* \"#utility.yul\":17744:17750   */\n      dup7\n        /* \"#utility.yul\":17735:17742   */\n      dup4\n        /* \"#utility.yul\":17732:17751   */\n      lt\n        /* \"#utility.yul\":17729:17908   */\n      iszero\n      tag_486\n      jumpi\n        /* \"#utility.yul\":17802:17811   */\n      dup5\n        /* \"#utility.yul\":17797:17800   */\n      dup10\n        /* \"#utility.yul\":17793:17812   */\n      add\n        /* \"#utility.yul\":17787:17813   */\n      mload\n        /* \"#utility.yul\":17845:17893   */\n      tag_487\n        /* \"#utility.yul\":17887:17891   */\n      0x1f\n        /* \"#utility.yul\":17879:17885   */\n      dup10\n        /* \"#utility.yul\":17875:17892   */\n      and\n        /* \"#utility.yul\":17864:17873   */\n      dup3\n        /* \"#utility.yul\":17845:17893   */\n      tag_291\n      jump\t// in\n    tag_487:\n        /* \"#utility.yul\":17837:17843   */\n      dup4\n        /* \"#utility.yul\":17830:17894   */\n      sstore\n        /* \"#utility.yul\":17752:17908   */\n      pop\n        /* \"#utility.yul\":17729:17908   */\n    tag_486:\n        /* \"#utility.yul\":17954:17955   */\n      0x01\n        /* \"#utility.yul\":17950:17951   */\n      0x02\n        /* \"#utility.yul\":17942:17948   */\n      dup9\n        /* \"#utility.yul\":17938:17952   */\n      mul\n        /* \"#utility.yul\":17934:17956   */\n      add\n        /* \"#utility.yul\":17928:17932   */\n      dup9\n        /* \"#utility.yul\":17921:17957   */\n      sstore\n        /* \"#utility.yul\":17356:17967   */\n      pop\n      pop\n      pop\n        /* \"#utility.yul\":17319:18206   */\n    tag_478:\n      pop\n        /* \"#utility.yul\":16909:18212   */\n      pop\n      pop\n      pop\n        /* \"#utility.yul\":16817:18212   */\n      pop\n      pop\n      jump\t// out\n        /* \"#utility.yul\":18218:18385   */\n    tag_293:\n        /* \"#utility.yul\":18358:18377   */\n      0x50726f64756374206e6f7420666f756e64000000000000000000000000000000\n        /* \"#utility.yul\":18354:18355   */\n      0x00\n        /* \"#utility.yul\":18346:18352   */\n      dup3\n        /* \"#utility.yul\":18342:18356   */\n      add\n        /* \"#utility.yul\":18335:18378   */\n      mstore\n        /* \"#utility.yul\":18218:18385   */\n      pop\n      jump\t// out\n        /* \"#utility.yul\":18391:18757   */\n    tag_294:\n        /* \"#utility.yul\":18533:18536   */\n      0x00\n        /* \"#utility.yul\":18554:18621   */\n      tag_490\n        /* \"#utility.yul\":18618:18620   */\n      0x11\n        /* \"#utility.yul\":18613:18616   */\n      dup4\n        /* \"#utility.yul\":18554:18621   */\n      tag_252\n      jump\t// in\n    tag_490:\n        /* \"#utility.yul\":18547:18621   */\n      swap2\n      pop\n        /* \"#utility.yul\":18630:18723   */\n      tag_491\n        /* \"#utility.yul\":18719:18722   */\n      dup3\n        /* \"#utility.yul\":18630:18723   */\n      tag_293\n      jump\t// in\n    tag_491:\n        /* \"#utility.yul\":18748:18750   */\n      0x20\n        /* \"#utility.yul\":18743:18746   */\n      dup3\n        /* \"#utility.yul\":18739:18751   */\n      add\n        /* \"#utility.yul\":18732:18751   */\n      swap1\n      pop\n        /* \"#utility.yul\":18391:18757   */\n      swap2\n      swap1\n      pop\n      jump\t// out\n        /* \"#utility.yul\":18763:19182   */\n    tag_158:\n        /* \"#utility.yul\":18929:18933   */\n      0x00\n        /* \"#utility.yul\":18967:18969   */\n      0x20\n        /* \"#utility.yul\":18956:18965   */\n      dup3\n        /* \"#utility.yul\":18952:18970   */\n      add\n        /* \"#utility.yul\":18944:18970   */\n      swap1\n      pop\n        /* \"#utility.yul\":19016:19025   */\n      dup2\n        /* \"#utility.yul\":19010:19014   */\n      dup2\n        /* \"#utility.yul\":19006:19026   */\n      sub\n        /* \"#utility.yul\":19002:19003   */\n      0x00\n        /* \"#utility.yul\":18991:19000   */\n      dup4\n        /* \"#utility.yul\":18987:19004   */\n      add\n        /* \"#utility.yul\":18980:19027   */\n      mstore\n        /* \"#utility.yul\":19044:19175   */\n      tag_493\n        /* \"#utility.yul\":19170:19174   */\n      dup2\n        /* \"#utility.yul\":19044:19175   */\n      tag_294\n      jump\t// in\n    tag_493:\n        /* \"#utility.yul\":19036:19175   */\n      swap1\n      pop\n        /* \"#utility.yul\":18763:19182   */\n      swap2\n      swap1\n      pop\n      jump\t// out\n        /* \"#utility.yul\":19188:19352   */\n    tag_295:\n        /* \"#utility.yul\":19328:19344   */\n      0x4e6f7420617574686f72697a6564000000000000000000000000000000000000\n        /* \"#utility.yul\":19324:19325   */\n      0x00\n        /* \"#utility.yul\":19316:19322   */\n      dup3\n        /* \"#utility.yul\":19312:19326   */\n      add\n        /* \"#utility.yul\":19305:19345   */\n      mstore\n        /* \"#utility.yul\":19188:19352   */\n      pop\n      jump\t// out\n        /* \"#utility.yul\":19358:19724   */\n    tag_296:\n        /* \"#utility.yul\":19500:19503   */\n      0x00\n        /* \"#utility.yul\":19521:19588   */\n      tag_496\n        /* \"#utility.yul\":19585:19587   */\n      0x0e\n        /* \"#utility.yul\":19580:19583   */\n      dup4\n        /* \"#utility.yul\":19521:19588   */\n      tag_252\n      jump\t// in\n    tag_496:\n        /* \"#utility.yul\":19514:19588   */\n      swap2\n      pop\n        /* \"#utility.yul\":19597:19690   */\n      tag_497\n        /* \"#utility.yul\":19686:19689   */\n      dup3\n        /* \"#utility.yul\":19597:19690   */\n      tag_295\n      jump\t// in\n    tag_497:\n        /* \"#utility.yul\":19715:19717   */\n      0x20\n        /* \"#utility.yul\":19710:19713   */\n      dup3\n        /* \"#utility.yul\":19706:19718   */\n      add\n        /* \"#utility.yul\":19699:19718   */\n      swap1\n      pop\n        /* \"#utility.yul\":19358:19724   */\n      swap2\n      swap1\n      pop\n      jump\t// out\n        /* \"#utility.yul\":19730:20149   */\n    tag_161:\n        /* \"#utility.yul\":19896:19900   */\n      0x00\n        /* \"#utility.yul\":19934:19936   */\n      0x20\n        /* \"#utility.yul\":19923:19932   */\n      dup3\n        /* \"#utility.yul\":19919:19937   */\n      add\n        /* \"#utility.yul\":19911:19937   */\n      swap1\n      pop\n        /* \"#utility.yul\":19983:19992   */\n      dup2\n        /* \"#utility.yul\":19977:19981   */\n      dup2\n        /* \"#utility.yul\":19973:19993   */\n      sub\n        /* \"#utility.yul\":19969:19970   */\n      0x00\n        /* \"#utility.yul\":19958:19967   */\n      dup4\n        /* \"#utility.yul\":19954:19971   */\n      add\n        /* \"#utility.yul\":19947:19994   */\n      mstore\n        /* \"#utility.yul\":20011:20142   */\n      tag_499\n        /* \"#utility.yul\":20137:20141   */\n      dup2\n        /* \"#utility.yul\":20011:20142   */\n      tag_296\n      jump\t// in\n    tag_499:\n        /* \"#utility.yul\":20003:20142   */\n      swap1\n      pop\n        /* \"#utility.yul\":19730:20149   */\n      swap2\n      swap1\n      pop\n      jump\t// out\n        /* \"#utility.yul\":20155:20244   */\n    tag_297:\n        /* \"#utility.yul\":20189:20196   */\n      0x00\n        /* \"#utility.yul\":20232:20237   */\n      dup2\n        /* \"#utility.yul\":20229:20230   */\n      0x00\n        /* \"#utility.yul\":20218:20238   */\n      signextend\n        /* \"#utility.yul\":20207:20238   */\n      swap1\n      pop\n        /* \"#utility.yul\":20155:20244   */\n      swap2\n      swap1\n      pop\n      jump\t// out\n        /* \"#utility.yul\":20250:20556   */\n    tag_164:\n        /* \"#utility.yul\":20287:20291   */\n      0x00\n        /* \"#utility.yul\":20307:20324   */\n      tag_502\n        /* \"#utility.yul\":20322:20323   */\n      dup3\n        /* \"#utility.yul\":20307:20324   */\n      tag_297\n      jump\t// in\n    tag_502:\n        /* \"#utility.yul\":20302:20324   */\n      swap2\n      pop\n        /* \"#utility.yul\":20338:20355   */\n      tag_503\n        /* \"#utility.yul\":20353:20354   */\n      dup4\n        /* \"#utility.yul\":20338:20355   */\n      tag_297\n      jump\t// in\n    tag_503:\n        /* \"#utility.yul\":20333:20355   */\n      swap3\n      pop\n        /* \"#utility.yul\":20379:20380   */\n      dup3\n        /* \"#utility.yul\":20376:20377   */\n      dup3\n        /* \"#utility.yul\":20372:20381   */\n      sub\n        /* \"#utility.yul\":20364:20381   */\n      swap1\n      pop\n        /* \"#utility.yul\":20511:20515   */\n      0x7f\n        /* \"#utility.yul\":20505:20509   */\n      dup2\n        /* \"#utility.yul\":20501:20516   */\n      sgt\n        /* \"#utility.yul\":20420:20486   */\n      0xffffffffffffffffffffffffffffffffffffffffffffffffffffffffffffff80\n        /* \"#utility.yul\":20414:20418   */\n      dup3\n        /* \"#utility.yul\":20410:20487   */\n      slt\n        /* \"#utility.yul\":20394:20526   */\n      or\n        /* \"#utility.yul\":20391:20549   */\n      iszero\n      tag_504\n      jumpi\n        /* \"#utility.yul\":20529:20547   */\n      tag_505\n      tag_273\n      jump\t// in\n    tag_505:\n        /* \"#utility.yul\":20391:20549   */\n    tag_504:\n        /* \"#utility.yul\":20250:20556   */\n      swap3\n      swap2\n      pop\n      pop\n      jump\t// out\n        /* \"#utility.yul\":20562:20937   */\n    tag_172:\n        /* \"#utility.yul\":20601:20604   */\n      0x00\n        /* \"#utility.yul\":20620:20639   */\n      tag_507\n        /* \"#utility.yul\":20637:20638   */\n      dup3\n        /* \"#utility.yul\":20620:20639   */\n      tag_256\n      jump\t// in\n    tag_507:\n        /* \"#utility.yul\":20615:20639   */\n      swap2\n      pop\n        /* \"#utility.yul\":20653:20672   */\n      tag_508\n        /* \"#utility.yul\":20670:20671   */\n      dup4\n        /* \"#utility.yul\":20653:20672   */\n      tag_256\n      jump\t// in\n    tag_508:\n        /* \"#utility.yul\":20648:20672   */\n      swap3\n      pop\n        /* \"#utility.yul\":20695:20696   */\n      dup3\n        /* \"#utility.yul\":20692:20693   */\n      dup3\n        /* \"#utility.yul\":20688:20697   */\n      add\n        /* \"#utility.yul\":20681:20697   */\n      swap1\n      pop\n        /* \"#utility.yul\":20893:20894   */\n      dup3\n        /* \"#utility.yul\":20888:20891   */\n      dup2\n        /* \"#utility.yul\":20884:20895   */\n      slt\n        /* \"#utility.yul\":20877:20896   */\n      iszero\n        /* \"#utility.yul\":20873:20874   */\n      0x00\n        /* \"#utility.yul\":20870:20871   */\n      dup4\n        /* \"#utility.yul\":20866:20875   */\n      slt\n        /* \"#utility.yul\":20862:20897   */\n      and\n        /* \"#utility.yul\":20845:20846   */\n      dup4\n        /* \"#utility.yul\":20840:20843   */\n      dup3\n        /* \"#utility.yul\":20836:20847   */\n      slt\n        /* \"#utility.yul\":20831:20832   */\n      0x00\n        /* \"#utility.yul\":20828:20829   */\n      dup5\n        /* \"#utility.yul\":20824:20833   */\n      slt\n        /* \"#utility.yul\":20817:20834   */\n      iszero\n        /* \"#utility.yul\":20813:20848   */\n      and\n        /* \"#utility.yul\":20797:20907   */\n      or\n        /* \"#utility.yul\":20794:20930   */\n      iszero\n      tag_509\n      jumpi\n        /* \"#utility.yul\":20910:20928   */\n      tag_510\n      tag_273\n      jump\t// in\n    tag_510:\n        /* \"#utility.yul\":20794:20930   */\n    tag_509:\n        /* \"#utility.yul\":20562:20937   */\n      swap3\n      swap2\n      pop\n      pop\n      jump\t// out\n        /* \"#utility.yul\":20943:21210   */\n    tag_179:\n        /* \"#utility.yul\":20980:20987   */\n      0x00\n        /* \"#utility.yul\":21003:21020   */\n      tag_512\n        /* \"#utility.yul\":21018:21019   */\n      dup3\n        /* \"#utility.yul\":21003:21020   */\n      tag_297\n      jump\t// in\n    tag_512:\n        /* \"#utility.yul\":20998:21020   */\n      swap2\n      pop\n        /* \"#utility.yul\":21034:21051   */\n      tag_513\n        /* \"#utility.yul\":21049:21050   */\n      dup4\n        /* \"#utility.yul\":21034:21051   */\n      tag_297\n      jump\t// in\n    tag_513:\n        /* \"#utility.yul\":21029:21051   */\n      swap3\n      pop\n        /* \"#utility.yul\":21086:21087   */\n      dup3\n        /* \"#utility.yul\":21083:21084   */\n      dup3\n        /* \"#utility.yul\":21079:21088   */\n      mul\n        /* \"#utility.yul\":21108:21135   */\n      tag_514\n        /* \"#utility.yul\":21123:21134   */\n      dup2\n        /* \"#utility.yul\":21108:21135   */\n      tag_297\n      jump\t// in\n    tag_514:\n        /* \"#utility.yul\":21097:21135   */\n      swap2\n      pop\n        /* \"#utility.yul\":21167:21178   */\n      dup1\n        /* \"#utility.yul\":21158:21165   */\n      dup3\n        /* \"#utility.yul\":21155:21179   */\n      eq\n        /* \"#utility.yul\":21145:21203   */\n      tag_515\n      jumpi\n        /* \"#utility.yul\":21183:21201   */\n      tag_516\n      tag_273\n      jump\t// in\n    tag_516:\n        /* \"#utility.yul\":21145:21203   */\n    tag_515:\n        /* \"#utility.yul\":20988:21210   */\n      pop\n        /* \"#utility.yul\":20943:21210   */\n      swap3\n      swap2\n      pop\n      pop\n      jump\t// out\n        /* \"#utility.yul\":21216:21518   */\n    tag_181:\n        /* \"#utility.yul\":21253:21256   */\n      0x00\n        /* \"#utility.yul\":21272:21289   */\n      tag_518\n        /* \"#utility.yul\":21287:21288   */\n      dup3\n        /* \"#utility.yul\":21272:21289   */\n      tag_297\n      jump\t// in\n    tag_518:\n        /* \"#utility.yul\":21267:21289   */\n      swap2\n      pop\n        /* \"#utility.yul\":21303:21320   */\n      tag_519\n        /* \"#utility.yul\":21318:21319   */\n      dup4\n        /* \"#utility.yul\":21303:21320   */\n      tag_297\n      jump\t// in\n    tag_519:\n        /* \"#utility.yul\":21298:21320   */\n      swap3\n      pop\n        /* \"#utility.yul\":21343:21344   */\n      dup3\n        /* \"#utility.yul\":21340:21341   */\n      dup3\n        /* \"#utility.yul\":21336:21345   */\n      add\n        /* \"#utility.yul\":21329:21345   */\n      swap1\n      pop\n        /* \"#utility.yul\":21411:21477   */\n      0xffffffffffffffffffffffffffffffffffffffffffffffffffffffffffffff80\n        /* \"#utility.yul\":21406:21409   */\n      dup2\n        /* \"#utility.yul\":21402:21478   */\n      slt\n        /* \"#utility.yul\":21383:21387   */\n      0x7f\n        /* \"#utility.yul\":21378:21381   */\n      dup3\n        /* \"#utility.yul\":21374:21388   */\n      sgt\n        /* \"#utility.yul\":21358:21488   */\n      or\n        /* \"#utility.yul\":21355:21511   */\n      iszero\n      tag_520\n      jumpi\n        /* \"#utility.yul\":21491:21509   */\n      tag_521\n      tag_273\n      jump\t// in\n    tag_521:\n        /* \"#utility.yul\":21355:21511   */\n    tag_520:\n        /* \"#utility.yul\":21216:21518   */\n      swap3\n      swap2\n      pop\n      pop\n      jump\t// out\n        /* \"#utility.yul\":21524:21896   */\n    tag_185:\n        /* \"#utility.yul\":21563:21567   */\n      0x00\n        /* \"#utility.yul\":21583:21602   */\n      tag_523\n        /* \"#utility.yul\":21600:21601   */\n      dup3\n        /* \"#utility.yul\":21583:21602   */\n      tag_256\n      jump\t// in\n    tag_523:\n        /* \"#utility.yul\":21578:21602   */\n      swap2\n      pop\n        /* \"#utility.yul\":21616:21635   */\n      tag_524\n        /* \"#utility.yul\":21633:21634   */\n      dup4\n        /* \"#utility.yul\":21616:21635   */\n      tag_256\n      jump\t// in\n    tag_524:\n        /* \"#utility.yul\":21611:21635   */\n      swap3\n      pop\n        /* \"#utility.yul\":21659:21660   */\n      dup3\n        /* \"#utility.yul\":21656:21657   */\n      dup3\n        /* \"#utility.yul\":21652:21661   */\n      sub\n        /* \"#utility.yul\":21644:21661   */\n      swap1\n      pop\n        /* \"#utility.yul\":21853:21854   */\n      dup2\n        /* \"#utility.yul\":21847:21851   */\n      dup2\n        /* \"#utility.yul\":21843:21855   */\n      slt\n        /* \"#utility.yul\":21839:21840   */\n      0x00\n        /* \"#utility.yul\":21836:21837   */\n      dup5\n        /* \"#utility.yul\":21832:21841   */\n      slt\n        /* \"#utility.yul\":21828:21856   */\n      and\n        /* \"#utility.yul\":21811:21812   */\n      dup3\n        /* \"#utility.yul\":21805:21809   */\n      dup3\n        /* \"#utility.yul\":21801:21813   */\n      sgt\n        /* \"#utility.yul\":21796:21797   */\n      0x00\n        /* \"#utility.yul\":21793:21794   */\n      dup6\n        /* \"#utility.yul\":21789:21798   */\n      slt\n        /* \"#utility.yul\":21782:21799   */\n      iszero\n        /* \"#utility.yul\":21778:21814   */\n      and\n        /* \"#utility.yul\":21762:21866   */\n      or\n        /* \"#utility.yul\":21759:21889   */\n      iszero\n      tag_525\n      jumpi\n        /* \"#utility.yul\":21869:21887   */\n      tag_526\n      tag_273\n      jump\t// in\n    tag_526:\n        /* \"#utility.yul\":21759:21889   */\n    tag_525:\n        /* \"#utility.yul\":21524:21896   */\n      swap3\n      swap2\n      pop\n      pop\n      jump\t// out\n        /* \"#utility.yul\":21902:22082   */\n    tag_298:\n        /* \"#utility.yul\":21950:22027   */\n      0x4e487b7100000000000000000000000000000000000000000000000000000000\n        /* \"#utility.yul\":21947:21948   */\n      0x00\n        /* \"#utility.yul\":21940:22028   */\n      mstore\n        /* \"#utility.yul\":22047:22051   */\n      0x12\n        /* \"#utility.yul\":22044:22045   */\n      0x04\n        /* \"#utility.yul\":22037:22052   */\n      mstore\n        /* \"#utility.yul\":22071:22075   */\n      0x24\n        /* \"#utility.yul\":22068:22069   */\n      0x00\n        /* \"#utility.yul\":22061:22076   */\n      revert\n        /* \"#utility.yul\":22088:22473   */\n    tag_188:\n        /* \"#utility.yul\":22127:22128   */\n      0x00\n        /* \"#utility.yul\":22144:22163   */\n      tag_529\n        /* \"#utility.yul\":22161:22162   */\n      dup3\n        /* \"#utility.yul\":22144:22163   */\n      tag_256\n      jump\t// in\n    tag_529:\n        /* \"#utility.yul\":22139:22163   */\n      swap2\n      pop\n        /* \"#utility.yul\":22177:22196   */\n      tag_530\n        /* \"#utility.yul\":22194:22195   */\n      dup4\n        /* \"#utility.yul\":22177:22196   */\n      tag_256\n      jump\t// in\n    tag_530:\n        /* \"#utility.yul\":22172:22196   */\n      swap3\n      pop\n        /* \"#utility.yul\":22215:22216   */\n      dup3\n        /* \"#utility.yul\":22205:22240   */\n      tag_531\n      jumpi\n        /* \"#utility.yul\":22220:22238   */\n      tag_532\n      tag_298\n      jump\t// in\n    tag_532:\n        /* \"#utility.yul\":22205:22240   */\n    tag_531:\n        /* \"#utility.yul\":22406:22407   */\n      0x01\n        /* \"#utility.yul\":22403:22404   */\n      0x00\n        /* \"#utility.yul\":22399:22408   */\n      sub\n        /* \"#utility.yul\":22396:22397   */\n      dup4\n        /* \"#utility.yul\":22393:22409   */\n      eq\n        /* \"#utility.yul\":22312:22378   */\n      0x8000000000000000000000000000000000000000000000000000000000000000\n        /* \"#utility.yul\":22309:22310   */\n      dup4\n        /* \"#utility.yul\":22306:22379   */\n      eq\n        /* \"#utility.yul\":22289:22419   */\n      and\n        /* \"#utility.yul\":22286:22442   */\n      iszero\n      tag_533\n      jumpi\n        /* \"#utility.yul\":22422:22440   */\n      tag_534\n      tag_273\n      jump\t// in\n    tag_534:\n        /* \"#utility.yul\":22286:22442   */\n    tag_533:\n        /* \"#utility.yul\":22465:22466   */\n      dup3\n        /* \"#utility.yul\":22462:22463   */\n      dup3\n        /* \"#utility.yul\":22457:22467   */\n      sdiv\n        /* \"#utility.yul\":22452:22467   */\n      swap1\n      pop\n        /* \"#utility.yul\":22088:22473   */\n      swap3\n      swap2\n      pop\n      pop\n      jump\t// out\n        /* \"#utility.yul\":22479:22664   */\n    tag_236:\n        /* \"#utility.yul\":22519:22520   */\n      0x00\n        /* \"#utility.yul\":22536:22556   */\n      tag_536\n        /* \"#utility.yul\":22554:22555   */\n      dup3\n        /* \"#utility.yul\":22536:22556   */\n      tag_240\n      jump\t// in\n    tag_536:\n        /* \"#utility.yul\":22531:22556   */\n      swap2\n      pop\n        /* \"#utility.yul\":22570:22590   */\n      tag_537\n        /* \"#utility.yul\":22588:22589   */\n      dup4\n        /* \"#utility.yul\":22570:22590   */\n      tag_240\n      jump\t// in\n    tag_537:\n        /* \"#utility.yul\":22565:22590   */\n      swap3\n      pop\n        /* \"#utility.yul\":22609:22610   */\n      dup3\n        /* \"#utility.yul\":22599:22634   */\n      tag_538\n      jumpi\n        /* \"#utility.yul\":22614:22632   */\n      tag_539\n      tag_298\n      jump\t// in\n    tag_539:\n        /* \"#utility.yul\":22599:22634   */\n    tag_538:\n        /* \"#utility.yul\":22656:22657   */\n      dup3\n        /* \"#utility.yul\":22653:22654   */\n      dup3\n        /* \"#utility.yul\":22649:22658   */\n      div\n        /* \"#utility.yul\":22644:22658   */\n      swap1\n      pop\n        /* \"#utility.yul\":22479:22664   */\n      swap3\n      swap2\n      pop\n      pop\n      jump\t// out\n\n    auxdata: 0xa2646970667358221220c60ef00a2b0fd01a51e32b3a1c86b3a3c3b0ba52d772d52279b06000661cb41064736f6c634300081e0033\n}\n",
				"bytecode": {
					"linkReferences": {},
					"object": "6080604052348015600e575f5ffd5b5061203c8061001c5f395ff3fe608060405234801561000f575f5ffd5b506004361061007b575f3560e01c80637acc0b20116100595780637acc0b20146100fe578063cb51bba914610134578063d1eacd6214610164578063ed90c7b7146101805761007b565b806302ee3a521461007f57806342692c0f1461009d578063524e8462146100cd575b5f5ffd5b61008761019c565b6040516100949190611434565b60405180910390f35b6100b760048036038101906100b2919061148f565b6101f2565b6040516100c491906114c9565b60405180910390f35b6100e760048036038101906100e2919061148f565b610614565b6040516100f592919061156a565b60405180910390f35b6101186004803603810190610113919061148f565b610a26565b60405161012b97969594939291906115f1565b60405180910390f35b61014e6004803603810190610149919061148f565b610ca7565b60405161015b91906114c9565b60405180910390f35b61017e600480360381019061017991906117a6565b610cc7565b005b61019a6004803603810190610195919061148f565b610e9f565b005b606060018054806020026020016040519081016040528092919081815260200182805480156101e857602002820191905f5260205f20905b8154815260200190600101908083116101d4575b5050505050905090565b5f5f5f5f8481526020019081526020015f206040518060e00160405290815f8201548152602001600182018054610228906118ba565b80601f0160208091040260200160405190810160405280929190818152602001828054610254906118ba565b801561029f5780601f106102765761010080835404028352916020019161029f565b820191905f5260205f20905b81548152906001019060200180831161028257829003601f168201915b505050505081526020016002820180546102b8906118ba565b80601f01602080910402602001604051908101604052809291908181526020018280546102e4906118ba565b801561032f5780601f106103065761010080835404028352916020019161032f565b820191905f5260205f20905b81548152906001019060200180831161031257829003601f168201915b50505050508152602001600382018054610348906118ba565b80601f0160208091040260200160405190810160405280929190818152602001828054610374906118ba565b80156103bf5780601f10610396576101008083540402835291602001916103bf565b820191905f5260205f20905b8154815290600101906020018083116103a257829003601f168201915b505050505081526020016004820180546103d8906118ba565b80601f0160208091040260200160405190810160405280929190818152602001828054610404906118ba565b801561044f5780601f106104265761010080835404028352916020019161044f565b820191905f5260205f20905b81548152906001019060200180831161043257829003601f168201915b50505050508152602001600582015f9054906101000a900473ffffffffffffffffffffffffffffffffffffffff1673ffffffffffffffffffffffffffffffffffffffff1673ffffffffffffffffffffffffffffffffffffffff1681526020016005820160149054906101000a900460ff16151515158152505090505f816080015190505f610556825f815181106104e9576104e86118ea565b5b602001015160f81c60f81b83600181518110610508576105076118ea565b5b602001015160f81c60f81b84600281518110610527576105266118ea565b5b602001015160f81c60f81b85600381518110610546576105456118ea565b5b602001015160f81c60f81b610fcd565b90505f61059f836005815181106105705761056f6118ea565b5b602001015160f81c60f81b8460068151811061058f5761058e6118ea565b5b602001015160f81c60f81b611063565b90505f6105e8846008815181106105b9576105b86118ea565b5b602001015160f81c60f81b856009815181106105d8576105d76118ea565b5b602001015160f81c60f81b611063565b90505f6105f68484846110a4565b905062015180816106079190611944565b9650505050505050919050565b60605f5f5f5f8581526020019081526020015f206040518060e00160405290815f820154815260200160018201805461064c906118ba565b80601f0160208091040260200160405190810160405280929190818152602001828054610678906118ba565b80156106c35780601f1061069a576101008083540402835291602001916106c3565b820191905f5260205f20905b8154815290600101906020018083116106a657829003601f168201915b505050505081526020016002820180546106dc906118ba565b80601f0160208091040260200160405190810160405280929190818152602001828054610708906118ba565b80156107535780601f1061072a57610100808354040283529160200191610753565b820191905f5260205f20905b81548152906001019060200180831161073657829003601f168201915b5050505050815260200160038201805461076c906118ba565b80601f0160208091040260200160405190810160405280929190818152602001828054610798906118ba565b80156107e35780601f106107ba576101008083540402835291602001916107e3565b820191905f5260205f20905b8154815290600101906020018083116107c657829003601f168201915b505050505081526020016004820180546107fc906118ba565b80601f0160208091040260200160405190810160405280929190818152602001828054610828906118ba565b80156108735780601f1061084a57610100808354040283529160200191610873565b820191905f5260205f20905b81548152906001019060200180831161085657829003601f168201915b50505050508152602001600582015f9054906101000a900473ffffffffffffffffffffffffffffffffffffffff1673ffffffffffffffffffffffffffffffffffffffff1673ffffffffffffffffffffffffffffffffffffffff1681526020016005820160149054906101000a900460ff16151515158152505090508060c00151610939575f6040518060400160405280601181526020017f50726f64756374206e6f7420666f756e64000000000000000000000000000000815250909250925050610a21565b5f5f61094883608001516111c4565b9150915081610995575f6040518060400160405280601581526020017f496e76616c69642065787069727920666f726d617400000000000000000000008152509094509450505050610a21565b5f8112156109e157806040518060400160405280600f81526020017f50726f64756374206578706972656400000000000000000000000000000000008152509094509450505050610a21565b806040518060400160405280600d81526020017f50726f647563742076616c69640000000000000000000000000000000000000081525090945094505050505b915091565b5f602052805f5260405f205f91509050805f015490806001018054610a4a906118ba565b80601f0160208091040260200160405190810160405280929190818152602001828054610a76906118ba565b8015610ac15780601f10610a9857610100808354040283529160200191610ac1565b820191905f5260205f20905b815481529060010190602001808311610aa457829003601f168201915b505050505090806002018054610ad6906118ba565b80601f0160208091040260200160405190810160405280929190818152602001828054610b02906118ba565b8015610b4d5780601f10610b2457610100808354040283529160200191610b4d565b820191905f5260205f20905b815481529060010190602001808311610b3057829003601f168201915b505050505090806003018054610b62906118ba565b80601f0160208091040260200160405190810160405280929190818152602001828054610b8e906118ba565b8015610bd95780601f10610bb057610100808354040283529160200191610bd9565b820191905f5260205f20905b815481529060010190602001808311610bbc57829003601f168201915b505050505090806004018054610bee906118ba565b80601f0160208091040260200160405190810160405280929190818152602001828054610c1a906118ba565b8015610c655780601f10610c3c57610100808354040283529160200191610c65565b820191905f5260205f20905b815481529060010190602001808311610c4857829003601f168201915b505050505090806005015f9054906101000a900473ffffffffffffffffffffffffffffffffffffffff16908060050160149054906101000a900460ff16905087565b60018181548110610cb6575f80fd5b905f5260205f20015f915090505481565b5f845111610d0a576040517f08c379a0000000000000000000000000000000000000000000000000000000008152600401610d0190611a04565b60405180910390fd5b5f815111610d4d576040517f08c379a0000000000000000000000000000000000000000000000000000000008152600401610d4490611a6c565b60405180910390fd5b6040518060e001604052808681526020018581526020018481526020018381526020018281526020013373ffffffffffffffffffffffffffffffffffffffff168152602001600115158152505f5f8781526020019081526020015f205f820151815f01556020820151816001019081610dc69190611c2a565b506040820151816002019081610ddc9190611c2a565b506060820151816003019081610df29190611c2a565b506080820151816004019081610e089190611c2a565b5060a0820151816005015f6101000a81548173ffffffffffffffffffffffffffffffffffffffff021916908373ffffffffffffffffffffffffffffffffffffffff16021790555060c08201518160050160146101000a81548160ff021916908315150217905550905050600185908060018154018082558091505060019003905f5260205f20015f90919091909150555050505050565b5f5f8281526020019081526020015f2060050160149054906101000a900460ff16610eff576040517f08c379a0000000000000000000000000000000000000000000000000000000008152600401610ef690611d43565b60405180910390fd5b3373ffffffffffffffffffffffffffffffffffffffff165f5f8381526020019081526020015f206005015f9054906101000a900473ffffffffffffffffffffffffffffffffffffffff1673ffffffffffffffffffffffffffffffffffffffff1614610f9f576040517f08c379a0000000000000000000000000000000000000000000000000000000008152600401610f9690611dab565b60405180910390fd5b5f5f5f8381526020019081526020015f2060050160146101000a81548160ff02191690831515021790555050565b5f60308260f81c610fde9190611dd4565b5f0b600a60308560f81c610ff29190611dd4565b5f0b610ffe9190611944565b606460308760f81c6110109190611dd4565b5f0b61101c9190611944565b6103e860308960f81c61102f9190611dd4565b5f0b61103b9190611944565b6110459190611e2c565b61104f9190611e2c565b6110599190611e2c565b9050949350505050565b5f60308260f81c6110749190611dd4565b600a60308560f81c6110869190611dd4565b6110909190611e6d565b61109a9190611ea9565b5f0b905092915050565b5f60038312156110cd576001846110bb9190611f01565b9350600c836110ca9190611e2c565b92505b5f610190856110dc9190611f6e565b90505f610190826110ed9190611944565b866110f89190611f01565b90505f6001856005600260038a61110f9190611f01565b609961111b9190611944565b6111259190611e2c565b61112f9190611f6e565b6111399190611e2c565b6111439190611f01565b90505f816064846111549190611f6e565b6004856111619190611f6e565b61016d8661116f9190611944565b6111799190611e2c565b6111839190611f01565b61118d9190611e2c565b9050620afa6c8162023ab1866111a39190611944565b6111ad9190611e2c565b6111b79190611f01565b9450505050509392505050565b5f5f5f839050600a8151146111df575f5f9250925050611358565b5f611263825f815181106111f6576111f56118ea565b5b602001015160f81c60f81b83600181518110611215576112146118ea565b5b602001015160f81c60f81b84600281518110611234576112336118ea565b5b602001015160f81c60f81b85600381518110611253576112526118ea565b5b602001015160f81c60f81b610fcd565b90505f6112ac8360058151811061127d5761127c6118ea565b5b602001015160f81c60f81b8460068151811061129c5761129b6118ea565b5b602001015160f81c60f81b611063565b90505f6112f5846008815181106112c6576112c56118ea565b5b602001015160f81c60f81b856009815181106112e5576112e46118ea565b5b602001015160f81c60f81b611063565b90505f8313158061130657505f8213155b8061131157505f8113155b15611325575f5f9550955050505050611358565b5f6113318484846110a4565b90505f61133d4261135d565b90506001818361134d9190611f01565b975097505050505050505b915091565b5f620151808261136d9190611fd6565b9050919050565b5f81519050919050565b5f82825260208201905092915050565b5f819050602082019050919050565b5f819050919050565b6113af8161139d565b82525050565b5f6113c083836113a6565b60208301905092915050565b5f602082019050919050565b5f6113e282611374565b6113ec818561137e565b93506113f78361138e565b805f5b8381101561142757815161140e88826113b5565b9750611419836113cc565b9250506001810190506113fa565b5085935050505092915050565b5f6020820190508181035f83015261144c81846113d8565b905092915050565b5f604051905090565b5f5ffd5b5f5ffd5b61146e8161139d565b8114611478575f5ffd5b50565b5f8135905061148981611465565b92915050565b5f602082840312156114a4576114a361145d565b5b5f6114b18482850161147b565b91505092915050565b6114c38161139d565b82525050565b5f6020820190506114dc5f8301846114ba565b92915050565b5f81519050919050565b5f82825260208201905092915050565b8281835e5f83830152505050565b5f601f19601f8301169050919050565b5f611524826114e2565b61152e81856114ec565b935061153e8185602086016114fc565b6115478161150a565b840191505092915050565b5f819050919050565b61156481611552565b82525050565b5f6040820190508181035f830152611582818561151a565b9050611591602083018461155b565b9392505050565b5f73ffffffffffffffffffffffffffffffffffffffff82169050919050565b5f6115c182611598565b9050919050565b6115d1816115b7565b82525050565b5f8115159050919050565b6115eb816115d7565b82525050565b5f60e0820190506116045f83018a6114ba565b8181036020830152611616818961151a565b9050818103604083015261162a818861151a565b9050818103606083015261163e818761151a565b90508181036080830152611652818661151a565b905061166160a08301856115c8565b61166e60c08301846115e2565b98975050505050505050565b5f5ffd5b5f5ffd5b7f4e487b71000000000000000000000000000000000000000000000000000000005f52604160045260245ffd5b6116b88261150a565b810181811067ffffffffffffffff821117156116d7576116d6611682565b5b80604052505050565b5f6116e9611454565b90506116f582826116af565b919050565b5f67ffffffffffffffff82111561171457611713611682565b5b61171d8261150a565b9050602081019050919050565b828183375f83830152505050565b5f61174a611745846116fa565b6116e0565b9050828152602081018484840111156117665761176561167e565b5b61177184828561172a565b509392505050565b5f82601f83011261178d5761178c61167a565b5b813561179d848260208601611738565b91505092915050565b5f5f5f5f5f60a086880312156117bf576117be61145d565b5b5f6117cc8882890161147b565b955050602086013567ffffffffffffffff8111156117ed576117ec611461565b5b6117f988828901611779565b945050604086013567ffffffffffffffff81111561181a57611819611461565b5b61182688828901611779565b935050606086013567ffffffffffffffff81111561184757611846611461565b5b61185388828901611779565b925050608086013567ffffffffffffffff81111561187457611873611461565b5b61188088828901611779565b9150509295509295909350565b7f4e487b71000000000000000000000000000000000000000000000000000000005f52602260045260245ffd5b5f60028204905060018216806118d157607f821691505b6020821081036118e4576118e361188d565b5b50919050565b7f4e487b71000000000000000000000000000000000000000000000000000000005f52603260045260245ffd5b7f4e487b71000000000000000000000000000000000000000000000000000000005f52601160045260245ffd5b5f61194e82611552565b915061195983611552565b925082820261196781611552565b91507f800000000000000000000000000000000000000000000000000000000000000084145f8412161561199e5761199d611917565b5b82820584148315176119b3576119b2611917565b5b5092915050565b7f4e616d65207265717569726564000000000000000000000000000000000000005f82015250565b5f6119ee600d836114ec565b91506119f9826119ba565b602082019050919050565b5f6020820190508181035f830152611a1b816119e2565b9050919050565b7f45787069727920726571756972656400000000000000000000000000000000005f82015250565b5f611a56600f836114ec565b9150611a6182611a22565b602082019050919050565b5f6020820190508181035f830152611a8381611a4a565b9050919050565b5f819050815f5260205f209050919050565b5f6020601f8301049050919050565b5f82821b905092915050565b5f60088302611ae67fffffffffffffffffffffffffffffffffffffffffffffffffffffffffffffffff82611aab565b611af08683611aab565b95508019841693508086168417925050509392505050565b5f819050919050565b5f611b2b611b26611b218461139d565b611b08565b61139d565b9050919050565b5f819050919050565b611b4483611b11565b611b58611b5082611b32565b848454611ab7565b825550505050565b5f5f905090565b611b6f611b60565b611b7a818484611b3b565b505050565b5b81811015611b9d57611b925f82611b67565b600181019050611b80565b5050565b601f821115611be257611bb381611a8a565b611bbc84611a9c565b81016020851015611bcb578190505b611bdf611bd785611a9c565b830182611b7f565b50505b505050565b5f82821c905092915050565b5f611c025f1984600802611be7565b1980831691505092915050565b5f611c1a8383611bf3565b9150826002028217905092915050565b611c33826114e2565b67ffffffffffffffff811115611c4c57611c4b611682565b5b611c5682546118ba565b611c61828285611ba1565b5f60209050601f831160018114611c92575f8415611c80578287015190505b611c8a8582611c0f565b865550611cf1565b601f198416611ca086611a8a565b5f5b82811015611cc757848901518255600182019150602085019450602081019050611ca2565b86831015611ce45784890151611ce0601f891682611bf3565b8355505b6001600288020188555050505b505050505050565b7f50726f64756374206e6f7420666f756e640000000000000000000000000000005f82015250565b5f611d2d6011836114ec565b9150611d3882611cf9565b602082019050919050565b5f6020820190508181035f830152611d5a81611d21565b9050919050565b7f4e6f7420617574686f72697a65640000000000000000000000000000000000005f82015250565b5f611d95600e836114ec565b9150611da082611d61565b602082019050919050565b5f6020820190508181035f830152611dc281611d89565b9050919050565b5f815f0b9050919050565b5f611dde82611dc9565b9150611de983611dc9565b92508282039050607f81137fffffffffffffffffffffffffffffffffffffffffffffffffffffffffffffff8082121715611e2657611e25611917565b5b92915050565b5f611e3682611552565b9150611e4183611552565b92508282019050828112155f8312168382125f841215161715611e6757611e66611917565b5b92915050565b5f611e7782611dc9565b9150611e8283611dc9565b9250828202611e9081611dc9565b9150808214611ea257611ea1611917565b5b5092915050565b5f611eb382611dc9565b9150611ebe83611dc9565b925082820190507fffffffffffffffffffffffffffffffffffffffffffffffffffffffffffffff808112607f82131715611efb57611efa611917565b5b92915050565b5f611f0b82611552565b9150611f1683611552565b925082820390508181125f8412168282135f851215161715611f3b57611f3a611917565b5b92915050565b7f4e487b71000000000000000000000000000000000000000000000000000000005f52601260045260245ffd5b5f611f7882611552565b9150611f8383611552565b925082611f9357611f92611f41565b5b60015f0383147f800000000000000000000000000000000000000000000000000000000000000083141615611fcb57611fca611917565b5b828205905092915050565b5f611fe08261139d565b9150611feb8361139d565b925082611ffb57611ffa611f41565b5b82820490509291505056fea2646970667358221220c60ef00a2b0fd01a51e32b3a1c86b3a3c3b0ba52d772d52279b06000661cb41064736f6c634300081e0033",
					"opcodes": "PUSH1 0x80 PUSH1 0x40 MSTORE CALLVALUE DUP1 ISZERO PUSH1 0xE JUMPI PUSH0 PUSH0 REVERT JUMPDEST POP PUSH2 0x203C DUP1 PUSH2 0x1C PUSH0 CODECOPY PUSH0 RETURN INVALID PUSH1 0x80 PUSH1 0x40 MSTORE CALLVALUE DUP1 ISZERO PUSH2 0xF JUMPI PUSH0 PUSH0 REVERT JUMPDEST POP PUSH1 0x4 CALLDATASIZE LT PUSH2 0x7B JUMPI PUSH0 CALLDATALOAD PUSH1 0xE0 SHR DUP1 PUSH4 0x7ACC0B20 GT PUSH2 0x59 JUMPI DUP1 PUSH4 0x7ACC0B20 EQ PUSH2 0xFE JUMPI DUP1 PUSH4 0xCB51BBA9 EQ PUSH2 0x134 JUMPI DUP1 PUSH4 0xD1EACD62 EQ PUSH2 0x164 JUMPI DUP1 PUSH4 0xED90C7B7 EQ PUSH2 0x180 JUMPI PUSH2 0x7B JUMP JUMPDEST DUP1 PUSH4 0x2EE3A52 EQ PUSH2 0x7F JUMPI DUP1 PUSH4 0x42692C0F EQ PUSH2 0x9D JUMPI DUP1 PUSH4 0x524E8462 EQ PUSH2 0xCD JUMPI JUMPDEST PUSH0 PUSH0 REVERT JUMPDEST PUSH2 0x87 PUSH2 0x19C JUMP JUMPDEST PUSH1 0x40 MLOAD PUSH2 0x94 SWAP2 SWAP1 PUSH2 0x1434 JUMP JUMPDEST PUSH1 0x40 MLOAD DUP1 SWAP2 SUB SWAP1 RETURN JUMPDEST PUSH2 0xB7 PUSH1 0x4 DUP1 CALLDATASIZE SUB DUP2 ADD SWAP1 PUSH2 0xB2 SWAP2 SWAP1 PUSH2 0x148F JUMP JUMPDEST PUSH2 0x1F2 JUMP JUMPDEST PUSH1 0x40 MLOAD PUSH2 0xC4 SWAP2 SWAP1 PUSH2 0x14C9 JUMP JUMPDEST PUSH1 0x40 MLOAD DUP1 SWAP2 SUB SWAP1 RETURN JUMPDEST PUSH2 0xE7 PUSH1 0x4 DUP1 CALLDATASIZE SUB DUP2 ADD SWAP1 PUSH2 0xE2 SWAP2 SWAP1 PUSH2 0x148F JUMP JUMPDEST PUSH2 0x614 JUMP JUMPDEST PUSH1 0x40 MLOAD PUSH2 0xF5 SWAP3 SWAP2 SWAP1 PUSH2 0x156A JUMP JUMPDEST PUSH1 0x40 MLOAD DUP1 SWAP2 SUB SWAP1 RETURN JUMPDEST PUSH2 0x118 PUSH1 0x4 DUP1 CALLDATASIZE SUB DUP2 ADD SWAP1 PUSH2 0x113 SWAP2 SWAP1 PUSH2 0x148F JUMP JUMPDEST PUSH2 0xA26 JUMP JUMPDEST PUSH1 0x40 MLOAD PUSH2 0x12B SWAP8 SWAP7 SWAP6 SWAP5 SWAP4 SWAP3 SWAP2 SWAP1 PUSH2 0x15F1 JUMP JUMPDEST PUSH1 0x40 MLOAD DUP1 SWAP2 SUB SWAP1 RETURN JUMPDEST PUSH2 0x14E PUSH1 0x4 DUP1 CALLDATASIZE SUB DUP2 ADD SWAP1 PUSH2 0x149 SWAP2 SWAP1 PUSH2 0x148F JUMP JUMPDEST PUSH2 0xCA7 JUMP JUMPDEST PUSH1 0x40 MLOAD PUSH2 0x15B SWAP2 SWAP1 PUSH2 0x14C9 JUMP JUMPDEST PUSH1 0x40 MLOAD DUP1 SWAP2 SUB SWAP1 RETURN JUMPDEST PUSH2 0x17E PUSH1 0x4 DUP1 CALLDATASIZE SUB DUP2 ADD SWAP1 PUSH2 0x179 SWAP2 SWAP1 PUSH2 0x17A6 JUMP JUMPDEST PUSH2 0xCC7 JUMP JUMPDEST STOP JUMPDEST PUSH2 0x19A PUSH1 0x4 DUP1 CALLDATASIZE SUB DUP2 ADD SWAP1 PUSH2 0x195 SWAP2 SWAP1 PUSH2 0x148F JUMP JUMPDEST PUSH2 0xE9F JUMP JUMPDEST STOP JUMPDEST PUSH1 0x60 PUSH1 0x1 DUP1 SLOAD DUP1 PUSH1 0x20 MUL PUSH1 0x20 ADD PUSH1 0x40 MLOAD SWAP1 DUP2 ADD PUSH1 0x40 MSTORE DUP1 SWAP3 SWAP2 SWAP1 DUP2 DUP2 MSTORE PUSH1 0x20 ADD DUP3 DUP1 SLOAD DUP1 ISZERO PUSH2 0x1E8 JUMPI PUSH1 0x20 MUL DUP3 ADD SWAP2 SWAP1 PUSH0 MSTORE PUSH1 0x20 PUSH0 KECCAK256 SWAP1 JUMPDEST DUP2 SLOAD DUP2 MSTORE PUSH1 0x20 ADD SWAP1 PUSH1 0x1 ADD SWAP1 DUP1 DUP4 GT PUSH2 0x1D4 JUMPI JUMPDEST POP POP POP POP POP SWAP1 POP SWAP1 JUMP JUMPDEST PUSH0 PUSH0 PUSH0 PUSH0 DUP5 DUP2 MSTORE PUSH1 0x20 ADD SWAP1 DUP2 MSTORE PUSH1 0x20 ADD PUSH0 KECCAK256 PUSH1 0x40 MLOAD DUP1 PUSH1 0xE0 ADD PUSH1 0x40 MSTORE SWAP1 DUP2 PUSH0 DUP3 ADD SLOAD DUP2 MSTORE PUSH1 0x20 ADD PUSH1 0x1 DUP3 ADD DUP1 SLOAD PUSH2 0x228 SWAP1 PUSH2 0x18BA JUMP JUMPDEST DUP1 PUSH1 0x1F ADD PUSH1 0x20 DUP1 SWAP2 DIV MUL PUSH1 0x20 ADD PUSH1 0x40 MLOAD SWAP1 DUP2 ADD PUSH1 0x40 MSTORE DUP1 SWAP3 SWAP2 SWAP1 DUP2 DUP2 MSTORE PUSH1 0x20 ADD DUP3 DUP1 SLOAD PUSH2 0x254 SWAP1 PUSH2 0x18BA JUMP JUMPDEST DUP1 ISZERO PUSH2 0x29F JUMPI DUP1 PUSH1 0x1F LT PUSH2 0x276 JUMPI PUSH2 0x100 DUP1 DUP4 SLOAD DIV MUL DUP4 MSTORE SWAP2 PUSH1 0x20 ADD SWAP2 PUSH2 0x29F JUMP JUMPDEST DUP3 ADD SWAP2 SWAP1 PUSH0 MSTORE PUSH1 0x20 PUSH0 KECCAK256 SWAP1 JUMPDEST DUP2 SLOAD DUP2 MSTORE SWAP1 PUSH1 0x1 ADD SWAP1 PUSH1 0x20 ADD DUP1 DUP4 GT PUSH2 0x282 JUMPI DUP3 SWAP1 SUB PUSH1 0x1F AND DUP3 ADD SWAP2 JUMPDEST POP POP POP POP POP DUP2 MSTORE PUSH1 0x20 ADD PUSH1 0x2 DUP3 ADD DUP1 SLOAD PUSH2 0x2B8 SWAP1 PUSH2 0x18BA JUMP JUMPDEST DUP1 PUSH1 0x1F ADD PUSH1 0x20 DUP1 SWAP2 DIV MUL PUSH1 0x20 ADD PUSH1 0x40 MLOAD SWAP1 DUP2 ADD PUSH1 0x40 MSTORE DUP1 SWAP3 SWAP2 SWAP1 DUP2 DUP2 MSTORE PUSH1 0x20 ADD DUP3 DUP1 SLOAD PUSH2 0x2E4 SWAP1 PUSH2 0x18BA JUMP JUMPDEST DUP1 ISZERO PUSH2 0x32F JUMPI DUP1 PUSH1 0x1F LT PUSH2 0x306 JUMPI PUSH2 0x100 DUP1 DUP4 SLOAD DIV MUL DUP4 MSTORE SWAP2 PUSH1 0x20 ADD SWAP2 PUSH2 0x32F JUMP JUMPDEST DUP3 ADD SWAP2 SWAP1 PUSH0 MSTORE PUSH1 0x20 PUSH0 KECCAK256 SWAP1 JUMPDEST DUP2 SLOAD DUP2 MSTORE SWAP1 PUSH1 0x1 ADD SWAP1 PUSH1 0x20 ADD DUP1 DUP4 GT PUSH2 0x312 JUMPI DUP3 SWAP1 SUB PUSH1 0x1F AND DUP3 ADD SWAP2 JUMPDEST POP POP POP POP POP DUP2 MSTORE PUSH1 0x20 ADD PUSH1 0x3 DUP3 ADD DUP1 SLOAD PUSH2 0x348 SWAP1 PUSH2 0x18BA JUMP JUMPDEST DUP1 PUSH1 0x1F ADD PUSH1 0x20 DUP1 SWAP2 DIV MUL PUSH1 0x20 ADD PUSH1 0x40 MLOAD SWAP1 DUP2 ADD PUSH1 0x40 MSTORE DUP1 SWAP3 SWAP2 SWAP1 DUP2 DUP2 MSTORE PUSH1 0x20 ADD DUP3 DUP1 SLOAD PUSH2 0x374 SWAP1 PUSH2 0x18BA JUMP JUMPDEST DUP1 ISZERO PUSH2 0x3BF JUMPI DUP1 PUSH1 0x1F LT PUSH2 0x396 JUMPI PUSH2 0x100 DUP1 DUP4 SLOAD DIV MUL DUP4 MSTORE SWAP2 PUSH1 0x20 ADD SWAP2 PUSH2 0x3BF JUMP JUMPDEST DUP3 ADD SWAP2 SWAP1 PUSH0 MSTORE PUSH1 0x20 PUSH0 KECCAK256 SWAP1 JUMPDEST DUP2 SLOAD DUP2 MSTORE SWAP1 PUSH1 0x1 ADD SWAP1 PUSH1 0x20 ADD DUP1 DUP4 GT PUSH2 0x3A2 JUMPI DUP3 SWAP1 SUB PUSH1 0x1F AND DUP3 ADD SWAP2 JUMPDEST POP POP POP POP POP DUP2 MSTORE PUSH1 0x20 ADD PUSH1 0x4 DUP3 ADD DUP1 SLOAD PUSH2 0x3D8 SWAP1 PUSH2 0x18BA JUMP JUMPDEST DUP1 PUSH1 0x1F ADD PUSH1 0x20 DUP1 SWAP2 DIV MUL PUSH1 0x20 ADD PUSH1 0x40 MLOAD SWAP1 DUP2 ADD PUSH1 0x40 MSTORE DUP1 SWAP3 SWAP2 SWAP1 DUP2 DUP2 MSTORE PUSH1 0x20 ADD DUP3 DUP1 SLOAD PUSH2 0x404 SWAP1 PUSH2 0x18BA JUMP JUMPDEST DUP1 ISZERO PUSH2 0x44F JUMPI DUP1 PUSH1 0x1F LT PUSH2 0x426 JUMPI PUSH2 0x100 DUP1 DUP4 SLOAD DIV MUL DUP4 MSTORE SWAP2 PUSH1 0x20 ADD SWAP2 PUSH2 0x44F JUMP JUMPDEST DUP3 ADD SWAP2 SWAP1 PUSH0 MSTORE PUSH1 0x20 PUSH0 KECCAK256 SWAP1 JUMPDEST DUP2 SLOAD DUP2 MSTORE SWAP1 PUSH1 0x1 ADD SWAP1 PUSH1 0x20 ADD DUP1 DUP4 GT PUSH2 0x432 JUMPI DUP3 SWAP1 SUB PUSH1 0x1F AND DUP3 ADD SWAP2 JUMPDEST POP POP POP POP POP DUP2 MSTORE PUSH1 0x20 ADD PUSH1 0x5 DUP3 ADD PUSH0 SWAP1 SLOAD SWAP1 PUSH2 0x100 EXP SWAP1 DIV PUSH20 0xFFFFFFFFFFFFFFFFFFFFFFFFFFFFFFFFFFFFFFFF AND PUSH20 0xFFFFFFFFFFFFFFFFFFFFFFFFFFFFFFFFFFFFFFFF AND PUSH20 0xFFFFFFFFFFFFFFFFFFFFFFFFFFFFFFFFFFFFFFFF AND DUP2 MSTORE PUSH1 0x20 ADD PUSH1 0x5 DUP3 ADD PUSH1 0x14 SWAP1 SLOAD SWAP1 PUSH2 0x100 EXP SWAP1 DIV PUSH1 0xFF AND ISZERO ISZERO ISZERO ISZERO DUP2 MSTORE POP POP SWAP1 POP PUSH0 DUP2 PUSH1 0x80 ADD MLOAD SWAP1 POP PUSH0 PUSH2 0x556 DUP3 PUSH0 DUP2 MLOAD DUP2 LT PUSH2 0x4E9 JUMPI PUSH2 0x4E8 PUSH2 0x18EA JUMP JUMPDEST JUMPDEST PUSH1 0x20 ADD ADD MLOAD PUSH1 0xF8 SHR PUSH1 0xF8 SHL DUP4 PUSH1 0x1 DUP2 MLOAD DUP2 LT PUSH2 0x508 JUMPI PUSH2 0x507 PUSH2 0x18EA JUMP JUMPDEST JUMPDEST PUSH1 0x20 ADD ADD MLOAD PUSH1 0xF8 SHR PUSH1 0xF8 SHL DUP5 PUSH1 0x2 DUP2 MLOAD DUP2 LT PUSH2 0x527 JUMPI PUSH2 0x526 PUSH2 0x18EA JUMP JUMPDEST JUMPDEST PUSH1 0x20 ADD ADD MLOAD PUSH1 0xF8 SHR PUSH1 0xF8 SHL DUP6 PUSH1 0x3 DUP2 MLOAD DUP2 LT PUSH2 0x546 JUMPI PUSH2 0x545 PUSH2 0x18EA JUMP JUMPDEST JUMPDEST PUSH1 0x20 ADD ADD MLOAD PUSH1 0xF8 SHR PUSH1 0xF8 SHL PUSH2 0xFCD JUMP JUMPDEST SWAP1 POP PUSH0 PUSH2 0x59F DUP4 PUSH1 0x5 DUP2 MLOAD DUP2 LT PUSH2 0x570 JUMPI PUSH2 0x56F PUSH2 0x18EA JUMP JUMPDEST JUMPDEST PUSH1 0x20 ADD ADD MLOAD PUSH1 0xF8 SHR PUSH1 0xF8 SHL DUP5 PUSH1 0x6 DUP2 MLOAD DUP2 LT PUSH2 0x58F JUMPI PUSH2 0x58E PUSH2 0x18EA JUMP JUMPDEST JUMPDEST PUSH1 0x20 ADD ADD MLOAD PUSH1 0xF8 SHR PUSH1 0xF8 SHL PUSH2 0x1063 JUMP JUMPDEST SWAP1 POP PUSH0 PUSH2 0x5E8 DUP5 PUSH1 0x8 DUP2 MLOAD DUP2 LT PUSH2 0x5B9 JUMPI PUSH2 0x5B8 PUSH2 0x18EA JUMP JUMPDEST JUMPDEST PUSH1 0x20 ADD ADD MLOAD PUSH1 0xF8 SHR PUSH1 0xF8 SHL DUP6 PUSH1 0x9 DUP2 MLOAD DUP2 LT PUSH2 0x5D8 JUMPI PUSH2 0x5D7 PUSH2 0x18EA JUMP JUMPDEST JUMPDEST PUSH1 0x20 ADD ADD MLOAD PUSH1 0xF8 SHR PUSH1 0xF8 SHL PUSH2 0x1063 JUMP JUMPDEST SWAP1 POP PUSH0 PUSH2 0x5F6 DUP5 DUP5 DUP5 PUSH2 0x10A4 JUMP JUMPDEST SWAP1 POP PUSH3 0x15180 DUP2 PUSH2 0x607 SWAP2 SWAP1 PUSH2 0x1944 JUMP JUMPDEST SWAP7 POP POP POP POP POP POP POP SWAP2 SWAP1 POP JUMP JUMPDEST PUSH1 0x60 PUSH0 PUSH0 PUSH0 PUSH0 DUP6 DUP2 MSTORE PUSH1 0x20 ADD SWAP1 DUP2 MSTORE PUSH1 0x20 ADD PUSH0 KECCAK256 PUSH1 0x40 MLOAD DUP1 PUSH1 0xE0 ADD PUSH1 0x40 MSTORE SWAP1 DUP2 PUSH0 DUP3 ADD SLOAD DUP2 MSTORE PUSH1 0x20 ADD PUSH1 0x1 DUP3 ADD DUP1 SLOAD PUSH2 0x64C SWAP1 PUSH2 0x18BA JUMP JUMPDEST DUP1 PUSH1 0x1F ADD PUSH1 0x20 DUP1 SWAP2 DIV MUL PUSH1 0x20 ADD PUSH1 0x40 MLOAD SWAP1 DUP2 ADD PUSH1 0x40 MSTORE DUP1 SWAP3 SWAP2 SWAP1 DUP2 DUP2 MSTORE PUSH1 0x20 ADD DUP3 DUP1 SLOAD PUSH2 0x678 SWAP1 PUSH2 0x18BA JUMP JUMPDEST DUP1 ISZERO PUSH2 0x6C3 JUMPI DUP1 PUSH1 0x1F LT PUSH2 0x69A JUMPI PUSH2 0x100 DUP1 DUP4 SLOAD DIV MUL DUP4 MSTORE SWAP2 PUSH1 0x20 ADD SWAP2 PUSH2 0x6C3 JUMP JUMPDEST DUP3 ADD SWAP2 SWAP1 PUSH0 MSTORE PUSH1 0x20 PUSH0 KECCAK256 SWAP1 JUMPDEST DUP2 SLOAD DUP2 MSTORE SWAP1 PUSH1 0x1 ADD SWAP1 PUSH1 0x20 ADD DUP1 DUP4 GT PUSH2 0x6A6 JUMPI DUP3 SWAP1 SUB PUSH1 0x1F AND DUP3 ADD SWAP2 JUMPDEST POP POP POP POP POP DUP2 MSTORE PUSH1 0x20 ADD PUSH1 0x2 DUP3 ADD DUP1 SLOAD PUSH2 0x6DC SWAP1 PUSH2 0x18BA JUMP JUMPDEST DUP1 PUSH1 0x1F ADD PUSH1 0x20 DUP1 SWAP2 DIV MUL PUSH1 0x20 ADD PUSH1 0x40 MLOAD SWAP1 DUP2 ADD PUSH1 0x40 MSTORE DUP1 SWAP3 SWAP2 SWAP1 DUP2 DUP2 MSTORE PUSH1 0x20 ADD DUP3 DUP1 SLOAD PUSH2 0x708 SWAP1 PUSH2 0x18BA JUMP JUMPDEST DUP1 ISZERO PUSH2 0x753 JUMPI DUP1 PUSH1 0x1F LT PUSH2 0x72A JUMPI PUSH2 0x100 DUP1 DUP4 SLOAD DIV MUL DUP4 MSTORE SWAP2 PUSH1 0x20 ADD SWAP2 PUSH2 0x753 JUMP JUMPDEST DUP3 ADD SWAP2 SWAP1 PUSH0 MSTORE PUSH1 0x20 PUSH0 KECCAK256 SWAP1 JUMPDEST DUP2 SLOAD DUP2 MSTORE SWAP1 PUSH1 0x1 ADD SWAP1 PUSH1 0x20 ADD DUP1 DUP4 GT PUSH2 0x736 JUMPI DUP3 SWAP1 SUB PUSH1 0x1F AND DUP3 ADD SWAP2 JUMPDEST POP POP POP POP POP DUP2 MSTORE PUSH1 0x20 ADD PUSH1 0x3 DUP3 ADD DUP1 SLOAD PUSH2 0x76C SWAP1 PUSH2 0x18BA JUMP JUMPDEST DUP1 PUSH1 0x1F ADD PUSH1 0x20 DUP1 SWAP2 DIV MUL PUSH1 0x20 ADD PUSH1 0x40 MLOAD SWAP1 DUP2 ADD PUSH1 0x40 MSTORE DUP1 SWAP3 SWAP2 SWAP1 DUP2 DUP2 MSTORE PUSH1 0x20 ADD DUP3 DUP1 SLOAD PUSH2 0x798 SWAP1 PUSH2 0x18BA JUMP JUMPDEST DUP1 ISZERO PUSH2 0x7E3 JUMPI DUP1 PUSH1 0x1F LT PUSH2 0x7BA JUMPI PUSH2 0x100 DUP1 DUP4 SLOAD DIV MUL DUP4 MSTORE SWAP2 PUSH1 0x20 ADD SWAP2 PUSH2 0x7E3 JUMP JUMPDEST DUP3 ADD SWAP2 SWAP1 PUSH0 MSTORE PUSH1 0x20 PUSH0 KECCAK256 SWAP1 JUMPDEST DUP2 SLOAD DUP2 MSTORE SWAP1 PUSH1 0x1 ADD SWAP1 PUSH1 0x20 ADD DUP1 DUP4 GT PUSH2 0x7C6 JUMPI DUP3 SWAP1 SUB PUSH1 0x1F AND DUP3 ADD SWAP2 JUMPDEST POP POP POP POP POP DUP2 MSTORE PUSH1 0x20 ADD PUSH1 0x4 DUP3 ADD DUP1 SLOAD PUSH2 0x7FC SWAP1 PUSH2 0x18BA JUMP JUMPDEST DUP1 PUSH1 0x1F ADD PUSH1 0x20 DUP1 SWAP2 DIV MUL PUSH1 0x20 ADD PUSH1 0x40 MLOAD SWAP1 DUP2 ADD PUSH1 0x40 MSTORE DUP1 SWAP3 SWAP2 SWAP1 DUP2 DUP2 MSTORE PUSH1 0x20 ADD DUP3 DUP1 SLOAD PUSH2 0x828 SWAP1 PUSH2 0x18BA JUMP JUMPDEST DUP1 ISZERO PUSH2 0x873 JUMPI DUP1 PUSH1 0x1F LT PUSH2 0x84A JUMPI PUSH2 0x100 DUP1 DUP4 SLOAD DIV MUL DUP4 MSTORE SWAP2 PUSH1 0x20 ADD SWAP2 PUSH2 0x873 JUMP JUMPDEST DUP3 ADD SWAP2 SWAP1 PUSH0 MSTORE PUSH1 0x20 PUSH0 KECCAK256 SWAP1 JUMPDEST DUP2 SLOAD DUP2 MSTORE SWAP1 PUSH1 0x1 ADD SWAP1 PUSH1 0x20 ADD DUP1 DUP4 GT PUSH2 0x856 JUMPI DUP3 SWAP1 SUB PUSH1 0x1F AND DUP3 ADD SWAP2 JUMPDEST POP POP POP POP POP DUP2 MSTORE PUSH1 0x20 ADD PUSH1 0x5 DUP3 ADD PUSH0 SWAP1 SLOAD SWAP1 PUSH2 0x100 EXP SWAP1 DIV PUSH20 0xFFFFFFFFFFFFFFFFFFFFFFFFFFFFFFFFFFFFFFFF AND PUSH20 0xFFFFFFFFFFFFFFFFFFFFFFFFFFFFFFFFFFFFFFFF AND PUSH20 0xFFFFFFFFFFFFFFFFFFFFFFFFFFFFFFFFFFFFFFFF AND DUP2 MSTORE PUSH1 0x20 ADD PUSH1 0x5 DUP3 ADD PUSH1 0x14 SWAP1 SLOAD SWAP1 PUSH2 0x100 EXP SWAP1 DIV PUSH1 0xFF AND ISZERO ISZERO ISZERO ISZERO DUP2 MSTORE POP POP SWAP1 POP DUP1 PUSH1 0xC0 ADD MLOAD PUSH2 0x939 JUMPI PUSH0 PUSH1 0x40 MLOAD DUP1 PUSH1 0x40 ADD PUSH1 0x40 MSTORE DUP1 PUSH1 0x11 DUP2 MSTORE PUSH1 0x20 ADD PUSH32 0x50726F64756374206E6F7420666F756E64000000000000000000000000000000 DUP2 MSTORE POP SWAP1 SWAP3 POP SWAP3 POP POP PUSH2 0xA21 JUMP JUMPDEST PUSH0 PUSH0 PUSH2 0x948 DUP4 PUSH1 0x80 ADD MLOAD PUSH2 0x11C4 JUMP JUMPDEST SWAP2 POP SWAP2 POP DUP2 PUSH2 0x995 JUMPI PUSH0 PUSH1 0x40 MLOAD DUP1 PUSH1 0x40 ADD PUSH1 0x40 MSTORE DUP1 PUSH1 0x15 DUP2 MSTORE PUSH1 0x20 ADD PUSH32 0x496E76616C69642065787069727920666F726D61740000000000000000000000 DUP2 MSTORE POP SWAP1 SWAP5 POP SWAP5 POP POP POP POP PUSH2 0xA21 JUMP JUMPDEST PUSH0 DUP2 SLT ISZERO PUSH2 0x9E1 JUMPI DUP1 PUSH1 0x40 MLOAD DUP1 PUSH1 0x40 ADD PUSH1 0x40 MSTORE DUP1 PUSH1 0xF DUP2 MSTORE PUSH1 0x20 ADD PUSH32 0x50726F6475637420657870697265640000000000000000000000000000000000 DUP2 MSTORE POP SWAP1 SWAP5 POP SWAP5 POP POP POP POP PUSH2 0xA21 JUMP JUMPDEST DUP1 PUSH1 0x40 MLOAD DUP1 PUSH1 0x40 ADD PUSH1 0x40 MSTORE DUP1 PUSH1 0xD DUP2 MSTORE PUSH1 0x20 ADD PUSH32 0x50726F647563742076616C696400000000000000000000000000000000000000 DUP2 MSTORE POP SWAP1 SWAP5 POP SWAP5 POP POP POP POP JUMPDEST SWAP2 POP SWAP2 JUMP JUMPDEST PUSH0 PUSH1 0x20 MSTORE DUP1 PUSH0 MSTORE PUSH1 0x40 PUSH0 KECCAK256 PUSH0 SWAP2 POP SWAP1 POP DUP1 PUSH0 ADD SLOAD SWAP1 DUP1 PUSH1 0x1 ADD DUP1 SLOAD PUSH2 0xA4A SWAP1 PUSH2 0x18BA JUMP JUMPDEST DUP1 PUSH1 0x1F ADD PUSH1 0x20 DUP1 SWAP2 DIV MUL PUSH1 0x20 ADD PUSH1 0x40 MLOAD SWAP1 DUP2 ADD PUSH1 0x40 MSTORE DUP1 SWAP3 SWAP2 SWAP1 DUP2 DUP2 MSTORE PUSH1 0x20 ADD DUP3 DUP1 SLOAD PUSH2 0xA76 SWAP1 PUSH2 0x18BA JUMP JUMPDEST DUP1 ISZERO PUSH2 0xAC1 JUMPI DUP1 PUSH1 0x1F LT PUSH2 0xA98 JUMPI PUSH2 0x100 DUP1 DUP4 SLOAD DIV MUL DUP4 MSTORE SWAP2 PUSH1 0x20 ADD SWAP2 PUSH2 0xAC1 JUMP JUMPDEST DUP3 ADD SWAP2 SWAP1 PUSH0 MSTORE PUSH1 0x20 PUSH0 KECCAK256 SWAP1 JUMPDEST DUP2 SLOAD DUP2 MSTORE SWAP1 PUSH1 0x1 ADD SWAP1 PUSH1 0x20 ADD DUP1 DUP4 GT PUSH2 0xAA4 JUMPI DUP3 SWAP1 SUB PUSH1 0x1F AND DUP3 ADD SWAP2 JUMPDEST POP POP POP POP POP SWAP1 DUP1 PUSH1 0x2 ADD DUP1 SLOAD PUSH2 0xAD6 SWAP1 PUSH2 0x18BA JUMP JUMPDEST DUP1 PUSH1 0x1F ADD PUSH1 0x20 DUP1 SWAP2 DIV MUL PUSH1 0x20 ADD PUSH1 0x40 MLOAD SWAP1 DUP2 ADD PUSH1 0x40 MSTORE DUP1 SWAP3 SWAP2 SWAP1 DUP2 DUP2 MSTORE PUSH1 0x20 ADD DUP3 DUP1 SLOAD PUSH2 0xB02 SWAP1 PUSH2 0x18BA JUMP JUMPDEST DUP1 ISZERO PUSH2 0xB4D JUMPI DUP1 PUSH1 0x1F LT PUSH2 0xB24 JUMPI PUSH2 0x100 DUP1 DUP4 SLOAD DIV MUL DUP4 MSTORE SWAP2 PUSH1 0x20 ADD SWAP2 PUSH2 0xB4D JUMP JUMPDEST DUP3 ADD SWAP2 SWAP1 PUSH0 MSTORE PUSH1 0x20 PUSH0 KECCAK256 SWAP1 JUMPDEST DUP2 SLOAD DUP2 MSTORE SWAP1 PUSH1 0x1 ADD SWAP1 PUSH1 0x20 ADD DUP1 DUP4 GT PUSH2 0xB30 JUMPI DUP3 SWAP1 SUB PUSH1 0x1F AND DUP3 ADD SWAP2 JUMPDEST POP POP POP POP POP SWAP1 DUP1 PUSH1 0x3 ADD DUP1 SLOAD PUSH2 0xB62 SWAP1 PUSH2 0x18BA JUMP JUMPDEST DUP1 PUSH1 0x1F ADD PUSH1 0x20 DUP1 SWAP2 DIV MUL PUSH1 0x20 ADD PUSH1 0x40 MLOAD SWAP1 DUP2 ADD PUSH1 0x40 MSTORE DUP1 SWAP3 SWAP2 SWAP1 DUP2 DUP2 MSTORE PUSH1 0x20 ADD DUP3 DUP1 SLOAD PUSH2 0xB8E SWAP1 PUSH2 0x18BA JUMP JUMPDEST DUP1 ISZERO PUSH2 0xBD9 JUMPI DUP1 PUSH1 0x1F LT PUSH2 0xBB0 JUMPI PUSH2 0x100 DUP1 DUP4 SLOAD DIV MUL DUP4 MSTORE SWAP2 PUSH1 0x20 ADD SWAP2 PUSH2 0xBD9 JUMP JUMPDEST DUP3 ADD SWAP2 SWAP1 PUSH0 MSTORE PUSH1 0x20 PUSH0 KECCAK256 SWAP1 JUMPDEST DUP2 SLOAD DUP2 MSTORE SWAP1 PUSH1 0x1 ADD SWAP1 PUSH1 0x20 ADD DUP1 DUP4 GT PUSH2 0xBBC JUMPI DUP3 SWAP1 SUB PUSH1 0x1F AND DUP3 ADD SWAP2 JUMPDEST POP POP POP POP POP SWAP1 DUP1 PUSH1 0x4 ADD DUP1 SLOAD PUSH2 0xBEE SWAP1 PUSH2 0x18BA JUMP JUMPDEST DUP1 PUSH1 0x1F ADD PUSH1 0x20 DUP1 SWAP2 DIV MUL PUSH1 0x20 ADD PUSH1 0x40 MLOAD SWAP1 DUP2 ADD PUSH1 0x40 MSTORE DUP1 SWAP3 SWAP2 SWAP1 DUP2 DUP2 MSTORE PUSH1 0x20 ADD DUP3 DUP1 SLOAD PUSH2 0xC1A SWAP1 PUSH2 0x18BA JUMP JUMPDEST DUP1 ISZERO PUSH2 0xC65 JUMPI DUP1 PUSH1 0x1F LT PUSH2 0xC3C JUMPI PUSH2 0x100 DUP1 DUP4 SLOAD DIV MUL DUP4 MSTORE SWAP2 PUSH1 0x20 ADD SWAP2 PUSH2 0xC65 JUMP JUMPDEST DUP3 ADD SWAP2 SWAP1 PUSH0 MSTORE PUSH1 0x20 PUSH0 KECCAK256 SWAP1 JUMPDEST DUP2 SLOAD DUP2 MSTORE SWAP1 PUSH1 0x1 ADD SWAP1 PUSH1 0x20 ADD DUP1 DUP4 GT PUSH2 0xC48 JUMPI DUP3 SWAP1 SUB PUSH1 0x1F AND DUP3 ADD SWAP2 JUMPDEST POP POP POP POP POP SWAP1 DUP1 PUSH1 0x5 ADD PUSH0 SWAP1 SLOAD SWAP1 PUSH2 0x100 EXP SWAP1 DIV PUSH20 0xFFFFFFFFFFFFFFFFFFFFFFFFFFFFFFFFFFFFFFFF AND SWAP1 DUP1 PUSH1 0x5 ADD PUSH1 0x14 SWAP1 SLOAD SWAP1 PUSH2 0x100 EXP SWAP1 DIV PUSH1 0xFF AND SWAP1 POP DUP8 JUMP JUMPDEST PUSH1 0x1 DUP2 DUP2 SLOAD DUP2 LT PUSH2 0xCB6 JUMPI PUSH0 DUP1 REVERT JUMPDEST SWAP1 PUSH0 MSTORE PUSH1 0x20 PUSH0 KECCAK256 ADD PUSH0 SWAP2 POP SWAP1 POP SLOAD DUP2 JUMP JUMPDEST PUSH0 DUP5 MLOAD GT PUSH2 0xD0A JUMPI PUSH1 0x40 MLOAD PUSH32 0x8C379A000000000000000000000000000000000000000000000000000000000 DUP2 MSTORE PUSH1 0x4 ADD PUSH2 0xD01 SWAP1 PUSH2 0x1A04 JUMP JUMPDEST PUSH1 0x40 MLOAD DUP1 SWAP2 SUB SWAP1 REVERT JUMPDEST PUSH0 DUP2 MLOAD GT PUSH2 0xD4D JUMPI PUSH1 0x40 MLOAD PUSH32 0x8C379A000000000000000000000000000000000000000000000000000000000 DUP2 MSTORE PUSH1 0x4 ADD PUSH2 0xD44 SWAP1 PUSH2 0x1A6C JUMP JUMPDEST PUSH1 0x40 MLOAD DUP1 SWAP2 SUB SWAP1 REVERT JUMPDEST PUSH1 0x40 MLOAD DUP1 PUSH1 0xE0 ADD PUSH1 0x40 MSTORE DUP1 DUP7 DUP2 MSTORE PUSH1 0x20 ADD DUP6 DUP2 MSTORE PUSH1 0x20 ADD DUP5 DUP2 MSTORE PUSH1 0x20 ADD DUP4 DUP2 MSTORE PUSH1 0x20 ADD DUP3 DUP2 MSTORE PUSH1 0x20 ADD CALLER PUSH20 0xFFFFFFFFFFFFFFFFFFFFFFFFFFFFFFFFFFFFFFFF AND DUP2 MSTORE PUSH1 0x20 ADD PUSH1 0x1 ISZERO ISZERO DUP2 MSTORE POP PUSH0 PUSH0 DUP8 DUP2 MSTORE PUSH1 0x20 ADD SWAP1 DUP2 MSTORE PUSH1 0x20 ADD PUSH0 KECCAK256 PUSH0 DUP3 ADD MLOAD DUP2 PUSH0 ADD SSTORE PUSH1 0x20 DUP3 ADD MLOAD DUP2 PUSH1 0x1 ADD SWAP1 DUP2 PUSH2 0xDC6 SWAP2 SWAP1 PUSH2 0x1C2A JUMP JUMPDEST POP PUSH1 0x40 DUP3 ADD MLOAD DUP2 PUSH1 0x2 ADD SWAP1 DUP2 PUSH2 0xDDC SWAP2 SWAP1 PUSH2 0x1C2A JUMP JUMPDEST POP PUSH1 0x60 DUP3 ADD MLOAD DUP2 PUSH1 0x3 ADD SWAP1 DUP2 PUSH2 0xDF2 SWAP2 SWAP1 PUSH2 0x1C2A JUMP JUMPDEST POP PUSH1 0x80 DUP3 ADD MLOAD DUP2 PUSH1 0x4 ADD SWAP1 DUP2 PUSH2 0xE08 SWAP2 SWAP1 PUSH2 0x1C2A JUMP JUMPDEST POP PUSH1 0xA0 DUP3 ADD MLOAD DUP2 PUSH1 0x5 ADD PUSH0 PUSH2 0x100 EXP DUP2 SLOAD DUP2 PUSH20 0xFFFFFFFFFFFFFFFFFFFFFFFFFFFFFFFFFFFFFFFF MUL NOT AND SWAP1 DUP4 PUSH20 0xFFFFFFFFFFFFFFFFFFFFFFFFFFFFFFFFFFFFFFFF AND MUL OR SWAP1 SSTORE POP PUSH1 0xC0 DUP3 ADD MLOAD DUP2 PUSH1 0x5 ADD PUSH1 0x14 PUSH2 0x100 EXP DUP2 SLOAD DUP2 PUSH1 0xFF MUL NOT AND SWAP1 DUP4 ISZERO ISZERO MUL OR SWAP1 SSTORE POP SWAP1 POP POP PUSH1 0x1 DUP6 SWAP1 DUP1 PUSH1 0x1 DUP2 SLOAD ADD DUP1 DUP3 SSTORE DUP1 SWAP2 POP POP PUSH1 0x1 SWAP1 SUB SWAP1 PUSH0 MSTORE PUSH1 0x20 PUSH0 KECCAK256 ADD PUSH0 SWAP1 SWAP2 SWAP1 SWAP2 SWAP1 SWAP2 POP SSTORE POP POP POP POP POP JUMP JUMPDEST PUSH0 PUSH0 DUP3 DUP2 MSTORE PUSH1 0x20 ADD SWAP1 DUP2 MSTORE PUSH1 0x20 ADD PUSH0 KECCAK256 PUSH1 0x5 ADD PUSH1 0x14 SWAP1 SLOAD SWAP1 PUSH2 0x100 EXP SWAP1 DIV PUSH1 0xFF AND PUSH2 0xEFF JUMPI PUSH1 0x40 MLOAD PUSH32 0x8C379A000000000000000000000000000000000000000000000000000000000 DUP2 MSTORE PUSH1 0x4 ADD PUSH2 0xEF6 SWAP1 PUSH2 0x1D43 JUMP JUMPDEST PUSH1 0x40 MLOAD DUP1 SWAP2 SUB SWAP1 REVERT JUMPDEST CALLER PUSH20 0xFFFFFFFFFFFFFFFFFFFFFFFFFFFFFFFFFFFFFFFF AND PUSH0 PUSH0 DUP4 DUP2 MSTORE PUSH1 0x20 ADD SWAP1 DUP2 MSTORE PUSH1 0x20 ADD PUSH0 KECCAK256 PUSH1 0x5 ADD PUSH0 SWAP1 SLOAD SWAP1 PUSH2 0x100 EXP SWAP1 DIV PUSH20 0xFFFFFFFFFFFFFFFFFFFFFFFFFFFFFFFFFFFFFFFF AND PUSH20 0xFFFFFFFFFFFFFFFFFFFFFFFFFFFFFFFFFFFFFFFF AND EQ PUSH2 0xF9F JUMPI PUSH1 0x40 MLOAD PUSH32 0x8C379A000000000000000000000000000000000000000000000000000000000 DUP2 MSTORE PUSH1 0x4 ADD PUSH2 0xF96 SWAP1 PUSH2 0x1DAB JUMP JUMPDEST PUSH1 0x40 MLOAD DUP1 SWAP2 SUB SWAP1 REVERT JUMPDEST PUSH0 PUSH0 PUSH0 DUP4 DUP2 MSTORE PUSH1 0x20 ADD SWAP1 DUP2 MSTORE PUSH1 0x20 ADD PUSH0 KECCAK256 PUSH1 0x5 ADD PUSH1 0x14 PUSH2 0x100 EXP DUP2 SLOAD DUP2 PUSH1 0xFF MUL NOT AND SWAP1 DUP4 ISZERO ISZERO MUL OR SWAP1 SSTORE POP POP JUMP JUMPDEST PUSH0 PUSH1 0x30 DUP3 PUSH1 0xF8 SHR PUSH2 0xFDE SWAP2 SWAP1 PUSH2 0x1DD4 JUMP JUMPDEST PUSH0 SIGNEXTEND PUSH1 0xA PUSH1 0x30 DUP6 PUSH1 0xF8 SHR PUSH2 0xFF2 SWAP2 SWAP1 PUSH2 0x1DD4 JUMP JUMPDEST PUSH0 SIGNEXTEND PUSH2 0xFFE SWAP2 SWAP1 PUSH2 0x1944 JUMP JUMPDEST PUSH1 0x64 PUSH1 0x30 DUP8 PUSH1 0xF8 SHR PUSH2 0x1010 SWAP2 SWAP1 PUSH2 0x1DD4 JUMP JUMPDEST PUSH0 SIGNEXTEND PUSH2 0x101C SWAP2 SWAP1 PUSH2 0x1944 JUMP JUMPDEST PUSH2 0x3E8 PUSH1 0x30 DUP10 PUSH1 0xF8 SHR PUSH2 0x102F SWAP2 SWAP1 PUSH2 0x1DD4 JUMP JUMPDEST PUSH0 SIGNEXTEND PUSH2 0x103B SWAP2 SWAP1 PUSH2 0x1944 JUMP JUMPDEST PUSH2 0x1045 SWAP2 SWAP1 PUSH2 0x1E2C JUMP JUMPDEST PUSH2 0x104F SWAP2 SWAP1 PUSH2 0x1E2C JUMP JUMPDEST PUSH2 0x1059 SWAP2 SWAP1 PUSH2 0x1E2C JUMP JUMPDEST SWAP1 POP SWAP5 SWAP4 POP POP POP POP JUMP JUMPDEST PUSH0 PUSH1 0x30 DUP3 PUSH1 0xF8 SHR PUSH2 0x1074 SWAP2 SWAP1 PUSH2 0x1DD4 JUMP JUMPDEST PUSH1 0xA PUSH1 0x30 DUP6 PUSH1 0xF8 SHR PUSH2 0x1086 SWAP2 SWAP1 PUSH2 0x1DD4 JUMP JUMPDEST PUSH2 0x1090 SWAP2 SWAP1 PUSH2 0x1E6D JUMP JUMPDEST PUSH2 0x109A SWAP2 SWAP1 PUSH2 0x1EA9 JUMP JUMPDEST PUSH0 SIGNEXTEND SWAP1 POP SWAP3 SWAP2 POP POP JUMP JUMPDEST PUSH0 PUSH1 0x3 DUP4 SLT ISZERO PUSH2 0x10CD JUMPI PUSH1 0x1 DUP5 PUSH2 0x10BB SWAP2 SWAP1 PUSH2 0x1F01 JUMP JUMPDEST SWAP4 POP PUSH1 0xC DUP4 PUSH2 0x10CA SWAP2 SWAP1 PUSH2 0x1E2C JUMP JUMPDEST SWAP3 POP JUMPDEST PUSH0 PUSH2 0x190 DUP6 PUSH2 0x10DC SWAP2 SWAP1 PUSH2 0x1F6E JUMP JUMPDEST SWAP1 POP PUSH0 PUSH2 0x190 DUP3 PUSH2 0x10ED SWAP2 SWAP1 PUSH2 0x1944 JUMP JUMPDEST DUP7 PUSH2 0x10F8 SWAP2 SWAP1 PUSH2 0x1F01 JUMP JUMPDEST SWAP1 POP PUSH0 PUSH1 0x1 DUP6 PUSH1 0x5 PUSH1 0x2 PUSH1 0x3 DUP11 PUSH2 0x110F SWAP2 SWAP1 PUSH2 0x1F01 JUMP JUMPDEST PUSH1 0x99 PUSH2 0x111B SWAP2 SWAP1 PUSH2 0x1944 JUMP JUMPDEST PUSH2 0x1125 SWAP2 SWAP1 PUSH2 0x1E2C JUMP JUMPDEST PUSH2 0x112F SWAP2 SWAP1 PUSH2 0x1F6E JUMP JUMPDEST PUSH2 0x1139 SWAP2 SWAP1 PUSH2 0x1E2C JUMP JUMPDEST PUSH2 0x1143 SWAP2 SWAP1 PUSH2 0x1F01 JUMP JUMPDEST SWAP1 POP PUSH0 DUP2 PUSH1 0x64 DUP5 PUSH2 0x1154 SWAP2 SWAP1 PUSH2 0x1F6E JUMP JUMPDEST PUSH1 0x4 DUP6 PUSH2 0x1161 SWAP2 SWAP1 PUSH2 0x1F6E JUMP JUMPDEST PUSH2 0x16D DUP7 PUSH2 0x116F SWAP2 SWAP1 PUSH2 0x1944 JUMP JUMPDEST PUSH2 0x1179 SWAP2 SWAP1 PUSH2 0x1E2C JUMP JUMPDEST PUSH2 0x1183 SWAP2 SWAP1 PUSH2 0x1F01 JUMP JUMPDEST PUSH2 0x118D SWAP2 SWAP1 PUSH2 0x1E2C JUMP JUMPDEST SWAP1 POP PUSH3 0xAFA6C DUP2 PUSH3 0x23AB1 DUP7 PUSH2 0x11A3 SWAP2 SWAP1 PUSH2 0x1944 JUMP JUMPDEST PUSH2 0x11AD SWAP2 SWAP1 PUSH2 0x1E2C JUMP JUMPDEST PUSH2 0x11B7 SWAP2 SWAP1 PUSH2 0x1F01 JUMP JUMPDEST SWAP5 POP POP POP POP POP SWAP4 SWAP3 POP POP POP JUMP JUMPDEST PUSH0 PUSH0 PUSH0 DUP4 SWAP1 POP PUSH1 0xA DUP2 MLOAD EQ PUSH2 0x11DF JUMPI PUSH0 PUSH0 SWAP3 POP SWAP3 POP POP PUSH2 0x1358 JUMP JUMPDEST PUSH0 PUSH2 0x1263 DUP3 PUSH0 DUP2 MLOAD DUP2 LT PUSH2 0x11F6 JUMPI PUSH2 0x11F5 PUSH2 0x18EA JUMP JUMPDEST JUMPDEST PUSH1 0x20 ADD ADD MLOAD PUSH1 0xF8 SHR PUSH1 0xF8 SHL DUP4 PUSH1 0x1 DUP2 MLOAD DUP2 LT PUSH2 0x1215 JUMPI PUSH2 0x1214 PUSH2 0x18EA JUMP JUMPDEST JUMPDEST PUSH1 0x20 ADD ADD MLOAD PUSH1 0xF8 SHR PUSH1 0xF8 SHL DUP5 PUSH1 0x2 DUP2 MLOAD DUP2 LT PUSH2 0x1234 JUMPI PUSH2 0x1233 PUSH2 0x18EA JUMP JUMPDEST JUMPDEST PUSH1 0x20 ADD ADD MLOAD PUSH1 0xF8 SHR PUSH1 0xF8 SHL DUP6 PUSH1 0x3 DUP2 MLOAD DUP2 LT PUSH2 0x1253 JUMPI PUSH2 0x1252 PUSH2 0x18EA JUMP JUMPDEST JUMPDEST PUSH1 0x20 ADD ADD MLOAD PUSH1 0xF8 SHR PUSH1 0xF8 SHL PUSH2 0xFCD JUMP JUMPDEST SWAP1 POP PUSH0 PUSH2 0x12AC DUP4 PUSH1 0x5 DUP2 MLOAD DUP2 LT PUSH2 0x127D JUMPI PUSH2 0x127C PUSH2 0x18EA JUMP JUMPDEST JUMPDEST PUSH1 0x20 ADD ADD MLOAD PUSH1 0xF8 SHR PUSH1 0xF8 SHL DUP5 PUSH1 0x6 DUP2 MLOAD DUP2 LT PUSH2 0x129C JUMPI PUSH2 0x129B PUSH2 0x18EA JUMP JUMPDEST JUMPDEST PUSH1 0x20 ADD ADD MLOAD PUSH1 0xF8 SHR PUSH1 0xF8 SHL PUSH2 0x1063 JUMP JUMPDEST SWAP1 POP PUSH0 PUSH2 0x12F5 DUP5 PUSH1 0x8 DUP2 MLOAD DUP2 LT PUSH2 0x12C6 JUMPI PUSH2 0x12C5 PUSH2 0x18EA JUMP JUMPDEST JUMPDEST PUSH1 0x20 ADD ADD MLOAD PUSH1 0xF8 SHR PUSH1 0xF8 SHL DUP6 PUSH1 0x9 DUP2 MLOAD DUP2 LT PUSH2 0x12E5 JUMPI PUSH2 0x12E4 PUSH2 0x18EA JUMP JUMPDEST JUMPDEST PUSH1 0x20 ADD ADD MLOAD PUSH1 0xF8 SHR PUSH1 0xF8 SHL PUSH2 0x1063 JUMP JUMPDEST SWAP1 POP PUSH0 DUP4 SGT ISZERO DUP1 PUSH2 0x1306 JUMPI POP PUSH0 DUP3 SGT ISZERO JUMPDEST DUP1 PUSH2 0x1311 JUMPI POP PUSH0 DUP2 SGT ISZERO JUMPDEST ISZERO PUSH2 0x1325 JUMPI PUSH0 PUSH0 SWAP6 POP SWAP6 POP POP POP POP POP PUSH2 0x1358 JUMP JUMPDEST PUSH0 PUSH2 0x1331 DUP5 DUP5 DUP5 PUSH2 0x10A4 JUMP JUMPDEST SWAP1 POP PUSH0 PUSH2 0x133D TIMESTAMP PUSH2 0x135D JUMP JUMPDEST SWAP1 POP PUSH1 0x1 DUP2 DUP4 PUSH2 0x134D SWAP2 SWAP1 PUSH2 0x1F01 JUMP JUMPDEST SWAP8 POP SWAP8 POP POP POP POP POP POP POP JUMPDEST SWAP2 POP SWAP2 JUMP JUMPDEST PUSH0 PUSH3 0x15180 DUP3 PUSH2 0x136D SWAP2 SWAP1 PUSH2 0x1FD6 JUMP JUMPDEST SWAP1 POP SWAP2 SWAP1 POP JUMP JUMPDEST PUSH0 DUP2 MLOAD SWAP1 POP SWAP2 SWAP1 POP JUMP JUMPDEST PUSH0 DUP3 DUP3 MSTORE PUSH1 0x20 DUP3 ADD SWAP1 POP SWAP3 SWAP2 POP POP JUMP JUMPDEST PUSH0 DUP2 SWAP1 POP PUSH1 0x20 DUP3 ADD SWAP1 POP SWAP2 SWAP1 POP JUMP JUMPDEST PUSH0 DUP2 SWAP1 POP SWAP2 SWAP1 POP JUMP JUMPDEST PUSH2 0x13AF DUP2 PUSH2 0x139D JUMP JUMPDEST DUP3 MSTORE POP POP JUMP JUMPDEST PUSH0 PUSH2 0x13C0 DUP4 DUP4 PUSH2 0x13A6 JUMP JUMPDEST PUSH1 0x20 DUP4 ADD SWAP1 POP SWAP3 SWAP2 POP POP JUMP JUMPDEST PUSH0 PUSH1 0x20 DUP3 ADD SWAP1 POP SWAP2 SWAP1 POP JUMP JUMPDEST PUSH0 PUSH2 0x13E2 DUP3 PUSH2 0x1374 JUMP JUMPDEST PUSH2 0x13EC DUP2 DUP6 PUSH2 0x137E JUMP JUMPDEST SWAP4 POP PUSH2 0x13F7 DUP4 PUSH2 0x138E JUMP JUMPDEST DUP1 PUSH0 JUMPDEST DUP4 DUP2 LT ISZERO PUSH2 0x1427 JUMPI DUP2 MLOAD PUSH2 0x140E DUP9 DUP3 PUSH2 0x13B5 JUMP JUMPDEST SWAP8 POP PUSH2 0x1419 DUP4 PUSH2 0x13CC JUMP JUMPDEST SWAP3 POP POP PUSH1 0x1 DUP2 ADD SWAP1 POP PUSH2 0x13FA JUMP JUMPDEST POP DUP6 SWAP4 POP POP POP POP SWAP3 SWAP2 POP POP JUMP JUMPDEST PUSH0 PUSH1 0x20 DUP3 ADD SWAP1 POP DUP2 DUP2 SUB PUSH0 DUP4 ADD MSTORE PUSH2 0x144C DUP2 DUP5 PUSH2 0x13D8 JUMP JUMPDEST SWAP1 POP SWAP3 SWAP2 POP POP JUMP JUMPDEST PUSH0 PUSH1 0x40 MLOAD SWAP1 POP SWAP1 JUMP JUMPDEST PUSH0 PUSH0 REVERT JUMPDEST PUSH0 PUSH0 REVERT JUMPDEST PUSH2 0x146E DUP2 PUSH2 0x139D JUMP JUMPDEST DUP2 EQ PUSH2 0x1478 JUMPI PUSH0 PUSH0 REVERT JUMPDEST POP JUMP JUMPDEST PUSH0 DUP2 CALLDATALOAD SWAP1 POP PUSH2 0x1489 DUP2 PUSH2 0x1465 JUMP JUMPDEST SWAP3 SWAP2 POP POP JUMP JUMPDEST PUSH0 PUSH1 0x20 DUP3 DUP5 SUB SLT ISZERO PUSH2 0x14A4 JUMPI PUSH2 0x14A3 PUSH2 0x145D JUMP JUMPDEST JUMPDEST PUSH0 PUSH2 0x14B1 DUP5 DUP3 DUP6 ADD PUSH2 0x147B JUMP JUMPDEST SWAP2 POP POP SWAP3 SWAP2 POP POP JUMP JUMPDEST PUSH2 0x14C3 DUP2 PUSH2 0x139D JUMP JUMPDEST DUP3 MSTORE POP POP JUMP JUMPDEST PUSH0 PUSH1 0x20 DUP3 ADD SWAP1 POP PUSH2 0x14DC PUSH0 DUP4 ADD DUP5 PUSH2 0x14BA JUMP JUMPDEST SWAP3 SWAP2 POP POP JUMP JUMPDEST PUSH0 DUP2 MLOAD SWAP1 POP SWAP2 SWAP1 POP JUMP JUMPDEST PUSH0 DUP3 DUP3 MSTORE PUSH1 0x20 DUP3 ADD SWAP1 POP SWAP3 SWAP2 POP POP JUMP JUMPDEST DUP3 DUP2 DUP4 MCOPY PUSH0 DUP4 DUP4 ADD MSTORE POP POP POP JUMP JUMPDEST PUSH0 PUSH1 0x1F NOT PUSH1 0x1F DUP4 ADD AND SWAP1 POP SWAP2 SWAP1 POP JUMP JUMPDEST PUSH0 PUSH2 0x1524 DUP3 PUSH2 0x14E2 JUMP JUMPDEST PUSH2 0x152E DUP2 DUP6 PUSH2 0x14EC JUMP JUMPDEST SWAP4 POP PUSH2 0x153E DUP2 DUP6 PUSH1 0x20 DUP7 ADD PUSH2 0x14FC JUMP JUMPDEST PUSH2 0x1547 DUP2 PUSH2 0x150A JUMP JUMPDEST DUP5 ADD SWAP2 POP POP SWAP3 SWAP2 POP POP JUMP JUMPDEST PUSH0 DUP2 SWAP1 POP SWAP2 SWAP1 POP JUMP JUMPDEST PUSH2 0x1564 DUP2 PUSH2 0x1552 JUMP JUMPDEST DUP3 MSTORE POP POP JUMP JUMPDEST PUSH0 PUSH1 0x40 DUP3 ADD SWAP1 POP DUP2 DUP2 SUB PUSH0 DUP4 ADD MSTORE PUSH2 0x1582 DUP2 DUP6 PUSH2 0x151A JUMP JUMPDEST SWAP1 POP PUSH2 0x1591 PUSH1 0x20 DUP4 ADD DUP5 PUSH2 0x155B JUMP JUMPDEST SWAP4 SWAP3 POP POP POP JUMP JUMPDEST PUSH0 PUSH20 0xFFFFFFFFFFFFFFFFFFFFFFFFFFFFFFFFFFFFFFFF DUP3 AND SWAP1 POP SWAP2 SWAP1 POP JUMP JUMPDEST PUSH0 PUSH2 0x15C1 DUP3 PUSH2 0x1598 JUMP JUMPDEST SWAP1 POP SWAP2 SWAP1 POP JUMP JUMPDEST PUSH2 0x15D1 DUP2 PUSH2 0x15B7 JUMP JUMPDEST DUP3 MSTORE POP POP JUMP JUMPDEST PUSH0 DUP2 ISZERO ISZERO SWAP1 POP SWAP2 SWAP1 POP JUMP JUMPDEST PUSH2 0x15EB DUP2 PUSH2 0x15D7 JUMP JUMPDEST DUP3 MSTORE POP POP JUMP JUMPDEST PUSH0 PUSH1 0xE0 DUP3 ADD SWAP1 POP PUSH2 0x1604 PUSH0 DUP4 ADD DUP11 PUSH2 0x14BA JUMP JUMPDEST DUP2 DUP2 SUB PUSH1 0x20 DUP4 ADD MSTORE PUSH2 0x1616 DUP2 DUP10 PUSH2 0x151A JUMP JUMPDEST SWAP1 POP DUP2 DUP2 SUB PUSH1 0x40 DUP4 ADD MSTORE PUSH2 0x162A DUP2 DUP9 PUSH2 0x151A JUMP JUMPDEST SWAP1 POP DUP2 DUP2 SUB PUSH1 0x60 DUP4 ADD MSTORE PUSH2 0x163E DUP2 DUP8 PUSH2 0x151A JUMP JUMPDEST SWAP1 POP DUP2 DUP2 SUB PUSH1 0x80 DUP4 ADD MSTORE PUSH2 0x1652 DUP2 DUP7 PUSH2 0x151A JUMP JUMPDEST SWAP1 POP PUSH2 0x1661 PUSH1 0xA0 DUP4 ADD DUP6 PUSH2 0x15C8 JUMP JUMPDEST PUSH2 0x166E PUSH1 0xC0 DUP4 ADD DUP5 PUSH2 0x15E2 JUMP JUMPDEST SWAP9 SWAP8 POP POP POP POP POP POP POP POP JUMP JUMPDEST PUSH0 PUSH0 REVERT JUMPDEST PUSH0 PUSH0 REVERT JUMPDEST PUSH32 0x4E487B7100000000000000000000000000000000000000000000000000000000 PUSH0 MSTORE PUSH1 0x41 PUSH1 0x4 MSTORE PUSH1 0x24 PUSH0 REVERT JUMPDEST PUSH2 0x16B8 DUP3 PUSH2 0x150A JUMP JUMPDEST DUP2 ADD DUP2 DUP2 LT PUSH8 0xFFFFFFFFFFFFFFFF DUP3 GT OR ISZERO PUSH2 0x16D7 JUMPI PUSH2 0x16D6 PUSH2 0x1682 JUMP JUMPDEST JUMPDEST DUP1 PUSH1 0x40 MSTORE POP POP POP JUMP JUMPDEST PUSH0 PUSH2 0x16E9 PUSH2 0x1454 JUMP JUMPDEST SWAP1 POP PUSH2 0x16F5 DUP3 DUP3 PUSH2 0x16AF JUMP JUMPDEST SWAP2 SWAP1 POP JUMP JUMPDEST PUSH0 PUSH8 0xFFFFFFFFFFFFFFFF DUP3 GT ISZERO PUSH2 0x1714 JUMPI PUSH2 0x1713 PUSH2 0x1682 JUMP JUMPDEST JUMPDEST PUSH2 0x171D DUP3 PUSH2 0x150A JUMP JUMPDEST SWAP1 POP PUSH1 0x20 DUP2 ADD SWAP1 POP SWAP2 SWAP1 POP JUMP JUMPDEST DUP3 DUP2 DUP4 CALLDATACOPY PUSH0 DUP4 DUP4 ADD MSTORE POP POP POP JUMP JUMPDEST PUSH0 PUSH2 0x174A PUSH2 0x1745 DUP5 PUSH2 0x16FA JUMP JUMPDEST PUSH2 0x16E0 JUMP JUMPDEST SWAP1 POP DUP3 DUP2 MSTORE PUSH1 0x20 DUP2 ADD DUP5 DUP5 DUP5 ADD GT ISZERO PUSH2 0x1766 JUMPI PUSH2 0x1765 PUSH2 0x167E JUMP JUMPDEST JUMPDEST PUSH2 0x1771 DUP5 DUP3 DUP6 PUSH2 0x172A JUMP JUMPDEST POP SWAP4 SWAP3 POP POP POP JUMP JUMPDEST PUSH0 DUP3 PUSH1 0x1F DUP4 ADD SLT PUSH2 0x178D JUMPI PUSH2 0x178C PUSH2 0x167A JUMP JUMPDEST JUMPDEST DUP2 CALLDATALOAD PUSH2 0x179D DUP5 DUP3 PUSH1 0x20 DUP7 ADD PUSH2 0x1738 JUMP JUMPDEST SWAP2 POP POP SWAP3 SWAP2 POP POP JUMP JUMPDEST PUSH0 PUSH0 PUSH0 PUSH0 PUSH0 PUSH1 0xA0 DUP7 DUP9 SUB SLT ISZERO PUSH2 0x17BF JUMPI PUSH2 0x17BE PUSH2 0x145D JUMP JUMPDEST JUMPDEST PUSH0 PUSH2 0x17CC DUP9 DUP3 DUP10 ADD PUSH2 0x147B JUMP JUMPDEST SWAP6 POP POP PUSH1 0x20 DUP7 ADD CALLDATALOAD PUSH8 0xFFFFFFFFFFFFFFFF DUP2 GT ISZERO PUSH2 0x17ED JUMPI PUSH2 0x17EC PUSH2 0x1461 JUMP JUMPDEST JUMPDEST PUSH2 0x17F9 DUP9 DUP3 DUP10 ADD PUSH2 0x1779 JUMP JUMPDEST SWAP5 POP POP PUSH1 0x40 DUP7 ADD CALLDATALOAD PUSH8 0xFFFFFFFFFFFFFFFF DUP2 GT ISZERO PUSH2 0x181A JUMPI PUSH2 0x1819 PUSH2 0x1461 JUMP JUMPDEST JUMPDEST PUSH2 0x1826 DUP9 DUP3 DUP10 ADD PUSH2 0x1779 JUMP JUMPDEST SWAP4 POP POP PUSH1 0x60 DUP7 ADD CALLDATALOAD PUSH8 0xFFFFFFFFFFFFFFFF DUP2 GT ISZERO PUSH2 0x1847 JUMPI PUSH2 0x1846 PUSH2 0x1461 JUMP JUMPDEST JUMPDEST PUSH2 0x1853 DUP9 DUP3 DUP10 ADD PUSH2 0x1779 JUMP JUMPDEST SWAP3 POP POP PUSH1 0x80 DUP7 ADD CALLDATALOAD PUSH8 0xFFFFFFFFFFFFFFFF DUP2 GT ISZERO PUSH2 0x1874 JUMPI PUSH2 0x1873 PUSH2 0x1461 JUMP JUMPDEST JUMPDEST PUSH2 0x1880 DUP9 DUP3 DUP10 ADD PUSH2 0x1779 JUMP JUMPDEST SWAP2 POP POP SWAP3 SWAP6 POP SWAP3 SWAP6 SWAP1 SWAP4 POP JUMP JUMPDEST PUSH32 0x4E487B7100000000000000000000000000000000000000000000000000000000 PUSH0 MSTORE PUSH1 0x22 PUSH1 0x4 MSTORE PUSH1 0x24 PUSH0 REVERT JUMPDEST PUSH0 PUSH1 0x2 DUP3 DIV SWAP1 POP PUSH1 0x1 DUP3 AND DUP1 PUSH2 0x18D1 JUMPI PUSH1 0x7F DUP3 AND SWAP2 POP JUMPDEST PUSH1 0x20 DUP3 LT DUP2 SUB PUSH2 0x18E4 JUMPI PUSH2 0x18E3 PUSH2 0x188D JUMP JUMPDEST JUMPDEST POP SWAP2 SWAP1 POP JUMP JUMPDEST PUSH32 0x4E487B7100000000000000000000000000000000000000000000000000000000 PUSH0 MSTORE PUSH1 0x32 PUSH1 0x4 MSTORE PUSH1 0x24 PUSH0 REVERT JUMPDEST PUSH32 0x4E487B7100000000000000000000000000000000000000000000000000000000 PUSH0 MSTORE PUSH1 0x11 PUSH1 0x4 MSTORE PUSH1 0x24 PUSH0 REVERT JUMPDEST PUSH0 PUSH2 0x194E DUP3 PUSH2 0x1552 JUMP JUMPDEST SWAP2 POP PUSH2 0x1959 DUP4 PUSH2 0x1552 JUMP JUMPDEST SWAP3 POP DUP3 DUP3 MUL PUSH2 0x1967 DUP2 PUSH2 0x1552 JUMP JUMPDEST SWAP2 POP PUSH32 0x8000000000000000000000000000000000000000000000000000000000000000 DUP5 EQ PUSH0 DUP5 SLT AND ISZERO PUSH2 0x199E JUMPI PUSH2 0x199D PUSH2 0x1917 JUMP JUMPDEST JUMPDEST DUP3 DUP3 SDIV DUP5 EQ DUP4 ISZERO OR PUSH2 0x19B3 JUMPI PUSH2 0x19B2 PUSH2 0x1917 JUMP JUMPDEST JUMPDEST POP SWAP3 SWAP2 POP POP JUMP JUMPDEST PUSH32 0x4E616D6520726571756972656400000000000000000000000000000000000000 PUSH0 DUP3 ADD MSTORE POP JUMP JUMPDEST PUSH0 PUSH2 0x19EE PUSH1 0xD DUP4 PUSH2 0x14EC JUMP JUMPDEST SWAP2 POP PUSH2 0x19F9 DUP3 PUSH2 0x19BA JUMP JUMPDEST PUSH1 0x20 DUP3 ADD SWAP1 POP SWAP2 SWAP1 POP JUMP JUMPDEST PUSH0 PUSH1 0x20 DUP3 ADD SWAP1 POP DUP2 DUP2 SUB PUSH0 DUP4 ADD MSTORE PUSH2 0x1A1B DUP2 PUSH2 0x19E2 JUMP JUMPDEST SWAP1 POP SWAP2 SWAP1 POP JUMP JUMPDEST PUSH32 0x4578706972792072657175697265640000000000000000000000000000000000 PUSH0 DUP3 ADD MSTORE POP JUMP JUMPDEST PUSH0 PUSH2 0x1A56 PUSH1 0xF DUP4 PUSH2 0x14EC JUMP JUMPDEST SWAP2 POP PUSH2 0x1A61 DUP3 PUSH2 0x1A22 JUMP JUMPDEST PUSH1 0x20 DUP3 ADD SWAP1 POP SWAP2 SWAP1 POP JUMP JUMPDEST PUSH0 PUSH1 0x20 DUP3 ADD SWAP1 POP DUP2 DUP2 SUB PUSH0 DUP4 ADD MSTORE PUSH2 0x1A83 DUP2 PUSH2 0x1A4A JUMP JUMPDEST SWAP1 POP SWAP2 SWAP1 POP JUMP JUMPDEST PUSH0 DUP2 SWAP1 POP DUP2 PUSH0 MSTORE PUSH1 0x20 PUSH0 KECCAK256 SWAP1 POP SWAP2 SWAP1 POP JUMP JUMPDEST PUSH0 PUSH1 0x20 PUSH1 0x1F DUP4 ADD DIV SWAP1 POP SWAP2 SWAP1 POP JUMP JUMPDEST PUSH0 DUP3 DUP3 SHL SWAP1 POP SWAP3 SWAP2 POP POP JUMP JUMPDEST PUSH0 PUSH1 0x8 DUP4 MUL PUSH2 0x1AE6 PUSH32 0xFFFFFFFFFFFFFFFFFFFFFFFFFFFFFFFFFFFFFFFFFFFFFFFFFFFFFFFFFFFFFFFF DUP3 PUSH2 0x1AAB JUMP JUMPDEST PUSH2 0x1AF0 DUP7 DUP4 PUSH2 0x1AAB JUMP JUMPDEST SWAP6 POP DUP1 NOT DUP5 AND SWAP4 POP DUP1 DUP7 AND DUP5 OR SWAP3 POP POP POP SWAP4 SWAP3 POP POP POP JUMP JUMPDEST PUSH0 DUP2 SWAP1 POP SWAP2 SWAP1 POP JUMP JUMPDEST PUSH0 PUSH2 0x1B2B PUSH2 0x1B26 PUSH2 0x1B21 DUP5 PUSH2 0x139D JUMP JUMPDEST PUSH2 0x1B08 JUMP JUMPDEST PUSH2 0x139D JUMP JUMPDEST SWAP1 POP SWAP2 SWAP1 POP JUMP JUMPDEST PUSH0 DUP2 SWAP1 POP SWAP2 SWAP1 POP JUMP JUMPDEST PUSH2 0x1B44 DUP4 PUSH2 0x1B11 JUMP JUMPDEST PUSH2 0x1B58 PUSH2 0x1B50 DUP3 PUSH2 0x1B32 JUMP JUMPDEST DUP5 DUP5 SLOAD PUSH2 0x1AB7 JUMP JUMPDEST DUP3 SSTORE POP POP POP POP JUMP JUMPDEST PUSH0 PUSH0 SWAP1 POP SWAP1 JUMP JUMPDEST PUSH2 0x1B6F PUSH2 0x1B60 JUMP JUMPDEST PUSH2 0x1B7A DUP2 DUP5 DUP5 PUSH2 0x1B3B JUMP JUMPDEST POP POP POP JUMP JUMPDEST JUMPDEST DUP2 DUP2 LT ISZERO PUSH2 0x1B9D JUMPI PUSH2 0x1B92 PUSH0 DUP3 PUSH2 0x1B67 JUMP JUMPDEST PUSH1 0x1 DUP2 ADD SWAP1 POP PUSH2 0x1B80 JUMP JUMPDEST POP POP JUMP JUMPDEST PUSH1 0x1F DUP3 GT ISZERO PUSH2 0x1BE2 JUMPI PUSH2 0x1BB3 DUP2 PUSH2 0x1A8A JUMP JUMPDEST PUSH2 0x1BBC DUP5 PUSH2 0x1A9C JUMP JUMPDEST DUP2 ADD PUSH1 0x20 DUP6 LT ISZERO PUSH2 0x1BCB JUMPI DUP2 SWAP1 POP JUMPDEST PUSH2 0x1BDF PUSH2 0x1BD7 DUP6 PUSH2 0x1A9C JUMP JUMPDEST DUP4 ADD DUP3 PUSH2 0x1B7F JUMP JUMPDEST POP POP JUMPDEST POP POP POP JUMP JUMPDEST PUSH0 DUP3 DUP3 SHR SWAP1 POP SWAP3 SWAP2 POP POP JUMP JUMPDEST PUSH0 PUSH2 0x1C02 PUSH0 NOT DUP5 PUSH1 0x8 MUL PUSH2 0x1BE7 JUMP JUMPDEST NOT DUP1 DUP4 AND SWAP2 POP POP SWAP3 SWAP2 POP POP JUMP JUMPDEST PUSH0 PUSH2 0x1C1A DUP4 DUP4 PUSH2 0x1BF3 JUMP JUMPDEST SWAP2 POP DUP3 PUSH1 0x2 MUL DUP3 OR SWAP1 POP SWAP3 SWAP2 POP POP JUMP JUMPDEST PUSH2 0x1C33 DUP3 PUSH2 0x14E2 JUMP JUMPDEST PUSH8 0xFFFFFFFFFFFFFFFF DUP2 GT ISZERO PUSH2 0x1C4C JUMPI PUSH2 0x1C4B PUSH2 0x1682 JUMP JUMPDEST JUMPDEST PUSH2 0x1C56 DUP3 SLOAD PUSH2 0x18BA JUMP JUMPDEST PUSH2 0x1C61 DUP3 DUP3 DUP6 PUSH2 0x1BA1 JUMP JUMPDEST PUSH0 PUSH1 0x20 SWAP1 POP PUSH1 0x1F DUP4 GT PUSH1 0x1 DUP2 EQ PUSH2 0x1C92 JUMPI PUSH0 DUP5 ISZERO PUSH2 0x1C80 JUMPI DUP3 DUP8 ADD MLOAD SWAP1 POP JUMPDEST PUSH2 0x1C8A DUP6 DUP3 PUSH2 0x1C0F JUMP JUMPDEST DUP7 SSTORE POP PUSH2 0x1CF1 JUMP JUMPDEST PUSH1 0x1F NOT DUP5 AND PUSH2 0x1CA0 DUP7 PUSH2 0x1A8A JUMP JUMPDEST PUSH0 JUMPDEST DUP3 DUP2 LT ISZERO PUSH2 0x1CC7 JUMPI DUP5 DUP10 ADD MLOAD DUP3 SSTORE PUSH1 0x1 DUP3 ADD SWAP2 POP PUSH1 0x20 DUP6 ADD SWAP5 POP PUSH1 0x20 DUP2 ADD SWAP1 POP PUSH2 0x1CA2 JUMP JUMPDEST DUP7 DUP4 LT ISZERO PUSH2 0x1CE4 JUMPI DUP5 DUP10 ADD MLOAD PUSH2 0x1CE0 PUSH1 0x1F DUP10 AND DUP3 PUSH2 0x1BF3 JUMP JUMPDEST DUP4 SSTORE POP JUMPDEST PUSH1 0x1 PUSH1 0x2 DUP9 MUL ADD DUP9 SSTORE POP POP POP JUMPDEST POP POP POP POP POP POP JUMP JUMPDEST PUSH32 0x50726F64756374206E6F7420666F756E64000000000000000000000000000000 PUSH0 DUP3 ADD MSTORE POP JUMP JUMPDEST PUSH0 PUSH2 0x1D2D PUSH1 0x11 DUP4 PUSH2 0x14EC JUMP JUMPDEST SWAP2 POP PUSH2 0x1D38 DUP3 PUSH2 0x1CF9 JUMP JUMPDEST PUSH1 0x20 DUP3 ADD SWAP1 POP SWAP2 SWAP1 POP JUMP JUMPDEST PUSH0 PUSH1 0x20 DUP3 ADD SWAP1 POP DUP2 DUP2 SUB PUSH0 DUP4 ADD MSTORE PUSH2 0x1D5A DUP2 PUSH2 0x1D21 JUMP JUMPDEST SWAP1 POP SWAP2 SWAP1 POP JUMP JUMPDEST PUSH32 0x4E6F7420617574686F72697A6564000000000000000000000000000000000000 PUSH0 DUP3 ADD MSTORE POP JUMP JUMPDEST PUSH0 PUSH2 0x1D95 PUSH1 0xE DUP4 PUSH2 0x14EC JUMP JUMPDEST SWAP2 POP PUSH2 0x1DA0 DUP3 PUSH2 0x1D61 JUMP JUMPDEST PUSH1 0x20 DUP3 ADD SWAP1 POP SWAP2 SWAP1 POP JUMP JUMPDEST PUSH0 PUSH1 0x20 DUP3 ADD SWAP1 POP DUP2 DUP2 SUB PUSH0 DUP4 ADD MSTORE PUSH2 0x1DC2 DUP2 PUSH2 0x1D89 JUMP JUMPDEST SWAP1 POP SWAP2 SWAP1 POP JUMP JUMPDEST PUSH0 DUP2 PUSH0 SIGNEXTEND SWAP1 POP SWAP2 SWAP1 POP JUMP JUMPDEST PUSH0 PUSH2 0x1DDE DUP3 PUSH2 0x1DC9 JUMP JUMPDEST SWAP2 POP PUSH2 0x1DE9 DUP4 PUSH2 0x1DC9 JUMP JUMPDEST SWAP3 POP DUP3 DUP3 SUB SWAP1 POP PUSH1 0x7F DUP2 SGT PUSH32 0xFFFFFFFFFFFFFFFFFFFFFFFFFFFFFFFFFFFFFFFFFFFFFFFFFFFFFFFFFFFFFF80 DUP3 SLT OR ISZERO PUSH2 0x1E26 JUMPI PUSH2 0x1E25 PUSH2 0x1917 JUMP JUMPDEST JUMPDEST SWAP3 SWAP2 POP POP JUMP JUMPDEST PUSH0 PUSH2 0x1E36 DUP3 PUSH2 0x1552 JUMP JUMPDEST SWAP2 POP PUSH2 0x1E41 DUP4 PUSH2 0x1552 JUMP JUMPDEST SWAP3 POP DUP3 DUP3 ADD SWAP1 POP DUP3 DUP2 SLT ISZERO PUSH0 DUP4 SLT AND DUP4 DUP3 SLT PUSH0 DUP5 SLT ISZERO AND OR ISZERO PUSH2 0x1E67 JUMPI PUSH2 0x1E66 PUSH2 0x1917 JUMP JUMPDEST JUMPDEST SWAP3 SWAP2 POP POP JUMP JUMPDEST PUSH0 PUSH2 0x1E77 DUP3 PUSH2 0x1DC9 JUMP JUMPDEST SWAP2 POP PUSH2 0x1E82 DUP4 PUSH2 0x1DC9 JUMP JUMPDEST SWAP3 POP DUP3 DUP3 MUL PUSH2 0x1E90 DUP2 PUSH2 0x1DC9 JUMP JUMPDEST SWAP2 POP DUP1 DUP3 EQ PUSH2 0x1EA2 JUMPI PUSH2 0x1EA1 PUSH2 0x1917 JUMP JUMPDEST JUMPDEST POP SWAP3 SWAP2 POP POP JUMP JUMPDEST PUSH0 PUSH2 0x1EB3 DUP3 PUSH2 0x1DC9 JUMP JUMPDEST SWAP2 POP PUSH2 0x1EBE DUP4 PUSH2 0x1DC9 JUMP JUMPDEST SWAP3 POP DUP3 DUP3 ADD SWAP1 POP PUSH32 0xFFFFFFFFFFFFFFFFFFFFFFFFFFFFFFFFFFFFFFFFFFFFFFFFFFFFFFFFFFFFFF80 DUP2 SLT PUSH1 0x7F DUP3 SGT OR ISZERO PUSH2 0x1EFB JUMPI PUSH2 0x1EFA PUSH2 0x1917 JUMP JUMPDEST JUMPDEST SWAP3 SWAP2 POP POP JUMP JUMPDEST PUSH0 PUSH2 0x1F0B DUP3 PUSH2 0x1552 JUMP JUMPDEST SWAP2 POP PUSH2 0x1F16 DUP4 PUSH2 0x1552 JUMP JUMPDEST SWAP3 POP DUP3 DUP3 SUB SWAP1 POP DUP2 DUP2 SLT PUSH0 DUP5 SLT AND DUP3 DUP3 SGT PUSH0 DUP6 SLT ISZERO AND OR ISZERO PUSH2 0x1F3B JUMPI PUSH2 0x1F3A PUSH2 0x1917 JUMP JUMPDEST JUMPDEST SWAP3 SWAP2 POP POP JUMP JUMPDEST PUSH32 0x4E487B7100000000000000000000000000000000000000000000000000000000 PUSH0 MSTORE PUSH1 0x12 PUSH1 0x4 MSTORE PUSH1 0x24 PUSH0 REVERT JUMPDEST PUSH0 PUSH2 0x1F78 DUP3 PUSH2 0x1552 JUMP JUMPDEST SWAP2 POP PUSH2 0x1F83 DUP4 PUSH2 0x1552 JUMP JUMPDEST SWAP3 POP DUP3 PUSH2 0x1F93 JUMPI PUSH2 0x1F92 PUSH2 0x1F41 JUMP JUMPDEST JUMPDEST PUSH1 0x1 PUSH0 SUB DUP4 EQ PUSH32 0x8000000000000000000000000000000000000000000000000000000000000000 DUP4 EQ AND ISZERO PUSH2 0x1FCB JUMPI PUSH2 0x1FCA PUSH2 0x1917 JUMP JUMPDEST JUMPDEST DUP3 DUP3 SDIV SWAP1 POP SWAP3 SWAP2 POP POP JUMP JUMPDEST PUSH0 PUSH2 0x1FE0 DUP3 PUSH2 0x139D JUMP JUMPDEST SWAP2 POP PUSH2 0x1FEB DUP4 PUSH2 0x139D JUMP JUMPDEST SWAP3 POP DUP3 PUSH2 0x1FFB JUMPI PUSH2 0x1FFA PUSH2 0x1F41 JUMP JUMPDEST JUMPDEST DUP3 DUP3 DIV SWAP1 POP SWAP3 SWAP2 POP POP JUMP INVALID LOG2 PUSH5 0x6970667358 0x22 SLT KECCAK256 0xC6 0xE CREATE EXP 0x2B 0xF 0xD0 BYTE MLOAD CALLF 0x2B3A SHR DUP7 0xB3 LOG3 0xC3 0xB0 0xBA MSTORE 0xD7 PUSH19 0xD52279B06000661CB41064736F6C634300081E STOP CALLER "
				},
				"gasEstimates": {
					"creation": {
						"codeDepositCost": "1650400",
						"executionCost": "1727",
						"totalCost": "1652127"
					},
					"external": {
						"addProduct(uint256,string,string,string,string)": "infinite",
						"deleteProduct(uint256)": "29398",
						"getAllProducts()": "infinite",
						"getExpiryTimestamp(uint256)": "infinite",
						"productIds(uint256)": "infinite",
						"products(uint256)": "infinite",
						"verifyProduct(uint256)": "infinite"
					},
					"internal": {
						"daysFromDate(int256,int256,int256)": "infinite",
						"daysFromTimestamp(uint256)": "infinite",
						"diffDays(string memory)": "infinite",
						"toInt(bytes1,bytes1)": "infinite",
						"toInt(bytes1,bytes1,bytes1,bytes1)": "infinite"
					}
				},
				"methodIdentifiers": {
					"addProduct(uint256,string,string,string,string)": "d1eacd62",
					"deleteProduct(uint256)": "ed90c7b7",
					"getAllProducts()": "02ee3a52",
					"getExpiryTimestamp(uint256)": "42692c0f",
					"productIds(uint256)": "cb51bba9",
					"products(uint256)": "7acc0b20",
					"verifyProduct(uint256)": "524e8462"
				}
			},
			"storageLayout": {
				"storage": [
					{
						"astId": 21,
						"contract": "FoodExpiryTracker.sol:ProductExpiry",
						"label": "products",
						"offset": 0,
						"slot": "0",
						"type": "t_mapping(t_uint256,t_struct(Product)16_storage)"
					},
					{
						"astId": 24,
						"contract": "FoodExpiryTracker.sol:ProductExpiry",
						"label": "productIds",
						"offset": 0,
						"slot": "1",
						"type": "t_array(t_uint256)dyn_storage"
					}
				],
				"types": {
					"t_address": {
						"encoding": "inplace",
						"label": "address",
						"numberOfBytes": "20"
					},
					"t_array(t_uint256)dyn_storage": {
						"base": "t_uint256",
						"encoding": "dynamic_array",
						"label": "uint256[]",
						"numberOfBytes": "32"
					},
					"t_bool": {
						"encoding": "inplace",
						"label": "bool",
						"numberOfBytes": "1"
					},
					"t_mapping(t_uint256,t_struct(Product)16_storage)": {
						"encoding": "mapping",
						"key": "t_uint256",
						"label": "mapping(uint256 => struct ProductExpiry.Product)",
						"numberOfBytes": "32",
						"value": "t_struct(Product)16_storage"
					},
					"t_string_storage": {
						"encoding": "bytes",
						"label": "string",
						"numberOfBytes": "32"
					},
					"t_struct(Product)16_storage": {
						"encoding": "inplace",
						"label": "struct ProductExpiry.Product",
						"members": [
							{
								"astId": 3,
								"contract": "FoodExpiryTracker.sol:ProductExpiry",
								"label": "productId",
								"offset": 0,
								"slot": "0",
								"type": "t_uint256"
							},
							{
								"astId": 5,
								"contract": "FoodExpiryTracker.sol:ProductExpiry",
								"label": "name",
								"offset": 0,
								"slot": "1",
								"type": "t_string_storage"
							},
							{
								"astId": 7,
								"contract": "FoodExpiryTracker.sol:ProductExpiry",
								"label": "category",
								"offset": 0,
								"slot": "2",
								"type": "t_string_storage"
							},
							{
								"astId": 9,
								"contract": "FoodExpiryTracker.sol:ProductExpiry",
								"label": "manufactureDate",
								"offset": 0,
								"slot": "3",
								"type": "t_string_storage"
							},
							{
								"astId": 11,
								"contract": "FoodExpiryTracker.sol:ProductExpiry",
								"label": "expiryDate",
								"offset": 0,
								"slot": "4",
								"type": "t_string_storage"
							},
							{
								"astId": 13,
								"contract": "FoodExpiryTracker.sol:ProductExpiry",
								"label": "manufacturer",
								"offset": 0,
								"slot": "5",
								"type": "t_address"
							},
							{
								"astId": 15,
								"contract": "FoodExpiryTracker.sol:ProductExpiry",
								"label": "isActive",
								"offset": 20,
								"slot": "5",
								"type": "t_bool"
							}
						],
						"numberOfBytes": "192"
					},
					"t_uint256": {
						"encoding": "inplace",
						"label": "uint256",
						"numberOfBytes": "32"
					}
				}
			},
			"userdoc": {
				"kind": "user",
				"methods": {},
				"version": 1
			}
		}
	}
}