{
  "_format": "hh-sol-artifact-1",
  "contractName": "ProductExpiry",
  "sourceName": "contracts/FoodExpiryTracker.sol",
  "abi": [
    {
      "inputs": [
        {
          "internalType": "string",
          "name": "_name",
          "type": "string"
        },
        {
          "internalType": "string",
          "name": "_category",
          "type": "string"
        },
        {
          "internalType": "string",
          "name": "_manufactureDate",
          "type": "string"
        },
        {
          "internalType": "string",
          "name": "_expiryDate",
          "type": "string"
        }
      ],
      "name": "addProduct",
      "outputs": [
        {
          "internalType": "uint256",
          "name": "",
          "type": "uint256"
        }
      ],
      "stateMutability": "nonpayable",
      "type": "function"
    },
    {
      "inputs": [
        {
          "internalType": "uint256",
          "name": "_productId",
          "type": "uint256"
        }
      ],
      "name": "deleteProduct",
      "outputs": [],
      "stateMutability": "nonpayable",
      "type": "function"
    },
    {
      "inputs": [],
      "name": "getAllProducts",
      "outputs": [
        {
          "internalType": "uint256[]",
          "name": "",
          "type": "uint256[]"
        }
      ],
      "stateMutability": "view",
      "type": "function"
    },
    {
      "inputs": [
        {
          "internalType": "uint256",
          "name": "_productId",
          "type": "uint256"
        }
      ],
      "name": "getExpiryTimestamp",
      "outputs": [
        {
          "internalType": "uint256",
          "name": "",
          "type": "uint256"
        }
      ],
      "stateMutability": "view",
      "type": "function"
    },
    {
      "inputs": [],
      "name": "nextProductId",
      "outputs": [
        {
          "internalType": "uint256",
          "name": "",
          "type": "uint256"
        }
      ],
      "stateMutability": "view",
      "type": "function"
    },
    {
      "inputs": [
        {
          "internalType": "uint256",
          "name": "",
          "type": "uint256"
        }
      ],
      "name": "productIds",
      "outputs": [
        {
          "internalType": "uint256",
          "name": "",
          "type": "uint256"
        }
      ],
      "stateMutability": "view",
      "type": "function"
    },
    {
      "inputs": [
        {
          "internalType": "uint256",
          "name": "",
          "type": "uint256"
        }
      ],
      "name": "products",
      "outputs": [
        {
          "internalType": "uint256",
          "name": "productId",
          "type": "uint256"
        },
        {
          "internalType": "string",
          "name": "name",
          "type": "string"
        },
        {
          "internalType": "string",
          "name": "category",
          "type": "string"
        },
        {
          "internalType": "string",
          "name": "manufactureDate",
          "type": "string"
        },
        {
          "internalType": "string",
          "name": "expiryDate",
          "type": "string"
        },
        {
          "internalType": "address",
          "name": "manufacturer",
          "type": "address"
        },
        {
          "internalType": "bool",
          "name": "isActive",
          "type": "bool"
        }
      ],
      "stateMutability": "view",
      "type": "function"
    },
    {
      "inputs": [
        {
          "internalType": "uint256",
          "name": "_productId",
          "type": "uint256"
        }
      ],
      "name": "verifyProduct",
      "outputs": [
        {
          "internalType": "string",
          "name": "status",
          "type": "string"
        },
        {
          "internalType": "int256",
          "name": "daysLeft",
          "type": "int256"
        }
      ],
      "stateMutability": "view",
      "type": "function"
    }
  ],
  "bytecode": "0x60806040526001600255348015601457600080fd5b506121bf806100246000396000f3fe608060405234801561001057600080fd5b50600436106100885760003560e01c80637acc0b201161005b5780637acc0b201461012a578063cb51bba914610160578063ed90c7b714610190578063fde74e81146101ac57610088565b806302ee3a521461008d57806342692c0f146100ab5780634de91a63146100db578063524e8462146100f9575b600080fd5b6100956101dc565b6040516100a2919061150b565b60405180910390f35b6100c560048036038101906100c0919061156d565b610234565b6040516100d291906115a9565b60405180910390f35b6100e3610669565b6040516100f091906115a9565b60405180910390f35b610113600480360381019061010e919061156d565b61066f565b60405161012192919061166d565b60405180910390f35b610144600480360381019061013f919061156d565b610a92565b60405161015797969594939291906116f9565b60405180910390f35b61017a6004803603810190610175919061156d565b610d21565b60405161018791906115a9565b60405180910390f35b6101aa60048036038101906101a5919061156d565b610d45565b005b6101c660048036038101906101c191906118b9565b610e7b565b6040516101d391906115a9565b60405180910390f35b6060600180548060200260200160405190810160405280929190818152602001828054801561022a57602002820191906000526020600020905b815481526020019060010190808311610216575b5050505050905090565b6000806000808481526020019081526020016000206040518060e00160405290816000820154815260200160018201805461026e906119bf565b80601f016020809104026020016040519081016040528092919081815260200182805461029a906119bf565b80156102e75780601f106102bc576101008083540402835291602001916102e7565b820191906000526020600020905b8154815290600101906020018083116102ca57829003601f168201915b50505050508152602001600282018054610300906119bf565b80601f016020809104026020016040519081016040528092919081815260200182805461032c906119bf565b80156103795780601f1061034e57610100808354040283529160200191610379565b820191906000526020600020905b81548152906001019060200180831161035c57829003601f168201915b50505050508152602001600382018054610392906119bf565b80601f01602080910402602001604051908101604052809291908181526020018280546103be906119bf565b801561040b5780601f106103e05761010080835404028352916020019161040b565b820191906000526020600020905b8154815290600101906020018083116103ee57829003601f168201915b50505050508152602001600482018054610424906119bf565b80601f0160208091040260200160405190810160405280929190818152602001828054610450906119bf565b801561049d5780601f106104725761010080835404028352916020019161049d565b820191906000526020600020905b81548152906001019060200180831161048057829003601f168201915b505050505081526020016005820160009054906101000a900473ffffffffffffffffffffffffffffffffffffffff1673ffffffffffffffffffffffffffffffffffffffff1673ffffffffffffffffffffffffffffffffffffffff1681526020016005820160149054906101000a900460ff161515151581525050905060008160800151905060006105a88260008151811061053b5761053a6119f0565b5b602001015160f81c60f81b8360018151811061055a576105596119f0565b5b602001015160f81c60f81b84600281518110610579576105786119f0565b5b602001015160f81c60f81b85600381518110610598576105976119f0565b5b602001015160f81c60f81b611082565b905060006105f2836005815181106105c3576105c26119f0565b5b602001015160f81c60f81b846006815181106105e2576105e16119f0565b5b602001015160f81c60f81b61111d565b9050600061063c8460088151811061060d5761060c6119f0565b5b602001015160f81c60f81b8560098151811061062c5761062b6119f0565b5b602001015160f81c60f81b61111d565b9050600061064b848484611160565b9050620151808161065c9190611a4e565b9650505050505050919050565b60025481565b60606000806000808581526020019081526020016000206040518060e0016040529081600082015481526020016001820180546106ab906119bf565b80601f01602080910402602001604051908101604052809291908181526020018280546106d7906119bf565b80156107245780601f106106f957610100808354040283529160200191610724565b820191906000526020600020905b81548152906001019060200180831161070757829003601f168201915b5050505050815260200160028201805461073d906119bf565b80601f0160208091040260200160405190810160405280929190818152602001828054610769906119bf565b80156107b65780601f1061078b576101008083540402835291602001916107b6565b820191906000526020600020905b81548152906001019060200180831161079957829003601f168201915b505050505081526020016003820180546107cf906119bf565b80601f01602080910402602001604051908101604052809291908181526020018280546107fb906119bf565b80156108485780601f1061081d57610100808354040283529160200191610848565b820191906000526020600020905b81548152906001019060200180831161082b57829003601f168201915b50505050508152602001600482018054610861906119bf565b80601f016020809104026020016040519081016040528092919081815260200182805461088d906119bf565b80156108da5780601f106108af576101008083540402835291602001916108da565b820191906000526020600020905b8154815290600101906020018083116108bd57829003601f168201915b505050505081526020016005820160009054906101000a900473ffffffffffffffffffffffffffffffffffffffff1673ffffffffffffffffffffffffffffffffffffffff1673ffffffffffffffffffffffffffffffffffffffff1681526020016005820160149054906101000a900460ff16151515158152505090508060c001516109a25760006040518060400160405280601181526020017f50726f64756374206e6f7420666f756e64000000000000000000000000000000815250909250925050610a8d565b6000806109b28360800151611285565b9150915081610a005760006040518060400160405280601581526020017f496e76616c69642065787069727920666f726d617400000000000000000000008152509094509450505050610a8d565b6000811215610a4d57806040518060400160405280600f81526020017f50726f64756374206578706972656400000000000000000000000000000000008152509094509450505050610a8d565b806040518060400160405280600d81526020017f50726f647563742076616c69640000000000000000000000000000000000000081525090945094505050505b915091565b6000602052806000526040600020600091509050806000015490806001018054610abb906119bf565b80601f0160208091040260200160405190810160405280929190818152602001828054610ae7906119bf565b8015610b345780601f10610b0957610100808354040283529160200191610b34565b820191906000526020600020905b815481529060010190602001808311610b1757829003601f168201915b505050505090806002018054610b49906119bf565b80601f0160208091040260200160405190810160405280929190818152602001828054610b75906119bf565b8015610bc25780601f10610b9757610100808354040283529160200191610bc2565b820191906000526020600020905b815481529060010190602001808311610ba557829003601f168201915b505050505090806003018054610bd7906119bf565b80601f0160208091040260200160405190810160405280929190818152602001828054610c03906119bf565b8015610c505780601f10610c2557610100808354040283529160200191610c50565b820191906000526020600020905b815481529060010190602001808311610c3357829003601f168201915b505050505090806004018054610c65906119bf565b80601f0160208091040260200160405190810160405280929190818152602001828054610c91906119bf565b8015610cde5780601f10610cb357610100808354040283529160200191610cde565b820191906000526020600020905b815481529060010190602001808311610cc157829003601f168201915b5050505050908060050160009054906101000a900473ffffffffffffffffffffffffffffffffffffffff16908060050160149054906101000a900460ff16905087565b60018181548110610d3157600080fd5b906000526020600020016000915090505481565b60008082815260200190815260200160002060050160149054906101000a900460ff16610da7576040517f08c379a0000000000000000000000000000000000000000000000000000000008152600401610d9e90611b12565b60405180910390fd5b3373ffffffffffffffffffffffffffffffffffffffff1660008083815260200190815260200160002060050160009054906101000a900473ffffffffffffffffffffffffffffffffffffffff1673ffffffffffffffffffffffffffffffffffffffff1614610e4a576040517f08c379a0000000000000000000000000000000000000000000000000000000008152600401610e4190611b7e565b60405180910390fd5b600080600083815260200190815260200160002060050160146101000a81548160ff02191690831515021790555050565b600080855111610ec0576040517f08c379a0000000000000000000000000000000000000000000000000000000008152600401610eb790611bea565b60405180910390fd5b6000825111610f04576040517f08c379a0000000000000000000000000000000000000000000000000000000008152600401610efb90611c56565b60405180910390fd5b600060025490506040518060e001604052808281526020018781526020018681526020018581526020018481526020013373ffffffffffffffffffffffffffffffffffffffff16815260200160011515815250600080838152602001908152602001600020600082015181600001556020820151816001019081610f889190611e22565b506040820151816002019081610f9e9190611e22565b506060820151816003019081610fb49190611e22565b506080820151816004019081610fca9190611e22565b5060a08201518160050160006101000a81548173ffffffffffffffffffffffffffffffffffffffff021916908373ffffffffffffffffffffffffffffffffffffffff16021790555060c08201518160050160146101000a81548160ff02191690831515021790555090505060018190806001815401808255809150506001900390600052602060002001600090919091909150556002600081548092919061107190611ef4565b919050555080915050949350505050565b600060308260f81c6110949190611f49565b60000b600a60308560f81c6110a99190611f49565b60000b6110b69190611a4e565b606460308760f81c6110c89190611f49565b60000b6110d59190611a4e565b6103e860308960f81c6110e89190611f49565b60000b6110f59190611a4e565b6110ff9190611fa2565b6111099190611fa2565b6111139190611fa2565b9050949350505050565b600060308260f81c61112f9190611f49565b600a60308560f81c6111419190611f49565b61114b9190611fe6565b6111559190612023565b60000b905092915050565b6000600383121561118a57600184611178919061207c565b9350600c836111879190611fa2565b92505b60006101908561119a91906120ee565b90506000610190826111ac9190611a4e565b866111b7919061207c565b905060006001856005600260038a6111cf919061207c565b60996111db9190611a4e565b6111e59190611fa2565b6111ef91906120ee565b6111f99190611fa2565b611203919061207c565b905060008160648461121591906120ee565b60048561122291906120ee565b61016d866112309190611a4e565b61123a9190611fa2565b611244919061207c565b61124e9190611fa2565b9050620afa6c8162023ab1866112649190611a4e565b61126e9190611fa2565b611278919061207c565b9450505050509392505050565b6000806000839050600a8151146112a3576000809250925050611426565b6000611329826000815181106112bc576112bb6119f0565b5b602001015160f81c60f81b836001815181106112db576112da6119f0565b5b602001015160f81c60f81b846002815181106112fa576112f96119f0565b5b602001015160f81c60f81b85600381518110611319576113186119f0565b5b602001015160f81c60f81b611082565b9050600061137383600581518110611344576113436119f0565b5b602001015160f81c60f81b84600681518110611363576113626119f0565b5b602001015160f81c60f81b61111d565b905060006113bd8460088151811061138e5761138d6119f0565b5b602001015160f81c60f81b856009815181106113ad576113ac6119f0565b5b602001015160f81c60f81b61111d565b90506000831315806113d0575060008213155b806113dc575060008113155b156113f1576000809550955050505050611426565b60006113fe848484611160565b9050600061140b4261142b565b90506001818361141b919061207c565b975097505050505050505b915091565b6000620151808261143c9190612158565b9050919050565b600081519050919050565b600082825260208201905092915050565b6000819050602082019050919050565b6000819050919050565b6114828161146f565b82525050565b60006114948383611479565b60208301905092915050565b6000602082019050919050565b60006114b882611443565b6114c2818561144e565b93506114cd8361145f565b8060005b838110156114fe5781516114e58882611488565b97506114f0836114a0565b9250506001810190506114d1565b5085935050505092915050565b6000602082019050818103600083015261152581846114ad565b905092915050565b6000604051905090565b600080fd5b600080fd5b61154a8161146f565b811461155557600080fd5b50565b60008135905061156781611541565b92915050565b60006020828403121561158357611582611537565b5b600061159184828501611558565b91505092915050565b6115a38161146f565b82525050565b60006020820190506115be600083018461159a565b92915050565b600081519050919050565b600082825260208201905092915050565b60005b838110156115fe5780820151818401526020810190506115e3565b60008484015250505050565b6000601f19601f8301169050919050565b6000611626826115c4565b61163081856115cf565b93506116408185602086016115e0565b6116498161160a565b840191505092915050565b6000819050919050565b61166781611654565b82525050565b60006040820190508181036000830152611687818561161b565b9050611696602083018461165e565b9392505050565b600073ffffffffffffffffffffffffffffffffffffffff82169050919050565b60006116c88261169d565b9050919050565b6116d8816116bd565b82525050565b60008115159050919050565b6116f3816116de565b82525050565b600060e08201905061170e600083018a61159a565b8181036020830152611720818961161b565b90508181036040830152611734818861161b565b90508181036060830152611748818761161b565b9050818103608083015261175c818661161b565b905061176b60a08301856116cf565b61177860c08301846116ea565b98975050505050505050565b600080fd5b600080fd5b7f4e487b7100000000000000000000000000000000000000000000000000000000600052604160045260246000fd5b6117c68261160a565b810181811067ffffffffffffffff821117156117e5576117e461178e565b5b80604052505050565b60006117f861152d565b905061180482826117bd565b919050565b600067ffffffffffffffff8211156118245761182361178e565b5b61182d8261160a565b9050602081019050919050565b82818337600083830152505050565b600061185c61185784611809565b6117ee565b90508281526020810184848401111561187857611877611789565b5b61188384828561183a565b509392505050565b600082601f8301126118a05761189f611784565b5b81356118b0848260208601611849565b91505092915050565b600080600080608085870312156118d3576118d2611537565b5b600085013567ffffffffffffffff8111156118f1576118f061153c565b5b6118fd8782880161188b565b945050602085013567ffffffffffffffff81111561191e5761191d61153c565b5b61192a8782880161188b565b935050604085013567ffffffffffffffff81111561194b5761194a61153c565b5b6119578782880161188b565b925050606085013567ffffffffffffffff8111156119785761197761153c565b5b6119848782880161188b565b91505092959194509250565b7f4e487b7100000000000000000000000000000000000000000000000000000000600052602260045260246000fd5b600060028204905060018216806119d757607f821691505b6020821081036119ea576119e9611990565b5b50919050565b7f4e487b7100000000000000000000000000000000000000000000000000000000600052603260045260246000fd5b7f4e487b7100000000000000000000000000000000000000000000000000000000600052601160045260246000fd5b6000611a5982611654565b9150611a6483611654565b9250828202611a7281611654565b91507f80000000000000000000000000000000000000000000000000000000000000008414600084121615611aaa57611aa9611a1f565b5b8282058414831517611abf57611abe611a1f565b5b5092915050565b7f50726f64756374206e6f7420666f756e64000000000000000000000000000000600082015250565b6000611afc6011836115cf565b9150611b0782611ac6565b602082019050919050565b60006020820190508181036000830152611b2b81611aef565b9050919050565b7f4e6f7420617574686f72697a6564000000000000000000000000000000000000600082015250565b6000611b68600e836115cf565b9150611b7382611b32565b602082019050919050565b60006020820190508181036000830152611b9781611b5b565b9050919050565b7f4e616d6520726571756972656400000000000000000000000000000000000000600082015250565b6000611bd4600d836115cf565b9150611bdf82611b9e565b602082019050919050565b60006020820190508181036000830152611c0381611bc7565b9050919050565b7f4578706972792072657175697265640000000000000000000000000000000000600082015250565b6000611c40600f836115cf565b9150611c4b82611c0a565b602082019050919050565b60006020820190508181036000830152611c6f81611c33565b9050919050565b60008190508160005260206000209050919050565b60006020601f8301049050919050565b600082821b905092915050565b600060088302611cd87fffffffffffffffffffffffffffffffffffffffffffffffffffffffffffffffff82611c9b565b611ce28683611c9b565b95508019841693508086168417925050509392505050565b6000819050919050565b6000611d1f611d1a611d158461146f565b611cfa565b61146f565b9050919050565b6000819050919050565b611d3983611d04565b611d4d611d4582611d26565b848454611ca8565b825550505050565b600090565b611d62611d55565b611d6d818484611d30565b505050565b5b81811015611d9157611d86600082611d5a565b600181019050611d73565b5050565b601f821115611dd657611da781611c76565b611db084611c8b565b81016020851015611dbf578190505b611dd3611dcb85611c8b565b830182611d72565b50505b505050565b600082821c905092915050565b6000611df960001984600802611ddb565b1980831691505092915050565b6000611e128383611de8565b9150826002028217905092915050565b611e2b826115c4565b67ffffffffffffffff811115611e4457611e4361178e565b5b611e4e82546119bf565b611e59828285611d95565b600060209050601f831160018114611e8c5760008415611e7a578287015190505b611e848582611e06565b865550611eec565b601f198416611e9a86611c76565b60005b82811015611ec257848901518255600182019150602085019450602081019050611e9d565b86831015611edf5784890151611edb601f891682611de8565b8355505b6001600288020188555050505b505050505050565b6000611eff8261146f565b91507fffffffffffffffffffffffffffffffffffffffffffffffffffffffffffffffff8203611f3157611f30611a1f565b5b600182019050919050565b60008160000b9050919050565b6000611f5482611f3c565b9150611f5f83611f3c565b92508282039050607f81137fffffffffffffffffffffffffffffffffffffffffffffffffffffffffffffff8082121715611f9c57611f9b611a1f565b5b92915050565b6000611fad82611654565b9150611fb883611654565b925082820190508281121560008312168382126000841215161715611fe057611fdf611a1f565b5b92915050565b6000611ff182611f3c565b9150611ffc83611f3c565b925082820261200a81611f3c565b915080821461201c5761201b611a1f565b5b5092915050565b600061202e82611f3c565b915061203983611f3c565b925082820190507fffffffffffffffffffffffffffffffffffffffffffffffffffffffffffffff808112607f8213171561207657612075611a1f565b5b92915050565b600061208782611654565b915061209283611654565b92508282039050818112600084121682821360008512151617156120b9576120b8611a1f565b5b92915050565b7f4e487b7100000000000000000000000000000000000000000000000000000000600052601260045260246000fd5b60006120f982611654565b915061210483611654565b925082612114576121136120bf565b5b600160000383147f80000000000000000000000000000000000000000000000000000000000000008314161561214d5761214c611a1f565b5b828205905092915050565b60006121638261146f565b915061216e8361146f565b92508261217e5761217d6120bf565b5b82820490509291505056fea2646970667358221220286dfb379c1b06b4603971045ff1fc6e1de83d2687f31e695bb57e9e1399c23e64736f6c634300081c0033",
  "linkReferences": {},
  "deployedLinkReferences": {}
}